{"@creds-protocol/contracts/CredsIssuer.sol":{"CredsIssuer":{"abi":[{"inputs":[{"components":[{"internalType":"address","name":"contractAddress","type":"address"},{"internalType":"uint256","name":"merkleTreeDepth","type":"uint256"}],"internalType":"struct ICredential.Verifier[]","name":"_verifiers","type":"tuple[]"},{"internalType":"address","name":"_issuer","type":"address"},{"internalType":"string","name":"_issuerName","type":"string"},{"internalType":"string","name":"_issuerSymbol","type":"string"}],"stateMutability":"nonpayable","type":"constructor"},{"inputs":[],"name":"Credential__CallerIsNotTheCredIssuer","type":"error"},{"inputs":[],"name":"Credential__CredAlreadyExists","type":"error"},{"inputs":[],"name":"Credential__CredDoesNotExist","type":"error"},{"inputs":[],"name":"Credential__CredIdIsNotLessThanSnarkScalarField","type":"error"},{"inputs":[],"name":"Credential__MerkleTreeDepthIsNotSupported","type":"error"},{"inputs":[],"name":"Credential__MerkleTreeRootIsExpired","type":"error"},{"inputs":[],"name":"Credential__MerkleTreeRootIsNotPartOfTheCred","type":"error"},{"inputs":[],"name":"Credential__YouAreUsingTheSameNillifierTwice","type":"error"},{"anonymous":false,"inputs":[{"indexed":true,"internalType":"address","name":"issuer","type":"address"},{"indexed":true,"internalType":"uint256","name":"credId","type":"uint256"},{"indexed":false,"internalType":"uint256","name":"merkleTreeDepth","type":"uint256"},{"indexed":false,"internalType":"uint256","name":"zeroValue","type":"uint256"}],"name":"CredCreated","type":"event"},{"anonymous":false,"inputs":[{"indexed":true,"internalType":"uint256","name":"credId","type":"uint256"},{"indexed":false,"internalType":"uint256","name":"index","type":"uint256"},{"indexed":false,"internalType":"uint256","name":"identityCommitment","type":"uint256"},{"indexed":false,"internalType":"uint256","name":"merkleTreeRoot","type":"uint256"}],"name":"IdentityAdded","type":"event"},{"anonymous":false,"inputs":[{"indexed":true,"internalType":"uint256","name":"credId","type":"uint256"},{"indexed":false,"internalType":"uint256","name":"index","type":"uint256"},{"indexed":false,"internalType":"uint256","name":"identityCommitment","type":"uint256"},{"indexed":false,"internalType":"uint256","name":"merkleTreeRoot","type":"uint256"}],"name":"IdentityRemoved","type":"event"},{"anonymous":false,"inputs":[{"indexed":true,"internalType":"uint256","name":"credId","type":"uint256"},{"indexed":false,"internalType":"uint256","name":"index","type":"uint256"},{"indexed":false,"internalType":"uint256","name":"identityCommitment","type":"uint256"},{"indexed":false,"internalType":"uint256","name":"newIdentityCommitment","type":"uint256"},{"indexed":false,"internalType":"uint256","name":"merkleTreeRoot","type":"uint256"}],"name":"IdentityUpdated","type":"event"},{"anonymous":false,"inputs":[{"indexed":false,"internalType":"uint256","name":"nullifierHash","type":"uint256"}],"name":"NullifierHashAdded","type":"event"},{"anonymous":false,"inputs":[{"indexed":true,"internalType":"uint256","name":"credId","type":"uint256"},{"indexed":false,"internalType":"uint256","name":"merkleTreeRoot","type":"uint256"},{"indexed":false,"internalType":"uint256","name":"externalNullifier","type":"uint256"},{"indexed":false,"internalType":"uint256","name":"nullifierHash","type":"uint256"},{"indexed":false,"internalType":"bytes32","name":"signal","type":"bytes32"}],"name":"ProofVerified","type":"event"},{"anonymous":false,"inputs":[{"indexed":true,"internalType":"address","name":"issuerAddress","type":"address"},{"indexed":true,"internalType":"string","name":"issuerName","type":"string"},{"indexed":true,"internalType":"string","name":"issuerSymbol","type":"string"}],"name":"issuerRegistered","type":"event"},{"inputs":[{"internalType":"uint256","name":"","type":"uint256"}],"name":"creds","outputs":[{"internalType":"address","name":"admin","type":"address"},{"internalType":"string","name":"credURI","type":"string"},{"internalType":"uint256","name":"merkleRootDuration","type":"uint256"}],"stateMutability":"view","type":"function"},{"inputs":[],"name":"credsIssuedCount","outputs":[{"internalType":"uint256","name":"","type":"uint256"}],"stateMutability":"view","type":"function"},{"inputs":[],"name":"credsIssuer","outputs":[{"internalType":"address","name":"","type":"address"}],"stateMutability":"view","type":"function"},{"inputs":[],"name":"credsProtocolRegistry","outputs":[{"internalType":"address","name":"","type":"address"}],"stateMutability":"view","type":"function"},{"inputs":[{"internalType":"uint256","name":"credID","type":"uint256"}],"name":"getMerkleTreeDepth","outputs":[{"internalType":"uint256","name":"","type":"uint256"}],"stateMutability":"view","type":"function"},{"inputs":[{"internalType":"uint256","name":"credID","type":"uint256"}],"name":"getMerkleTreeRoot","outputs":[{"internalType":"uint256","name":"","type":"uint256"}],"stateMutability":"view","type":"function"},{"inputs":[{"internalType":"uint256","name":"credID","type":"uint256"}],"name":"getNumberOfMerkleTreeLeaves","outputs":[{"internalType":"uint256","name":"","type":"uint256"}],"stateMutability":"view","type":"function"},{"inputs":[],"name":"issuerName","outputs":[{"internalType":"string","name":"","type":"string"}],"stateMutability":"view","type":"function"},{"inputs":[],"name":"issuerSymbol","outputs":[{"internalType":"string","name":"","type":"string"}],"stateMutability":"view","type":"function"},{"inputs":[{"internalType":"uint256","name":"","type":"uint256"}],"name":"verifiers","outputs":[{"internalType":"contract IVerifier","name":"","type":"address"}],"stateMutability":"view","type":"function"}],"devdoc":{"kind":"dev","methods":{"constructor":{"details":"Initializes the Credential verifiers used to verify the user's ZK proofs.","params":{"_verifiers":": List of Credential verifiers (address and related Merkle tree depth)."}},"getMerkleTreeDepth(uint256)":{"details":"See {ICredentialCreds-getMerkleTreeDepth}."},"getMerkleTreeRoot(uint256)":{"details":"See {ICredentialCreds-getMerkleTreeRoot}."},"getNumberOfMerkleTreeLeaves(uint256)":{"details":"See {ICredentialCreds-getNumberOfMerkleTreeLeaves}."}},"stateVariables":{"creds":{"details":"Gets a cred id and returns the cred parameters."},"verifiers":{"details":"Gets a tree depth and returns its verifier address."}},"title":"CredsIssuer","version":1},"evm":{"bytecode":{"linkReferences":{},"object":"608060405273414b893562f46f5180971c3389784a447581b2d3600560006101000a81548173ffffffffffffffffffffffffffffffffffffffff021916908373ffffffffffffffffffffffffffffffffffffffff1602179055503480156200006657600080fd5b506040516200108d3803806200108d83398181016040528101906200008c919062000553565b60005b84518160ff1610156200018a57848160ff1681518110620000d9577f4e487b7100000000000000000000000000000000000000000000000000000000600052603260045260246000fd5b60200260200101516000015160066000878460ff168151811062000126577f4e487b7100000000000000000000000000000000000000000000000000000000600052603260045260246000fd5b602002602001015160200151815260200190815260200160002060006101000a81548173ffffffffffffffffffffffffffffffffffffffff021916908373ffffffffffffffffffffffffffffffffffffffff1602179055508060010190506200008f565b5082600160006101000a81548173ffffffffffffffffffffffffffffffffffffffff021916908373ffffffffffffffffffffffffffffffffffffffff1602179055508160029080519060200190620001e49291906200030e565b508060039080519060200190620001fd9291906200030e565b50600560009054906101000a900473ffffffffffffffffffffffffffffffffffffffff1673ffffffffffffffffffffffffffffffffffffffff1663c2551c8284306040518363ffffffff1660e01b81526004016200025d9291906200066b565b600060405180830381600087803b1580156200027857600080fd5b505af11580156200028d573d6000803e3d6000fd5b5050505080604051620002a1919062000652565b604051809103902082604051620002b9919062000652565b60405180910390208473ffffffffffffffffffffffffffffffffffffffff167ff51d47712d8574bf3715cf1db64ebb5a5c264fe57ff450433484f786f742ecec60405160405180910390a450505050620008bf565b8280546200031c90620007b0565b90600052602060002090601f0160209004810192826200034057600085556200038c565b82601f106200035b57805160ff19168380011785556200038c565b828001600101855582156200038c579182015b828111156200038b5782518255916020019190600101906200036e565b5b5090506200039b91906200039f565b5090565b5b80821115620003ba576000816000905550600101620003a0565b5090565b6000620003d5620003cf84620006c1565b62000698565b90508083825260208201905082856040860282011115620003f557600080fd5b60005b858110156200042957816200040e8882620004e9565b845260208401935060408301925050600181019050620003f8565b5050509392505050565b60006200044a6200044484620006f0565b62000698565b9050828152602081018484840111156200046357600080fd5b620004708482856200077a565b509392505050565b60008151905062000489816200088b565b92915050565b600082601f830112620004a157600080fd5b8151620004b3848260208601620003be565b91505092915050565b600082601f830112620004ce57600080fd5b8151620004e084826020860162000433565b91505092915050565b600060408284031215620004fc57600080fd5b62000508604062000698565b905060006200051a8482850162000478565b600083015250602062000530848285016200053c565b60208301525092915050565b6000815190506200054d81620008a5565b92915050565b600080600080608085870312156200056a57600080fd5b600085015167ffffffffffffffff8111156200058557600080fd5b62000593878288016200048f565b9450506020620005a68782880162000478565b935050604085015167ffffffffffffffff811115620005c457600080fd5b620005d287828801620004bc565b925050606085015167ffffffffffffffff811115620005f057600080fd5b620005fe87828801620004bc565b91505092959194509250565b62000615816200073c565b82525050565b6000620006288262000726565b62000634818562000731565b9350620006468185602086016200077a565b80840191505092915050565b60006200066082846200061b565b915081905092915050565b60006040820190506200068260008301856200060a565b6200069160208301846200060a565b9392505050565b6000620006a4620006b7565b9050620006b28282620007e6565b919050565b6000604051905090565b600067ffffffffffffffff821115620006df57620006de6200084b565b5b602082029050602081019050919050565b600067ffffffffffffffff8211156200070e576200070d6200084b565b5b62000719826200087a565b9050602081019050919050565b600081519050919050565b600081905092915050565b6000620007498262000750565b9050919050565b600073ffffffffffffffffffffffffffffffffffffffff82169050919050565b6000819050919050565b60005b838110156200079a5780820151818401526020810190506200077d565b83811115620007aa576000848401525b50505050565b60006002820490506001821680620007c957607f821691505b60208210811415620007e057620007df6200081c565b5b50919050565b620007f1826200087a565b810181811067ffffffffffffffff821117156200081357620008126200084b565b5b80604052505050565b7f4e487b7100000000000000000000000000000000000000000000000000000000600052602260045260246000fd5b7f4e487b7100000000000000000000000000000000000000000000000000000000600052604160045260246000fd5b6000601f19601f8301169050919050565b62000896816200073c565b8114620008a257600080fd5b50565b620008b08162000770565b8114620008bc57600080fd5b50565b6107be80620008cf6000396000f3fe608060405234801561001057600080fd5b506004361061009e5760003560e01c806381cc7a451161006657806381cc7a451461015d578063ac1eff681461018f578063c308dd5b146101bf578063dabc4d51146101dd578063eb4961061461020d5761009e565b80632e9868f8146100a3578063439d7275146100c15780634ce39ead146100df578063638480be146100fd5780636389e1071461012d575b600080fd5b6100ab61022b565b6040516100b89190610613565b60405180910390f35b6100c96102b9565b6040516100d69190610613565b60405180910390f35b6100e7610347565b6040516100f4919061059f565b60405180910390f35b61011760048036038101906101129190610510565b61036d565b6040516101249190610635565b60405180910390f35b61014760048036038101906101429190610510565b61038c565b6040516101549190610635565b60405180910390f35b61017760048036038101906101729190610510565b6103ab565b604051610186939291906105ba565b60405180910390f35b6101a960048036038101906101a49190610510565b61047d565b6040516101b691906105f8565b60405180910390f35b6101c76104b0565b6040516101d4919061059f565b60405180910390f35b6101f760048036038101906101f29190610510565b6104d6565b6040516102049190610635565b60405180910390f35b6102156104f5565b6040516102229190610635565b60405180910390f35b60028054610238906106ff565b80601f0160208091040260200160405190810160405280929190818152602001828054610264906106ff565b80156102b15780601f10610286576101008083540402835291602001916102b1565b820191906000526020600020905b81548152906001019060200180831161029457829003601f168201915b505050505081565b600380546102c6906106ff565b80601f01602080910402602001604051908101604052809291908181526020018280546102f2906106ff565b801561033f5780601f106103145761010080835404028352916020019161033f565b820191906000526020600020905b81548152906001019060200180831161032257829003601f168201915b505050505081565b600160009054906101000a900473ffffffffffffffffffffffffffffffffffffffff1681565b6000806000838152602001908152602001600020600201549050919050565b6000806000838152602001908152602001600020600001549050919050565b60076020528060005260406000206000915090508060000160009054906101000a900473ffffffffffffffffffffffffffffffffffffffff16908060010180546103f4906106ff565b80601f0160208091040260200160405190810160405280929190818152602001828054610420906106ff565b801561046d5780601f106104425761010080835404028352916020019161046d565b820191906000526020600020905b81548152906001019060200180831161045057829003601f168201915b5050505050908060020154905083565b60066020528060005260406000206000915054906101000a900473ffffffffffffffffffffffffffffffffffffffff1681565b600560009054906101000a900473ffffffffffffffffffffffffffffffffffffffff1681565b6000806000838152602001908152602001600020600101549050919050565b60045481565b60008135905061050a81610771565b92915050565b60006020828403121561052257600080fd5b6000610530848285016104fb565b91505092915050565b6105428161066c565b82525050565b610551816106a8565b82525050565b600061056282610650565b61056c818561065b565b935061057c8185602086016106cc565b61058581610760565b840191505092915050565b6105998161069e565b82525050565b60006020820190506105b46000830184610539565b92915050565b60006060820190506105cf6000830186610539565b81810360208301526105e18185610557565b90506105f06040830184610590565b949350505050565b600060208201905061060d6000830184610548565b92915050565b6000602082019050818103600083015261062d8184610557565b905092915050565b600060208201905061064a6000830184610590565b92915050565b600081519050919050565b600082825260208201905092915050565b60006106778261067e565b9050919050565b600073ffffffffffffffffffffffffffffffffffffffff82169050919050565b6000819050919050565b60006106b3826106ba565b9050919050565b60006106c58261067e565b9050919050565b60005b838110156106ea5780820151818401526020810190506106cf565b838111156106f9576000848401525b50505050565b6000600282049050600182168061071757607f821691505b6020821081141561072b5761072a610731565b5b50919050565b7f4e487b7100000000000000000000000000000000000000000000000000000000600052602260045260246000fd5b6000601f19601f8301169050919050565b61077a8161069e565b811461078557600080fd5b5056fea2646970667358221220228c69a32122cdde17feca1d3cf63991a34186848c1b8d81563138fe185179aa64736f6c63430008040033","opcodes":"PUSH1 0x80 PUSH1 0x40 MSTORE PUSH20 0x414B893562F46F5180971C3389784A447581B2D3 PUSH1 0x5 PUSH1 0x0 PUSH2 0x100 EXP DUP2 SLOAD DUP2 PUSH20 0xFFFFFFFFFFFFFFFFFFFFFFFFFFFFFFFFFFFFFFFF MUL NOT AND SWAP1 DUP4 PUSH20 0xFFFFFFFFFFFFFFFFFFFFFFFFFFFFFFFFFFFFFFFF AND MUL OR SWAP1 SSTORE POP CALLVALUE DUP1 ISZERO PUSH3 0x66 JUMPI PUSH1 0x0 DUP1 REVERT JUMPDEST POP PUSH1 0x40 MLOAD PUSH3 0x108D CODESIZE SUB DUP1 PUSH3 0x108D DUP4 CODECOPY DUP2 DUP2 ADD PUSH1 0x40 MSTORE DUP2 ADD SWAP1 PUSH3 0x8C SWAP2 SWAP1 PUSH3 0x553 JUMP JUMPDEST PUSH1 0x0 JUMPDEST DUP5 MLOAD DUP2 PUSH1 0xFF AND LT ISZERO PUSH3 0x18A JUMPI DUP5 DUP2 PUSH1 0xFF AND DUP2 MLOAD DUP2 LT PUSH3 0xD9 JUMPI PUSH32 0x4E487B7100000000000000000000000000000000000000000000000000000000 PUSH1 0x0 MSTORE PUSH1 0x32 PUSH1 0x4 MSTORE PUSH1 0x24 PUSH1 0x0 REVERT JUMPDEST PUSH1 0x20 MUL PUSH1 0x20 ADD ADD MLOAD PUSH1 0x0 ADD MLOAD PUSH1 0x6 PUSH1 0x0 DUP8 DUP5 PUSH1 0xFF AND DUP2 MLOAD DUP2 LT PUSH3 0x126 JUMPI PUSH32 0x4E487B7100000000000000000000000000000000000000000000000000000000 PUSH1 0x0 MSTORE PUSH1 0x32 PUSH1 0x4 MSTORE PUSH1 0x24 PUSH1 0x0 REVERT JUMPDEST PUSH1 0x20 MUL PUSH1 0x20 ADD ADD MLOAD PUSH1 0x20 ADD MLOAD DUP2 MSTORE PUSH1 0x20 ADD SWAP1 DUP2 MSTORE PUSH1 0x20 ADD PUSH1 0x0 KECCAK256 PUSH1 0x0 PUSH2 0x100 EXP DUP2 SLOAD DUP2 PUSH20 0xFFFFFFFFFFFFFFFFFFFFFFFFFFFFFFFFFFFFFFFF MUL NOT AND SWAP1 DUP4 PUSH20 0xFFFFFFFFFFFFFFFFFFFFFFFFFFFFFFFFFFFFFFFF AND MUL OR SWAP1 SSTORE POP DUP1 PUSH1 0x1 ADD SWAP1 POP PUSH3 0x8F JUMP JUMPDEST POP DUP3 PUSH1 0x1 PUSH1 0x0 PUSH2 0x100 EXP DUP2 SLOAD DUP2 PUSH20 0xFFFFFFFFFFFFFFFFFFFFFFFFFFFFFFFFFFFFFFFF MUL NOT AND SWAP1 DUP4 PUSH20 0xFFFFFFFFFFFFFFFFFFFFFFFFFFFFFFFFFFFFFFFF AND MUL OR SWAP1 SSTORE POP DUP2 PUSH1 0x2 SWAP1 DUP1 MLOAD SWAP1 PUSH1 0x20 ADD SWAP1 PUSH3 0x1E4 SWAP3 SWAP2 SWAP1 PUSH3 0x30E JUMP JUMPDEST POP DUP1 PUSH1 0x3 SWAP1 DUP1 MLOAD SWAP1 PUSH1 0x20 ADD SWAP1 PUSH3 0x1FD SWAP3 SWAP2 SWAP1 PUSH3 0x30E JUMP JUMPDEST POP PUSH1 0x5 PUSH1 0x0 SWAP1 SLOAD SWAP1 PUSH2 0x100 EXP SWAP1 DIV PUSH20 0xFFFFFFFFFFFFFFFFFFFFFFFFFFFFFFFFFFFFFFFF AND PUSH20 0xFFFFFFFFFFFFFFFFFFFFFFFFFFFFFFFFFFFFFFFF AND PUSH4 0xC2551C82 DUP5 ADDRESS PUSH1 0x40 MLOAD DUP4 PUSH4 0xFFFFFFFF AND PUSH1 0xE0 SHL DUP2 MSTORE PUSH1 0x4 ADD PUSH3 0x25D SWAP3 SWAP2 SWAP1 PUSH3 0x66B JUMP JUMPDEST PUSH1 0x0 PUSH1 0x40 MLOAD DUP1 DUP4 SUB DUP2 PUSH1 0x0 DUP8 DUP1 EXTCODESIZE ISZERO DUP1 ISZERO PUSH3 0x278 JUMPI PUSH1 0x0 DUP1 REVERT JUMPDEST POP GAS CALL ISZERO DUP1 ISZERO PUSH3 0x28D JUMPI RETURNDATASIZE PUSH1 0x0 DUP1 RETURNDATACOPY RETURNDATASIZE PUSH1 0x0 REVERT JUMPDEST POP POP POP POP DUP1 PUSH1 0x40 MLOAD PUSH3 0x2A1 SWAP2 SWAP1 PUSH3 0x652 JUMP JUMPDEST PUSH1 0x40 MLOAD DUP1 SWAP2 SUB SWAP1 KECCAK256 DUP3 PUSH1 0x40 MLOAD PUSH3 0x2B9 SWAP2 SWAP1 PUSH3 0x652 JUMP JUMPDEST PUSH1 0x40 MLOAD DUP1 SWAP2 SUB SWAP1 KECCAK256 DUP5 PUSH20 0xFFFFFFFFFFFFFFFFFFFFFFFFFFFFFFFFFFFFFFFF AND PUSH32 0xF51D47712D8574BF3715CF1DB64EBB5A5C264FE57FF450433484F786F742ECEC PUSH1 0x40 MLOAD PUSH1 0x40 MLOAD DUP1 SWAP2 SUB SWAP1 LOG4 POP POP POP POP PUSH3 0x8BF JUMP JUMPDEST DUP3 DUP1 SLOAD PUSH3 0x31C SWAP1 PUSH3 0x7B0 JUMP JUMPDEST SWAP1 PUSH1 0x0 MSTORE PUSH1 0x20 PUSH1 0x0 KECCAK256 SWAP1 PUSH1 0x1F ADD PUSH1 0x20 SWAP1 DIV DUP2 ADD SWAP3 DUP3 PUSH3 0x340 JUMPI PUSH1 0x0 DUP6 SSTORE PUSH3 0x38C JUMP JUMPDEST DUP3 PUSH1 0x1F LT PUSH3 0x35B JUMPI DUP1 MLOAD PUSH1 0xFF NOT AND DUP4 DUP1 ADD OR DUP6 SSTORE PUSH3 0x38C JUMP JUMPDEST DUP3 DUP1 ADD PUSH1 0x1 ADD DUP6 SSTORE DUP3 ISZERO PUSH3 0x38C JUMPI SWAP2 DUP3 ADD JUMPDEST DUP3 DUP2 GT ISZERO PUSH3 0x38B JUMPI DUP3 MLOAD DUP3 SSTORE SWAP2 PUSH1 0x20 ADD SWAP2 SWAP1 PUSH1 0x1 ADD SWAP1 PUSH3 0x36E JUMP JUMPDEST JUMPDEST POP SWAP1 POP PUSH3 0x39B SWAP2 SWAP1 PUSH3 0x39F JUMP JUMPDEST POP SWAP1 JUMP JUMPDEST JUMPDEST DUP1 DUP3 GT ISZERO PUSH3 0x3BA JUMPI PUSH1 0x0 DUP2 PUSH1 0x0 SWAP1 SSTORE POP PUSH1 0x1 ADD PUSH3 0x3A0 JUMP JUMPDEST POP SWAP1 JUMP JUMPDEST PUSH1 0x0 PUSH3 0x3D5 PUSH3 0x3CF DUP5 PUSH3 0x6C1 JUMP JUMPDEST PUSH3 0x698 JUMP JUMPDEST SWAP1 POP DUP1 DUP4 DUP3 MSTORE PUSH1 0x20 DUP3 ADD SWAP1 POP DUP3 DUP6 PUSH1 0x40 DUP7 MUL DUP3 ADD GT ISZERO PUSH3 0x3F5 JUMPI PUSH1 0x0 DUP1 REVERT JUMPDEST PUSH1 0x0 JUMPDEST DUP6 DUP2 LT ISZERO PUSH3 0x429 JUMPI DUP2 PUSH3 0x40E DUP9 DUP3 PUSH3 0x4E9 JUMP JUMPDEST DUP5 MSTORE PUSH1 0x20 DUP5 ADD SWAP4 POP PUSH1 0x40 DUP4 ADD SWAP3 POP POP PUSH1 0x1 DUP2 ADD SWAP1 POP PUSH3 0x3F8 JUMP JUMPDEST POP POP POP SWAP4 SWAP3 POP POP POP JUMP JUMPDEST PUSH1 0x0 PUSH3 0x44A PUSH3 0x444 DUP5 PUSH3 0x6F0 JUMP JUMPDEST PUSH3 0x698 JUMP JUMPDEST SWAP1 POP DUP3 DUP2 MSTORE PUSH1 0x20 DUP2 ADD DUP5 DUP5 DUP5 ADD GT ISZERO PUSH3 0x463 JUMPI PUSH1 0x0 DUP1 REVERT JUMPDEST PUSH3 0x470 DUP5 DUP3 DUP6 PUSH3 0x77A JUMP JUMPDEST POP SWAP4 SWAP3 POP POP POP JUMP JUMPDEST PUSH1 0x0 DUP2 MLOAD SWAP1 POP PUSH3 0x489 DUP2 PUSH3 0x88B JUMP JUMPDEST SWAP3 SWAP2 POP POP JUMP JUMPDEST PUSH1 0x0 DUP3 PUSH1 0x1F DUP4 ADD SLT PUSH3 0x4A1 JUMPI PUSH1 0x0 DUP1 REVERT JUMPDEST DUP2 MLOAD PUSH3 0x4B3 DUP5 DUP3 PUSH1 0x20 DUP7 ADD PUSH3 0x3BE JUMP JUMPDEST SWAP2 POP POP SWAP3 SWAP2 POP POP JUMP JUMPDEST PUSH1 0x0 DUP3 PUSH1 0x1F DUP4 ADD SLT PUSH3 0x4CE JUMPI PUSH1 0x0 DUP1 REVERT JUMPDEST DUP2 MLOAD PUSH3 0x4E0 DUP5 DUP3 PUSH1 0x20 DUP7 ADD PUSH3 0x433 JUMP JUMPDEST SWAP2 POP POP SWAP3 SWAP2 POP POP JUMP JUMPDEST PUSH1 0x0 PUSH1 0x40 DUP3 DUP5 SUB SLT ISZERO PUSH3 0x4FC JUMPI PUSH1 0x0 DUP1 REVERT JUMPDEST PUSH3 0x508 PUSH1 0x40 PUSH3 0x698 JUMP JUMPDEST SWAP1 POP PUSH1 0x0 PUSH3 0x51A DUP5 DUP3 DUP6 ADD PUSH3 0x478 JUMP JUMPDEST PUSH1 0x0 DUP4 ADD MSTORE POP PUSH1 0x20 PUSH3 0x530 DUP5 DUP3 DUP6 ADD PUSH3 0x53C JUMP JUMPDEST PUSH1 0x20 DUP4 ADD MSTORE POP SWAP3 SWAP2 POP POP JUMP JUMPDEST PUSH1 0x0 DUP2 MLOAD SWAP1 POP PUSH3 0x54D DUP2 PUSH3 0x8A5 JUMP JUMPDEST SWAP3 SWAP2 POP POP JUMP JUMPDEST PUSH1 0x0 DUP1 PUSH1 0x0 DUP1 PUSH1 0x80 DUP6 DUP8 SUB SLT ISZERO PUSH3 0x56A JUMPI PUSH1 0x0 DUP1 REVERT JUMPDEST PUSH1 0x0 DUP6 ADD MLOAD PUSH8 0xFFFFFFFFFFFFFFFF DUP2 GT ISZERO PUSH3 0x585 JUMPI PUSH1 0x0 DUP1 REVERT JUMPDEST PUSH3 0x593 DUP8 DUP3 DUP9 ADD PUSH3 0x48F JUMP JUMPDEST SWAP5 POP POP PUSH1 0x20 PUSH3 0x5A6 DUP8 DUP3 DUP9 ADD PUSH3 0x478 JUMP JUMPDEST SWAP4 POP POP PUSH1 0x40 DUP6 ADD MLOAD PUSH8 0xFFFFFFFFFFFFFFFF DUP2 GT ISZERO PUSH3 0x5C4 JUMPI PUSH1 0x0 DUP1 REVERT JUMPDEST PUSH3 0x5D2 DUP8 DUP3 DUP9 ADD PUSH3 0x4BC JUMP JUMPDEST SWAP3 POP POP PUSH1 0x60 DUP6 ADD MLOAD PUSH8 0xFFFFFFFFFFFFFFFF DUP2 GT ISZERO PUSH3 0x5F0 JUMPI PUSH1 0x0 DUP1 REVERT JUMPDEST PUSH3 0x5FE DUP8 DUP3 DUP9 ADD PUSH3 0x4BC JUMP JUMPDEST SWAP2 POP POP SWAP3 SWAP6 SWAP2 SWAP5 POP SWAP3 POP JUMP JUMPDEST PUSH3 0x615 DUP2 PUSH3 0x73C JUMP JUMPDEST DUP3 MSTORE POP POP JUMP JUMPDEST PUSH1 0x0 PUSH3 0x628 DUP3 PUSH3 0x726 JUMP JUMPDEST PUSH3 0x634 DUP2 DUP6 PUSH3 0x731 JUMP JUMPDEST SWAP4 POP PUSH3 0x646 DUP2 DUP6 PUSH1 0x20 DUP7 ADD PUSH3 0x77A JUMP JUMPDEST DUP1 DUP5 ADD SWAP2 POP POP SWAP3 SWAP2 POP POP JUMP JUMPDEST PUSH1 0x0 PUSH3 0x660 DUP3 DUP5 PUSH3 0x61B JUMP JUMPDEST SWAP2 POP DUP2 SWAP1 POP SWAP3 SWAP2 POP POP JUMP JUMPDEST PUSH1 0x0 PUSH1 0x40 DUP3 ADD SWAP1 POP PUSH3 0x682 PUSH1 0x0 DUP4 ADD DUP6 PUSH3 0x60A JUMP JUMPDEST PUSH3 0x691 PUSH1 0x20 DUP4 ADD DUP5 PUSH3 0x60A JUMP JUMPDEST SWAP4 SWAP3 POP POP POP JUMP JUMPDEST PUSH1 0x0 PUSH3 0x6A4 PUSH3 0x6B7 JUMP JUMPDEST SWAP1 POP PUSH3 0x6B2 DUP3 DUP3 PUSH3 0x7E6 JUMP JUMPDEST SWAP2 SWAP1 POP JUMP JUMPDEST PUSH1 0x0 PUSH1 0x40 MLOAD SWAP1 POP SWAP1 JUMP JUMPDEST PUSH1 0x0 PUSH8 0xFFFFFFFFFFFFFFFF DUP3 GT ISZERO PUSH3 0x6DF JUMPI PUSH3 0x6DE PUSH3 0x84B JUMP JUMPDEST JUMPDEST PUSH1 0x20 DUP3 MUL SWAP1 POP PUSH1 0x20 DUP2 ADD SWAP1 POP SWAP2 SWAP1 POP JUMP JUMPDEST PUSH1 0x0 PUSH8 0xFFFFFFFFFFFFFFFF DUP3 GT ISZERO PUSH3 0x70E JUMPI PUSH3 0x70D PUSH3 0x84B JUMP JUMPDEST JUMPDEST PUSH3 0x719 DUP3 PUSH3 0x87A JUMP JUMPDEST SWAP1 POP PUSH1 0x20 DUP2 ADD SWAP1 POP SWAP2 SWAP1 POP JUMP JUMPDEST PUSH1 0x0 DUP2 MLOAD SWAP1 POP SWAP2 SWAP1 POP JUMP JUMPDEST PUSH1 0x0 DUP2 SWAP1 POP SWAP3 SWAP2 POP POP JUMP JUMPDEST PUSH1 0x0 PUSH3 0x749 DUP3 PUSH3 0x750 JUMP JUMPDEST SWAP1 POP SWAP2 SWAP1 POP JUMP JUMPDEST PUSH1 0x0 PUSH20 0xFFFFFFFFFFFFFFFFFFFFFFFFFFFFFFFFFFFFFFFF DUP3 AND SWAP1 POP SWAP2 SWAP1 POP JUMP JUMPDEST PUSH1 0x0 DUP2 SWAP1 POP SWAP2 SWAP1 POP JUMP JUMPDEST PUSH1 0x0 JUMPDEST DUP4 DUP2 LT ISZERO PUSH3 0x79A JUMPI DUP1 DUP3 ADD MLOAD DUP2 DUP5 ADD MSTORE PUSH1 0x20 DUP2 ADD SWAP1 POP PUSH3 0x77D JUMP JUMPDEST DUP4 DUP2 GT ISZERO PUSH3 0x7AA JUMPI PUSH1 0x0 DUP5 DUP5 ADD MSTORE JUMPDEST POP POP POP POP JUMP JUMPDEST PUSH1 0x0 PUSH1 0x2 DUP3 DIV SWAP1 POP PUSH1 0x1 DUP3 AND DUP1 PUSH3 0x7C9 JUMPI PUSH1 0x7F DUP3 AND SWAP2 POP JUMPDEST PUSH1 0x20 DUP3 LT DUP2 EQ ISZERO PUSH3 0x7E0 JUMPI PUSH3 0x7DF PUSH3 0x81C JUMP JUMPDEST JUMPDEST POP SWAP2 SWAP1 POP JUMP JUMPDEST PUSH3 0x7F1 DUP3 PUSH3 0x87A JUMP JUMPDEST DUP2 ADD DUP2 DUP2 LT PUSH8 0xFFFFFFFFFFFFFFFF DUP3 GT OR ISZERO PUSH3 0x813 JUMPI PUSH3 0x812 PUSH3 0x84B JUMP JUMPDEST JUMPDEST DUP1 PUSH1 0x40 MSTORE POP POP POP JUMP JUMPDEST PUSH32 0x4E487B7100000000000000000000000000000000000000000000000000000000 PUSH1 0x0 MSTORE PUSH1 0x22 PUSH1 0x4 MSTORE PUSH1 0x24 PUSH1 0x0 REVERT JUMPDEST PUSH32 0x4E487B7100000000000000000000000000000000000000000000000000000000 PUSH1 0x0 MSTORE PUSH1 0x41 PUSH1 0x4 MSTORE PUSH1 0x24 PUSH1 0x0 REVERT JUMPDEST PUSH1 0x0 PUSH1 0x1F NOT PUSH1 0x1F DUP4 ADD AND SWAP1 POP SWAP2 SWAP1 POP JUMP JUMPDEST PUSH3 0x896 DUP2 PUSH3 0x73C JUMP JUMPDEST DUP2 EQ PUSH3 0x8A2 JUMPI PUSH1 0x0 DUP1 REVERT JUMPDEST POP JUMP JUMPDEST PUSH3 0x8B0 DUP2 PUSH3 0x770 JUMP JUMPDEST DUP2 EQ PUSH3 0x8BC JUMPI PUSH1 0x0 DUP1 REVERT JUMPDEST POP JUMP JUMPDEST PUSH2 0x7BE DUP1 PUSH3 0x8CF PUSH1 0x0 CODECOPY PUSH1 0x0 RETURN INVALID PUSH1 0x80 PUSH1 0x40 MSTORE CALLVALUE DUP1 ISZERO PUSH2 0x10 JUMPI PUSH1 0x0 DUP1 REVERT JUMPDEST POP PUSH1 0x4 CALLDATASIZE LT PUSH2 0x9E JUMPI PUSH1 0x0 CALLDATALOAD PUSH1 0xE0 SHR DUP1 PUSH4 0x81CC7A45 GT PUSH2 0x66 JUMPI DUP1 PUSH4 0x81CC7A45 EQ PUSH2 0x15D JUMPI DUP1 PUSH4 0xAC1EFF68 EQ PUSH2 0x18F JUMPI DUP1 PUSH4 0xC308DD5B EQ PUSH2 0x1BF JUMPI DUP1 PUSH4 0xDABC4D51 EQ PUSH2 0x1DD JUMPI DUP1 PUSH4 0xEB496106 EQ PUSH2 0x20D JUMPI PUSH2 0x9E JUMP JUMPDEST DUP1 PUSH4 0x2E9868F8 EQ PUSH2 0xA3 JUMPI DUP1 PUSH4 0x439D7275 EQ PUSH2 0xC1 JUMPI DUP1 PUSH4 0x4CE39EAD EQ PUSH2 0xDF JUMPI DUP1 PUSH4 0x638480BE EQ PUSH2 0xFD JUMPI DUP1 PUSH4 0x6389E107 EQ PUSH2 0x12D JUMPI JUMPDEST PUSH1 0x0 DUP1 REVERT JUMPDEST PUSH2 0xAB PUSH2 0x22B JUMP JUMPDEST PUSH1 0x40 MLOAD PUSH2 0xB8 SWAP2 SWAP1 PUSH2 0x613 JUMP JUMPDEST PUSH1 0x40 MLOAD DUP1 SWAP2 SUB SWAP1 RETURN JUMPDEST PUSH2 0xC9 PUSH2 0x2B9 JUMP JUMPDEST PUSH1 0x40 MLOAD PUSH2 0xD6 SWAP2 SWAP1 PUSH2 0x613 JUMP JUMPDEST PUSH1 0x40 MLOAD DUP1 SWAP2 SUB SWAP1 RETURN JUMPDEST PUSH2 0xE7 PUSH2 0x347 JUMP JUMPDEST PUSH1 0x40 MLOAD PUSH2 0xF4 SWAP2 SWAP1 PUSH2 0x59F JUMP JUMPDEST PUSH1 0x40 MLOAD DUP1 SWAP2 SUB SWAP1 RETURN JUMPDEST PUSH2 0x117 PUSH1 0x4 DUP1 CALLDATASIZE SUB DUP2 ADD SWAP1 PUSH2 0x112 SWAP2 SWAP1 PUSH2 0x510 JUMP JUMPDEST PUSH2 0x36D JUMP JUMPDEST PUSH1 0x40 MLOAD PUSH2 0x124 SWAP2 SWAP1 PUSH2 0x635 JUMP JUMPDEST PUSH1 0x40 MLOAD DUP1 SWAP2 SUB SWAP1 RETURN JUMPDEST PUSH2 0x147 PUSH1 0x4 DUP1 CALLDATASIZE SUB DUP2 ADD SWAP1 PUSH2 0x142 SWAP2 SWAP1 PUSH2 0x510 JUMP JUMPDEST PUSH2 0x38C JUMP JUMPDEST PUSH1 0x40 MLOAD PUSH2 0x154 SWAP2 SWAP1 PUSH2 0x635 JUMP JUMPDEST PUSH1 0x40 MLOAD DUP1 SWAP2 SUB SWAP1 RETURN JUMPDEST PUSH2 0x177 PUSH1 0x4 DUP1 CALLDATASIZE SUB DUP2 ADD SWAP1 PUSH2 0x172 SWAP2 SWAP1 PUSH2 0x510 JUMP JUMPDEST PUSH2 0x3AB JUMP JUMPDEST PUSH1 0x40 MLOAD PUSH2 0x186 SWAP4 SWAP3 SWAP2 SWAP1 PUSH2 0x5BA JUMP JUMPDEST PUSH1 0x40 MLOAD DUP1 SWAP2 SUB SWAP1 RETURN JUMPDEST PUSH2 0x1A9 PUSH1 0x4 DUP1 CALLDATASIZE SUB DUP2 ADD SWAP1 PUSH2 0x1A4 SWAP2 SWAP1 PUSH2 0x510 JUMP JUMPDEST PUSH2 0x47D JUMP JUMPDEST PUSH1 0x40 MLOAD PUSH2 0x1B6 SWAP2 SWAP1 PUSH2 0x5F8 JUMP JUMPDEST PUSH1 0x40 MLOAD DUP1 SWAP2 SUB SWAP1 RETURN JUMPDEST PUSH2 0x1C7 PUSH2 0x4B0 JUMP JUMPDEST PUSH1 0x40 MLOAD PUSH2 0x1D4 SWAP2 SWAP1 PUSH2 0x59F JUMP JUMPDEST PUSH1 0x40 MLOAD DUP1 SWAP2 SUB SWAP1 RETURN JUMPDEST PUSH2 0x1F7 PUSH1 0x4 DUP1 CALLDATASIZE SUB DUP2 ADD SWAP1 PUSH2 0x1F2 SWAP2 SWAP1 PUSH2 0x510 JUMP JUMPDEST PUSH2 0x4D6 JUMP JUMPDEST PUSH1 0x40 MLOAD PUSH2 0x204 SWAP2 SWAP1 PUSH2 0x635 JUMP JUMPDEST PUSH1 0x40 MLOAD DUP1 SWAP2 SUB SWAP1 RETURN JUMPDEST PUSH2 0x215 PUSH2 0x4F5 JUMP JUMPDEST PUSH1 0x40 MLOAD PUSH2 0x222 SWAP2 SWAP1 PUSH2 0x635 JUMP JUMPDEST PUSH1 0x40 MLOAD DUP1 SWAP2 SUB SWAP1 RETURN JUMPDEST PUSH1 0x2 DUP1 SLOAD PUSH2 0x238 SWAP1 PUSH2 0x6FF JUMP JUMPDEST DUP1 PUSH1 0x1F ADD PUSH1 0x20 DUP1 SWAP2 DIV MUL PUSH1 0x20 ADD PUSH1 0x40 MLOAD SWAP1 DUP2 ADD PUSH1 0x40 MSTORE DUP1 SWAP3 SWAP2 SWAP1 DUP2 DUP2 MSTORE PUSH1 0x20 ADD DUP3 DUP1 SLOAD PUSH2 0x264 SWAP1 PUSH2 0x6FF JUMP JUMPDEST DUP1 ISZERO PUSH2 0x2B1 JUMPI DUP1 PUSH1 0x1F LT PUSH2 0x286 JUMPI PUSH2 0x100 DUP1 DUP4 SLOAD DIV MUL DUP4 MSTORE SWAP2 PUSH1 0x20 ADD SWAP2 PUSH2 0x2B1 JUMP JUMPDEST DUP3 ADD SWAP2 SWAP1 PUSH1 0x0 MSTORE PUSH1 0x20 PUSH1 0x0 KECCAK256 SWAP1 JUMPDEST DUP2 SLOAD DUP2 MSTORE SWAP1 PUSH1 0x1 ADD SWAP1 PUSH1 0x20 ADD DUP1 DUP4 GT PUSH2 0x294 JUMPI DUP3 SWAP1 SUB PUSH1 0x1F AND DUP3 ADD SWAP2 JUMPDEST POP POP POP POP POP DUP2 JUMP JUMPDEST PUSH1 0x3 DUP1 SLOAD PUSH2 0x2C6 SWAP1 PUSH2 0x6FF JUMP JUMPDEST DUP1 PUSH1 0x1F ADD PUSH1 0x20 DUP1 SWAP2 DIV MUL PUSH1 0x20 ADD PUSH1 0x40 MLOAD SWAP1 DUP2 ADD PUSH1 0x40 MSTORE DUP1 SWAP3 SWAP2 SWAP1 DUP2 DUP2 MSTORE PUSH1 0x20 ADD DUP3 DUP1 SLOAD PUSH2 0x2F2 SWAP1 PUSH2 0x6FF JUMP JUMPDEST DUP1 ISZERO PUSH2 0x33F JUMPI DUP1 PUSH1 0x1F LT PUSH2 0x314 JUMPI PUSH2 0x100 DUP1 DUP4 SLOAD DIV MUL DUP4 MSTORE SWAP2 PUSH1 0x20 ADD SWAP2 PUSH2 0x33F JUMP JUMPDEST DUP3 ADD SWAP2 SWAP1 PUSH1 0x0 MSTORE PUSH1 0x20 PUSH1 0x0 KECCAK256 SWAP1 JUMPDEST DUP2 SLOAD DUP2 MSTORE SWAP1 PUSH1 0x1 ADD SWAP1 PUSH1 0x20 ADD DUP1 DUP4 GT PUSH2 0x322 JUMPI DUP3 SWAP1 SUB PUSH1 0x1F AND DUP3 ADD SWAP2 JUMPDEST POP POP POP POP POP DUP2 JUMP JUMPDEST PUSH1 0x1 PUSH1 0x0 SWAP1 SLOAD SWAP1 PUSH2 0x100 EXP SWAP1 DIV PUSH20 0xFFFFFFFFFFFFFFFFFFFFFFFFFFFFFFFFFFFFFFFF AND DUP2 JUMP JUMPDEST PUSH1 0x0 DUP1 PUSH1 0x0 DUP4 DUP2 MSTORE PUSH1 0x20 ADD SWAP1 DUP2 MSTORE PUSH1 0x20 ADD PUSH1 0x0 KECCAK256 PUSH1 0x2 ADD SLOAD SWAP1 POP SWAP2 SWAP1 POP JUMP JUMPDEST PUSH1 0x0 DUP1 PUSH1 0x0 DUP4 DUP2 MSTORE PUSH1 0x20 ADD SWAP1 DUP2 MSTORE PUSH1 0x20 ADD PUSH1 0x0 KECCAK256 PUSH1 0x0 ADD SLOAD SWAP1 POP SWAP2 SWAP1 POP JUMP JUMPDEST PUSH1 0x7 PUSH1 0x20 MSTORE DUP1 PUSH1 0x0 MSTORE PUSH1 0x40 PUSH1 0x0 KECCAK256 PUSH1 0x0 SWAP2 POP SWAP1 POP DUP1 PUSH1 0x0 ADD PUSH1 0x0 SWAP1 SLOAD SWAP1 PUSH2 0x100 EXP SWAP1 DIV PUSH20 0xFFFFFFFFFFFFFFFFFFFFFFFFFFFFFFFFFFFFFFFF AND SWAP1 DUP1 PUSH1 0x1 ADD DUP1 SLOAD PUSH2 0x3F4 SWAP1 PUSH2 0x6FF JUMP JUMPDEST DUP1 PUSH1 0x1F ADD PUSH1 0x20 DUP1 SWAP2 DIV MUL PUSH1 0x20 ADD PUSH1 0x40 MLOAD SWAP1 DUP2 ADD PUSH1 0x40 MSTORE DUP1 SWAP3 SWAP2 SWAP1 DUP2 DUP2 MSTORE PUSH1 0x20 ADD DUP3 DUP1 SLOAD PUSH2 0x420 SWAP1 PUSH2 0x6FF JUMP JUMPDEST DUP1 ISZERO PUSH2 0x46D JUMPI DUP1 PUSH1 0x1F LT PUSH2 0x442 JUMPI PUSH2 0x100 DUP1 DUP4 SLOAD DIV MUL DUP4 MSTORE SWAP2 PUSH1 0x20 ADD SWAP2 PUSH2 0x46D JUMP JUMPDEST DUP3 ADD SWAP2 SWAP1 PUSH1 0x0 MSTORE PUSH1 0x20 PUSH1 0x0 KECCAK256 SWAP1 JUMPDEST DUP2 SLOAD DUP2 MSTORE SWAP1 PUSH1 0x1 ADD SWAP1 PUSH1 0x20 ADD DUP1 DUP4 GT PUSH2 0x450 JUMPI DUP3 SWAP1 SUB PUSH1 0x1F AND DUP3 ADD SWAP2 JUMPDEST POP POP POP POP POP SWAP1 DUP1 PUSH1 0x2 ADD SLOAD SWAP1 POP DUP4 JUMP JUMPDEST PUSH1 0x6 PUSH1 0x20 MSTORE DUP1 PUSH1 0x0 MSTORE PUSH1 0x40 PUSH1 0x0 KECCAK256 PUSH1 0x0 SWAP2 POP SLOAD SWAP1 PUSH2 0x100 EXP SWAP1 DIV PUSH20 0xFFFFFFFFFFFFFFFFFFFFFFFFFFFFFFFFFFFFFFFF AND DUP2 JUMP JUMPDEST PUSH1 0x5 PUSH1 0x0 SWAP1 SLOAD SWAP1 PUSH2 0x100 EXP SWAP1 DIV PUSH20 0xFFFFFFFFFFFFFFFFFFFFFFFFFFFFFFFFFFFFFFFF AND DUP2 JUMP JUMPDEST PUSH1 0x0 DUP1 PUSH1 0x0 DUP4 DUP2 MSTORE PUSH1 0x20 ADD SWAP1 DUP2 MSTORE PUSH1 0x20 ADD PUSH1 0x0 KECCAK256 PUSH1 0x1 ADD SLOAD SWAP1 POP SWAP2 SWAP1 POP JUMP JUMPDEST PUSH1 0x4 SLOAD DUP2 JUMP JUMPDEST PUSH1 0x0 DUP2 CALLDATALOAD SWAP1 POP PUSH2 0x50A DUP2 PUSH2 0x771 JUMP JUMPDEST SWAP3 SWAP2 POP POP JUMP JUMPDEST PUSH1 0x0 PUSH1 0x20 DUP3 DUP5 SUB SLT ISZERO PUSH2 0x522 JUMPI PUSH1 0x0 DUP1 REVERT JUMPDEST PUSH1 0x0 PUSH2 0x530 DUP5 DUP3 DUP6 ADD PUSH2 0x4FB JUMP JUMPDEST SWAP2 POP POP SWAP3 SWAP2 POP POP JUMP JUMPDEST PUSH2 0x542 DUP2 PUSH2 0x66C JUMP JUMPDEST DUP3 MSTORE POP POP JUMP JUMPDEST PUSH2 0x551 DUP2 PUSH2 0x6A8 JUMP JUMPDEST DUP3 MSTORE POP POP JUMP JUMPDEST PUSH1 0x0 PUSH2 0x562 DUP3 PUSH2 0x650 JUMP JUMPDEST PUSH2 0x56C DUP2 DUP6 PUSH2 0x65B JUMP JUMPDEST SWAP4 POP PUSH2 0x57C DUP2 DUP6 PUSH1 0x20 DUP7 ADD PUSH2 0x6CC JUMP JUMPDEST PUSH2 0x585 DUP2 PUSH2 0x760 JUMP JUMPDEST DUP5 ADD SWAP2 POP POP SWAP3 SWAP2 POP POP JUMP JUMPDEST PUSH2 0x599 DUP2 PUSH2 0x69E JUMP JUMPDEST DUP3 MSTORE POP POP JUMP JUMPDEST PUSH1 0x0 PUSH1 0x20 DUP3 ADD SWAP1 POP PUSH2 0x5B4 PUSH1 0x0 DUP4 ADD DUP5 PUSH2 0x539 JUMP JUMPDEST SWAP3 SWAP2 POP POP JUMP JUMPDEST PUSH1 0x0 PUSH1 0x60 DUP3 ADD SWAP1 POP PUSH2 0x5CF PUSH1 0x0 DUP4 ADD DUP7 PUSH2 0x539 JUMP JUMPDEST DUP2 DUP2 SUB PUSH1 0x20 DUP4 ADD MSTORE PUSH2 0x5E1 DUP2 DUP6 PUSH2 0x557 JUMP JUMPDEST SWAP1 POP PUSH2 0x5F0 PUSH1 0x40 DUP4 ADD DUP5 PUSH2 0x590 JUMP JUMPDEST SWAP5 SWAP4 POP POP POP POP JUMP JUMPDEST PUSH1 0x0 PUSH1 0x20 DUP3 ADD SWAP1 POP PUSH2 0x60D PUSH1 0x0 DUP4 ADD DUP5 PUSH2 0x548 JUMP JUMPDEST SWAP3 SWAP2 POP POP JUMP JUMPDEST PUSH1 0x0 PUSH1 0x20 DUP3 ADD SWAP1 POP DUP2 DUP2 SUB PUSH1 0x0 DUP4 ADD MSTORE PUSH2 0x62D DUP2 DUP5 PUSH2 0x557 JUMP JUMPDEST SWAP1 POP SWAP3 SWAP2 POP POP JUMP JUMPDEST PUSH1 0x0 PUSH1 0x20 DUP3 ADD SWAP1 POP PUSH2 0x64A PUSH1 0x0 DUP4 ADD DUP5 PUSH2 0x590 JUMP JUMPDEST SWAP3 SWAP2 POP POP JUMP JUMPDEST PUSH1 0x0 DUP2 MLOAD SWAP1 POP SWAP2 SWAP1 POP JUMP JUMPDEST PUSH1 0x0 DUP3 DUP3 MSTORE PUSH1 0x20 DUP3 ADD SWAP1 POP SWAP3 SWAP2 POP POP JUMP JUMPDEST PUSH1 0x0 PUSH2 0x677 DUP3 PUSH2 0x67E JUMP JUMPDEST SWAP1 POP SWAP2 SWAP1 POP JUMP JUMPDEST PUSH1 0x0 PUSH20 0xFFFFFFFFFFFFFFFFFFFFFFFFFFFFFFFFFFFFFFFF DUP3 AND SWAP1 POP SWAP2 SWAP1 POP JUMP JUMPDEST PUSH1 0x0 DUP2 SWAP1 POP SWAP2 SWAP1 POP JUMP JUMPDEST PUSH1 0x0 PUSH2 0x6B3 DUP3 PUSH2 0x6BA JUMP JUMPDEST SWAP1 POP SWAP2 SWAP1 POP JUMP JUMPDEST PUSH1 0x0 PUSH2 0x6C5 DUP3 PUSH2 0x67E JUMP JUMPDEST SWAP1 POP SWAP2 SWAP1 POP JUMP JUMPDEST PUSH1 0x0 JUMPDEST DUP4 DUP2 LT ISZERO PUSH2 0x6EA JUMPI DUP1 DUP3 ADD MLOAD DUP2 DUP5 ADD MSTORE PUSH1 0x20 DUP2 ADD SWAP1 POP PUSH2 0x6CF JUMP JUMPDEST DUP4 DUP2 GT ISZERO PUSH2 0x6F9 JUMPI PUSH1 0x0 DUP5 DUP5 ADD MSTORE JUMPDEST POP POP POP POP JUMP JUMPDEST PUSH1 0x0 PUSH1 0x2 DUP3 DIV SWAP1 POP PUSH1 0x1 DUP3 AND DUP1 PUSH2 0x717 JUMPI PUSH1 0x7F DUP3 AND SWAP2 POP JUMPDEST PUSH1 0x20 DUP3 LT DUP2 EQ ISZERO PUSH2 0x72B JUMPI PUSH2 0x72A PUSH2 0x731 JUMP JUMPDEST JUMPDEST POP SWAP2 SWAP1 POP JUMP JUMPDEST PUSH32 0x4E487B7100000000000000000000000000000000000000000000000000000000 PUSH1 0x0 MSTORE PUSH1 0x22 PUSH1 0x4 MSTORE PUSH1 0x24 PUSH1 0x0 REVERT JUMPDEST PUSH1 0x0 PUSH1 0x1F NOT PUSH1 0x1F DUP4 ADD AND SWAP1 POP SWAP2 SWAP1 POP JUMP JUMPDEST PUSH2 0x77A DUP2 PUSH2 0x69E JUMP JUMPDEST DUP2 EQ PUSH2 0x785 JUMPI PUSH1 0x0 DUP1 REVERT JUMPDEST POP JUMP INVALID LOG2 PUSH5 0x6970667358 0x22 SLT KECCAK256 0x22 DUP13 PUSH10 0xA32122CDDE17FECA1D3C 0xF6 CODECOPY SWAP2 LOG3 COINBASE DUP7 DUP5 DUP13 SHL DUP14 DUP2 JUMP BALANCE CODESIZE INVALID XOR MLOAD PUSH26 0xAA64736F6C634300080400330000000000000000000000000000 "},"gasEstimates":{"creation":{"codeDepositCost":"396400","executionCost":"infinite","totalCost":"infinite"},"external":{"creds(uint256)":"infinite","credsIssuedCount()":"1217","credsIssuer()":"1259","credsProtocolRegistry()":"1258","getMerkleTreeDepth(uint256)":"infinite","getMerkleTreeRoot(uint256)":"infinite","getNumberOfMerkleTreeLeaves(uint256)":"infinite","issuerName()":"infinite","issuerSymbol()":"infinite","verifiers(uint256)":"1604"},"internal":{"addIdentities(uint256,uint256[] calldata)":"infinite","addIdentity(uint256,uint256)":"infinite","createCred(uint256,uint256,uint256,address,string memory)":"infinite","createCred(uint256,uint256,uint256,address,uint256,string memory)":"infinite","removeIdentity(uint256,uint256,uint256[] calldata,uint8[] calldata)":"infinite","updateIdentity(uint256,uint256,uint256,uint256[] calldata,uint8[] calldata)":"infinite","verifyProof(uint256,uint256,bytes32,uint256,uint256,uint256[8] calldata)":"infinite"}},"methodIdentifiers":{"creds(uint256)":"81cc7a45","credsIssuedCount()":"eb496106","credsIssuer()":"4ce39ead","credsProtocolRegistry()":"c308dd5b","getMerkleTreeDepth(uint256)":"6389e107","getMerkleTreeRoot(uint256)":"dabc4d51","getNumberOfMerkleTreeLeaves(uint256)":"638480be","issuerName()":"2e9868f8","issuerSymbol()":"439d7275","verifiers(uint256)":"ac1eff68"}},"storageLayout":{"storage":[{"astId":615,"contract":"@creds-protocol/contracts/CredsIssuer.sol:CredsIssuer","label":"merkleTree","offset":0,"slot":"0","type":"t_mapping(t_uint256,t_struct(IncrementalTreeData)1197_storage)"},{"astId":15,"contract":"@creds-protocol/contracts/CredsIssuer.sol:CredsIssuer","label":"credsIssuer","offset":0,"slot":"1","type":"t_address"},{"astId":17,"contract":"@creds-protocol/contracts/CredsIssuer.sol:CredsIssuer","label":"issuerName","offset":0,"slot":"2","type":"t_string_storage"},{"astId":19,"contract":"@creds-protocol/contracts/CredsIssuer.sol:CredsIssuer","label":"issuerSymbol","offset":0,"slot":"3","type":"t_string_storage"},{"astId":21,"contract":"@creds-protocol/contracts/CredsIssuer.sol:CredsIssuer","label":"credsIssuedCount","offset":0,"slot":"4","type":"t_uint256"},{"astId":24,"contract":"@creds-protocol/contracts/CredsIssuer.sol:CredsIssuer","label":"credsProtocolRegistry","offset":0,"slot":"5","type":"t_address"},{"astId":30,"contract":"@creds-protocol/contracts/CredsIssuer.sol:CredsIssuer","label":"verifiers","offset":0,"slot":"6","type":"t_mapping(t_uint256,t_contract(IVerifier)1130)"},{"astId":36,"contract":"@creds-protocol/contracts/CredsIssuer.sol:CredsIssuer","label":"creds","offset":0,"slot":"7","type":"t_mapping(t_uint256,t_struct(Cred)988_storage)"}],"types":{"t_address":{"encoding":"inplace","label":"address","numberOfBytes":"20"},"t_array(t_uint256)2_storage":{"base":"t_uint256","encoding":"inplace","label":"uint256[2]","numberOfBytes":"64"},"t_bool":{"encoding":"inplace","label":"bool","numberOfBytes":"1"},"t_contract(IVerifier)1130":{"encoding":"inplace","label":"contract IVerifier","numberOfBytes":"20"},"t_mapping(t_uint256,t_array(t_uint256)2_storage)":{"encoding":"mapping","key":"t_uint256","label":"mapping(uint256 => uint256[2])","numberOfBytes":"32","value":"t_array(t_uint256)2_storage"},"t_mapping(t_uint256,t_bool)":{"encoding":"mapping","key":"t_uint256","label":"mapping(uint256 => bool)","numberOfBytes":"32","value":"t_bool"},"t_mapping(t_uint256,t_contract(IVerifier)1130)":{"encoding":"mapping","key":"t_uint256","label":"mapping(uint256 => contract IVerifier)","numberOfBytes":"32","value":"t_contract(IVerifier)1130"},"t_mapping(t_uint256,t_struct(Cred)988_storage)":{"encoding":"mapping","key":"t_uint256","label":"mapping(uint256 => struct ICredential.Cred)","numberOfBytes":"32","value":"t_struct(Cred)988_storage"},"t_mapping(t_uint256,t_struct(IncrementalTreeData)1197_storage)":{"encoding":"mapping","key":"t_uint256","label":"mapping(uint256 => struct IncrementalTreeData)","numberOfBytes":"32","value":"t_struct(IncrementalTreeData)1197_storage"},"t_mapping(t_uint256,t_uint256)":{"encoding":"mapping","key":"t_uint256","label":"mapping(uint256 => uint256)","numberOfBytes":"32","value":"t_uint256"},"t_string_storage":{"encoding":"bytes","label":"string","numberOfBytes":"32"},"t_struct(Cred)988_storage":{"encoding":"inplace","label":"struct ICredential.Cred","members":[{"astId":975,"contract":"@creds-protocol/contracts/CredsIssuer.sol:CredsIssuer","label":"admin","offset":0,"slot":"0","type":"t_address"},{"astId":977,"contract":"@creds-protocol/contracts/CredsIssuer.sol:CredsIssuer","label":"credURI","offset":0,"slot":"1","type":"t_string_storage"},{"astId":979,"contract":"@creds-protocol/contracts/CredsIssuer.sol:CredsIssuer","label":"merkleRootDuration","offset":0,"slot":"2","type":"t_uint256"},{"astId":983,"contract":"@creds-protocol/contracts/CredsIssuer.sol:CredsIssuer","label":"merkleRootCreationDates","offset":0,"slot":"3","type":"t_mapping(t_uint256,t_uint256)"},{"astId":987,"contract":"@creds-protocol/contracts/CredsIssuer.sol:CredsIssuer","label":"nullifierHashes","offset":0,"slot":"4","type":"t_mapping(t_uint256,t_bool)"}],"numberOfBytes":"160"},"t_struct(IncrementalTreeData)1197_storage":{"encoding":"inplace","label":"struct IncrementalTreeData","members":[{"astId":1182,"contract":"@creds-protocol/contracts/CredsIssuer.sol:CredsIssuer","label":"depth","offset":0,"slot":"0","type":"t_uint256"},{"astId":1184,"contract":"@creds-protocol/contracts/CredsIssuer.sol:CredsIssuer","label":"root","offset":0,"slot":"1","type":"t_uint256"},{"astId":1186,"contract":"@creds-protocol/contracts/CredsIssuer.sol:CredsIssuer","label":"numberOfLeaves","offset":0,"slot":"2","type":"t_uint256"},{"astId":1190,"contract":"@creds-protocol/contracts/CredsIssuer.sol:CredsIssuer","label":"zeroes","offset":0,"slot":"3","type":"t_mapping(t_uint256,t_uint256)"},{"astId":1196,"contract":"@creds-protocol/contracts/CredsIssuer.sol:CredsIssuer","label":"lastSubtrees","offset":0,"slot":"4","type":"t_mapping(t_uint256,t_array(t_uint256)2_storage)"}],"numberOfBytes":"160"},"t_uint256":{"encoding":"inplace","label":"uint256","numberOfBytes":"32"}}},"userdoc":{"events":{"NullifierHashAdded(uint256)":{"notice":"Emitted when a proof is verified correctly and a new nullifier hash is added."}},"kind":"user","methods":{},"version":1}}}}