{"contracts/Trustified.sol":{"Trustified":{"abi":[{"inputs":[],"stateMutability":"nonpayable","type":"constructor"},{"anonymous":false,"inputs":[{"indexed":true,"internalType":"address","name":"owner","type":"address"},{"indexed":true,"internalType":"address","name":"approved","type":"address"},{"indexed":true,"internalType":"uint256","name":"tokenId","type":"uint256"}],"name":"Approval","type":"event"},{"anonymous":false,"inputs":[{"indexed":true,"internalType":"address","name":"owner","type":"address"},{"indexed":true,"internalType":"address","name":"operator","type":"address"},{"indexed":false,"internalType":"bool","name":"approved","type":"bool"}],"name":"ApprovalForAll","type":"event"},{"anonymous":false,"inputs":[{"indexed":false,"internalType":"address","name":"","type":"address"},{"indexed":false,"internalType":"uint256","name":"","type":"uint256"}],"name":"TokenMinted","type":"event"},{"anonymous":false,"inputs":[{"indexed":true,"internalType":"address","name":"from","type":"address"},{"indexed":true,"internalType":"address","name":"to","type":"address"},{"indexed":true,"internalType":"uint256","name":"tokenId","type":"uint256"}],"name":"Transfer","type":"event"},{"inputs":[],"name":"allTokenMinted","outputs":[{"internalType":"bool","name":"","type":"bool"}],"stateMutability":"view","type":"function"},{"inputs":[{"internalType":"address","name":"to","type":"address"},{"internalType":"uint256","name":"tokenId","type":"uint256"}],"name":"approve","outputs":[],"stateMutability":"nonpayable","type":"function"},{"inputs":[{"internalType":"address","name":"owner","type":"address"}],"name":"balanceOf","outputs":[{"internalType":"uint256","name":"","type":"uint256"}],"stateMutability":"view","type":"function"},{"inputs":[{"internalType":"string","name":"tokenUri","type":"string"},{"internalType":"uint256","name":"quantity","type":"uint256"},{"internalType":"uint256","name":"value","type":"uint256"},{"internalType":"bool","name":"nonTransferable","type":"bool"}],"name":"bulkMintERC721","outputs":[],"stateMutability":"nonpayable","type":"function"},{"inputs":[{"internalType":"uint256","name":"tokenId","type":"uint256"}],"name":"getApproved","outputs":[{"internalType":"address","name":"","type":"address"}],"stateMutability":"view","type":"function"},{"inputs":[],"name":"getMintStatus","outputs":[{"internalType":"bool","name":"","type":"bool"}],"stateMutability":"view","type":"function"},{"inputs":[{"internalType":"uint256","name":"eventId","type":"uint256"}],"name":"getTokenIds","outputs":[{"internalType":"uint256[]","name":"","type":"uint256[]"}],"stateMutability":"view","type":"function"},{"inputs":[{"internalType":"address","name":"owner","type":"address"},{"internalType":"address","name":"operator","type":"address"}],"name":"isApprovedForAll","outputs":[{"internalType":"bool","name":"","type":"bool"}],"stateMutability":"view","type":"function"},{"inputs":[{"internalType":"uint256","name":"","type":"uint256"}],"name":"issuers","outputs":[{"internalType":"address","name":"","type":"address"}],"stateMutability":"view","type":"function"},{"inputs":[],"name":"name","outputs":[{"internalType":"string","name":"","type":"string"}],"stateMutability":"view","type":"function"},{"inputs":[{"internalType":"uint256","name":"tokenId","type":"uint256"}],"name":"ownerOf","outputs":[{"internalType":"address","name":"","type":"address"}],"stateMutability":"view","type":"function"},{"inputs":[{"internalType":"address","name":"from","type":"address"},{"internalType":"address","name":"to","type":"address"},{"internalType":"uint256","name":"tokenId","type":"uint256"}],"name":"safeTransferFrom","outputs":[],"stateMutability":"nonpayable","type":"function"},{"inputs":[{"internalType":"address","name":"from","type":"address"},{"internalType":"address","name":"to","type":"address"},{"internalType":"uint256","name":"tokenId","type":"uint256"},{"internalType":"bytes","name":"data","type":"bytes"}],"name":"safeTransferFrom","outputs":[],"stateMutability":"nonpayable","type":"function"},{"inputs":[{"internalType":"address","name":"operator","type":"address"},{"internalType":"bool","name":"approved","type":"bool"}],"name":"setApprovalForAll","outputs":[],"stateMutability":"nonpayable","type":"function"},{"inputs":[{"internalType":"bytes4","name":"interfaceId","type":"bytes4"}],"name":"supportsInterface","outputs":[{"internalType":"bool","name":"","type":"bool"}],"stateMutability":"view","type":"function"},{"inputs":[],"name":"symbol","outputs":[{"internalType":"string","name":"","type":"string"}],"stateMutability":"view","type":"function"},{"inputs":[{"internalType":"uint256","name":"","type":"uint256"},{"internalType":"uint256","name":"","type":"uint256"}],"name":"tokenIds","outputs":[{"internalType":"uint256","name":"","type":"uint256"}],"stateMutability":"view","type":"function"},{"inputs":[{"internalType":"uint256","name":"tokenId","type":"uint256"}],"name":"tokenURI","outputs":[{"internalType":"string","name":"","type":"string"}],"stateMutability":"view","type":"function"},{"inputs":[{"internalType":"address","name":"from","type":"address"},{"internalType":"address","name":"to","type":"address"},{"internalType":"uint256","name":"tokenId","type":"uint256"}],"name":"transferFrom","outputs":[],"stateMutability":"nonpayable","type":"function"},{"inputs":[{"internalType":"address","name":"from","type":"address"},{"internalType":"address","name":"to","type":"address"},{"internalType":"uint256","name":"tokenId","type":"uint256"},{"internalType":"string","name":"tokenURI","type":"string"},{"internalType":"uint256","name":"value","type":"uint256"}],"name":"transferToken","outputs":[],"stateMutability":"nonpayable","type":"function"}],"devdoc":{"kind":"dev","methods":{"approve(address,uint256)":{"details":"See {IERC721-approve}."},"balanceOf(address)":{"details":"See {IERC721-balanceOf}."},"bulkMintERC721(string,uint256,uint256,bool)":{"params":{"quantity":"Number of nft needs to be minted for particular event Id.","tokenUri":"Metadata of nft.","value":"0 means it's Badges and 1 means it's certificates."}},"getApproved(uint256)":{"details":"See {IERC721-getApproved}."},"getTokenIds(uint256)":{"details":"Function to get tokenIds minted for particular event Id.","params":{"eventId":"event Id created during mint."}},"isApprovedForAll(address,address)":{"details":"See {IERC721-isApprovedForAll}."},"name()":{"details":"See {IERC721Metadata-name}."},"ownerOf(uint256)":{"details":"See {IERC721-ownerOf}."},"safeTransferFrom(address,address,uint256)":{"details":"See {IERC721-safeTransferFrom}."},"safeTransferFrom(address,address,uint256,bytes)":{"details":"See {IERC721-safeTransferFrom}."},"setApprovalForAll(address,bool)":{"details":"See {IERC721-setApprovalForAll}."},"supportsInterface(bytes4)":{"details":"See {IERC165-supportsInterface}."},"symbol()":{"details":"See {IERC721Metadata-symbol}."},"tokenURI(uint256)":{"details":"See {IERC721Metadata-tokenURI}."},"transferFrom(address,address,uint256)":{"details":"See {IERC721-transferFrom}."},"transferToken(address,address,uint256,string,uint256)":{"details":"Function to claim nfts. Here if value == 1 which means we set the tokenURI for certificates nft in claim token(tranfer token)","params":{"from":"Address of nft owner.","to":"Address of nft receiver.","tokenId":"token Id of nft.","tokenURI":"Metadata of nft.","value":"0 means it's Badges and 1 means it's certificates."}}},"version":1},"evm":{"bytecode":{"linkReferences":{},"object":"60806040523480156200001157600080fd5b506040518060400160405280600d81526020017f49747354727573746966696564000000000000000000000000000000000000008152506040518060400160405280600381526020017f4954460000000000000000000000000000000000000000000000000000000000815250816000908051906020019062000096929190620000b8565b508060019080519060200190620000af929190620000b8565b505050620001cd565b828054620000c69062000168565b90600052602060002090601f016020900481019282620000ea576000855562000136565b82601f106200010557805160ff191683800117855562000136565b8280016001018555821562000136579182015b828111156200013557825182559160200191906001019062000118565b5b50905062000145919062000149565b5090565b5b80821115620001645760008160009055506001016200014a565b5090565b600060028204905060018216806200018157607f821691505b602082108114156200019857620001976200019e565b5b50919050565b7f4e487b7100000000000000000000000000000000000000000000000000000000600052602260045260246000fd5b6135f680620001dd6000396000f3fe608060405234801561001057600080fd5b506004361061012c5760003560e01c80636352211e116100ad578063a22cb46511610071578063a22cb46514610355578063b88d4fde14610371578063c87b56dd1461038d578063e985e9c5146103bd578063eed8cc35146103ed5761012c565b80636352211e1461029d57806370a08231146102cd57806380574834146102fd578063941ada0e1461031957806395d89b41146103375761012c565b806323b872dd116100f457806323b872dd146101e757806342842e0e14610203578063436afe321461021f57806357991d301461023d57806361ec30c41461026d5761012c565b806301ffc9a71461013157806306fdde0314610161578063081812fc1461017f578063095ea7b3146101af5780631ba7ddd2146101cb575b600080fd5b61014b6004803603810190610146919061256e565b61041d565b6040516101589190612b46565b60405180910390f35b6101696104ff565b6040516101769190612b61565b60405180910390f35b61019960048036038101906101949190612640565b610591565b6040516101a69190612a94565b60405180910390f35b6101c960048036038101906101c49190612532565b6105d7565b005b6101e560048036038101906101e091906125c0565b6106ef565b005b61020160048036038101906101fc919061239a565b610913565b005b61021d6004803603810190610218919061239a565b610973565b005b610227610993565b6040516102349190612b46565b60405180910390f35b61025760048036038101906102529190612640565b6109a6565b6040516102649190612b24565b60405180910390f35b61028760048036038101906102829190612640565b610ab2565b6040516102949190612a94565b60405180910390f35b6102b760048036038101906102b29190612640565b610ae5565b6040516102c49190612a94565b60405180910390f35b6102e760048036038101906102e29190612335565b610b6c565b6040516102f49190612dc3565b60405180910390f35b61031760048036038101906103129190612464565b610c24565b005b610321610d74565b60405161032e9190612b46565b60405180910390f35b61033f610d8b565b60405161034c9190612b61565b60405180910390f35b61036f600480360381019061036a91906124f6565b610e1d565b005b61038b600480360381019061038691906123e9565b610e33565b005b6103a760048036038101906103a29190612640565b610e95565b6040516103b49190612b61565b60405180910390f35b6103d760048036038101906103d2919061235e565b610fa8565b6040516103e49190612b46565b60405180910390f35b61040760048036038101906104029190612669565b61103c565b6040516104149190612dc3565b60405180910390f35b60007f80ac58cd000000000000000000000000000000000000000000000000000000007bffffffffffffffffffffffffffffffffffffffffffffffffffffffff1916827bffffffffffffffffffffffffffffffffffffffffffffffffffffffff191614806104e857507f5b5e139f000000000000000000000000000000000000000000000000000000007bffffffffffffffffffffffffffffffffffffffffffffffffffffffff1916827bffffffffffffffffffffffffffffffffffffffffffffffffffffffff1916145b806104f857506104f78261106d565b5b9050919050565b60606000805461050e90612fbc565b80601f016020809104026020016040519081016040528092919081815260200182805461053a90612fbc565b80156105875780601f1061055c57610100808354040283529160200191610587565b820191906000526020600020905b81548152906001019060200180831161056a57829003601f168201915b5050505050905090565b600061059c826110d7565b6004600083815260200190815260200160002060009054906101000a900473ffffffffffffffffffffffffffffffffffffffff169050919050565b60006105e282610ae5565b90508073ffffffffffffffffffffffffffffffffffffffff168373ffffffffffffffffffffffffffffffffffffffff161415610653576040517f08c379a000000000000000000000000000000000000000000000000000000000815260040161064a90612d63565b60405180910390fd5b8073ffffffffffffffffffffffffffffffffffffffff16610672611122565b73ffffffffffffffffffffffffffffffffffffffff1614806106a157506106a08161069b611122565b610fa8565b5b6106e0576040517f08c379a00000000000000000000000000000000000000000000000000000000081526004016106d790612d83565b60405180910390fd5b6106ea838361112a565b505050565b60008311610732576040517f08c379a000000000000000000000000000000000000000000000000000000000815260040161072990612cc3565b60405180910390fd5b60008210158015610744575060018211155b610783576040517f08c379a000000000000000000000000000000000000000000000000000000000815260040161077a90612d23565b60405180910390fd5b600061078f60096111e3565b905061079b60096111f1565b6000600a60006101000a81548160ff02191690831515021790555060005b848110156108d15760006107ce888887611207565b9050600b600084815260200190815260200160002081908060018154018082558091505060019003906000526020600020016000909190919091505533600c600085815260200190815260200160002060006101000a81548173ffffffffffffffffffffffffffffffffffffffff021916908373ffffffffffffffffffffffffffffffffffffffff16021790555083600d600083815260200190815260200160002060006101000a81548160ff02191690831515021790555060006001826108969190612eb0565b9050868114156108bc576001600a60006101000a81548160ff0219169083151502179055505b505080806108c99061301f565b9150506107b9565b507fb9144c96c86541f6fa89c9f2f02495cccf4b08cd6643e26d34ee00aa586558a83382604051610903929190612afb565b60405180910390a1505050505050565b61092461091e611122565b826112d3565b610963576040517f08c379a000000000000000000000000000000000000000000000000000000000815260040161095a90612ba3565b60405180910390fd5b61096e838383611368565b505050565b61098e83838360405180602001604052806000815250610e33565b505050565b600a60009054906101000a900460ff1681565b60603373ffffffffffffffffffffffffffffffffffffffff16600c600084815260200190815260200160002060009054906101000a900473ffffffffffffffffffffffffffffffffffffffff1673ffffffffffffffffffffffffffffffffffffffff1614610a49576040517f08c379a0000000000000000000000000000000000000000000000000000000008152600401610a4090612c63565b60405180910390fd5b600b6000838152602001908152602001600020805480602002602001604051908101604052809291908181526020018280548015610aa657602002820191906000526020600020905b815481526020019060010190808311610a92575b50505050509050919050565b600c6020528060005260406000206000915054906101000a900473ffffffffffffffffffffffffffffffffffffffff1681565b600080610af183611662565b9050600073ffffffffffffffffffffffffffffffffffffffff168173ffffffffffffffffffffffffffffffffffffffff161415610b63576040517f08c379a0000000000000000000000000000000000000000000000000000000008152600401610b5a90612d43565b60405180910390fd5b80915050919050565b60008073ffffffffffffffffffffffffffffffffffffffff168273ffffffffffffffffffffffffffffffffffffffff161415610bdd576040517f08c379a0000000000000000000000000000000000000000000000000000000008152600401610bd490612ca3565b60405180910390fd5b600360008373ffffffffffffffffffffffffffffffffffffffff1673ffffffffffffffffffffffffffffffffffffffff168152602001908152602001600020549050919050565b60008110158015610c36575060018111155b610c75576040517f08c379a0000000000000000000000000000000000000000000000000000000008152600401610c6c90612d23565b60405180910390fd5b6001811415610ccd57610ccc8484848080601f016020809104026020016040519081016040528093929190818152602001838380828437600081840152601f19601f8201169050808301925050505050505061169f565b5b3073ffffffffffffffffffffffffffffffffffffffff168673ffffffffffffffffffffffffffffffffffffffff1614610d6057610d0a33856112d3565b610d49576040517f08c379a0000000000000000000000000000000000000000000000000000000008152600401610d4090612da3565b60405180910390fd5b610d5b610d54611122565b8686611368565b610d6c565b610d6b868686611368565b5b505050505050565b6000600a60009054906101000a900460ff16905090565b606060018054610d9a90612fbc565b80601f0160208091040260200160405190810160405280929190818152602001828054610dc690612fbc565b8015610e135780601f10610de857610100808354040283529160200191610e13565b820191906000526020600020905b815481529060010190602001808311610df657829003601f168201915b5050505050905090565b610e2f610e28611122565b8383611713565b5050565b610e44610e3e611122565b836112d3565b610e83576040517f08c379a0000000000000000000000000000000000000000000000000000000008152600401610e7a90612ba3565b60405180910390fd5b610e8f84848484611880565b50505050565b6060610ea0826110d7565b6000600660008481526020019081526020016000208054610ec090612fbc565b80601f0160208091040260200160405190810160405280929190818152602001828054610eec90612fbc565b8015610f395780601f10610f0e57610100808354040283529160200191610f39565b820191906000526020600020905b815481529060010190602001808311610f1c57829003601f168201915b505050505090506000610f4a6118dc565b9050600081511415610f60578192505050610fa3565b600082511115610f95578082604051602001610f7d929190612a70565b60405160208183030381529060405292505050610fa3565b610f9e846118f3565b925050505b919050565b6000600560008473ffffffffffffffffffffffffffffffffffffffff1673ffffffffffffffffffffffffffffffffffffffff16815260200190815260200160002060008373ffffffffffffffffffffffffffffffffffffffff1673ffffffffffffffffffffffffffffffffffffffff16815260200190815260200160002060009054906101000a900460ff16905092915050565b600b602052816000526040600020818154811061105857600080fd5b90600052602060002001600091509150505481565b60007f01ffc9a7000000000000000000000000000000000000000000000000000000007bffffffffffffffffffffffffffffffffffffffffffffffffffffffff1916827bffffffffffffffffffffffffffffffffffffffffffffffffffffffff1916149050919050565b6110e08161195b565b61111f576040517f08c379a000000000000000000000000000000000000000000000000000000000815260040161111690612d43565b60405180910390fd5b50565b600033905090565b816004600083815260200190815260200160002060006101000a81548173ffffffffffffffffffffffffffffffffffffffff021916908373ffffffffffffffffffffffffffffffffffffffff160217905550808273ffffffffffffffffffffffffffffffffffffffff1661119d83610ae5565b73ffffffffffffffffffffffffffffffffffffffff167f8c5be1e5ebec7d5bd14f71427d1e84f3dd0314c0f7b2291e5b200ac8c7c3b92560405160405180910390a45050565b600081600001549050919050565b6001816000016000828254019250508190555050565b60008061121460086111e3565b905061122060086111f1565b61122a308261199c565b60008314156112c85760008585905011611279576040517f08c379a000000000000000000000000000000000000000000000000000000000815260040161127090612c83565b60405180910390fd5b6112c78186868080601f016020809104026020016040519081016040528093929190818152602001838380828437600081840152601f19601f8201169050808301925050505050505061169f565b5b809150509392505050565b6000806112df83610ae5565b90508073ffffffffffffffffffffffffffffffffffffffff168473ffffffffffffffffffffffffffffffffffffffff16148061132157506113208185610fa8565b5b8061135f57508373ffffffffffffffffffffffffffffffffffffffff1661134784610591565b73ffffffffffffffffffffffffffffffffffffffff16145b91505092915050565b8273ffffffffffffffffffffffffffffffffffffffff1661138882610ae5565b73ffffffffffffffffffffffffffffffffffffffff16146113de576040517f08c379a00000000000000000000000000000000000000000000000000000000081526004016113d590612be3565b60405180910390fd5b600073ffffffffffffffffffffffffffffffffffffffff168273ffffffffffffffffffffffffffffffffffffffff16141561144e576040517f08c379a000000000000000000000000000000000000000000000000000000000815260040161144590612c23565b60405180910390fd5b61145b8383836001611bba565b8273ffffffffffffffffffffffffffffffffffffffff1661147b82610ae5565b73ffffffffffffffffffffffffffffffffffffffff16146114d1576040517f08c379a00000000000000000000000000000000000000000000000000000000081526004016114c890612be3565b60405180910390fd5b6004600082815260200190815260200160002060006101000a81549073ffffffffffffffffffffffffffffffffffffffff02191690556001600360008573ffffffffffffffffffffffffffffffffffffffff1673ffffffffffffffffffffffffffffffffffffffff168152602001908152602001600020600082825403925050819055506001600360008473ffffffffffffffffffffffffffffffffffffffff1673ffffffffffffffffffffffffffffffffffffffff16815260200190815260200160002060008282540192505081905550816002600083815260200190815260200160002060006101000a81548173ffffffffffffffffffffffffffffffffffffffff021916908373ffffffffffffffffffffffffffffffffffffffff160217905550808273ffffffffffffffffffffffffffffffffffffffff168473ffffffffffffffffffffffffffffffffffffffff167fddf252ad1be2c89b69c2b068fc378daa952ba7f163c4a11628f55a4df523b3ef60405160405180910390a461165d8383836001611c5c565b505050565b60006002600083815260200190815260200160002060009054906101000a900473ffffffffffffffffffffffffffffffffffffffff169050919050565b6116a88261195b565b6116e7576040517f08c379a00000000000000000000000000000000000000000000000000000000081526004016116de90612ce3565b60405180910390fd5b8060066000848152602001908152602001600020908051906020019061170e929190612177565b505050565b8173ffffffffffffffffffffffffffffffffffffffff168373ffffffffffffffffffffffffffffffffffffffff161415611782576040517f08c379a000000000000000000000000000000000000000000000000000000000815260040161177990612c43565b60405180910390fd5b80600560008573ffffffffffffffffffffffffffffffffffffffff1673ffffffffffffffffffffffffffffffffffffffff16815260200190815260200160002060008473ffffffffffffffffffffffffffffffffffffffff1673ffffffffffffffffffffffffffffffffffffffff16815260200190815260200160002060006101000a81548160ff0219169083151502179055508173ffffffffffffffffffffffffffffffffffffffff168373ffffffffffffffffffffffffffffffffffffffff167f17307eab39ab6107e8899845ad3d59bd9653f200f220920489ca2b5937696c31836040516118739190612b46565b60405180910390a3505050565b61188b848484611368565b61189784848484611c62565b6118d6576040517f08c379a00000000000000000000000000000000000000000000000000000000081526004016118cd90612bc3565b60405180910390fd5b50505050565b606060405180602001604052806000815250905090565b60606118fe826110d7565b60006119086118dc565b905060008151116119285760405180602001604052806000815250611953565b8061193284611df9565b604051602001611943929190612a70565b6040516020818303038152906040525b915050919050565b60008073ffffffffffffffffffffffffffffffffffffffff1661197d83611662565b73ffffffffffffffffffffffffffffffffffffffff1614159050919050565b600073ffffffffffffffffffffffffffffffffffffffff168273ffffffffffffffffffffffffffffffffffffffff161415611a0c576040517f08c379a0000000000000000000000000000000000000000000000000000000008152600401611a0390612d03565b60405180910390fd5b611a158161195b565b15611a55576040517f08c379a0000000000000000000000000000000000000000000000000000000008152600401611a4c90612c03565b60405180910390fd5b611a63600083836001611bba565b611a6c8161195b565b15611aac576040517f08c379a0000000000000000000000000000000000000000000000000000000008152600401611aa390612c03565b60405180910390fd5b6001600360008473ffffffffffffffffffffffffffffffffffffffff1673ffffffffffffffffffffffffffffffffffffffff16815260200190815260200160002060008282540192505081905550816002600083815260200190815260200160002060006101000a81548173ffffffffffffffffffffffffffffffffffffffff021916908373ffffffffffffffffffffffffffffffffffffffff160217905550808273ffffffffffffffffffffffffffffffffffffffff16600073ffffffffffffffffffffffffffffffffffffffff167fddf252ad1be2c89b69c2b068fc378daa952ba7f163c4a11628f55a4df523b3ef60405160405180910390a4611bb6600083836001611c5c565b5050565b3073ffffffffffffffffffffffffffffffffffffffff168473ffffffffffffffffffffffffffffffffffffffff1614611c565760011515600d600084815260200190815260200160002060009054906101000a900460ff1615151415611c55576040517f08c379a0000000000000000000000000000000000000000000000000000000008152600401611c4c90612b83565b60405180910390fd5b5b50505050565b50505050565b6000611c838473ffffffffffffffffffffffffffffffffffffffff16611f1d565b15611dec578373ffffffffffffffffffffffffffffffffffffffff1663150b7a02611cac611122565b8786866040518563ffffffff1660e01b8152600401611cce9493929190612aaf565b602060405180830381600087803b158015611ce857600080fd5b505af1925050508015611d1957506040513d601f19601f82011682018060405250810190611d169190612597565b60015b611d9c573d8060008114611d49576040519150601f19603f3d011682016040523d82523d6000602084013e611d4e565b606091505b50600081511415611d94576040517f08c379a0000000000000000000000000000000000000000000000000000000008152600401611d8b90612bc3565b60405180910390fd5b805181602001fd5b63150b7a0260e01b7bffffffffffffffffffffffffffffffffffffffffffffffffffffffff1916817bffffffffffffffffffffffffffffffffffffffffffffffffffffffff191614915050611df1565b600190505b949350505050565b606060006001611e0884611f40565b01905060008167ffffffffffffffff811115611e4d577f4e487b7100000000000000000000000000000000000000000000000000000000600052604160045260246000fd5b6040519080825280601f01601f191660200182016040528015611e7f5781602001600182028036833780820191505090505b509050600082602001820190505b600115611f12578080600190039150507f3031323334353637383961626364656600000000000000000000000000000000600a86061a8153600a8581611efc577f4e487b7100000000000000000000000000000000000000000000000000000000600052601260045260246000fd5b0494506000851415611f0d57611f12565b611e8d565b819350505050919050565b6000808273ffffffffffffffffffffffffffffffffffffffff163b119050919050565b600080600090507a184f03e93ff9f4daa797ed6e38ed64bf6a1f0100000000000000008310611fc4577a184f03e93ff9f4daa797ed6e38ed64bf6a1f0100000000000000008381611fba577f4e487b7100000000000000000000000000000000000000000000000000000000600052601260045260246000fd5b0492506040810190505b6d04ee2d6d415b85acef81000000008310612027576d04ee2d6d415b85acef8100000000838161201d577f4e487b7100000000000000000000000000000000000000000000000000000000600052601260045260246000fd5b0492506020810190505b662386f26fc10000831061207c57662386f26fc100008381612072577f4e487b7100000000000000000000000000000000000000000000000000000000600052601260045260246000fd5b0492506010810190505b6305f5e10083106120cb576305f5e10083816120c1577f4e487b7100000000000000000000000000000000000000000000000000000000600052601260045260246000fd5b0492506008810190505b612710831061211657612710838161210c577f4e487b7100000000000000000000000000000000000000000000000000000000600052601260045260246000fd5b0492506004810190505b6064831061215f5760648381612155577f4e487b7100000000000000000000000000000000000000000000000000000000600052601260045260246000fd5b0492506002810190505b600a831061216e576001810190505b80915050919050565b82805461218390612fbc565b90600052602060002090601f0160209004810192826121a557600085556121ec565b82601f106121be57805160ff19168380011785556121ec565b828001600101855582156121ec579182015b828111156121eb5782518255916020019190600101906121d0565b5b5090506121f991906121fd565b5090565b5b808211156122165760008160009055506001016121fe565b5090565b600061222d61222884612e03565b612dde565b90508281526020810184848401111561224557600080fd5b612250848285612f7a565b509392505050565b60008135905061226781613564565b92915050565b60008135905061227c8161357b565b92915050565b60008135905061229181613592565b92915050565b6000815190506122a681613592565b92915050565b600082601f8301126122bd57600080fd5b81356122cd84826020860161221a565b91505092915050565b60008083601f8401126122e857600080fd5b8235905067ffffffffffffffff81111561230157600080fd5b60208301915083600182028301111561231957600080fd5b9250929050565b60008135905061232f816135a9565b92915050565b60006020828403121561234757600080fd5b600061235584828501612258565b91505092915050565b6000806040838503121561237157600080fd5b600061237f85828601612258565b925050602061239085828601612258565b9150509250929050565b6000806000606084860312156123af57600080fd5b60006123bd86828701612258565b93505060206123ce86828701612258565b92505060406123df86828701612320565b9150509250925092565b600080600080608085870312156123ff57600080fd5b600061240d87828801612258565b945050602061241e87828801612258565b935050604061242f87828801612320565b925050606085013567ffffffffffffffff81111561244c57600080fd5b612458878288016122ac565b91505092959194509250565b60008060008060008060a0878903121561247d57600080fd5b600061248b89828a01612258565b965050602061249c89828a01612258565b95505060406124ad89828a01612320565b945050606087013567ffffffffffffffff8111156124ca57600080fd5b6124d689828a016122d6565b935093505060806124e989828a01612320565b9150509295509295509295565b6000806040838503121561250957600080fd5b600061251785828601612258565b92505060206125288582860161226d565b9150509250929050565b6000806040838503121561254557600080fd5b600061255385828601612258565b925050602061256485828601612320565b9150509250929050565b60006020828403121561258057600080fd5b600061258e84828501612282565b91505092915050565b6000602082840312156125a957600080fd5b60006125b784828501612297565b91505092915050565b6000806000806000608086880312156125d857600080fd5b600086013567ffffffffffffffff8111156125f257600080fd5b6125fe888289016122d6565b9550955050602061261188828901612320565b935050604061262288828901612320565b92505060606126338882890161226d565b9150509295509295909350565b60006020828403121561265257600080fd5b600061266084828501612320565b91505092915050565b6000806040838503121561267c57600080fd5b600061268a85828601612320565b925050602061269b85828601612320565b9150509250929050565b60006126b18383612a52565b60208301905092915050565b6126c681612f06565b82525050565b60006126d782612e44565b6126e18185612e72565b93506126ec83612e34565b8060005b8381101561271d57815161270488826126a5565b975061270f83612e65565b9250506001810190506126f0565b5085935050505092915050565b61273381612f18565b82525050565b600061274482612e4f565b61274e8185612e83565b935061275e818560208601612f89565b612767816130f5565b840191505092915050565b600061277d82612e5a565b6127878185612e94565b9350612797818560208601612f89565b6127a0816130f5565b840191505092915050565b60006127b682612e5a565b6127c08185612ea5565b93506127d0818560208601612f89565b80840191505092915050565b60006127e9601d83612e94565b91506127f482613106565b602082019050919050565b600061280c602d83612e94565b91506128178261312f565b604082019050919050565b600061282f603283612e94565b915061283a8261317e565b604082019050919050565b6000612852602583612e94565b915061285d826131cd565b604082019050919050565b6000612875601c83612e94565b91506128808261321c565b602082019050919050565b6000612898602483612e94565b91506128a382613245565b604082019050919050565b60006128bb601983612e94565b91506128c682613294565b602082019050919050565b60006128de603583612e94565b91506128e9826132bd565b604082019050919050565b6000612901601b83612e94565b915061290c8261330c565b602082019050919050565b6000612924602983612e94565b915061292f82613335565b604082019050919050565b6000612947601083612e94565b915061295282613384565b602082019050919050565b600061296a602e83612e94565b9150612975826133ad565b604082019050919050565b600061298d602083612e94565b9150612998826133fc565b602082019050919050565b60006129b0600d83612e94565b91506129bb82613425565b602082019050919050565b60006129d3601883612e94565b91506129de8261344e565b602082019050919050565b60006129f6602183612e94565b9150612a0182613477565b604082019050919050565b6000612a19603d83612e94565b9150612a24826134c6565b604082019050919050565b6000612a3c603183612e94565b9150612a4782613515565b604082019050919050565b612a5b81612f70565b82525050565b612a6a81612f70565b82525050565b6000612a7c82856127ab565b9150612a8882846127ab565b91508190509392505050565b6000602082019050612aa960008301846126bd565b92915050565b6000608082019050612ac460008301876126bd565b612ad160208301866126bd565b612ade6040830185612a61565b8181036060830152612af08184612739565b905095945050505050565b6000604082019050612b1060008301856126bd565b612b1d6020830184612a61565b9392505050565b60006020820190508181036000830152612b3e81846126cc565b905092915050565b6000602082019050612b5b600083018461272a565b92915050565b60006020820190508181036000830152612b7b8184612772565b905092915050565b60006020820190508181036000830152612b9c816127dc565b9050919050565b60006020820190508181036000830152612bbc816127ff565b9050919050565b60006020820190508181036000830152612bdc81612822565b9050919050565b60006020820190508181036000830152612bfc81612845565b9050919050565b60006020820190508181036000830152612c1c81612868565b9050919050565b60006020820190508181036000830152612c3c8161288b565b9050919050565b60006020820190508181036000830152612c5c816128ae565b9050919050565b60006020820190508181036000830152612c7c816128d1565b9050919050565b60006020820190508181036000830152612c9c816128f4565b9050919050565b60006020820190508181036000830152612cbc81612917565b9050919050565b60006020820190508181036000830152612cdc8161293a565b9050919050565b60006020820190508181036000830152612cfc8161295d565b9050919050565b60006020820190508181036000830152612d1c81612980565b9050919050565b60006020820190508181036000830152612d3c816129a3565b9050919050565b60006020820190508181036000830152612d5c816129c6565b9050919050565b60006020820190508181036000830152612d7c816129e9565b9050919050565b60006020820190508181036000830152612d9c81612a0c565b9050919050565b60006020820190508181036000830152612dbc81612a2f565b9050919050565b6000602082019050612dd86000830184612a61565b92915050565b6000612de8612df9565b9050612df48282612fee565b919050565b6000604051905090565b600067ffffffffffffffff821115612e1e57612e1d6130c6565b5b612e27826130f5565b9050602081019050919050565b6000819050602082019050919050565b600081519050919050565b600081519050919050565b600081519050919050565b6000602082019050919050565b600082825260208201905092915050565b600082825260208201905092915050565b600082825260208201905092915050565b600081905092915050565b6000612ebb82612f70565b9150612ec683612f70565b9250827fffffffffffffffffffffffffffffffffffffffffffffffffffffffffffffffff03821115612efb57612efa613068565b5b828201905092915050565b6000612f1182612f50565b9050919050565b60008115159050919050565b60007fffffffff0000000000000000000000000000000000000000000000000000000082169050919050565b600073ffffffffffffffffffffffffffffffffffffffff82169050919050565b6000819050919050565b82818337600083830152505050565b60005b83811015612fa7578082015181840152602081019050612f8c565b83811115612fb6576000848401525b50505050565b60006002820490506001821680612fd457607f821691505b60208210811415612fe857612fe7613097565b5b50919050565b612ff7826130f5565b810181811067ffffffffffffffff82111715613016576130156130c6565b5b80604052505050565b600061302a82612f70565b91507fffffffffffffffffffffffffffffffffffffffffffffffffffffffffffffffff82141561305d5761305c613068565b5b600182019050919050565b7f4e487b7100000000000000000000000000000000000000000000000000000000600052601160045260246000fd5b7f4e487b7100000000000000000000000000000000000000000000000000000000600052602260045260246000fd5b7f4e487b7100000000000000000000000000000000000000000000000000000000600052604160045260246000fd5b6000601f19601f8301169050919050565b7f4e6f7420616c6c6f77656420746f207472616e7366657220746f6b656e000000600082015250565b7f4552433732313a2063616c6c6572206973206e6f7420746f6b656e206f776e6560008201527f72206f7220617070726f76656400000000000000000000000000000000000000602082015250565b7f4552433732313a207472616e7366657220746f206e6f6e20455243373231526560008201527f63656976657220696d706c656d656e7465720000000000000000000000000000602082015250565b7f4552433732313a207472616e736665722066726f6d20696e636f72726563742060008201527f6f776e6572000000000000000000000000000000000000000000000000000000602082015250565b7f4552433732313a20746f6b656e20616c7265616479206d696e74656400000000600082015250565b7f4552433732313a207472616e7366657220746f20746865207a65726f2061646460008201527f7265737300000000000000000000000000000000000000000000000000000000602082015250565b7f4552433732313a20617070726f766520746f2063616c6c657200000000000000600082015250565b7f4f6e6c7920697373756572206f662074686973206576656e742063616e20626560008201527f206163636573732074686520746f6b656e496473210000000000000000000000602082015250565b7f546f6b656e20555249206d757374206e6f7420626520656d7074790000000000600082015250565b7f4552433732313a2061646472657373207a65726f206973206e6f74206120766160008201527f6c6964206f776e65720000000000000000000000000000000000000000000000602082015250565b7f496e76616c6964207175616e7469747900000000000000000000000000000000600082015250565b7f45524337323155524953746f726167653a2055524920736574206f66206e6f6e60008201527f6578697374656e7420746f6b656e000000000000000000000000000000000000602082015250565b7f4552433732313a206d696e7420746f20746865207a65726f2061646472657373600082015250565b7f496e76616c69642076616c756500000000000000000000000000000000000000600082015250565b7f4552433732313a20696e76616c696420746f6b656e2049440000000000000000600082015250565b7f4552433732313a20617070726f76616c20746f2063757272656e74206f776e6560008201527f7200000000000000000000000000000000000000000000000000000000000000602082015250565b7f4552433732313a20617070726f76652063616c6c6572206973206e6f7420746f60008201527f6b656e206f776e6572206f7220617070726f76656420666f7220616c6c000000602082015250565b7f4552433732313a207472616e736665722063616c6c6572206973206e6f74206f60008201527f776e6572206e6f7220617070726f766564000000000000000000000000000000602082015250565b61356d81612f06565b811461357857600080fd5b50565b61358481612f18565b811461358f57600080fd5b50565b61359b81612f24565b81146135a657600080fd5b50565b6135b281612f70565b81146135bd57600080fd5b5056fea26469706673582212200e07d84ec4204e77d78258b55275a752f6b0163fc5ffd5a69ec077ef812aac2764736f6c63430008040033","opcodes":"PUSH1 0x80 PUSH1 0x40 MSTORE CALLVALUE DUP1 ISZERO PUSH3 0x11 JUMPI PUSH1 0x0 DUP1 REVERT JUMPDEST POP PUSH1 0x40 MLOAD DUP1 PUSH1 0x40 ADD PUSH1 0x40 MSTORE DUP1 PUSH1 0xD DUP2 MSTORE PUSH1 0x20 ADD PUSH32 0x4974735472757374696669656400000000000000000000000000000000000000 DUP2 MSTORE POP PUSH1 0x40 MLOAD DUP1 PUSH1 0x40 ADD PUSH1 0x40 MSTORE DUP1 PUSH1 0x3 DUP2 MSTORE PUSH1 0x20 ADD PUSH32 0x4954460000000000000000000000000000000000000000000000000000000000 DUP2 MSTORE POP DUP2 PUSH1 0x0 SWAP1 DUP1 MLOAD SWAP1 PUSH1 0x20 ADD SWAP1 PUSH3 0x96 SWAP3 SWAP2 SWAP1 PUSH3 0xB8 JUMP JUMPDEST POP DUP1 PUSH1 0x1 SWAP1 DUP1 MLOAD SWAP1 PUSH1 0x20 ADD SWAP1 PUSH3 0xAF SWAP3 SWAP2 SWAP1 PUSH3 0xB8 JUMP JUMPDEST POP POP POP PUSH3 0x1CD JUMP JUMPDEST DUP3 DUP1 SLOAD PUSH3 0xC6 SWAP1 PUSH3 0x168 JUMP JUMPDEST SWAP1 PUSH1 0x0 MSTORE PUSH1 0x20 PUSH1 0x0 KECCAK256 SWAP1 PUSH1 0x1F ADD PUSH1 0x20 SWAP1 DIV DUP2 ADD SWAP3 DUP3 PUSH3 0xEA JUMPI PUSH1 0x0 DUP6 SSTORE PUSH3 0x136 JUMP JUMPDEST DUP3 PUSH1 0x1F LT PUSH3 0x105 JUMPI DUP1 MLOAD PUSH1 0xFF NOT AND DUP4 DUP1 ADD OR DUP6 SSTORE PUSH3 0x136 JUMP JUMPDEST DUP3 DUP1 ADD PUSH1 0x1 ADD DUP6 SSTORE DUP3 ISZERO PUSH3 0x136 JUMPI SWAP2 DUP3 ADD JUMPDEST DUP3 DUP2 GT ISZERO PUSH3 0x135 JUMPI DUP3 MLOAD DUP3 SSTORE SWAP2 PUSH1 0x20 ADD SWAP2 SWAP1 PUSH1 0x1 ADD SWAP1 PUSH3 0x118 JUMP JUMPDEST JUMPDEST POP SWAP1 POP PUSH3 0x145 SWAP2 SWAP1 PUSH3 0x149 JUMP JUMPDEST POP SWAP1 JUMP JUMPDEST JUMPDEST DUP1 DUP3 GT ISZERO PUSH3 0x164 JUMPI PUSH1 0x0 DUP2 PUSH1 0x0 SWAP1 SSTORE POP PUSH1 0x1 ADD PUSH3 0x14A JUMP JUMPDEST POP SWAP1 JUMP JUMPDEST PUSH1 0x0 PUSH1 0x2 DUP3 DIV SWAP1 POP PUSH1 0x1 DUP3 AND DUP1 PUSH3 0x181 JUMPI PUSH1 0x7F DUP3 AND SWAP2 POP JUMPDEST PUSH1 0x20 DUP3 LT DUP2 EQ ISZERO PUSH3 0x198 JUMPI PUSH3 0x197 PUSH3 0x19E JUMP JUMPDEST JUMPDEST POP SWAP2 SWAP1 POP JUMP JUMPDEST PUSH32 0x4E487B7100000000000000000000000000000000000000000000000000000000 PUSH1 0x0 MSTORE PUSH1 0x22 PUSH1 0x4 MSTORE PUSH1 0x24 PUSH1 0x0 REVERT JUMPDEST PUSH2 0x35F6 DUP1 PUSH3 0x1DD PUSH1 0x0 CODECOPY PUSH1 0x0 RETURN INVALID PUSH1 0x80 PUSH1 0x40 MSTORE CALLVALUE DUP1 ISZERO PUSH2 0x10 JUMPI PUSH1 0x0 DUP1 REVERT JUMPDEST POP PUSH1 0x4 CALLDATASIZE LT PUSH2 0x12C JUMPI PUSH1 0x0 CALLDATALOAD PUSH1 0xE0 SHR DUP1 PUSH4 0x6352211E GT PUSH2 0xAD JUMPI DUP1 PUSH4 0xA22CB465 GT PUSH2 0x71 JUMPI DUP1 PUSH4 0xA22CB465 EQ PUSH2 0x355 JUMPI DUP1 PUSH4 0xB88D4FDE EQ PUSH2 0x371 JUMPI DUP1 PUSH4 0xC87B56DD EQ PUSH2 0x38D JUMPI DUP1 PUSH4 0xE985E9C5 EQ PUSH2 0x3BD JUMPI DUP1 PUSH4 0xEED8CC35 EQ PUSH2 0x3ED JUMPI PUSH2 0x12C JUMP JUMPDEST DUP1 PUSH4 0x6352211E EQ PUSH2 0x29D JUMPI DUP1 PUSH4 0x70A08231 EQ PUSH2 0x2CD JUMPI DUP1 PUSH4 0x80574834 EQ PUSH2 0x2FD JUMPI DUP1 PUSH4 0x941ADA0E EQ PUSH2 0x319 JUMPI DUP1 PUSH4 0x95D89B41 EQ PUSH2 0x337 JUMPI PUSH2 0x12C JUMP JUMPDEST DUP1 PUSH4 0x23B872DD GT PUSH2 0xF4 JUMPI DUP1 PUSH4 0x23B872DD EQ PUSH2 0x1E7 JUMPI DUP1 PUSH4 0x42842E0E EQ PUSH2 0x203 JUMPI DUP1 PUSH4 0x436AFE32 EQ PUSH2 0x21F JUMPI DUP1 PUSH4 0x57991D30 EQ PUSH2 0x23D JUMPI DUP1 PUSH4 0x61EC30C4 EQ PUSH2 0x26D JUMPI PUSH2 0x12C JUMP JUMPDEST DUP1 PUSH4 0x1FFC9A7 EQ PUSH2 0x131 JUMPI DUP1 PUSH4 0x6FDDE03 EQ PUSH2 0x161 JUMPI DUP1 PUSH4 0x81812FC EQ PUSH2 0x17F JUMPI DUP1 PUSH4 0x95EA7B3 EQ PUSH2 0x1AF JUMPI DUP1 PUSH4 0x1BA7DDD2 EQ PUSH2 0x1CB JUMPI JUMPDEST PUSH1 0x0 DUP1 REVERT JUMPDEST PUSH2 0x14B PUSH1 0x4 DUP1 CALLDATASIZE SUB DUP2 ADD SWAP1 PUSH2 0x146 SWAP2 SWAP1 PUSH2 0x256E JUMP JUMPDEST PUSH2 0x41D JUMP JUMPDEST PUSH1 0x40 MLOAD PUSH2 0x158 SWAP2 SWAP1 PUSH2 0x2B46 JUMP JUMPDEST PUSH1 0x40 MLOAD DUP1 SWAP2 SUB SWAP1 RETURN JUMPDEST PUSH2 0x169 PUSH2 0x4FF JUMP JUMPDEST PUSH1 0x40 MLOAD PUSH2 0x176 SWAP2 SWAP1 PUSH2 0x2B61 JUMP JUMPDEST PUSH1 0x40 MLOAD DUP1 SWAP2 SUB SWAP1 RETURN JUMPDEST PUSH2 0x199 PUSH1 0x4 DUP1 CALLDATASIZE SUB DUP2 ADD SWAP1 PUSH2 0x194 SWAP2 SWAP1 PUSH2 0x2640 JUMP JUMPDEST PUSH2 0x591 JUMP JUMPDEST PUSH1 0x40 MLOAD PUSH2 0x1A6 SWAP2 SWAP1 PUSH2 0x2A94 JUMP JUMPDEST PUSH1 0x40 MLOAD DUP1 SWAP2 SUB SWAP1 RETURN JUMPDEST PUSH2 0x1C9 PUSH1 0x4 DUP1 CALLDATASIZE SUB DUP2 ADD SWAP1 PUSH2 0x1C4 SWAP2 SWAP1 PUSH2 0x2532 JUMP JUMPDEST PUSH2 0x5D7 JUMP JUMPDEST STOP JUMPDEST PUSH2 0x1E5 PUSH1 0x4 DUP1 CALLDATASIZE SUB DUP2 ADD SWAP1 PUSH2 0x1E0 SWAP2 SWAP1 PUSH2 0x25C0 JUMP JUMPDEST PUSH2 0x6EF JUMP JUMPDEST STOP JUMPDEST PUSH2 0x201 PUSH1 0x4 DUP1 CALLDATASIZE SUB DUP2 ADD SWAP1 PUSH2 0x1FC SWAP2 SWAP1 PUSH2 0x239A JUMP JUMPDEST PUSH2 0x913 JUMP JUMPDEST STOP JUMPDEST PUSH2 0x21D PUSH1 0x4 DUP1 CALLDATASIZE SUB DUP2 ADD SWAP1 PUSH2 0x218 SWAP2 SWAP1 PUSH2 0x239A JUMP JUMPDEST PUSH2 0x973 JUMP JUMPDEST STOP JUMPDEST PUSH2 0x227 PUSH2 0x993 JUMP JUMPDEST PUSH1 0x40 MLOAD PUSH2 0x234 SWAP2 SWAP1 PUSH2 0x2B46 JUMP JUMPDEST PUSH1 0x40 MLOAD DUP1 SWAP2 SUB SWAP1 RETURN JUMPDEST PUSH2 0x257 PUSH1 0x4 DUP1 CALLDATASIZE SUB DUP2 ADD SWAP1 PUSH2 0x252 SWAP2 SWAP1 PUSH2 0x2640 JUMP JUMPDEST PUSH2 0x9A6 JUMP JUMPDEST PUSH1 0x40 MLOAD PUSH2 0x264 SWAP2 SWAP1 PUSH2 0x2B24 JUMP JUMPDEST PUSH1 0x40 MLOAD DUP1 SWAP2 SUB SWAP1 RETURN JUMPDEST PUSH2 0x287 PUSH1 0x4 DUP1 CALLDATASIZE SUB DUP2 ADD SWAP1 PUSH2 0x282 SWAP2 SWAP1 PUSH2 0x2640 JUMP JUMPDEST PUSH2 0xAB2 JUMP JUMPDEST PUSH1 0x40 MLOAD PUSH2 0x294 SWAP2 SWAP1 PUSH2 0x2A94 JUMP JUMPDEST PUSH1 0x40 MLOAD DUP1 SWAP2 SUB SWAP1 RETURN JUMPDEST PUSH2 0x2B7 PUSH1 0x4 DUP1 CALLDATASIZE SUB DUP2 ADD SWAP1 PUSH2 0x2B2 SWAP2 SWAP1 PUSH2 0x2640 JUMP JUMPDEST PUSH2 0xAE5 JUMP JUMPDEST PUSH1 0x40 MLOAD PUSH2 0x2C4 SWAP2 SWAP1 PUSH2 0x2A94 JUMP JUMPDEST PUSH1 0x40 MLOAD DUP1 SWAP2 SUB SWAP1 RETURN JUMPDEST PUSH2 0x2E7 PUSH1 0x4 DUP1 CALLDATASIZE SUB DUP2 ADD SWAP1 PUSH2 0x2E2 SWAP2 SWAP1 PUSH2 0x2335 JUMP JUMPDEST PUSH2 0xB6C JUMP JUMPDEST PUSH1 0x40 MLOAD PUSH2 0x2F4 SWAP2 SWAP1 PUSH2 0x2DC3 JUMP JUMPDEST PUSH1 0x40 MLOAD DUP1 SWAP2 SUB SWAP1 RETURN JUMPDEST PUSH2 0x317 PUSH1 0x4 DUP1 CALLDATASIZE SUB DUP2 ADD SWAP1 PUSH2 0x312 SWAP2 SWAP1 PUSH2 0x2464 JUMP JUMPDEST PUSH2 0xC24 JUMP JUMPDEST STOP JUMPDEST PUSH2 0x321 PUSH2 0xD74 JUMP JUMPDEST PUSH1 0x40 MLOAD PUSH2 0x32E SWAP2 SWAP1 PUSH2 0x2B46 JUMP JUMPDEST PUSH1 0x40 MLOAD DUP1 SWAP2 SUB SWAP1 RETURN JUMPDEST PUSH2 0x33F PUSH2 0xD8B JUMP JUMPDEST PUSH1 0x40 MLOAD PUSH2 0x34C SWAP2 SWAP1 PUSH2 0x2B61 JUMP JUMPDEST PUSH1 0x40 MLOAD DUP1 SWAP2 SUB SWAP1 RETURN JUMPDEST PUSH2 0x36F PUSH1 0x4 DUP1 CALLDATASIZE SUB DUP2 ADD SWAP1 PUSH2 0x36A SWAP2 SWAP1 PUSH2 0x24F6 JUMP JUMPDEST PUSH2 0xE1D JUMP JUMPDEST STOP JUMPDEST PUSH2 0x38B PUSH1 0x4 DUP1 CALLDATASIZE SUB DUP2 ADD SWAP1 PUSH2 0x386 SWAP2 SWAP1 PUSH2 0x23E9 JUMP JUMPDEST PUSH2 0xE33 JUMP JUMPDEST STOP JUMPDEST PUSH2 0x3A7 PUSH1 0x4 DUP1 CALLDATASIZE SUB DUP2 ADD SWAP1 PUSH2 0x3A2 SWAP2 SWAP1 PUSH2 0x2640 JUMP JUMPDEST PUSH2 0xE95 JUMP JUMPDEST PUSH1 0x40 MLOAD PUSH2 0x3B4 SWAP2 SWAP1 PUSH2 0x2B61 JUMP JUMPDEST PUSH1 0x40 MLOAD DUP1 SWAP2 SUB SWAP1 RETURN JUMPDEST PUSH2 0x3D7 PUSH1 0x4 DUP1 CALLDATASIZE SUB DUP2 ADD SWAP1 PUSH2 0x3D2 SWAP2 SWAP1 PUSH2 0x235E JUMP JUMPDEST PUSH2 0xFA8 JUMP JUMPDEST PUSH1 0x40 MLOAD PUSH2 0x3E4 SWAP2 SWAP1 PUSH2 0x2B46 JUMP JUMPDEST PUSH1 0x40 MLOAD DUP1 SWAP2 SUB SWAP1 RETURN JUMPDEST PUSH2 0x407 PUSH1 0x4 DUP1 CALLDATASIZE SUB DUP2 ADD SWAP1 PUSH2 0x402 SWAP2 SWAP1 PUSH2 0x2669 JUMP JUMPDEST PUSH2 0x103C JUMP JUMPDEST PUSH1 0x40 MLOAD PUSH2 0x414 SWAP2 SWAP1 PUSH2 0x2DC3 JUMP JUMPDEST PUSH1 0x40 MLOAD DUP1 SWAP2 SUB SWAP1 RETURN JUMPDEST PUSH1 0x0 PUSH32 0x80AC58CD00000000000000000000000000000000000000000000000000000000 PUSH28 0xFFFFFFFFFFFFFFFFFFFFFFFFFFFFFFFFFFFFFFFFFFFFFFFFFFFFFFFF NOT AND DUP3 PUSH28 0xFFFFFFFFFFFFFFFFFFFFFFFFFFFFFFFFFFFFFFFFFFFFFFFFFFFFFFFF NOT AND EQ DUP1 PUSH2 0x4E8 JUMPI POP PUSH32 0x5B5E139F00000000000000000000000000000000000000000000000000000000 PUSH28 0xFFFFFFFFFFFFFFFFFFFFFFFFFFFFFFFFFFFFFFFFFFFFFFFFFFFFFFFF NOT AND DUP3 PUSH28 0xFFFFFFFFFFFFFFFFFFFFFFFFFFFFFFFFFFFFFFFFFFFFFFFFFFFFFFFF NOT AND EQ JUMPDEST DUP1 PUSH2 0x4F8 JUMPI POP PUSH2 0x4F7 DUP3 PUSH2 0x106D JUMP JUMPDEST JUMPDEST SWAP1 POP SWAP2 SWAP1 POP JUMP JUMPDEST PUSH1 0x60 PUSH1 0x0 DUP1 SLOAD PUSH2 0x50E SWAP1 PUSH2 0x2FBC JUMP JUMPDEST DUP1 PUSH1 0x1F ADD PUSH1 0x20 DUP1 SWAP2 DIV MUL PUSH1 0x20 ADD PUSH1 0x40 MLOAD SWAP1 DUP2 ADD PUSH1 0x40 MSTORE DUP1 SWAP3 SWAP2 SWAP1 DUP2 DUP2 MSTORE PUSH1 0x20 ADD DUP3 DUP1 SLOAD PUSH2 0x53A SWAP1 PUSH2 0x2FBC JUMP JUMPDEST DUP1 ISZERO PUSH2 0x587 JUMPI DUP1 PUSH1 0x1F LT PUSH2 0x55C JUMPI PUSH2 0x100 DUP1 DUP4 SLOAD DIV MUL DUP4 MSTORE SWAP2 PUSH1 0x20 ADD SWAP2 PUSH2 0x587 JUMP JUMPDEST DUP3 ADD SWAP2 SWAP1 PUSH1 0x0 MSTORE PUSH1 0x20 PUSH1 0x0 KECCAK256 SWAP1 JUMPDEST DUP2 SLOAD DUP2 MSTORE SWAP1 PUSH1 0x1 ADD SWAP1 PUSH1 0x20 ADD DUP1 DUP4 GT PUSH2 0x56A JUMPI DUP3 SWAP1 SUB PUSH1 0x1F AND DUP3 ADD SWAP2 JUMPDEST POP POP POP POP POP SWAP1 POP SWAP1 JUMP JUMPDEST PUSH1 0x0 PUSH2 0x59C DUP3 PUSH2 0x10D7 JUMP JUMPDEST PUSH1 0x4 PUSH1 0x0 DUP4 DUP2 MSTORE PUSH1 0x20 ADD SWAP1 DUP2 MSTORE PUSH1 0x20 ADD PUSH1 0x0 KECCAK256 PUSH1 0x0 SWAP1 SLOAD SWAP1 PUSH2 0x100 EXP SWAP1 DIV PUSH20 0xFFFFFFFFFFFFFFFFFFFFFFFFFFFFFFFFFFFFFFFF AND SWAP1 POP SWAP2 SWAP1 POP JUMP JUMPDEST PUSH1 0x0 PUSH2 0x5E2 DUP3 PUSH2 0xAE5 JUMP JUMPDEST SWAP1 POP DUP1 PUSH20 0xFFFFFFFFFFFFFFFFFFFFFFFFFFFFFFFFFFFFFFFF AND DUP4 PUSH20 0xFFFFFFFFFFFFFFFFFFFFFFFFFFFFFFFFFFFFFFFF AND EQ ISZERO PUSH2 0x653 JUMPI PUSH1 0x40 MLOAD PUSH32 0x8C379A000000000000000000000000000000000000000000000000000000000 DUP2 MSTORE PUSH1 0x4 ADD PUSH2 0x64A SWAP1 PUSH2 0x2D63 JUMP JUMPDEST PUSH1 0x40 MLOAD DUP1 SWAP2 SUB SWAP1 REVERT JUMPDEST DUP1 PUSH20 0xFFFFFFFFFFFFFFFFFFFFFFFFFFFFFFFFFFFFFFFF AND PUSH2 0x672 PUSH2 0x1122 JUMP JUMPDEST PUSH20 0xFFFFFFFFFFFFFFFFFFFFFFFFFFFFFFFFFFFFFFFF AND EQ DUP1 PUSH2 0x6A1 JUMPI POP PUSH2 0x6A0 DUP2 PUSH2 0x69B PUSH2 0x1122 JUMP JUMPDEST PUSH2 0xFA8 JUMP JUMPDEST JUMPDEST PUSH2 0x6E0 JUMPI PUSH1 0x40 MLOAD PUSH32 0x8C379A000000000000000000000000000000000000000000000000000000000 DUP2 MSTORE PUSH1 0x4 ADD PUSH2 0x6D7 SWAP1 PUSH2 0x2D83 JUMP JUMPDEST PUSH1 0x40 MLOAD DUP1 SWAP2 SUB SWAP1 REVERT JUMPDEST PUSH2 0x6EA DUP4 DUP4 PUSH2 0x112A JUMP JUMPDEST POP POP POP JUMP JUMPDEST PUSH1 0x0 DUP4 GT PUSH2 0x732 JUMPI PUSH1 0x40 MLOAD PUSH32 0x8C379A000000000000000000000000000000000000000000000000000000000 DUP2 MSTORE PUSH1 0x4 ADD PUSH2 0x729 SWAP1 PUSH2 0x2CC3 JUMP JUMPDEST PUSH1 0x40 MLOAD DUP1 SWAP2 SUB SWAP1 REVERT JUMPDEST PUSH1 0x0 DUP3 LT ISZERO DUP1 ISZERO PUSH2 0x744 JUMPI POP PUSH1 0x1 DUP3 GT ISZERO JUMPDEST PUSH2 0x783 JUMPI PUSH1 0x40 MLOAD PUSH32 0x8C379A000000000000000000000000000000000000000000000000000000000 DUP2 MSTORE PUSH1 0x4 ADD PUSH2 0x77A SWAP1 PUSH2 0x2D23 JUMP JUMPDEST PUSH1 0x40 MLOAD DUP1 SWAP2 SUB SWAP1 REVERT JUMPDEST PUSH1 0x0 PUSH2 0x78F PUSH1 0x9 PUSH2 0x11E3 JUMP JUMPDEST SWAP1 POP PUSH2 0x79B PUSH1 0x9 PUSH2 0x11F1 JUMP JUMPDEST PUSH1 0x0 PUSH1 0xA PUSH1 0x0 PUSH2 0x100 EXP DUP2 SLOAD DUP2 PUSH1 0xFF MUL NOT AND SWAP1 DUP4 ISZERO ISZERO MUL OR SWAP1 SSTORE POP PUSH1 0x0 JUMPDEST DUP5 DUP2 LT ISZERO PUSH2 0x8D1 JUMPI PUSH1 0x0 PUSH2 0x7CE DUP9 DUP9 DUP8 PUSH2 0x1207 JUMP JUMPDEST SWAP1 POP PUSH1 0xB PUSH1 0x0 DUP5 DUP2 MSTORE PUSH1 0x20 ADD SWAP1 DUP2 MSTORE PUSH1 0x20 ADD PUSH1 0x0 KECCAK256 DUP2 SWAP1 DUP1 PUSH1 0x1 DUP2 SLOAD ADD DUP1 DUP3 SSTORE DUP1 SWAP2 POP POP PUSH1 0x1 SWAP1 SUB SWAP1 PUSH1 0x0 MSTORE PUSH1 0x20 PUSH1 0x0 KECCAK256 ADD PUSH1 0x0 SWAP1 SWAP2 SWAP1 SWAP2 SWAP1 SWAP2 POP SSTORE CALLER PUSH1 0xC PUSH1 0x0 DUP6 DUP2 MSTORE PUSH1 0x20 ADD SWAP1 DUP2 MSTORE PUSH1 0x20 ADD PUSH1 0x0 KECCAK256 PUSH1 0x0 PUSH2 0x100 EXP DUP2 SLOAD DUP2 PUSH20 0xFFFFFFFFFFFFFFFFFFFFFFFFFFFFFFFFFFFFFFFF MUL NOT AND SWAP1 DUP4 PUSH20 0xFFFFFFFFFFFFFFFFFFFFFFFFFFFFFFFFFFFFFFFF AND MUL OR SWAP1 SSTORE POP DUP4 PUSH1 0xD PUSH1 0x0 DUP4 DUP2 MSTORE PUSH1 0x20 ADD SWAP1 DUP2 MSTORE PUSH1 0x20 ADD PUSH1 0x0 KECCAK256 PUSH1 0x0 PUSH2 0x100 EXP DUP2 SLOAD DUP2 PUSH1 0xFF MUL NOT AND SWAP1 DUP4 ISZERO ISZERO MUL OR SWAP1 SSTORE POP PUSH1 0x0 PUSH1 0x1 DUP3 PUSH2 0x896 SWAP2 SWAP1 PUSH2 0x2EB0 JUMP JUMPDEST SWAP1 POP DUP7 DUP2 EQ ISZERO PUSH2 0x8BC JUMPI PUSH1 0x1 PUSH1 0xA PUSH1 0x0 PUSH2 0x100 EXP DUP2 SLOAD DUP2 PUSH1 0xFF MUL NOT AND SWAP1 DUP4 ISZERO ISZERO MUL OR SWAP1 SSTORE POP JUMPDEST POP POP DUP1 DUP1 PUSH2 0x8C9 SWAP1 PUSH2 0x301F JUMP JUMPDEST SWAP2 POP POP PUSH2 0x7B9 JUMP JUMPDEST POP PUSH32 0xB9144C96C86541F6FA89C9F2F02495CCCF4B08CD6643E26D34EE00AA586558A8 CALLER DUP3 PUSH1 0x40 MLOAD PUSH2 0x903 SWAP3 SWAP2 SWAP1 PUSH2 0x2AFB JUMP JUMPDEST PUSH1 0x40 MLOAD DUP1 SWAP2 SUB SWAP1 LOG1 POP POP POP POP POP POP JUMP JUMPDEST PUSH2 0x924 PUSH2 0x91E PUSH2 0x1122 JUMP JUMPDEST DUP3 PUSH2 0x12D3 JUMP JUMPDEST PUSH2 0x963 JUMPI PUSH1 0x40 MLOAD PUSH32 0x8C379A000000000000000000000000000000000000000000000000000000000 DUP2 MSTORE PUSH1 0x4 ADD PUSH2 0x95A SWAP1 PUSH2 0x2BA3 JUMP JUMPDEST PUSH1 0x40 MLOAD DUP1 SWAP2 SUB SWAP1 REVERT JUMPDEST PUSH2 0x96E DUP4 DUP4 DUP4 PUSH2 0x1368 JUMP JUMPDEST POP POP POP JUMP JUMPDEST PUSH2 0x98E DUP4 DUP4 DUP4 PUSH1 0x40 MLOAD DUP1 PUSH1 0x20 ADD PUSH1 0x40 MSTORE DUP1 PUSH1 0x0 DUP2 MSTORE POP PUSH2 0xE33 JUMP JUMPDEST POP POP POP JUMP JUMPDEST PUSH1 0xA PUSH1 0x0 SWAP1 SLOAD SWAP1 PUSH2 0x100 EXP SWAP1 DIV PUSH1 0xFF AND DUP2 JUMP JUMPDEST PUSH1 0x60 CALLER PUSH20 0xFFFFFFFFFFFFFFFFFFFFFFFFFFFFFFFFFFFFFFFF AND PUSH1 0xC PUSH1 0x0 DUP5 DUP2 MSTORE PUSH1 0x20 ADD SWAP1 DUP2 MSTORE PUSH1 0x20 ADD PUSH1 0x0 KECCAK256 PUSH1 0x0 SWAP1 SLOAD SWAP1 PUSH2 0x100 EXP SWAP1 DIV PUSH20 0xFFFFFFFFFFFFFFFFFFFFFFFFFFFFFFFFFFFFFFFF AND PUSH20 0xFFFFFFFFFFFFFFFFFFFFFFFFFFFFFFFFFFFFFFFF AND EQ PUSH2 0xA49 JUMPI PUSH1 0x40 MLOAD PUSH32 0x8C379A000000000000000000000000000000000000000000000000000000000 DUP2 MSTORE PUSH1 0x4 ADD PUSH2 0xA40 SWAP1 PUSH2 0x2C63 JUMP JUMPDEST PUSH1 0x40 MLOAD DUP1 SWAP2 SUB SWAP1 REVERT JUMPDEST PUSH1 0xB PUSH1 0x0 DUP4 DUP2 MSTORE PUSH1 0x20 ADD SWAP1 DUP2 MSTORE PUSH1 0x20 ADD PUSH1 0x0 KECCAK256 DUP1 SLOAD DUP1 PUSH1 0x20 MUL PUSH1 0x20 ADD PUSH1 0x40 MLOAD SWAP1 DUP2 ADD PUSH1 0x40 MSTORE DUP1 SWAP3 SWAP2 SWAP1 DUP2 DUP2 MSTORE PUSH1 0x20 ADD DUP3 DUP1 SLOAD DUP1 ISZERO PUSH2 0xAA6 JUMPI PUSH1 0x20 MUL DUP3 ADD SWAP2 SWAP1 PUSH1 0x0 MSTORE PUSH1 0x20 PUSH1 0x0 KECCAK256 SWAP1 JUMPDEST DUP2 SLOAD DUP2 MSTORE PUSH1 0x20 ADD SWAP1 PUSH1 0x1 ADD SWAP1 DUP1 DUP4 GT PUSH2 0xA92 JUMPI JUMPDEST POP POP POP POP POP SWAP1 POP SWAP2 SWAP1 POP JUMP JUMPDEST PUSH1 0xC PUSH1 0x20 MSTORE DUP1 PUSH1 0x0 MSTORE PUSH1 0x40 PUSH1 0x0 KECCAK256 PUSH1 0x0 SWAP2 POP SLOAD SWAP1 PUSH2 0x100 EXP SWAP1 DIV PUSH20 0xFFFFFFFFFFFFFFFFFFFFFFFFFFFFFFFFFFFFFFFF AND DUP2 JUMP JUMPDEST PUSH1 0x0 DUP1 PUSH2 0xAF1 DUP4 PUSH2 0x1662 JUMP JUMPDEST SWAP1 POP PUSH1 0x0 PUSH20 0xFFFFFFFFFFFFFFFFFFFFFFFFFFFFFFFFFFFFFFFF AND DUP2 PUSH20 0xFFFFFFFFFFFFFFFFFFFFFFFFFFFFFFFFFFFFFFFF AND EQ ISZERO PUSH2 0xB63 JUMPI PUSH1 0x40 MLOAD PUSH32 0x8C379A000000000000000000000000000000000000000000000000000000000 DUP2 MSTORE PUSH1 0x4 ADD PUSH2 0xB5A SWAP1 PUSH2 0x2D43 JUMP JUMPDEST PUSH1 0x40 MLOAD DUP1 SWAP2 SUB SWAP1 REVERT JUMPDEST DUP1 SWAP2 POP POP SWAP2 SWAP1 POP JUMP JUMPDEST PUSH1 0x0 DUP1 PUSH20 0xFFFFFFFFFFFFFFFFFFFFFFFFFFFFFFFFFFFFFFFF AND DUP3 PUSH20 0xFFFFFFFFFFFFFFFFFFFFFFFFFFFFFFFFFFFFFFFF AND EQ ISZERO PUSH2 0xBDD JUMPI PUSH1 0x40 MLOAD PUSH32 0x8C379A000000000000000000000000000000000000000000000000000000000 DUP2 MSTORE PUSH1 0x4 ADD PUSH2 0xBD4 SWAP1 PUSH2 0x2CA3 JUMP JUMPDEST PUSH1 0x40 MLOAD DUP1 SWAP2 SUB SWAP1 REVERT JUMPDEST PUSH1 0x3 PUSH1 0x0 DUP4 PUSH20 0xFFFFFFFFFFFFFFFFFFFFFFFFFFFFFFFFFFFFFFFF AND PUSH20 0xFFFFFFFFFFFFFFFFFFFFFFFFFFFFFFFFFFFFFFFF AND DUP2 MSTORE PUSH1 0x20 ADD SWAP1 DUP2 MSTORE PUSH1 0x20 ADD PUSH1 0x0 KECCAK256 SLOAD SWAP1 POP SWAP2 SWAP1 POP JUMP JUMPDEST PUSH1 0x0 DUP2 LT ISZERO DUP1 ISZERO PUSH2 0xC36 JUMPI POP PUSH1 0x1 DUP2 GT ISZERO JUMPDEST PUSH2 0xC75 JUMPI PUSH1 0x40 MLOAD PUSH32 0x8C379A000000000000000000000000000000000000000000000000000000000 DUP2 MSTORE PUSH1 0x4 ADD PUSH2 0xC6C SWAP1 PUSH2 0x2D23 JUMP JUMPDEST PUSH1 0x40 MLOAD DUP1 SWAP2 SUB SWAP1 REVERT JUMPDEST PUSH1 0x1 DUP2 EQ ISZERO PUSH2 0xCCD JUMPI PUSH2 0xCCC DUP5 DUP5 DUP5 DUP1 DUP1 PUSH1 0x1F ADD PUSH1 0x20 DUP1 SWAP2 DIV MUL PUSH1 0x20 ADD PUSH1 0x40 MLOAD SWAP1 DUP2 ADD PUSH1 0x40 MSTORE DUP1 SWAP4 SWAP3 SWAP2 SWAP1 DUP2 DUP2 MSTORE PUSH1 0x20 ADD DUP4 DUP4 DUP1 DUP3 DUP5 CALLDATACOPY PUSH1 0x0 DUP2 DUP5 ADD MSTORE PUSH1 0x1F NOT PUSH1 0x1F DUP3 ADD AND SWAP1 POP DUP1 DUP4 ADD SWAP3 POP POP POP POP POP POP POP PUSH2 0x169F JUMP JUMPDEST JUMPDEST ADDRESS PUSH20 0xFFFFFFFFFFFFFFFFFFFFFFFFFFFFFFFFFFFFFFFF AND DUP7 PUSH20 0xFFFFFFFFFFFFFFFFFFFFFFFFFFFFFFFFFFFFFFFF AND EQ PUSH2 0xD60 JUMPI PUSH2 0xD0A CALLER DUP6 PUSH2 0x12D3 JUMP JUMPDEST PUSH2 0xD49 JUMPI PUSH1 0x40 MLOAD PUSH32 0x8C379A000000000000000000000000000000000000000000000000000000000 DUP2 MSTORE PUSH1 0x4 ADD PUSH2 0xD40 SWAP1 PUSH2 0x2DA3 JUMP JUMPDEST PUSH1 0x40 MLOAD DUP1 SWAP2 SUB SWAP1 REVERT JUMPDEST PUSH2 0xD5B PUSH2 0xD54 PUSH2 0x1122 JUMP JUMPDEST DUP7 DUP7 PUSH2 0x1368 JUMP JUMPDEST PUSH2 0xD6C JUMP JUMPDEST PUSH2 0xD6B DUP7 DUP7 DUP7 PUSH2 0x1368 JUMP JUMPDEST JUMPDEST POP POP POP POP POP POP JUMP JUMPDEST PUSH1 0x0 PUSH1 0xA PUSH1 0x0 SWAP1 SLOAD SWAP1 PUSH2 0x100 EXP SWAP1 DIV PUSH1 0xFF AND SWAP1 POP SWAP1 JUMP JUMPDEST PUSH1 0x60 PUSH1 0x1 DUP1 SLOAD PUSH2 0xD9A SWAP1 PUSH2 0x2FBC JUMP JUMPDEST DUP1 PUSH1 0x1F ADD PUSH1 0x20 DUP1 SWAP2 DIV MUL PUSH1 0x20 ADD PUSH1 0x40 MLOAD SWAP1 DUP2 ADD PUSH1 0x40 MSTORE DUP1 SWAP3 SWAP2 SWAP1 DUP2 DUP2 MSTORE PUSH1 0x20 ADD DUP3 DUP1 SLOAD PUSH2 0xDC6 SWAP1 PUSH2 0x2FBC JUMP JUMPDEST DUP1 ISZERO PUSH2 0xE13 JUMPI DUP1 PUSH1 0x1F LT PUSH2 0xDE8 JUMPI PUSH2 0x100 DUP1 DUP4 SLOAD DIV MUL DUP4 MSTORE SWAP2 PUSH1 0x20 ADD SWAP2 PUSH2 0xE13 JUMP JUMPDEST DUP3 ADD SWAP2 SWAP1 PUSH1 0x0 MSTORE PUSH1 0x20 PUSH1 0x0 KECCAK256 SWAP1 JUMPDEST DUP2 SLOAD DUP2 MSTORE SWAP1 PUSH1 0x1 ADD SWAP1 PUSH1 0x20 ADD DUP1 DUP4 GT PUSH2 0xDF6 JUMPI DUP3 SWAP1 SUB PUSH1 0x1F AND DUP3 ADD SWAP2 JUMPDEST POP POP POP POP POP SWAP1 POP SWAP1 JUMP JUMPDEST PUSH2 0xE2F PUSH2 0xE28 PUSH2 0x1122 JUMP JUMPDEST DUP4 DUP4 PUSH2 0x1713 JUMP JUMPDEST POP POP JUMP JUMPDEST PUSH2 0xE44 PUSH2 0xE3E PUSH2 0x1122 JUMP JUMPDEST DUP4 PUSH2 0x12D3 JUMP JUMPDEST PUSH2 0xE83 JUMPI PUSH1 0x40 MLOAD PUSH32 0x8C379A000000000000000000000000000000000000000000000000000000000 DUP2 MSTORE PUSH1 0x4 ADD PUSH2 0xE7A SWAP1 PUSH2 0x2BA3 JUMP JUMPDEST PUSH1 0x40 MLOAD DUP1 SWAP2 SUB SWAP1 REVERT JUMPDEST PUSH2 0xE8F DUP5 DUP5 DUP5 DUP5 PUSH2 0x1880 JUMP JUMPDEST POP POP POP POP JUMP JUMPDEST PUSH1 0x60 PUSH2 0xEA0 DUP3 PUSH2 0x10D7 JUMP JUMPDEST PUSH1 0x0 PUSH1 0x6 PUSH1 0x0 DUP5 DUP2 MSTORE PUSH1 0x20 ADD SWAP1 DUP2 MSTORE PUSH1 0x20 ADD PUSH1 0x0 KECCAK256 DUP1 SLOAD PUSH2 0xEC0 SWAP1 PUSH2 0x2FBC JUMP JUMPDEST DUP1 PUSH1 0x1F ADD PUSH1 0x20 DUP1 SWAP2 DIV MUL PUSH1 0x20 ADD PUSH1 0x40 MLOAD SWAP1 DUP2 ADD PUSH1 0x40 MSTORE DUP1 SWAP3 SWAP2 SWAP1 DUP2 DUP2 MSTORE PUSH1 0x20 ADD DUP3 DUP1 SLOAD PUSH2 0xEEC SWAP1 PUSH2 0x2FBC JUMP JUMPDEST DUP1 ISZERO PUSH2 0xF39 JUMPI DUP1 PUSH1 0x1F LT PUSH2 0xF0E JUMPI PUSH2 0x100 DUP1 DUP4 SLOAD DIV MUL DUP4 MSTORE SWAP2 PUSH1 0x20 ADD SWAP2 PUSH2 0xF39 JUMP JUMPDEST DUP3 ADD SWAP2 SWAP1 PUSH1 0x0 MSTORE PUSH1 0x20 PUSH1 0x0 KECCAK256 SWAP1 JUMPDEST DUP2 SLOAD DUP2 MSTORE SWAP1 PUSH1 0x1 ADD SWAP1 PUSH1 0x20 ADD DUP1 DUP4 GT PUSH2 0xF1C JUMPI DUP3 SWAP1 SUB PUSH1 0x1F AND DUP3 ADD SWAP2 JUMPDEST POP POP POP POP POP SWAP1 POP PUSH1 0x0 PUSH2 0xF4A PUSH2 0x18DC JUMP JUMPDEST SWAP1 POP PUSH1 0x0 DUP2 MLOAD EQ ISZERO PUSH2 0xF60 JUMPI DUP2 SWAP3 POP POP POP PUSH2 0xFA3 JUMP JUMPDEST PUSH1 0x0 DUP3 MLOAD GT ISZERO PUSH2 0xF95 JUMPI DUP1 DUP3 PUSH1 0x40 MLOAD PUSH1 0x20 ADD PUSH2 0xF7D SWAP3 SWAP2 SWAP1 PUSH2 0x2A70 JUMP JUMPDEST PUSH1 0x40 MLOAD PUSH1 0x20 DUP2 DUP4 SUB SUB DUP2 MSTORE SWAP1 PUSH1 0x40 MSTORE SWAP3 POP POP POP PUSH2 0xFA3 JUMP JUMPDEST PUSH2 0xF9E DUP5 PUSH2 0x18F3 JUMP JUMPDEST SWAP3 POP POP POP JUMPDEST SWAP2 SWAP1 POP JUMP JUMPDEST PUSH1 0x0 PUSH1 0x5 PUSH1 0x0 DUP5 PUSH20 0xFFFFFFFFFFFFFFFFFFFFFFFFFFFFFFFFFFFFFFFF AND PUSH20 0xFFFFFFFFFFFFFFFFFFFFFFFFFFFFFFFFFFFFFFFF AND DUP2 MSTORE PUSH1 0x20 ADD SWAP1 DUP2 MSTORE PUSH1 0x20 ADD PUSH1 0x0 KECCAK256 PUSH1 0x0 DUP4 PUSH20 0xFFFFFFFFFFFFFFFFFFFFFFFFFFFFFFFFFFFFFFFF AND PUSH20 0xFFFFFFFFFFFFFFFFFFFFFFFFFFFFFFFFFFFFFFFF AND DUP2 MSTORE PUSH1 0x20 ADD SWAP1 DUP2 MSTORE PUSH1 0x20 ADD PUSH1 0x0 KECCAK256 PUSH1 0x0 SWAP1 SLOAD SWAP1 PUSH2 0x100 EXP SWAP1 DIV PUSH1 0xFF AND SWAP1 POP SWAP3 SWAP2 POP POP JUMP JUMPDEST PUSH1 0xB PUSH1 0x20 MSTORE DUP2 PUSH1 0x0 MSTORE PUSH1 0x40 PUSH1 0x0 KECCAK256 DUP2 DUP2 SLOAD DUP2 LT PUSH2 0x1058 JUMPI PUSH1 0x0 DUP1 REVERT JUMPDEST SWAP1 PUSH1 0x0 MSTORE PUSH1 0x20 PUSH1 0x0 KECCAK256 ADD PUSH1 0x0 SWAP2 POP SWAP2 POP POP SLOAD DUP2 JUMP JUMPDEST PUSH1 0x0 PUSH32 0x1FFC9A700000000000000000000000000000000000000000000000000000000 PUSH28 0xFFFFFFFFFFFFFFFFFFFFFFFFFFFFFFFFFFFFFFFFFFFFFFFFFFFFFFFF NOT AND DUP3 PUSH28 0xFFFFFFFFFFFFFFFFFFFFFFFFFFFFFFFFFFFFFFFFFFFFFFFFFFFFFFFF NOT AND EQ SWAP1 POP SWAP2 SWAP1 POP JUMP JUMPDEST PUSH2 0x10E0 DUP2 PUSH2 0x195B JUMP JUMPDEST PUSH2 0x111F JUMPI PUSH1 0x40 MLOAD PUSH32 0x8C379A000000000000000000000000000000000000000000000000000000000 DUP2 MSTORE PUSH1 0x4 ADD PUSH2 0x1116 SWAP1 PUSH2 0x2D43 JUMP JUMPDEST PUSH1 0x40 MLOAD DUP1 SWAP2 SUB SWAP1 REVERT JUMPDEST POP JUMP JUMPDEST PUSH1 0x0 CALLER SWAP1 POP SWAP1 JUMP JUMPDEST DUP2 PUSH1 0x4 PUSH1 0x0 DUP4 DUP2 MSTORE PUSH1 0x20 ADD SWAP1 DUP2 MSTORE PUSH1 0x20 ADD PUSH1 0x0 KECCAK256 PUSH1 0x0 PUSH2 0x100 EXP DUP2 SLOAD DUP2 PUSH20 0xFFFFFFFFFFFFFFFFFFFFFFFFFFFFFFFFFFFFFFFF MUL NOT AND SWAP1 DUP4 PUSH20 0xFFFFFFFFFFFFFFFFFFFFFFFFFFFFFFFFFFFFFFFF AND MUL OR SWAP1 SSTORE POP DUP1 DUP3 PUSH20 0xFFFFFFFFFFFFFFFFFFFFFFFFFFFFFFFFFFFFFFFF AND PUSH2 0x119D DUP4 PUSH2 0xAE5 JUMP JUMPDEST PUSH20 0xFFFFFFFFFFFFFFFFFFFFFFFFFFFFFFFFFFFFFFFF AND PUSH32 0x8C5BE1E5EBEC7D5BD14F71427D1E84F3DD0314C0F7B2291E5B200AC8C7C3B925 PUSH1 0x40 MLOAD PUSH1 0x40 MLOAD DUP1 SWAP2 SUB SWAP1 LOG4 POP POP JUMP JUMPDEST PUSH1 0x0 DUP2 PUSH1 0x0 ADD SLOAD SWAP1 POP SWAP2 SWAP1 POP JUMP JUMPDEST PUSH1 0x1 DUP2 PUSH1 0x0 ADD PUSH1 0x0 DUP3 DUP3 SLOAD ADD SWAP3 POP POP DUP2 SWAP1 SSTORE POP POP JUMP JUMPDEST PUSH1 0x0 DUP1 PUSH2 0x1214 PUSH1 0x8 PUSH2 0x11E3 JUMP JUMPDEST SWAP1 POP PUSH2 0x1220 PUSH1 0x8 PUSH2 0x11F1 JUMP JUMPDEST PUSH2 0x122A ADDRESS DUP3 PUSH2 0x199C JUMP JUMPDEST PUSH1 0x0 DUP4 EQ ISZERO PUSH2 0x12C8 JUMPI PUSH1 0x0 DUP6 DUP6 SWAP1 POP GT PUSH2 0x1279 JUMPI PUSH1 0x40 MLOAD PUSH32 0x8C379A000000000000000000000000000000000000000000000000000000000 DUP2 MSTORE PUSH1 0x4 ADD PUSH2 0x1270 SWAP1 PUSH2 0x2C83 JUMP JUMPDEST PUSH1 0x40 MLOAD DUP1 SWAP2 SUB SWAP1 REVERT JUMPDEST PUSH2 0x12C7 DUP2 DUP7 DUP7 DUP1 DUP1 PUSH1 0x1F ADD PUSH1 0x20 DUP1 SWAP2 DIV MUL PUSH1 0x20 ADD PUSH1 0x40 MLOAD SWAP1 DUP2 ADD PUSH1 0x40 MSTORE DUP1 SWAP4 SWAP3 SWAP2 SWAP1 DUP2 DUP2 MSTORE PUSH1 0x20 ADD DUP4 DUP4 DUP1 DUP3 DUP5 CALLDATACOPY PUSH1 0x0 DUP2 DUP5 ADD MSTORE PUSH1 0x1F NOT PUSH1 0x1F DUP3 ADD AND SWAP1 POP DUP1 DUP4 ADD SWAP3 POP POP POP POP POP POP POP PUSH2 0x169F JUMP JUMPDEST JUMPDEST DUP1 SWAP2 POP POP SWAP4 SWAP3 POP POP POP JUMP JUMPDEST PUSH1 0x0 DUP1 PUSH2 0x12DF DUP4 PUSH2 0xAE5 JUMP JUMPDEST SWAP1 POP DUP1 PUSH20 0xFFFFFFFFFFFFFFFFFFFFFFFFFFFFFFFFFFFFFFFF AND DUP5 PUSH20 0xFFFFFFFFFFFFFFFFFFFFFFFFFFFFFFFFFFFFFFFF AND EQ DUP1 PUSH2 0x1321 JUMPI POP PUSH2 0x1320 DUP2 DUP6 PUSH2 0xFA8 JUMP JUMPDEST JUMPDEST DUP1 PUSH2 0x135F JUMPI POP DUP4 PUSH20 0xFFFFFFFFFFFFFFFFFFFFFFFFFFFFFFFFFFFFFFFF AND PUSH2 0x1347 DUP5 PUSH2 0x591 JUMP JUMPDEST PUSH20 0xFFFFFFFFFFFFFFFFFFFFFFFFFFFFFFFFFFFFFFFF AND EQ JUMPDEST SWAP2 POP POP SWAP3 SWAP2 POP POP JUMP JUMPDEST DUP3 PUSH20 0xFFFFFFFFFFFFFFFFFFFFFFFFFFFFFFFFFFFFFFFF AND PUSH2 0x1388 DUP3 PUSH2 0xAE5 JUMP JUMPDEST PUSH20 0xFFFFFFFFFFFFFFFFFFFFFFFFFFFFFFFFFFFFFFFF AND EQ PUSH2 0x13DE JUMPI PUSH1 0x40 MLOAD PUSH32 0x8C379A000000000000000000000000000000000000000000000000000000000 DUP2 MSTORE PUSH1 0x4 ADD PUSH2 0x13D5 SWAP1 PUSH2 0x2BE3 JUMP JUMPDEST PUSH1 0x40 MLOAD DUP1 SWAP2 SUB SWAP1 REVERT JUMPDEST PUSH1 0x0 PUSH20 0xFFFFFFFFFFFFFFFFFFFFFFFFFFFFFFFFFFFFFFFF AND DUP3 PUSH20 0xFFFFFFFFFFFFFFFFFFFFFFFFFFFFFFFFFFFFFFFF AND EQ ISZERO PUSH2 0x144E JUMPI PUSH1 0x40 MLOAD PUSH32 0x8C379A000000000000000000000000000000000000000000000000000000000 DUP2 MSTORE PUSH1 0x4 ADD PUSH2 0x1445 SWAP1 PUSH2 0x2C23 JUMP JUMPDEST PUSH1 0x40 MLOAD DUP1 SWAP2 SUB SWAP1 REVERT JUMPDEST PUSH2 0x145B DUP4 DUP4 DUP4 PUSH1 0x1 PUSH2 0x1BBA JUMP JUMPDEST DUP3 PUSH20 0xFFFFFFFFFFFFFFFFFFFFFFFFFFFFFFFFFFFFFFFF AND PUSH2 0x147B DUP3 PUSH2 0xAE5 JUMP JUMPDEST PUSH20 0xFFFFFFFFFFFFFFFFFFFFFFFFFFFFFFFFFFFFFFFF AND EQ PUSH2 0x14D1 JUMPI PUSH1 0x40 MLOAD PUSH32 0x8C379A000000000000000000000000000000000000000000000000000000000 DUP2 MSTORE PUSH1 0x4 ADD PUSH2 0x14C8 SWAP1 PUSH2 0x2BE3 JUMP JUMPDEST PUSH1 0x40 MLOAD DUP1 SWAP2 SUB SWAP1 REVERT JUMPDEST PUSH1 0x4 PUSH1 0x0 DUP3 DUP2 MSTORE PUSH1 0x20 ADD SWAP1 DUP2 MSTORE PUSH1 0x20 ADD PUSH1 0x0 KECCAK256 PUSH1 0x0 PUSH2 0x100 EXP DUP2 SLOAD SWAP1 PUSH20 0xFFFFFFFFFFFFFFFFFFFFFFFFFFFFFFFFFFFFFFFF MUL NOT AND SWAP1 SSTORE PUSH1 0x1 PUSH1 0x3 PUSH1 0x0 DUP6 PUSH20 0xFFFFFFFFFFFFFFFFFFFFFFFFFFFFFFFFFFFFFFFF AND PUSH20 0xFFFFFFFFFFFFFFFFFFFFFFFFFFFFFFFFFFFFFFFF AND DUP2 MSTORE PUSH1 0x20 ADD SWAP1 DUP2 MSTORE PUSH1 0x20 ADD PUSH1 0x0 KECCAK256 PUSH1 0x0 DUP3 DUP3 SLOAD SUB SWAP3 POP POP DUP2 SWAP1 SSTORE POP PUSH1 0x1 PUSH1 0x3 PUSH1 0x0 DUP5 PUSH20 0xFFFFFFFFFFFFFFFFFFFFFFFFFFFFFFFFFFFFFFFF AND PUSH20 0xFFFFFFFFFFFFFFFFFFFFFFFFFFFFFFFFFFFFFFFF AND DUP2 MSTORE PUSH1 0x20 ADD SWAP1 DUP2 MSTORE PUSH1 0x20 ADD PUSH1 0x0 KECCAK256 PUSH1 0x0 DUP3 DUP3 SLOAD ADD SWAP3 POP POP DUP2 SWAP1 SSTORE POP DUP2 PUSH1 0x2 PUSH1 0x0 DUP4 DUP2 MSTORE PUSH1 0x20 ADD SWAP1 DUP2 MSTORE PUSH1 0x20 ADD PUSH1 0x0 KECCAK256 PUSH1 0x0 PUSH2 0x100 EXP DUP2 SLOAD DUP2 PUSH20 0xFFFFFFFFFFFFFFFFFFFFFFFFFFFFFFFFFFFFFFFF MUL NOT AND SWAP1 DUP4 PUSH20 0xFFFFFFFFFFFFFFFFFFFFFFFFFFFFFFFFFFFFFFFF AND MUL OR SWAP1 SSTORE POP DUP1 DUP3 PUSH20 0xFFFFFFFFFFFFFFFFFFFFFFFFFFFFFFFFFFFFFFFF AND DUP5 PUSH20 0xFFFFFFFFFFFFFFFFFFFFFFFFFFFFFFFFFFFFFFFF AND PUSH32 0xDDF252AD1BE2C89B69C2B068FC378DAA952BA7F163C4A11628F55A4DF523B3EF PUSH1 0x40 MLOAD PUSH1 0x40 MLOAD DUP1 SWAP2 SUB SWAP1 LOG4 PUSH2 0x165D DUP4 DUP4 DUP4 PUSH1 0x1 PUSH2 0x1C5C JUMP JUMPDEST POP POP POP JUMP JUMPDEST PUSH1 0x0 PUSH1 0x2 PUSH1 0x0 DUP4 DUP2 MSTORE PUSH1 0x20 ADD SWAP1 DUP2 MSTORE PUSH1 0x20 ADD PUSH1 0x0 KECCAK256 PUSH1 0x0 SWAP1 SLOAD SWAP1 PUSH2 0x100 EXP SWAP1 DIV PUSH20 0xFFFFFFFFFFFFFFFFFFFFFFFFFFFFFFFFFFFFFFFF AND SWAP1 POP SWAP2 SWAP1 POP JUMP JUMPDEST PUSH2 0x16A8 DUP3 PUSH2 0x195B JUMP JUMPDEST PUSH2 0x16E7 JUMPI PUSH1 0x40 MLOAD PUSH32 0x8C379A000000000000000000000000000000000000000000000000000000000 DUP2 MSTORE PUSH1 0x4 ADD PUSH2 0x16DE SWAP1 PUSH2 0x2CE3 JUMP JUMPDEST PUSH1 0x40 MLOAD DUP1 SWAP2 SUB SWAP1 REVERT JUMPDEST DUP1 PUSH1 0x6 PUSH1 0x0 DUP5 DUP2 MSTORE PUSH1 0x20 ADD SWAP1 DUP2 MSTORE PUSH1 0x20 ADD PUSH1 0x0 KECCAK256 SWAP1 DUP1 MLOAD SWAP1 PUSH1 0x20 ADD SWAP1 PUSH2 0x170E SWAP3 SWAP2 SWAP1 PUSH2 0x2177 JUMP JUMPDEST POP POP POP JUMP JUMPDEST DUP2 PUSH20 0xFFFFFFFFFFFFFFFFFFFFFFFFFFFFFFFFFFFFFFFF AND DUP4 PUSH20 0xFFFFFFFFFFFFFFFFFFFFFFFFFFFFFFFFFFFFFFFF AND EQ ISZERO PUSH2 0x1782 JUMPI PUSH1 0x40 MLOAD PUSH32 0x8C379A000000000000000000000000000000000000000000000000000000000 DUP2 MSTORE PUSH1 0x4 ADD PUSH2 0x1779 SWAP1 PUSH2 0x2C43 JUMP JUMPDEST PUSH1 0x40 MLOAD DUP1 SWAP2 SUB SWAP1 REVERT JUMPDEST DUP1 PUSH1 0x5 PUSH1 0x0 DUP6 PUSH20 0xFFFFFFFFFFFFFFFFFFFFFFFFFFFFFFFFFFFFFFFF AND PUSH20 0xFFFFFFFFFFFFFFFFFFFFFFFFFFFFFFFFFFFFFFFF AND DUP2 MSTORE PUSH1 0x20 ADD SWAP1 DUP2 MSTORE PUSH1 0x20 ADD PUSH1 0x0 KECCAK256 PUSH1 0x0 DUP5 PUSH20 0xFFFFFFFFFFFFFFFFFFFFFFFFFFFFFFFFFFFFFFFF AND PUSH20 0xFFFFFFFFFFFFFFFFFFFFFFFFFFFFFFFFFFFFFFFF AND DUP2 MSTORE PUSH1 0x20 ADD SWAP1 DUP2 MSTORE PUSH1 0x20 ADD PUSH1 0x0 KECCAK256 PUSH1 0x0 PUSH2 0x100 EXP DUP2 SLOAD DUP2 PUSH1 0xFF MUL NOT AND SWAP1 DUP4 ISZERO ISZERO MUL OR SWAP1 SSTORE POP DUP2 PUSH20 0xFFFFFFFFFFFFFFFFFFFFFFFFFFFFFFFFFFFFFFFF AND DUP4 PUSH20 0xFFFFFFFFFFFFFFFFFFFFFFFFFFFFFFFFFFFFFFFF AND PUSH32 0x17307EAB39AB6107E8899845AD3D59BD9653F200F220920489CA2B5937696C31 DUP4 PUSH1 0x40 MLOAD PUSH2 0x1873 SWAP2 SWAP1 PUSH2 0x2B46 JUMP JUMPDEST PUSH1 0x40 MLOAD DUP1 SWAP2 SUB SWAP1 LOG3 POP POP POP JUMP JUMPDEST PUSH2 0x188B DUP5 DUP5 DUP5 PUSH2 0x1368 JUMP JUMPDEST PUSH2 0x1897 DUP5 DUP5 DUP5 DUP5 PUSH2 0x1C62 JUMP JUMPDEST PUSH2 0x18D6 JUMPI PUSH1 0x40 MLOAD PUSH32 0x8C379A000000000000000000000000000000000000000000000000000000000 DUP2 MSTORE PUSH1 0x4 ADD PUSH2 0x18CD SWAP1 PUSH2 0x2BC3 JUMP JUMPDEST PUSH1 0x40 MLOAD DUP1 SWAP2 SUB SWAP1 REVERT JUMPDEST POP POP POP POP JUMP JUMPDEST PUSH1 0x60 PUSH1 0x40 MLOAD DUP1 PUSH1 0x20 ADD PUSH1 0x40 MSTORE DUP1 PUSH1 0x0 DUP2 MSTORE POP SWAP1 POP SWAP1 JUMP JUMPDEST PUSH1 0x60 PUSH2 0x18FE DUP3 PUSH2 0x10D7 JUMP JUMPDEST PUSH1 0x0 PUSH2 0x1908 PUSH2 0x18DC JUMP JUMPDEST SWAP1 POP PUSH1 0x0 DUP2 MLOAD GT PUSH2 0x1928 JUMPI PUSH1 0x40 MLOAD DUP1 PUSH1 0x20 ADD PUSH1 0x40 MSTORE DUP1 PUSH1 0x0 DUP2 MSTORE POP PUSH2 0x1953 JUMP JUMPDEST DUP1 PUSH2 0x1932 DUP5 PUSH2 0x1DF9 JUMP JUMPDEST PUSH1 0x40 MLOAD PUSH1 0x20 ADD PUSH2 0x1943 SWAP3 SWAP2 SWAP1 PUSH2 0x2A70 JUMP JUMPDEST PUSH1 0x40 MLOAD PUSH1 0x20 DUP2 DUP4 SUB SUB DUP2 MSTORE SWAP1 PUSH1 0x40 MSTORE JUMPDEST SWAP2 POP POP SWAP2 SWAP1 POP JUMP JUMPDEST PUSH1 0x0 DUP1 PUSH20 0xFFFFFFFFFFFFFFFFFFFFFFFFFFFFFFFFFFFFFFFF AND PUSH2 0x197D DUP4 PUSH2 0x1662 JUMP JUMPDEST PUSH20 0xFFFFFFFFFFFFFFFFFFFFFFFFFFFFFFFFFFFFFFFF AND EQ ISZERO SWAP1 POP SWAP2 SWAP1 POP JUMP JUMPDEST PUSH1 0x0 PUSH20 0xFFFFFFFFFFFFFFFFFFFFFFFFFFFFFFFFFFFFFFFF AND DUP3 PUSH20 0xFFFFFFFFFFFFFFFFFFFFFFFFFFFFFFFFFFFFFFFF AND EQ ISZERO PUSH2 0x1A0C JUMPI PUSH1 0x40 MLOAD PUSH32 0x8C379A000000000000000000000000000000000000000000000000000000000 DUP2 MSTORE PUSH1 0x4 ADD PUSH2 0x1A03 SWAP1 PUSH2 0x2D03 JUMP JUMPDEST PUSH1 0x40 MLOAD DUP1 SWAP2 SUB SWAP1 REVERT JUMPDEST PUSH2 0x1A15 DUP2 PUSH2 0x195B JUMP JUMPDEST ISZERO PUSH2 0x1A55 JUMPI PUSH1 0x40 MLOAD PUSH32 0x8C379A000000000000000000000000000000000000000000000000000000000 DUP2 MSTORE PUSH1 0x4 ADD PUSH2 0x1A4C SWAP1 PUSH2 0x2C03 JUMP JUMPDEST PUSH1 0x40 MLOAD DUP1 SWAP2 SUB SWAP1 REVERT JUMPDEST PUSH2 0x1A63 PUSH1 0x0 DUP4 DUP4 PUSH1 0x1 PUSH2 0x1BBA JUMP JUMPDEST PUSH2 0x1A6C DUP2 PUSH2 0x195B JUMP JUMPDEST ISZERO PUSH2 0x1AAC JUMPI PUSH1 0x40 MLOAD PUSH32 0x8C379A000000000000000000000000000000000000000000000000000000000 DUP2 MSTORE PUSH1 0x4 ADD PUSH2 0x1AA3 SWAP1 PUSH2 0x2C03 JUMP JUMPDEST PUSH1 0x40 MLOAD DUP1 SWAP2 SUB SWAP1 REVERT JUMPDEST PUSH1 0x1 PUSH1 0x3 PUSH1 0x0 DUP5 PUSH20 0xFFFFFFFFFFFFFFFFFFFFFFFFFFFFFFFFFFFFFFFF AND PUSH20 0xFFFFFFFFFFFFFFFFFFFFFFFFFFFFFFFFFFFFFFFF AND DUP2 MSTORE PUSH1 0x20 ADD SWAP1 DUP2 MSTORE PUSH1 0x20 ADD PUSH1 0x0 KECCAK256 PUSH1 0x0 DUP3 DUP3 SLOAD ADD SWAP3 POP POP DUP2 SWAP1 SSTORE POP DUP2 PUSH1 0x2 PUSH1 0x0 DUP4 DUP2 MSTORE PUSH1 0x20 ADD SWAP1 DUP2 MSTORE PUSH1 0x20 ADD PUSH1 0x0 KECCAK256 PUSH1 0x0 PUSH2 0x100 EXP DUP2 SLOAD DUP2 PUSH20 0xFFFFFFFFFFFFFFFFFFFFFFFFFFFFFFFFFFFFFFFF MUL NOT AND SWAP1 DUP4 PUSH20 0xFFFFFFFFFFFFFFFFFFFFFFFFFFFFFFFFFFFFFFFF AND MUL OR SWAP1 SSTORE POP DUP1 DUP3 PUSH20 0xFFFFFFFFFFFFFFFFFFFFFFFFFFFFFFFFFFFFFFFF AND PUSH1 0x0 PUSH20 0xFFFFFFFFFFFFFFFFFFFFFFFFFFFFFFFFFFFFFFFF AND PUSH32 0xDDF252AD1BE2C89B69C2B068FC378DAA952BA7F163C4A11628F55A4DF523B3EF PUSH1 0x40 MLOAD PUSH1 0x40 MLOAD DUP1 SWAP2 SUB SWAP1 LOG4 PUSH2 0x1BB6 PUSH1 0x0 DUP4 DUP4 PUSH1 0x1 PUSH2 0x1C5C JUMP JUMPDEST POP POP JUMP JUMPDEST ADDRESS PUSH20 0xFFFFFFFFFFFFFFFFFFFFFFFFFFFFFFFFFFFFFFFF AND DUP5 PUSH20 0xFFFFFFFFFFFFFFFFFFFFFFFFFFFFFFFFFFFFFFFF AND EQ PUSH2 0x1C56 JUMPI PUSH1 0x1 ISZERO ISZERO PUSH1 0xD PUSH1 0x0 DUP5 DUP2 MSTORE PUSH1 0x20 ADD SWAP1 DUP2 MSTORE PUSH1 0x20 ADD PUSH1 0x0 KECCAK256 PUSH1 0x0 SWAP1 SLOAD SWAP1 PUSH2 0x100 EXP SWAP1 DIV PUSH1 0xFF AND ISZERO ISZERO EQ ISZERO PUSH2 0x1C55 JUMPI PUSH1 0x40 MLOAD PUSH32 0x8C379A000000000000000000000000000000000000000000000000000000000 DUP2 MSTORE PUSH1 0x4 ADD PUSH2 0x1C4C SWAP1 PUSH2 0x2B83 JUMP JUMPDEST PUSH1 0x40 MLOAD DUP1 SWAP2 SUB SWAP1 REVERT JUMPDEST JUMPDEST POP POP POP POP JUMP JUMPDEST POP POP POP POP JUMP JUMPDEST PUSH1 0x0 PUSH2 0x1C83 DUP5 PUSH20 0xFFFFFFFFFFFFFFFFFFFFFFFFFFFFFFFFFFFFFFFF AND PUSH2 0x1F1D JUMP JUMPDEST ISZERO PUSH2 0x1DEC JUMPI DUP4 PUSH20 0xFFFFFFFFFFFFFFFFFFFFFFFFFFFFFFFFFFFFFFFF AND PUSH4 0x150B7A02 PUSH2 0x1CAC PUSH2 0x1122 JUMP JUMPDEST DUP8 DUP7 DUP7 PUSH1 0x40 MLOAD DUP6 PUSH4 0xFFFFFFFF AND PUSH1 0xE0 SHL DUP2 MSTORE PUSH1 0x4 ADD PUSH2 0x1CCE SWAP5 SWAP4 SWAP3 SWAP2 SWAP1 PUSH2 0x2AAF JUMP JUMPDEST PUSH1 0x20 PUSH1 0x40 MLOAD DUP1 DUP4 SUB DUP2 PUSH1 0x0 DUP8 DUP1 EXTCODESIZE ISZERO DUP1 ISZERO PUSH2 0x1CE8 JUMPI PUSH1 0x0 DUP1 REVERT JUMPDEST POP GAS CALL SWAP3 POP POP POP DUP1 ISZERO PUSH2 0x1D19 JUMPI POP PUSH1 0x40 MLOAD RETURNDATASIZE PUSH1 0x1F NOT PUSH1 0x1F DUP3 ADD AND DUP3 ADD DUP1 PUSH1 0x40 MSTORE POP DUP2 ADD SWAP1 PUSH2 0x1D16 SWAP2 SWAP1 PUSH2 0x2597 JUMP JUMPDEST PUSH1 0x1 JUMPDEST PUSH2 0x1D9C JUMPI RETURNDATASIZE DUP1 PUSH1 0x0 DUP2 EQ PUSH2 0x1D49 JUMPI PUSH1 0x40 MLOAD SWAP2 POP PUSH1 0x1F NOT PUSH1 0x3F RETURNDATASIZE ADD AND DUP3 ADD PUSH1 0x40 MSTORE RETURNDATASIZE DUP3 MSTORE RETURNDATASIZE PUSH1 0x0 PUSH1 0x20 DUP5 ADD RETURNDATACOPY PUSH2 0x1D4E JUMP JUMPDEST PUSH1 0x60 SWAP2 POP JUMPDEST POP PUSH1 0x0 DUP2 MLOAD EQ ISZERO PUSH2 0x1D94 JUMPI PUSH1 0x40 MLOAD PUSH32 0x8C379A000000000000000000000000000000000000000000000000000000000 DUP2 MSTORE PUSH1 0x4 ADD PUSH2 0x1D8B SWAP1 PUSH2 0x2BC3 JUMP JUMPDEST PUSH1 0x40 MLOAD DUP1 SWAP2 SUB SWAP1 REVERT JUMPDEST DUP1 MLOAD DUP2 PUSH1 0x20 ADD REVERT JUMPDEST PUSH4 0x150B7A02 PUSH1 0xE0 SHL PUSH28 0xFFFFFFFFFFFFFFFFFFFFFFFFFFFFFFFFFFFFFFFFFFFFFFFFFFFFFFFF NOT AND DUP2 PUSH28 0xFFFFFFFFFFFFFFFFFFFFFFFFFFFFFFFFFFFFFFFFFFFFFFFFFFFFFFFF NOT AND EQ SWAP2 POP POP PUSH2 0x1DF1 JUMP JUMPDEST PUSH1 0x1 SWAP1 POP JUMPDEST SWAP5 SWAP4 POP POP POP POP JUMP JUMPDEST PUSH1 0x60 PUSH1 0x0 PUSH1 0x1 PUSH2 0x1E08 DUP5 PUSH2 0x1F40 JUMP JUMPDEST ADD SWAP1 POP PUSH1 0x0 DUP2 PUSH8 0xFFFFFFFFFFFFFFFF DUP2 GT ISZERO PUSH2 0x1E4D JUMPI PUSH32 0x4E487B7100000000000000000000000000000000000000000000000000000000 PUSH1 0x0 MSTORE PUSH1 0x41 PUSH1 0x4 MSTORE PUSH1 0x24 PUSH1 0x0 REVERT JUMPDEST PUSH1 0x40 MLOAD SWAP1 DUP1 DUP3 MSTORE DUP1 PUSH1 0x1F ADD PUSH1 0x1F NOT AND PUSH1 0x20 ADD DUP3 ADD PUSH1 0x40 MSTORE DUP1 ISZERO PUSH2 0x1E7F JUMPI DUP2 PUSH1 0x20 ADD PUSH1 0x1 DUP3 MUL DUP1 CALLDATASIZE DUP4 CALLDATACOPY DUP1 DUP3 ADD SWAP2 POP POP SWAP1 POP JUMPDEST POP SWAP1 POP PUSH1 0x0 DUP3 PUSH1 0x20 ADD DUP3 ADD SWAP1 POP JUMPDEST PUSH1 0x1 ISZERO PUSH2 0x1F12 JUMPI DUP1 DUP1 PUSH1 0x1 SWAP1 SUB SWAP2 POP POP PUSH32 0x3031323334353637383961626364656600000000000000000000000000000000 PUSH1 0xA DUP7 MOD BYTE DUP2 MSTORE8 PUSH1 0xA DUP6 DUP2 PUSH2 0x1EFC JUMPI PUSH32 0x4E487B7100000000000000000000000000000000000000000000000000000000 PUSH1 0x0 MSTORE PUSH1 0x12 PUSH1 0x4 MSTORE PUSH1 0x24 PUSH1 0x0 REVERT JUMPDEST DIV SWAP5 POP PUSH1 0x0 DUP6 EQ ISZERO PUSH2 0x1F0D JUMPI PUSH2 0x1F12 JUMP JUMPDEST PUSH2 0x1E8D JUMP JUMPDEST DUP2 SWAP4 POP POP POP POP SWAP2 SWAP1 POP JUMP JUMPDEST PUSH1 0x0 DUP1 DUP3 PUSH20 0xFFFFFFFFFFFFFFFFFFFFFFFFFFFFFFFFFFFFFFFF AND EXTCODESIZE GT SWAP1 POP SWAP2 SWAP1 POP JUMP JUMPDEST PUSH1 0x0 DUP1 PUSH1 0x0 SWAP1 POP PUSH27 0x184F03E93FF9F4DAA797ED6E38ED64BF6A1F010000000000000000 DUP4 LT PUSH2 0x1FC4 JUMPI PUSH27 0x184F03E93FF9F4DAA797ED6E38ED64BF6A1F010000000000000000 DUP4 DUP2 PUSH2 0x1FBA JUMPI PUSH32 0x4E487B7100000000000000000000000000000000000000000000000000000000 PUSH1 0x0 MSTORE PUSH1 0x12 PUSH1 0x4 MSTORE PUSH1 0x24 PUSH1 0x0 REVERT JUMPDEST DIV SWAP3 POP PUSH1 0x40 DUP2 ADD SWAP1 POP JUMPDEST PUSH14 0x4EE2D6D415B85ACEF8100000000 DUP4 LT PUSH2 0x2027 JUMPI PUSH14 0x4EE2D6D415B85ACEF8100000000 DUP4 DUP2 PUSH2 0x201D JUMPI PUSH32 0x4E487B7100000000000000000000000000000000000000000000000000000000 PUSH1 0x0 MSTORE PUSH1 0x12 PUSH1 0x4 MSTORE PUSH1 0x24 PUSH1 0x0 REVERT JUMPDEST DIV SWAP3 POP PUSH1 0x20 DUP2 ADD SWAP1 POP JUMPDEST PUSH7 0x2386F26FC10000 DUP4 LT PUSH2 0x207C JUMPI PUSH7 0x2386F26FC10000 DUP4 DUP2 PUSH2 0x2072 JUMPI PUSH32 0x4E487B7100000000000000000000000000000000000000000000000000000000 PUSH1 0x0 MSTORE PUSH1 0x12 PUSH1 0x4 MSTORE PUSH1 0x24 PUSH1 0x0 REVERT JUMPDEST DIV SWAP3 POP PUSH1 0x10 DUP2 ADD SWAP1 POP JUMPDEST PUSH4 0x5F5E100 DUP4 LT PUSH2 0x20CB JUMPI PUSH4 0x5F5E100 DUP4 DUP2 PUSH2 0x20C1 JUMPI PUSH32 0x4E487B7100000000000000000000000000000000000000000000000000000000 PUSH1 0x0 MSTORE PUSH1 0x12 PUSH1 0x4 MSTORE PUSH1 0x24 PUSH1 0x0 REVERT JUMPDEST DIV SWAP3 POP PUSH1 0x8 DUP2 ADD SWAP1 POP JUMPDEST PUSH2 0x2710 DUP4 LT PUSH2 0x2116 JUMPI PUSH2 0x2710 DUP4 DUP2 PUSH2 0x210C JUMPI PUSH32 0x4E487B7100000000000000000000000000000000000000000000000000000000 PUSH1 0x0 MSTORE PUSH1 0x12 PUSH1 0x4 MSTORE PUSH1 0x24 PUSH1 0x0 REVERT JUMPDEST DIV SWAP3 POP PUSH1 0x4 DUP2 ADD SWAP1 POP JUMPDEST PUSH1 0x64 DUP4 LT PUSH2 0x215F JUMPI PUSH1 0x64 DUP4 DUP2 PUSH2 0x2155 JUMPI PUSH32 0x4E487B7100000000000000000000000000000000000000000000000000000000 PUSH1 0x0 MSTORE PUSH1 0x12 PUSH1 0x4 MSTORE PUSH1 0x24 PUSH1 0x0 REVERT JUMPDEST DIV SWAP3 POP PUSH1 0x2 DUP2 ADD SWAP1 POP JUMPDEST PUSH1 0xA DUP4 LT PUSH2 0x216E JUMPI PUSH1 0x1 DUP2 ADD SWAP1 POP JUMPDEST DUP1 SWAP2 POP POP SWAP2 SWAP1 POP JUMP JUMPDEST DUP3 DUP1 SLOAD PUSH2 0x2183 SWAP1 PUSH2 0x2FBC JUMP JUMPDEST SWAP1 PUSH1 0x0 MSTORE PUSH1 0x20 PUSH1 0x0 KECCAK256 SWAP1 PUSH1 0x1F ADD PUSH1 0x20 SWAP1 DIV DUP2 ADD SWAP3 DUP3 PUSH2 0x21A5 JUMPI PUSH1 0x0 DUP6 SSTORE PUSH2 0x21EC JUMP JUMPDEST DUP3 PUSH1 0x1F LT PUSH2 0x21BE JUMPI DUP1 MLOAD PUSH1 0xFF NOT AND DUP4 DUP1 ADD OR DUP6 SSTORE PUSH2 0x21EC JUMP JUMPDEST DUP3 DUP1 ADD PUSH1 0x1 ADD DUP6 SSTORE DUP3 ISZERO PUSH2 0x21EC JUMPI SWAP2 DUP3 ADD JUMPDEST DUP3 DUP2 GT ISZERO PUSH2 0x21EB JUMPI DUP3 MLOAD DUP3 SSTORE SWAP2 PUSH1 0x20 ADD SWAP2 SWAP1 PUSH1 0x1 ADD SWAP1 PUSH2 0x21D0 JUMP JUMPDEST JUMPDEST POP SWAP1 POP PUSH2 0x21F9 SWAP2 SWAP1 PUSH2 0x21FD JUMP JUMPDEST POP SWAP1 JUMP JUMPDEST JUMPDEST DUP1 DUP3 GT ISZERO PUSH2 0x2216 JUMPI PUSH1 0x0 DUP2 PUSH1 0x0 SWAP1 SSTORE POP PUSH1 0x1 ADD PUSH2 0x21FE JUMP JUMPDEST POP SWAP1 JUMP JUMPDEST PUSH1 0x0 PUSH2 0x222D PUSH2 0x2228 DUP5 PUSH2 0x2E03 JUMP JUMPDEST PUSH2 0x2DDE JUMP JUMPDEST SWAP1 POP DUP3 DUP2 MSTORE PUSH1 0x20 DUP2 ADD DUP5 DUP5 DUP5 ADD GT ISZERO PUSH2 0x2245 JUMPI PUSH1 0x0 DUP1 REVERT JUMPDEST PUSH2 0x2250 DUP5 DUP3 DUP6 PUSH2 0x2F7A JUMP JUMPDEST POP SWAP4 SWAP3 POP POP POP JUMP JUMPDEST PUSH1 0x0 DUP2 CALLDATALOAD SWAP1 POP PUSH2 0x2267 DUP2 PUSH2 0x3564 JUMP JUMPDEST SWAP3 SWAP2 POP POP JUMP JUMPDEST PUSH1 0x0 DUP2 CALLDATALOAD SWAP1 POP PUSH2 0x227C DUP2 PUSH2 0x357B JUMP JUMPDEST SWAP3 SWAP2 POP POP JUMP JUMPDEST PUSH1 0x0 DUP2 CALLDATALOAD SWAP1 POP PUSH2 0x2291 DUP2 PUSH2 0x3592 JUMP JUMPDEST SWAP3 SWAP2 POP POP JUMP JUMPDEST PUSH1 0x0 DUP2 MLOAD SWAP1 POP PUSH2 0x22A6 DUP2 PUSH2 0x3592 JUMP JUMPDEST SWAP3 SWAP2 POP POP JUMP JUMPDEST PUSH1 0x0 DUP3 PUSH1 0x1F DUP4 ADD SLT PUSH2 0x22BD JUMPI PUSH1 0x0 DUP1 REVERT JUMPDEST DUP2 CALLDATALOAD PUSH2 0x22CD DUP5 DUP3 PUSH1 0x20 DUP7 ADD PUSH2 0x221A JUMP JUMPDEST SWAP2 POP POP SWAP3 SWAP2 POP POP JUMP JUMPDEST PUSH1 0x0 DUP1 DUP4 PUSH1 0x1F DUP5 ADD SLT PUSH2 0x22E8 JUMPI PUSH1 0x0 DUP1 REVERT JUMPDEST DUP3 CALLDATALOAD SWAP1 POP PUSH8 0xFFFFFFFFFFFFFFFF DUP2 GT ISZERO PUSH2 0x2301 JUMPI PUSH1 0x0 DUP1 REVERT JUMPDEST PUSH1 0x20 DUP4 ADD SWAP2 POP DUP4 PUSH1 0x1 DUP3 MUL DUP4 ADD GT ISZERO PUSH2 0x2319 JUMPI PUSH1 0x0 DUP1 REVERT JUMPDEST SWAP3 POP SWAP3 SWAP1 POP JUMP JUMPDEST PUSH1 0x0 DUP2 CALLDATALOAD SWAP1 POP PUSH2 0x232F DUP2 PUSH2 0x35A9 JUMP JUMPDEST SWAP3 SWAP2 POP POP JUMP JUMPDEST PUSH1 0x0 PUSH1 0x20 DUP3 DUP5 SUB SLT ISZERO PUSH2 0x2347 JUMPI PUSH1 0x0 DUP1 REVERT JUMPDEST PUSH1 0x0 PUSH2 0x2355 DUP5 DUP3 DUP6 ADD PUSH2 0x2258 JUMP JUMPDEST SWAP2 POP POP SWAP3 SWAP2 POP POP JUMP JUMPDEST PUSH1 0x0 DUP1 PUSH1 0x40 DUP4 DUP6 SUB SLT ISZERO PUSH2 0x2371 JUMPI PUSH1 0x0 DUP1 REVERT JUMPDEST PUSH1 0x0 PUSH2 0x237F DUP6 DUP3 DUP7 ADD PUSH2 0x2258 JUMP JUMPDEST SWAP3 POP POP PUSH1 0x20 PUSH2 0x2390 DUP6 DUP3 DUP7 ADD PUSH2 0x2258 JUMP JUMPDEST SWAP2 POP POP SWAP3 POP SWAP3 SWAP1 POP JUMP JUMPDEST PUSH1 0x0 DUP1 PUSH1 0x0 PUSH1 0x60 DUP5 DUP7 SUB SLT ISZERO PUSH2 0x23AF JUMPI PUSH1 0x0 DUP1 REVERT JUMPDEST PUSH1 0x0 PUSH2 0x23BD DUP7 DUP3 DUP8 ADD PUSH2 0x2258 JUMP JUMPDEST SWAP4 POP POP PUSH1 0x20 PUSH2 0x23CE DUP7 DUP3 DUP8 ADD PUSH2 0x2258 JUMP JUMPDEST SWAP3 POP POP PUSH1 0x40 PUSH2 0x23DF DUP7 DUP3 DUP8 ADD PUSH2 0x2320 JUMP JUMPDEST SWAP2 POP POP SWAP3 POP SWAP3 POP SWAP3 JUMP JUMPDEST PUSH1 0x0 DUP1 PUSH1 0x0 DUP1 PUSH1 0x80 DUP6 DUP8 SUB SLT ISZERO PUSH2 0x23FF JUMPI PUSH1 0x0 DUP1 REVERT JUMPDEST PUSH1 0x0 PUSH2 0x240D DUP8 DUP3 DUP9 ADD PUSH2 0x2258 JUMP JUMPDEST SWAP5 POP POP PUSH1 0x20 PUSH2 0x241E DUP8 DUP3 DUP9 ADD PUSH2 0x2258 JUMP JUMPDEST SWAP4 POP POP PUSH1 0x40 PUSH2 0x242F DUP8 DUP3 DUP9 ADD PUSH2 0x2320 JUMP JUMPDEST SWAP3 POP POP PUSH1 0x60 DUP6 ADD CALLDATALOAD PUSH8 0xFFFFFFFFFFFFFFFF DUP2 GT ISZERO PUSH2 0x244C JUMPI PUSH1 0x0 DUP1 REVERT JUMPDEST PUSH2 0x2458 DUP8 DUP3 DUP9 ADD PUSH2 0x22AC JUMP JUMPDEST SWAP2 POP POP SWAP3 SWAP6 SWAP2 SWAP5 POP SWAP3 POP JUMP JUMPDEST PUSH1 0x0 DUP1 PUSH1 0x0 DUP1 PUSH1 0x0 DUP1 PUSH1 0xA0 DUP8 DUP10 SUB SLT ISZERO PUSH2 0x247D JUMPI PUSH1 0x0 DUP1 REVERT JUMPDEST PUSH1 0x0 PUSH2 0x248B DUP10 DUP3 DUP11 ADD PUSH2 0x2258 JUMP JUMPDEST SWAP7 POP POP PUSH1 0x20 PUSH2 0x249C DUP10 DUP3 DUP11 ADD PUSH2 0x2258 JUMP JUMPDEST SWAP6 POP POP PUSH1 0x40 PUSH2 0x24AD DUP10 DUP3 DUP11 ADD PUSH2 0x2320 JUMP JUMPDEST SWAP5 POP POP PUSH1 0x60 DUP8 ADD CALLDATALOAD PUSH8 0xFFFFFFFFFFFFFFFF DUP2 GT ISZERO PUSH2 0x24CA JUMPI PUSH1 0x0 DUP1 REVERT JUMPDEST PUSH2 0x24D6 DUP10 DUP3 DUP11 ADD PUSH2 0x22D6 JUMP JUMPDEST SWAP4 POP SWAP4 POP POP PUSH1 0x80 PUSH2 0x24E9 DUP10 DUP3 DUP11 ADD PUSH2 0x2320 JUMP JUMPDEST SWAP2 POP POP SWAP3 SWAP6 POP SWAP3 SWAP6 POP SWAP3 SWAP6 JUMP JUMPDEST PUSH1 0x0 DUP1 PUSH1 0x40 DUP4 DUP6 SUB SLT ISZERO PUSH2 0x2509 JUMPI PUSH1 0x0 DUP1 REVERT JUMPDEST PUSH1 0x0 PUSH2 0x2517 DUP6 DUP3 DUP7 ADD PUSH2 0x2258 JUMP JUMPDEST SWAP3 POP POP PUSH1 0x20 PUSH2 0x2528 DUP6 DUP3 DUP7 ADD PUSH2 0x226D JUMP JUMPDEST SWAP2 POP POP SWAP3 POP SWAP3 SWAP1 POP JUMP JUMPDEST PUSH1 0x0 DUP1 PUSH1 0x40 DUP4 DUP6 SUB SLT ISZERO PUSH2 0x2545 JUMPI PUSH1 0x0 DUP1 REVERT JUMPDEST PUSH1 0x0 PUSH2 0x2553 DUP6 DUP3 DUP7 ADD PUSH2 0x2258 JUMP JUMPDEST SWAP3 POP POP PUSH1 0x20 PUSH2 0x2564 DUP6 DUP3 DUP7 ADD PUSH2 0x2320 JUMP JUMPDEST SWAP2 POP POP SWAP3 POP SWAP3 SWAP1 POP JUMP JUMPDEST PUSH1 0x0 PUSH1 0x20 DUP3 DUP5 SUB SLT ISZERO PUSH2 0x2580 JUMPI PUSH1 0x0 DUP1 REVERT JUMPDEST PUSH1 0x0 PUSH2 0x258E DUP5 DUP3 DUP6 ADD PUSH2 0x2282 JUMP JUMPDEST SWAP2 POP POP SWAP3 SWAP2 POP POP JUMP JUMPDEST PUSH1 0x0 PUSH1 0x20 DUP3 DUP5 SUB SLT ISZERO PUSH2 0x25A9 JUMPI PUSH1 0x0 DUP1 REVERT JUMPDEST PUSH1 0x0 PUSH2 0x25B7 DUP5 DUP3 DUP6 ADD PUSH2 0x2297 JUMP JUMPDEST SWAP2 POP POP SWAP3 SWAP2 POP POP JUMP JUMPDEST PUSH1 0x0 DUP1 PUSH1 0x0 DUP1 PUSH1 0x0 PUSH1 0x80 DUP7 DUP9 SUB SLT ISZERO PUSH2 0x25D8 JUMPI PUSH1 0x0 DUP1 REVERT JUMPDEST PUSH1 0x0 DUP7 ADD CALLDATALOAD PUSH8 0xFFFFFFFFFFFFFFFF DUP2 GT ISZERO PUSH2 0x25F2 JUMPI PUSH1 0x0 DUP1 REVERT JUMPDEST PUSH2 0x25FE DUP9 DUP3 DUP10 ADD PUSH2 0x22D6 JUMP JUMPDEST SWAP6 POP SWAP6 POP POP PUSH1 0x20 PUSH2 0x2611 DUP9 DUP3 DUP10 ADD PUSH2 0x2320 JUMP JUMPDEST SWAP4 POP POP PUSH1 0x40 PUSH2 0x2622 DUP9 DUP3 DUP10 ADD PUSH2 0x2320 JUMP JUMPDEST SWAP3 POP POP PUSH1 0x60 PUSH2 0x2633 DUP9 DUP3 DUP10 ADD PUSH2 0x226D JUMP JUMPDEST SWAP2 POP POP SWAP3 SWAP6 POP SWAP3 SWAP6 SWAP1 SWAP4 POP JUMP JUMPDEST PUSH1 0x0 PUSH1 0x20 DUP3 DUP5 SUB SLT ISZERO PUSH2 0x2652 JUMPI PUSH1 0x0 DUP1 REVERT JUMPDEST PUSH1 0x0 PUSH2 0x2660 DUP5 DUP3 DUP6 ADD PUSH2 0x2320 JUMP JUMPDEST SWAP2 POP POP SWAP3 SWAP2 POP POP JUMP JUMPDEST PUSH1 0x0 DUP1 PUSH1 0x40 DUP4 DUP6 SUB SLT ISZERO PUSH2 0x267C JUMPI PUSH1 0x0 DUP1 REVERT JUMPDEST PUSH1 0x0 PUSH2 0x268A DUP6 DUP3 DUP7 ADD PUSH2 0x2320 JUMP JUMPDEST SWAP3 POP POP PUSH1 0x20 PUSH2 0x269B DUP6 DUP3 DUP7 ADD PUSH2 0x2320 JUMP JUMPDEST SWAP2 POP POP SWAP3 POP SWAP3 SWAP1 POP JUMP JUMPDEST PUSH1 0x0 PUSH2 0x26B1 DUP4 DUP4 PUSH2 0x2A52 JUMP JUMPDEST PUSH1 0x20 DUP4 ADD SWAP1 POP SWAP3 SWAP2 POP POP JUMP JUMPDEST PUSH2 0x26C6 DUP2 PUSH2 0x2F06 JUMP JUMPDEST DUP3 MSTORE POP POP JUMP JUMPDEST PUSH1 0x0 PUSH2 0x26D7 DUP3 PUSH2 0x2E44 JUMP JUMPDEST PUSH2 0x26E1 DUP2 DUP6 PUSH2 0x2E72 JUMP JUMPDEST SWAP4 POP PUSH2 0x26EC DUP4 PUSH2 0x2E34 JUMP JUMPDEST DUP1 PUSH1 0x0 JUMPDEST DUP4 DUP2 LT ISZERO PUSH2 0x271D JUMPI DUP2 MLOAD PUSH2 0x2704 DUP9 DUP3 PUSH2 0x26A5 JUMP JUMPDEST SWAP8 POP PUSH2 0x270F DUP4 PUSH2 0x2E65 JUMP JUMPDEST SWAP3 POP POP PUSH1 0x1 DUP2 ADD SWAP1 POP PUSH2 0x26F0 JUMP JUMPDEST POP DUP6 SWAP4 POP POP POP POP SWAP3 SWAP2 POP POP JUMP JUMPDEST PUSH2 0x2733 DUP2 PUSH2 0x2F18 JUMP JUMPDEST DUP3 MSTORE POP POP JUMP JUMPDEST PUSH1 0x0 PUSH2 0x2744 DUP3 PUSH2 0x2E4F JUMP JUMPDEST PUSH2 0x274E DUP2 DUP6 PUSH2 0x2E83 JUMP JUMPDEST SWAP4 POP PUSH2 0x275E DUP2 DUP6 PUSH1 0x20 DUP7 ADD PUSH2 0x2F89 JUMP JUMPDEST PUSH2 0x2767 DUP2 PUSH2 0x30F5 JUMP JUMPDEST DUP5 ADD SWAP2 POP POP SWAP3 SWAP2 POP POP JUMP JUMPDEST PUSH1 0x0 PUSH2 0x277D DUP3 PUSH2 0x2E5A JUMP JUMPDEST PUSH2 0x2787 DUP2 DUP6 PUSH2 0x2E94 JUMP JUMPDEST SWAP4 POP PUSH2 0x2797 DUP2 DUP6 PUSH1 0x20 DUP7 ADD PUSH2 0x2F89 JUMP JUMPDEST PUSH2 0x27A0 DUP2 PUSH2 0x30F5 JUMP JUMPDEST DUP5 ADD SWAP2 POP POP SWAP3 SWAP2 POP POP JUMP JUMPDEST PUSH1 0x0 PUSH2 0x27B6 DUP3 PUSH2 0x2E5A JUMP JUMPDEST PUSH2 0x27C0 DUP2 DUP6 PUSH2 0x2EA5 JUMP JUMPDEST SWAP4 POP PUSH2 0x27D0 DUP2 DUP6 PUSH1 0x20 DUP7 ADD PUSH2 0x2F89 JUMP JUMPDEST DUP1 DUP5 ADD SWAP2 POP POP SWAP3 SWAP2 POP POP JUMP JUMPDEST PUSH1 0x0 PUSH2 0x27E9 PUSH1 0x1D DUP4 PUSH2 0x2E94 JUMP JUMPDEST SWAP2 POP PUSH2 0x27F4 DUP3 PUSH2 0x3106 JUMP JUMPDEST PUSH1 0x20 DUP3 ADD SWAP1 POP SWAP2 SWAP1 POP JUMP JUMPDEST PUSH1 0x0 PUSH2 0x280C PUSH1 0x2D DUP4 PUSH2 0x2E94 JUMP JUMPDEST SWAP2 POP PUSH2 0x2817 DUP3 PUSH2 0x312F JUMP JUMPDEST PUSH1 0x40 DUP3 ADD SWAP1 POP SWAP2 SWAP1 POP JUMP JUMPDEST PUSH1 0x0 PUSH2 0x282F PUSH1 0x32 DUP4 PUSH2 0x2E94 JUMP JUMPDEST SWAP2 POP PUSH2 0x283A DUP3 PUSH2 0x317E JUMP JUMPDEST PUSH1 0x40 DUP3 ADD SWAP1 POP SWAP2 SWAP1 POP JUMP JUMPDEST PUSH1 0x0 PUSH2 0x2852 PUSH1 0x25 DUP4 PUSH2 0x2E94 JUMP JUMPDEST SWAP2 POP PUSH2 0x285D DUP3 PUSH2 0x31CD JUMP JUMPDEST PUSH1 0x40 DUP3 ADD SWAP1 POP SWAP2 SWAP1 POP JUMP JUMPDEST PUSH1 0x0 PUSH2 0x2875 PUSH1 0x1C DUP4 PUSH2 0x2E94 JUMP JUMPDEST SWAP2 POP PUSH2 0x2880 DUP3 PUSH2 0x321C JUMP JUMPDEST PUSH1 0x20 DUP3 ADD SWAP1 POP SWAP2 SWAP1 POP JUMP JUMPDEST PUSH1 0x0 PUSH2 0x2898 PUSH1 0x24 DUP4 PUSH2 0x2E94 JUMP JUMPDEST SWAP2 POP PUSH2 0x28A3 DUP3 PUSH2 0x3245 JUMP JUMPDEST PUSH1 0x40 DUP3 ADD SWAP1 POP SWAP2 SWAP1 POP JUMP JUMPDEST PUSH1 0x0 PUSH2 0x28BB PUSH1 0x19 DUP4 PUSH2 0x2E94 JUMP JUMPDEST SWAP2 POP PUSH2 0x28C6 DUP3 PUSH2 0x3294 JUMP JUMPDEST PUSH1 0x20 DUP3 ADD SWAP1 POP SWAP2 SWAP1 POP JUMP JUMPDEST PUSH1 0x0 PUSH2 0x28DE PUSH1 0x35 DUP4 PUSH2 0x2E94 JUMP JUMPDEST SWAP2 POP PUSH2 0x28E9 DUP3 PUSH2 0x32BD JUMP JUMPDEST PUSH1 0x40 DUP3 ADD SWAP1 POP SWAP2 SWAP1 POP JUMP JUMPDEST PUSH1 0x0 PUSH2 0x2901 PUSH1 0x1B DUP4 PUSH2 0x2E94 JUMP JUMPDEST SWAP2 POP PUSH2 0x290C DUP3 PUSH2 0x330C JUMP JUMPDEST PUSH1 0x20 DUP3 ADD SWAP1 POP SWAP2 SWAP1 POP JUMP JUMPDEST PUSH1 0x0 PUSH2 0x2924 PUSH1 0x29 DUP4 PUSH2 0x2E94 JUMP JUMPDEST SWAP2 POP PUSH2 0x292F DUP3 PUSH2 0x3335 JUMP JUMPDEST PUSH1 0x40 DUP3 ADD SWAP1 POP SWAP2 SWAP1 POP JUMP JUMPDEST PUSH1 0x0 PUSH2 0x2947 PUSH1 0x10 DUP4 PUSH2 0x2E94 JUMP JUMPDEST SWAP2 POP PUSH2 0x2952 DUP3 PUSH2 0x3384 JUMP JUMPDEST PUSH1 0x20 DUP3 ADD SWAP1 POP SWAP2 SWAP1 POP JUMP JUMPDEST PUSH1 0x0 PUSH2 0x296A PUSH1 0x2E DUP4 PUSH2 0x2E94 JUMP JUMPDEST SWAP2 POP PUSH2 0x2975 DUP3 PUSH2 0x33AD JUMP JUMPDEST PUSH1 0x40 DUP3 ADD SWAP1 POP SWAP2 SWAP1 POP JUMP JUMPDEST PUSH1 0x0 PUSH2 0x298D PUSH1 0x20 DUP4 PUSH2 0x2E94 JUMP JUMPDEST SWAP2 POP PUSH2 0x2998 DUP3 PUSH2 0x33FC JUMP JUMPDEST PUSH1 0x20 DUP3 ADD SWAP1 POP SWAP2 SWAP1 POP JUMP JUMPDEST PUSH1 0x0 PUSH2 0x29B0 PUSH1 0xD DUP4 PUSH2 0x2E94 JUMP JUMPDEST SWAP2 POP PUSH2 0x29BB DUP3 PUSH2 0x3425 JUMP JUMPDEST PUSH1 0x20 DUP3 ADD SWAP1 POP SWAP2 SWAP1 POP JUMP JUMPDEST PUSH1 0x0 PUSH2 0x29D3 PUSH1 0x18 DUP4 PUSH2 0x2E94 JUMP JUMPDEST SWAP2 POP PUSH2 0x29DE DUP3 PUSH2 0x344E JUMP JUMPDEST PUSH1 0x20 DUP3 ADD SWAP1 POP SWAP2 SWAP1 POP JUMP JUMPDEST PUSH1 0x0 PUSH2 0x29F6 PUSH1 0x21 DUP4 PUSH2 0x2E94 JUMP JUMPDEST SWAP2 POP PUSH2 0x2A01 DUP3 PUSH2 0x3477 JUMP JUMPDEST PUSH1 0x40 DUP3 ADD SWAP1 POP SWAP2 SWAP1 POP JUMP JUMPDEST PUSH1 0x0 PUSH2 0x2A19 PUSH1 0x3D DUP4 PUSH2 0x2E94 JUMP JUMPDEST SWAP2 POP PUSH2 0x2A24 DUP3 PUSH2 0x34C6 JUMP JUMPDEST PUSH1 0x40 DUP3 ADD SWAP1 POP SWAP2 SWAP1 POP JUMP JUMPDEST PUSH1 0x0 PUSH2 0x2A3C PUSH1 0x31 DUP4 PUSH2 0x2E94 JUMP JUMPDEST SWAP2 POP PUSH2 0x2A47 DUP3 PUSH2 0x3515 JUMP JUMPDEST PUSH1 0x40 DUP3 ADD SWAP1 POP SWAP2 SWAP1 POP JUMP JUMPDEST PUSH2 0x2A5B DUP2 PUSH2 0x2F70 JUMP JUMPDEST DUP3 MSTORE POP POP JUMP JUMPDEST PUSH2 0x2A6A DUP2 PUSH2 0x2F70 JUMP JUMPDEST DUP3 MSTORE POP POP JUMP JUMPDEST PUSH1 0x0 PUSH2 0x2A7C DUP3 DUP6 PUSH2 0x27AB JUMP JUMPDEST SWAP2 POP PUSH2 0x2A88 DUP3 DUP5 PUSH2 0x27AB JUMP JUMPDEST SWAP2 POP DUP2 SWAP1 POP SWAP4 SWAP3 POP POP POP JUMP JUMPDEST PUSH1 0x0 PUSH1 0x20 DUP3 ADD SWAP1 POP PUSH2 0x2AA9 PUSH1 0x0 DUP4 ADD DUP5 PUSH2 0x26BD JUMP JUMPDEST SWAP3 SWAP2 POP POP JUMP JUMPDEST PUSH1 0x0 PUSH1 0x80 DUP3 ADD SWAP1 POP PUSH2 0x2AC4 PUSH1 0x0 DUP4 ADD DUP8 PUSH2 0x26BD JUMP JUMPDEST PUSH2 0x2AD1 PUSH1 0x20 DUP4 ADD DUP7 PUSH2 0x26BD JUMP JUMPDEST PUSH2 0x2ADE PUSH1 0x40 DUP4 ADD DUP6 PUSH2 0x2A61 JUMP JUMPDEST DUP2 DUP2 SUB PUSH1 0x60 DUP4 ADD MSTORE PUSH2 0x2AF0 DUP2 DUP5 PUSH2 0x2739 JUMP JUMPDEST SWAP1 POP SWAP6 SWAP5 POP POP POP POP POP JUMP JUMPDEST PUSH1 0x0 PUSH1 0x40 DUP3 ADD SWAP1 POP PUSH2 0x2B10 PUSH1 0x0 DUP4 ADD DUP6 PUSH2 0x26BD JUMP JUMPDEST PUSH2 0x2B1D PUSH1 0x20 DUP4 ADD DUP5 PUSH2 0x2A61 JUMP JUMPDEST SWAP4 SWAP3 POP POP POP JUMP JUMPDEST PUSH1 0x0 PUSH1 0x20 DUP3 ADD SWAP1 POP DUP2 DUP2 SUB PUSH1 0x0 DUP4 ADD MSTORE PUSH2 0x2B3E DUP2 DUP5 PUSH2 0x26CC JUMP JUMPDEST SWAP1 POP SWAP3 SWAP2 POP POP JUMP JUMPDEST PUSH1 0x0 PUSH1 0x20 DUP3 ADD SWAP1 POP PUSH2 0x2B5B PUSH1 0x0 DUP4 ADD DUP5 PUSH2 0x272A JUMP JUMPDEST SWAP3 SWAP2 POP POP JUMP JUMPDEST PUSH1 0x0 PUSH1 0x20 DUP3 ADD SWAP1 POP DUP2 DUP2 SUB PUSH1 0x0 DUP4 ADD MSTORE PUSH2 0x2B7B DUP2 DUP5 PUSH2 0x2772 JUMP JUMPDEST SWAP1 POP SWAP3 SWAP2 POP POP JUMP JUMPDEST PUSH1 0x0 PUSH1 0x20 DUP3 ADD SWAP1 POP DUP2 DUP2 SUB PUSH1 0x0 DUP4 ADD MSTORE PUSH2 0x2B9C DUP2 PUSH2 0x27DC JUMP JUMPDEST SWAP1 POP SWAP2 SWAP1 POP JUMP JUMPDEST PUSH1 0x0 PUSH1 0x20 DUP3 ADD SWAP1 POP DUP2 DUP2 SUB PUSH1 0x0 DUP4 ADD MSTORE PUSH2 0x2BBC DUP2 PUSH2 0x27FF JUMP JUMPDEST SWAP1 POP SWAP2 SWAP1 POP JUMP JUMPDEST PUSH1 0x0 PUSH1 0x20 DUP3 ADD SWAP1 POP DUP2 DUP2 SUB PUSH1 0x0 DUP4 ADD MSTORE PUSH2 0x2BDC DUP2 PUSH2 0x2822 JUMP JUMPDEST SWAP1 POP SWAP2 SWAP1 POP JUMP JUMPDEST PUSH1 0x0 PUSH1 0x20 DUP3 ADD SWAP1 POP DUP2 DUP2 SUB PUSH1 0x0 DUP4 ADD MSTORE PUSH2 0x2BFC DUP2 PUSH2 0x2845 JUMP JUMPDEST SWAP1 POP SWAP2 SWAP1 POP JUMP JUMPDEST PUSH1 0x0 PUSH1 0x20 DUP3 ADD SWAP1 POP DUP2 DUP2 SUB PUSH1 0x0 DUP4 ADD MSTORE PUSH2 0x2C1C DUP2 PUSH2 0x2868 JUMP JUMPDEST SWAP1 POP SWAP2 SWAP1 POP JUMP JUMPDEST PUSH1 0x0 PUSH1 0x20 DUP3 ADD SWAP1 POP DUP2 DUP2 SUB PUSH1 0x0 DUP4 ADD MSTORE PUSH2 0x2C3C DUP2 PUSH2 0x288B JUMP JUMPDEST SWAP1 POP SWAP2 SWAP1 POP JUMP JUMPDEST PUSH1 0x0 PUSH1 0x20 DUP3 ADD SWAP1 POP DUP2 DUP2 SUB PUSH1 0x0 DUP4 ADD MSTORE PUSH2 0x2C5C DUP2 PUSH2 0x28AE JUMP JUMPDEST SWAP1 POP SWAP2 SWAP1 POP JUMP JUMPDEST PUSH1 0x0 PUSH1 0x20 DUP3 ADD SWAP1 POP DUP2 DUP2 SUB PUSH1 0x0 DUP4 ADD MSTORE PUSH2 0x2C7C DUP2 PUSH2 0x28D1 JUMP JUMPDEST SWAP1 POP SWAP2 SWAP1 POP JUMP JUMPDEST PUSH1 0x0 PUSH1 0x20 DUP3 ADD SWAP1 POP DUP2 DUP2 SUB PUSH1 0x0 DUP4 ADD MSTORE PUSH2 0x2C9C DUP2 PUSH2 0x28F4 JUMP JUMPDEST SWAP1 POP SWAP2 SWAP1 POP JUMP JUMPDEST PUSH1 0x0 PUSH1 0x20 DUP3 ADD SWAP1 POP DUP2 DUP2 SUB PUSH1 0x0 DUP4 ADD MSTORE PUSH2 0x2CBC DUP2 PUSH2 0x2917 JUMP JUMPDEST SWAP1 POP SWAP2 SWAP1 POP JUMP JUMPDEST PUSH1 0x0 PUSH1 0x20 DUP3 ADD SWAP1 POP DUP2 DUP2 SUB PUSH1 0x0 DUP4 ADD MSTORE PUSH2 0x2CDC DUP2 PUSH2 0x293A JUMP JUMPDEST SWAP1 POP SWAP2 SWAP1 POP JUMP JUMPDEST PUSH1 0x0 PUSH1 0x20 DUP3 ADD SWAP1 POP DUP2 DUP2 SUB PUSH1 0x0 DUP4 ADD MSTORE PUSH2 0x2CFC DUP2 PUSH2 0x295D JUMP JUMPDEST SWAP1 POP SWAP2 SWAP1 POP JUMP JUMPDEST PUSH1 0x0 PUSH1 0x20 DUP3 ADD SWAP1 POP DUP2 DUP2 SUB PUSH1 0x0 DUP4 ADD MSTORE PUSH2 0x2D1C DUP2 PUSH2 0x2980 JUMP JUMPDEST SWAP1 POP SWAP2 SWAP1 POP JUMP JUMPDEST PUSH1 0x0 PUSH1 0x20 DUP3 ADD SWAP1 POP DUP2 DUP2 SUB PUSH1 0x0 DUP4 ADD MSTORE PUSH2 0x2D3C DUP2 PUSH2 0x29A3 JUMP JUMPDEST SWAP1 POP SWAP2 SWAP1 POP JUMP JUMPDEST PUSH1 0x0 PUSH1 0x20 DUP3 ADD SWAP1 POP DUP2 DUP2 SUB PUSH1 0x0 DUP4 ADD MSTORE PUSH2 0x2D5C DUP2 PUSH2 0x29C6 JUMP JUMPDEST SWAP1 POP SWAP2 SWAP1 POP JUMP JUMPDEST PUSH1 0x0 PUSH1 0x20 DUP3 ADD SWAP1 POP DUP2 DUP2 SUB PUSH1 0x0 DUP4 ADD MSTORE PUSH2 0x2D7C DUP2 PUSH2 0x29E9 JUMP JUMPDEST SWAP1 POP SWAP2 SWAP1 POP JUMP JUMPDEST PUSH1 0x0 PUSH1 0x20 DUP3 ADD SWAP1 POP DUP2 DUP2 SUB PUSH1 0x0 DUP4 ADD MSTORE PUSH2 0x2D9C DUP2 PUSH2 0x2A0C JUMP JUMPDEST SWAP1 POP SWAP2 SWAP1 POP JUMP JUMPDEST PUSH1 0x0 PUSH1 0x20 DUP3 ADD SWAP1 POP DUP2 DUP2 SUB PUSH1 0x0 DUP4 ADD MSTORE PUSH2 0x2DBC DUP2 PUSH2 0x2A2F JUMP JUMPDEST SWAP1 POP SWAP2 SWAP1 POP JUMP JUMPDEST PUSH1 0x0 PUSH1 0x20 DUP3 ADD SWAP1 POP PUSH2 0x2DD8 PUSH1 0x0 DUP4 ADD DUP5 PUSH2 0x2A61 JUMP JUMPDEST SWAP3 SWAP2 POP POP JUMP JUMPDEST PUSH1 0x0 PUSH2 0x2DE8 PUSH2 0x2DF9 JUMP JUMPDEST SWAP1 POP PUSH2 0x2DF4 DUP3 DUP3 PUSH2 0x2FEE JUMP JUMPDEST SWAP2 SWAP1 POP JUMP JUMPDEST PUSH1 0x0 PUSH1 0x40 MLOAD SWAP1 POP SWAP1 JUMP JUMPDEST PUSH1 0x0 PUSH8 0xFFFFFFFFFFFFFFFF DUP3 GT ISZERO PUSH2 0x2E1E JUMPI PUSH2 0x2E1D PUSH2 0x30C6 JUMP JUMPDEST JUMPDEST PUSH2 0x2E27 DUP3 PUSH2 0x30F5 JUMP JUMPDEST SWAP1 POP PUSH1 0x20 DUP2 ADD SWAP1 POP SWAP2 SWAP1 POP JUMP JUMPDEST PUSH1 0x0 DUP2 SWAP1 POP PUSH1 0x20 DUP3 ADD SWAP1 POP SWAP2 SWAP1 POP JUMP JUMPDEST PUSH1 0x0 DUP2 MLOAD SWAP1 POP SWAP2 SWAP1 POP JUMP JUMPDEST PUSH1 0x0 DUP2 MLOAD SWAP1 POP SWAP2 SWAP1 POP JUMP JUMPDEST PUSH1 0x0 DUP2 MLOAD SWAP1 POP SWAP2 SWAP1 POP JUMP JUMPDEST PUSH1 0x0 PUSH1 0x20 DUP3 ADD SWAP1 POP SWAP2 SWAP1 POP JUMP JUMPDEST PUSH1 0x0 DUP3 DUP3 MSTORE PUSH1 0x20 DUP3 ADD SWAP1 POP SWAP3 SWAP2 POP POP JUMP JUMPDEST PUSH1 0x0 DUP3 DUP3 MSTORE PUSH1 0x20 DUP3 ADD SWAP1 POP SWAP3 SWAP2 POP POP JUMP JUMPDEST PUSH1 0x0 DUP3 DUP3 MSTORE PUSH1 0x20 DUP3 ADD SWAP1 POP SWAP3 SWAP2 POP POP JUMP JUMPDEST PUSH1 0x0 DUP2 SWAP1 POP SWAP3 SWAP2 POP POP JUMP JUMPDEST PUSH1 0x0 PUSH2 0x2EBB DUP3 PUSH2 0x2F70 JUMP JUMPDEST SWAP2 POP PUSH2 0x2EC6 DUP4 PUSH2 0x2F70 JUMP JUMPDEST SWAP3 POP DUP3 PUSH32 0xFFFFFFFFFFFFFFFFFFFFFFFFFFFFFFFFFFFFFFFFFFFFFFFFFFFFFFFFFFFFFFFF SUB DUP3 GT ISZERO PUSH2 0x2EFB JUMPI PUSH2 0x2EFA PUSH2 0x3068 JUMP JUMPDEST JUMPDEST DUP3 DUP3 ADD SWAP1 POP SWAP3 SWAP2 POP POP JUMP JUMPDEST PUSH1 0x0 PUSH2 0x2F11 DUP3 PUSH2 0x2F50 JUMP JUMPDEST SWAP1 POP SWAP2 SWAP1 POP JUMP JUMPDEST PUSH1 0x0 DUP2 ISZERO ISZERO SWAP1 POP SWAP2 SWAP1 POP JUMP JUMPDEST PUSH1 0x0 PUSH32 0xFFFFFFFF00000000000000000000000000000000000000000000000000000000 DUP3 AND SWAP1 POP SWAP2 SWAP1 POP JUMP JUMPDEST PUSH1 0x0 PUSH20 0xFFFFFFFFFFFFFFFFFFFFFFFFFFFFFFFFFFFFFFFF DUP3 AND SWAP1 POP SWAP2 SWAP1 POP JUMP JUMPDEST PUSH1 0x0 DUP2 SWAP1 POP SWAP2 SWAP1 POP JUMP JUMPDEST DUP3 DUP2 DUP4 CALLDATACOPY PUSH1 0x0 DUP4 DUP4 ADD MSTORE POP POP POP JUMP JUMPDEST PUSH1 0x0 JUMPDEST DUP4 DUP2 LT ISZERO PUSH2 0x2FA7 JUMPI DUP1 DUP3 ADD MLOAD DUP2 DUP5 ADD MSTORE PUSH1 0x20 DUP2 ADD SWAP1 POP PUSH2 0x2F8C JUMP JUMPDEST DUP4 DUP2 GT ISZERO PUSH2 0x2FB6 JUMPI PUSH1 0x0 DUP5 DUP5 ADD MSTORE JUMPDEST POP POP POP POP JUMP JUMPDEST PUSH1 0x0 PUSH1 0x2 DUP3 DIV SWAP1 POP PUSH1 0x1 DUP3 AND DUP1 PUSH2 0x2FD4 JUMPI PUSH1 0x7F DUP3 AND SWAP2 POP JUMPDEST PUSH1 0x20 DUP3 LT DUP2 EQ ISZERO PUSH2 0x2FE8 JUMPI PUSH2 0x2FE7 PUSH2 0x3097 JUMP JUMPDEST JUMPDEST POP SWAP2 SWAP1 POP JUMP JUMPDEST PUSH2 0x2FF7 DUP3 PUSH2 0x30F5 JUMP JUMPDEST DUP2 ADD DUP2 DUP2 LT PUSH8 0xFFFFFFFFFFFFFFFF DUP3 GT OR ISZERO PUSH2 0x3016 JUMPI PUSH2 0x3015 PUSH2 0x30C6 JUMP JUMPDEST JUMPDEST DUP1 PUSH1 0x40 MSTORE POP POP POP JUMP JUMPDEST PUSH1 0x0 PUSH2 0x302A DUP3 PUSH2 0x2F70 JUMP JUMPDEST SWAP2 POP PUSH32 0xFFFFFFFFFFFFFFFFFFFFFFFFFFFFFFFFFFFFFFFFFFFFFFFFFFFFFFFFFFFFFFFF DUP3 EQ ISZERO PUSH2 0x305D JUMPI PUSH2 0x305C PUSH2 0x3068 JUMP JUMPDEST JUMPDEST PUSH1 0x1 DUP3 ADD SWAP1 POP SWAP2 SWAP1 POP JUMP JUMPDEST PUSH32 0x4E487B7100000000000000000000000000000000000000000000000000000000 PUSH1 0x0 MSTORE PUSH1 0x11 PUSH1 0x4 MSTORE PUSH1 0x24 PUSH1 0x0 REVERT JUMPDEST PUSH32 0x4E487B7100000000000000000000000000000000000000000000000000000000 PUSH1 0x0 MSTORE PUSH1 0x22 PUSH1 0x4 MSTORE PUSH1 0x24 PUSH1 0x0 REVERT JUMPDEST PUSH32 0x4E487B7100000000000000000000000000000000000000000000000000000000 PUSH1 0x0 MSTORE PUSH1 0x41 PUSH1 0x4 MSTORE PUSH1 0x24 PUSH1 0x0 REVERT JUMPDEST PUSH1 0x0 PUSH1 0x1F NOT PUSH1 0x1F DUP4 ADD AND SWAP1 POP SWAP2 SWAP1 POP JUMP JUMPDEST PUSH32 0x4E6F7420616C6C6F77656420746F207472616E7366657220746F6B656E000000 PUSH1 0x0 DUP3 ADD MSTORE POP JUMP JUMPDEST PUSH32 0x4552433732313A2063616C6C6572206973206E6F7420746F6B656E206F776E65 PUSH1 0x0 DUP3 ADD MSTORE PUSH32 0x72206F7220617070726F76656400000000000000000000000000000000000000 PUSH1 0x20 DUP3 ADD MSTORE POP JUMP JUMPDEST PUSH32 0x4552433732313A207472616E7366657220746F206E6F6E204552433732315265 PUSH1 0x0 DUP3 ADD MSTORE PUSH32 0x63656976657220696D706C656D656E7465720000000000000000000000000000 PUSH1 0x20 DUP3 ADD MSTORE POP JUMP JUMPDEST PUSH32 0x4552433732313A207472616E736665722066726F6D20696E636F727265637420 PUSH1 0x0 DUP3 ADD MSTORE PUSH32 0x6F776E6572000000000000000000000000000000000000000000000000000000 PUSH1 0x20 DUP3 ADD MSTORE POP JUMP JUMPDEST PUSH32 0x4552433732313A20746F6B656E20616C7265616479206D696E74656400000000 PUSH1 0x0 DUP3 ADD MSTORE POP JUMP JUMPDEST PUSH32 0x4552433732313A207472616E7366657220746F20746865207A65726F20616464 PUSH1 0x0 DUP3 ADD MSTORE PUSH32 0x7265737300000000000000000000000000000000000000000000000000000000 PUSH1 0x20 DUP3 ADD MSTORE POP JUMP JUMPDEST PUSH32 0x4552433732313A20617070726F766520746F2063616C6C657200000000000000 PUSH1 0x0 DUP3 ADD MSTORE POP JUMP JUMPDEST PUSH32 0x4F6E6C7920697373756572206F662074686973206576656E742063616E206265 PUSH1 0x0 DUP3 ADD MSTORE PUSH32 0x206163636573732074686520746F6B656E496473210000000000000000000000 PUSH1 0x20 DUP3 ADD MSTORE POP JUMP JUMPDEST PUSH32 0x546F6B656E20555249206D757374206E6F7420626520656D7074790000000000 PUSH1 0x0 DUP3 ADD MSTORE POP JUMP JUMPDEST PUSH32 0x4552433732313A2061646472657373207A65726F206973206E6F742061207661 PUSH1 0x0 DUP3 ADD MSTORE PUSH32 0x6C6964206F776E65720000000000000000000000000000000000000000000000 PUSH1 0x20 DUP3 ADD MSTORE POP JUMP JUMPDEST PUSH32 0x496E76616C6964207175616E7469747900000000000000000000000000000000 PUSH1 0x0 DUP3 ADD MSTORE POP JUMP JUMPDEST PUSH32 0x45524337323155524953746F726167653A2055524920736574206F66206E6F6E PUSH1 0x0 DUP3 ADD MSTORE PUSH32 0x6578697374656E7420746F6B656E000000000000000000000000000000000000 PUSH1 0x20 DUP3 ADD MSTORE POP JUMP JUMPDEST PUSH32 0x4552433732313A206D696E7420746F20746865207A65726F2061646472657373 PUSH1 0x0 DUP3 ADD MSTORE POP JUMP JUMPDEST PUSH32 0x496E76616C69642076616C756500000000000000000000000000000000000000 PUSH1 0x0 DUP3 ADD MSTORE POP JUMP JUMPDEST PUSH32 0x4552433732313A20696E76616C696420746F6B656E2049440000000000000000 PUSH1 0x0 DUP3 ADD MSTORE POP JUMP JUMPDEST PUSH32 0x4552433732313A20617070726F76616C20746F2063757272656E74206F776E65 PUSH1 0x0 DUP3 ADD MSTORE PUSH32 0x7200000000000000000000000000000000000000000000000000000000000000 PUSH1 0x20 DUP3 ADD MSTORE POP JUMP JUMPDEST PUSH32 0x4552433732313A20617070726F76652063616C6C6572206973206E6F7420746F PUSH1 0x0 DUP3 ADD MSTORE PUSH32 0x6B656E206F776E6572206F7220617070726F76656420666F7220616C6C000000 PUSH1 0x20 DUP3 ADD MSTORE POP JUMP JUMPDEST PUSH32 0x4552433732313A207472616E736665722063616C6C6572206973206E6F74206F PUSH1 0x0 DUP3 ADD MSTORE PUSH32 0x776E6572206E6F7220617070726F766564000000000000000000000000000000 PUSH1 0x20 DUP3 ADD MSTORE POP JUMP JUMPDEST PUSH2 0x356D DUP2 PUSH2 0x2F06 JUMP JUMPDEST DUP2 EQ PUSH2 0x3578 JUMPI PUSH1 0x0 DUP1 REVERT JUMPDEST POP JUMP JUMPDEST PUSH2 0x3584 DUP2 PUSH2 0x2F18 JUMP JUMPDEST DUP2 EQ PUSH2 0x358F JUMPI PUSH1 0x0 DUP1 REVERT JUMPDEST POP JUMP JUMPDEST PUSH2 0x359B DUP2 PUSH2 0x2F24 JUMP JUMPDEST DUP2 EQ PUSH2 0x35A6 JUMPI PUSH1 0x0 DUP1 REVERT JUMPDEST POP JUMP JUMPDEST PUSH2 0x35B2 DUP2 PUSH2 0x2F70 JUMP JUMPDEST DUP2 EQ PUSH2 0x35BD JUMPI PUSH1 0x0 DUP1 REVERT JUMPDEST POP JUMP INVALID LOG2 PUSH5 0x6970667358 0x22 SLT KECCAK256 0xE SMOD 0xD8 0x4E 0xC4 KECCAK256 0x4E PUSH24 0xD78258B55275A752F6B0163FC5FFD5A69EC077EF812AAC27 PUSH5 0x736F6C6343 STOP ADDMOD DIV STOP CALLER "},"gasEstimates":{"creation":{"codeDepositCost":"2762800","executionCost":"infinite","totalCost":"infinite"},"external":{"allTokenMinted()":"1238","approve(address,uint256)":"infinite","balanceOf(address)":"1624","bulkMintERC721(string,uint256,uint256,bool)":"infinite","getApproved(uint256)":"2700","getMintStatus()":"1268","getTokenIds(uint256)":"infinite","isApprovedForAll(address,address)":"infinite","issuers(uint256)":"1650","name()":"infinite","ownerOf(uint256)":"1725","safeTransferFrom(address,address,uint256)":"infinite","safeTransferFrom(address,address,uint256,bytes)":"infinite","setApprovalForAll(address,bool)":"infinite","supportsInterface(bytes4)":"797","symbol()":"infinite","tokenIds(uint256,uint256)":"infinite","tokenURI(uint256)":"infinite","transferFrom(address,address,uint256)":"infinite","transferToken(address,address,uint256,string,uint256)":"infinite"},"internal":{"_beforeTokenTransfer(address,address,uint256,uint256)":"infinite","safeMint(string calldata,uint256)":"infinite"}},"methodIdentifiers":{"allTokenMinted()":"436afe32","approve(address,uint256)":"095ea7b3","balanceOf(address)":"70a08231","bulkMintERC721(string,uint256,uint256,bool)":"1ba7ddd2","getApproved(uint256)":"081812fc","getMintStatus()":"941ada0e","getTokenIds(uint256)":"57991d30","isApprovedForAll(address,address)":"e985e9c5","issuers(uint256)":"61ec30c4","name()":"06fdde03","ownerOf(uint256)":"6352211e","safeTransferFrom(address,address,uint256)":"42842e0e","safeTransferFrom(address,address,uint256,bytes)":"b88d4fde","setApprovalForAll(address,bool)":"a22cb465","supportsInterface(bytes4)":"01ffc9a7","symbol()":"95d89b41","tokenIds(uint256,uint256)":"eed8cc35","tokenURI(uint256)":"c87b56dd","transferFrom(address,address,uint256)":"23b872dd","transferToken(address,address,uint256,string,uint256)":"80574834"}},"storageLayout":{"storage":[{"astId":79,"contract":"contracts/Trustified.sol:Trustified","label":"_name","offset":0,"slot":"0","type":"t_string_storage"},{"astId":81,"contract":"contracts/Trustified.sol:Trustified","label":"_symbol","offset":0,"slot":"1","type":"t_string_storage"},{"astId":85,"contract":"contracts/Trustified.sol:Trustified","label":"_owners","offset":0,"slot":"2","type":"t_mapping(t_uint256,t_address)"},{"astId":89,"contract":"contracts/Trustified.sol:Trustified","label":"_balances","offset":0,"slot":"3","type":"t_mapping(t_address,t_uint256)"},{"astId":93,"contract":"contracts/Trustified.sol:Trustified","label":"_tokenApprovals","offset":0,"slot":"4","type":"t_mapping(t_uint256,t_address)"},{"astId":99,"contract":"contracts/Trustified.sol:Trustified","label":"_operatorApprovals","offset":0,"slot":"5","type":"t_mapping(t_address,t_mapping(t_address,t_bool))"},{"astId":3010,"contract":"contracts/Trustified.sol:Trustified","label":"_tokenURIs","offset":0,"slot":"6","type":"t_mapping(t_uint256,t_string_storage)"},{"astId":3014,"contract":"contracts/Trustified.sol:Trustified","label":"_transferred","offset":0,"slot":"7","type":"t_mapping(t_uint256,t_bool)"},{"astId":2676,"contract":"contracts/Trustified.sol:Trustified","label":"_tokenIdCounter","offset":0,"slot":"8","type":"t_struct(Counter)1517_storage"},{"astId":2679,"contract":"contracts/Trustified.sol:Trustified","label":"_eventIdCounter","offset":0,"slot":"9","type":"t_struct(Counter)1517_storage"},{"astId":2681,"contract":"contracts/Trustified.sol:Trustified","label":"allTokenMinted","offset":0,"slot":"10","type":"t_bool"},{"astId":2686,"contract":"contracts/Trustified.sol:Trustified","label":"tokenIds","offset":0,"slot":"11","type":"t_mapping(t_uint256,t_array(t_uint256)dyn_storage)"},{"astId":2690,"contract":"contracts/Trustified.sol:Trustified","label":"issuers","offset":0,"slot":"12","type":"t_mapping(t_uint256,t_address)"},{"astId":2694,"contract":"contracts/Trustified.sol:Trustified","label":"_nonTransferable","offset":0,"slot":"13","type":"t_mapping(t_uint256,t_bool)"}],"types":{"t_address":{"encoding":"inplace","label":"address","numberOfBytes":"20"},"t_array(t_uint256)dyn_storage":{"base":"t_uint256","encoding":"dynamic_array","label":"uint256[]","numberOfBytes":"32"},"t_bool":{"encoding":"inplace","label":"bool","numberOfBytes":"1"},"t_mapping(t_address,t_bool)":{"encoding":"mapping","key":"t_address","label":"mapping(address => bool)","numberOfBytes":"32","value":"t_bool"},"t_mapping(t_address,t_mapping(t_address,t_bool))":{"encoding":"mapping","key":"t_address","label":"mapping(address => mapping(address => bool))","numberOfBytes":"32","value":"t_mapping(t_address,t_bool)"},"t_mapping(t_address,t_uint256)":{"encoding":"mapping","key":"t_address","label":"mapping(address => uint256)","numberOfBytes":"32","value":"t_uint256"},"t_mapping(t_uint256,t_address)":{"encoding":"mapping","key":"t_uint256","label":"mapping(uint256 => address)","numberOfBytes":"32","value":"t_address"},"t_mapping(t_uint256,t_array(t_uint256)dyn_storage)":{"encoding":"mapping","key":"t_uint256","label":"mapping(uint256 => uint256[])","numberOfBytes":"32","value":"t_array(t_uint256)dyn_storage"},"t_mapping(t_uint256,t_bool)":{"encoding":"mapping","key":"t_uint256","label":"mapping(uint256 => bool)","numberOfBytes":"32","value":"t_bool"},"t_mapping(t_uint256,t_string_storage)":{"encoding":"mapping","key":"t_uint256","label":"mapping(uint256 => string)","numberOfBytes":"32","value":"t_string_storage"},"t_string_storage":{"encoding":"bytes","label":"string","numberOfBytes":"32"},"t_struct(Counter)1517_storage":{"encoding":"inplace","label":"struct Counters.Counter","members":[{"astId":1516,"contract":"contracts/Trustified.sol:Trustified","label":"_value","offset":0,"slot":"0","type":"t_uint256"}],"numberOfBytes":"32"},"t_uint256":{"encoding":"inplace","label":"uint256","numberOfBytes":"32"}}},"userdoc":{"kind":"user","methods":{},"version":1}}}}