{
  "_format": "hh-sol-artifact-1",
  "contractName": "Trustified",
  "sourceName": "contracts/Trustified.sol",
  "abi": [
    {
      "inputs": [],
      "stateMutability": "nonpayable",
      "type": "constructor"
    },
    {
      "anonymous": false,
      "inputs": [
        {
          "indexed": true,
          "internalType": "address",
          "name": "owner",
          "type": "address"
        },
        {
          "indexed": true,
          "internalType": "address",
          "name": "approved",
          "type": "address"
        },
        {
          "indexed": true,
          "internalType": "uint256",
          "name": "tokenId",
          "type": "uint256"
        }
      ],
      "name": "Approval",
      "type": "event"
    },
    {
      "anonymous": false,
      "inputs": [
        {
          "indexed": true,
          "internalType": "address",
          "name": "owner",
          "type": "address"
        },
        {
          "indexed": true,
          "internalType": "address",
          "name": "operator",
          "type": "address"
        },
        {
          "indexed": false,
          "internalType": "bool",
          "name": "approved",
          "type": "bool"
        }
      ],
      "name": "ApprovalForAll",
      "type": "event"
    },
    {
      "anonymous": false,
      "inputs": [
        {
          "indexed": false,
          "internalType": "address",
          "name": "",
          "type": "address"
        },
        {
          "indexed": false,
          "internalType": "uint256",
          "name": "",
          "type": "uint256"
        }
      ],
      "name": "TokenMinted",
      "type": "event"
    },
    {
      "anonymous": false,
      "inputs": [
        {
          "indexed": true,
          "internalType": "address",
          "name": "from",
          "type": "address"
        },
        {
          "indexed": true,
          "internalType": "address",
          "name": "to",
          "type": "address"
        },
        {
          "indexed": true,
          "internalType": "uint256",
          "name": "tokenId",
          "type": "uint256"
        }
      ],
      "name": "Transfer",
      "type": "event"
    },
    {
      "inputs": [
        {
          "internalType": "address",
          "name": "to",
          "type": "address"
        },
        {
          "internalType": "uint256",
          "name": "tokenId",
          "type": "uint256"
        }
      ],
      "name": "approve",
      "outputs": [],
      "stateMutability": "nonpayable",
      "type": "function"
    },
    {
      "inputs": [
        {
          "internalType": "address",
          "name": "owner",
          "type": "address"
        }
      ],
      "name": "balanceOf",
      "outputs": [
        {
          "internalType": "uint256",
          "name": "",
          "type": "uint256"
        }
      ],
      "stateMutability": "view",
      "type": "function"
    },
    {
      "inputs": [
        {
          "internalType": "string",
          "name": "tokenUri",
          "type": "string"
        },
        {
          "internalType": "uint256",
          "name": "quantity",
          "type": "uint256"
        },
        {
          "internalType": "uint256",
          "name": "value",
          "type": "uint256"
        }
      ],
      "name": "bulkMintERC721",
      "outputs": [],
      "stateMutability": "nonpayable",
      "type": "function"
    },
    {
      "inputs": [
        {
          "internalType": "uint256",
          "name": "tokenId",
          "type": "uint256"
        }
      ],
      "name": "getApproved",
      "outputs": [
        {
          "internalType": "address",
          "name": "",
          "type": "address"
        }
      ],
      "stateMutability": "view",
      "type": "function"
    },
    {
      "inputs": [
        {
          "internalType": "uint256",
          "name": "eventId",
          "type": "uint256"
        }
      ],
      "name": "getTokenIds",
      "outputs": [
        {
          "internalType": "uint256[]",
          "name": "",
          "type": "uint256[]"
        }
      ],
      "stateMutability": "view",
      "type": "function"
    },
    {
      "inputs": [
        {
          "internalType": "address",
          "name": "owner",
          "type": "address"
        },
        {
          "internalType": "address",
          "name": "operator",
          "type": "address"
        }
      ],
      "name": "isApprovedForAll",
      "outputs": [
        {
          "internalType": "bool",
          "name": "",
          "type": "bool"
        }
      ],
      "stateMutability": "view",
      "type": "function"
    },
    {
      "inputs": [
        {
          "internalType": "uint256",
          "name": "",
          "type": "uint256"
        }
      ],
      "name": "issuers",
      "outputs": [
        {
          "internalType": "address",
          "name": "",
          "type": "address"
        }
      ],
      "stateMutability": "view",
      "type": "function"
    },
    {
      "inputs": [],
      "name": "name",
      "outputs": [
        {
          "internalType": "string",
          "name": "",
          "type": "string"
        }
      ],
      "stateMutability": "view",
      "type": "function"
    },
    {
      "inputs": [
        {
          "internalType": "uint256",
          "name": "tokenId",
          "type": "uint256"
        }
      ],
      "name": "ownerOf",
      "outputs": [
        {
          "internalType": "address",
          "name": "",
          "type": "address"
        }
      ],
      "stateMutability": "view",
      "type": "function"
    },
    {
      "inputs": [
        {
          "internalType": "string",
          "name": "tokenURI",
          "type": "string"
        },
        {
          "internalType": "uint256",
          "name": "value",
          "type": "uint256"
        }
      ],
      "name": "safeMint",
      "outputs": [
        {
          "internalType": "uint256",
          "name": "",
          "type": "uint256"
        }
      ],
      "stateMutability": "nonpayable",
      "type": "function"
    },
    {
      "inputs": [
        {
          "internalType": "address",
          "name": "from",
          "type": "address"
        },
        {
          "internalType": "address",
          "name": "to",
          "type": "address"
        },
        {
          "internalType": "uint256",
          "name": "tokenId",
          "type": "uint256"
        }
      ],
      "name": "safeTransferFrom",
      "outputs": [],
      "stateMutability": "nonpayable",
      "type": "function"
    },
    {
      "inputs": [
        {
          "internalType": "address",
          "name": "from",
          "type": "address"
        },
        {
          "internalType": "address",
          "name": "to",
          "type": "address"
        },
        {
          "internalType": "uint256",
          "name": "tokenId",
          "type": "uint256"
        },
        {
          "internalType": "bytes",
          "name": "data",
          "type": "bytes"
        }
      ],
      "name": "safeTransferFrom",
      "outputs": [],
      "stateMutability": "nonpayable",
      "type": "function"
    },
    {
      "inputs": [
        {
          "internalType": "address",
          "name": "operator",
          "type": "address"
        },
        {
          "internalType": "bool",
          "name": "approved",
          "type": "bool"
        }
      ],
      "name": "setApprovalForAll",
      "outputs": [],
      "stateMutability": "nonpayable",
      "type": "function"
    },
    {
      "inputs": [
        {
          "internalType": "bytes4",
          "name": "interfaceId",
          "type": "bytes4"
        }
      ],
      "name": "supportsInterface",
      "outputs": [
        {
          "internalType": "bool",
          "name": "",
          "type": "bool"
        }
      ],
      "stateMutability": "view",
      "type": "function"
    },
    {
      "inputs": [],
      "name": "symbol",
      "outputs": [
        {
          "internalType": "string",
          "name": "",
          "type": "string"
        }
      ],
      "stateMutability": "view",
      "type": "function"
    },
    {
      "inputs": [
        {
          "internalType": "uint256",
          "name": "",
          "type": "uint256"
        },
        {
          "internalType": "uint256",
          "name": "",
          "type": "uint256"
        }
      ],
      "name": "tokenIds",
      "outputs": [
        {
          "internalType": "uint256",
          "name": "",
          "type": "uint256"
        }
      ],
      "stateMutability": "view",
      "type": "function"
    },
    {
      "inputs": [
        {
          "internalType": "uint256",
          "name": "tokenId",
          "type": "uint256"
        }
      ],
      "name": "tokenURI",
      "outputs": [
        {
          "internalType": "string",
          "name": "",
          "type": "string"
        }
      ],
      "stateMutability": "view",
      "type": "function"
    },
    {
      "inputs": [
        {
          "internalType": "address",
          "name": "from",
          "type": "address"
        },
        {
          "internalType": "address",
          "name": "to",
          "type": "address"
        },
        {
          "internalType": "uint256",
          "name": "tokenId",
          "type": "uint256"
        }
      ],
      "name": "transferFrom",
      "outputs": [],
      "stateMutability": "nonpayable",
      "type": "function"
    },
    {
      "inputs": [
        {
          "internalType": "address",
          "name": "from",
          "type": "address"
        },
        {
          "internalType": "address",
          "name": "to",
          "type": "address"
        },
        {
          "internalType": "uint256",
          "name": "tokenId",
          "type": "uint256"
        },
        {
          "internalType": "string",
          "name": "tokenURI",
          "type": "string"
        },
        {
          "internalType": "uint256",
          "name": "value",
          "type": "uint256"
        }
      ],
      "name": "transferToken",
      "outputs": [],
      "stateMutability": "nonpayable",
      "type": "function"
    }
  ],
  "bytecode": "0x60806040523480156200001157600080fd5b506040518060400160405280600a81526020017f54727573746966696564000000000000000000000000000000000000000000008152506040518060400160405280600381526020017f54464e0000000000000000000000000000000000000000000000000000000000815250816000908051906020019062000096929190620000b8565b508060019080519060200190620000af929190620000b8565b505050620001cd565b828054620000c69062000168565b90600052602060002090601f016020900481019282620000ea576000855562000136565b82601f106200010557805160ff191683800117855562000136565b8280016001018555821562000136579182015b828111156200013557825182559160200191906001019062000118565b5b50905062000145919062000149565b5090565b5b80821115620001645760008160009055506001016200014a565b5090565b600060028204905060018216806200018157607f821691505b602082108114156200019857620001976200019e565b5b50919050565b7f4e487b7100000000000000000000000000000000000000000000000000000000600052602260045260246000fd5b61333480620001dd6000396000f3fe608060405234801561001057600080fd5b50600436106101215760003560e01c806361ec30c4116100ad578063a22cb46511610071578063a22cb4651461033e578063b88d4fde1461035a578063c87b56dd14610376578063e985e9c5146103a6578063eed8cc35146103d657610121565b806361ec30c4146102745780636352211e146102a457806370a08231146102d4578063805748341461030457806395d89b411461032057610121565b806323b872dd116100f457806323b872dd146101c05780632cba83d1146101dc57806342842e0e146101f857806346b145e11461021457806357991d301461024457610121565b806301ffc9a71461012657806306fdde0314610156578063081812fc14610174578063095ea7b3146101a4575b600080fd5b610140600480360381019061013b91906123d3565b610406565b60405161014d919061299a565b60405180910390f35b61015e6104e8565b60405161016b91906129b5565b60405180910390f35b61018e600480360381019061018991906124e9565b61057a565b60405161019b91906128b1565b60405180910390f35b6101be60048036038101906101b99190612397565b6105c0565b005b6101da60048036038101906101d591906121ff565b6106d8565b005b6101f660048036038101906101f1919061247d565b610731565b005b610212600480360381019061020d91906121ff565b610844565b005b61022e60048036038101906102299190612425565b610864565b60405161023b9190612b97565b60405180910390f35b61025e600480360381019061025991906124e9565b61093b565b60405161026b9190612978565b60405180910390f35b61028e600480360381019061028991906124e9565b6109a6565b60405161029b91906128b1565b60405180910390f35b6102be60048036038101906102b991906124e9565b6109d9565b6040516102cb91906128b1565b60405180910390f35b6102ee60048036038101906102e9919061219a565b610a60565b6040516102fb9190612b97565b60405180910390f35b61031e600480360381019061031991906122c9565b610b18565b005b610328610c38565b60405161033591906129b5565b60405180910390f35b6103586004803603810190610353919061235b565b610cca565b005b610374600480360381019061036f919061224e565b610ce0565b005b610390600480360381019061038b91906124e9565b610d42565b60405161039d91906129b5565b60405180910390f35b6103c060048036038101906103bb91906121c3565b610e55565b6040516103cd919061299a565b60405180910390f35b6103f060048036038101906103eb9190612512565b610ee9565b6040516103fd9190612b97565b60405180910390f35b60007f80ac58cd000000000000000000000000000000000000000000000000000000007bffffffffffffffffffffffffffffffffffffffffffffffffffffffff1916827bffffffffffffffffffffffffffffffffffffffffffffffffffffffff191614806104d157507f5b5e139f000000000000000000000000000000000000000000000000000000007bffffffffffffffffffffffffffffffffffffffffffffffffffffffff1916827bffffffffffffffffffffffffffffffffffffffffffffffffffffffff1916145b806104e157506104e082610f1a565b5b9050919050565b6060600080546104f790612dc4565b80601f016020809104026020016040519081016040528092919081815260200182805461052390612dc4565b80156105705780601f1061054557610100808354040283529160200191610570565b820191906000526020600020905b81548152906001019060200180831161055357829003601f168201915b5050505050905090565b600061058582610f84565b6004600083815260200190815260200160002060009054906101000a900473ffffffffffffffffffffffffffffffffffffffff169050919050565b60006105cb826109d9565b90508073ffffffffffffffffffffffffffffffffffffffff168373ffffffffffffffffffffffffffffffffffffffff16141561063c576040517f08c379a000000000000000000000000000000000000000000000000000000000815260040161063390612b37565b60405180910390fd5b8073ffffffffffffffffffffffffffffffffffffffff1661065b610fcf565b73ffffffffffffffffffffffffffffffffffffffff16148061068a575061068981610684610fcf565b610e55565b5b6106c9576040517f08c379a00000000000000000000000000000000000000000000000000000000081526004016106c090612b57565b60405180910390fd5b6106d38383610fd7565b505050565b6106e28382611090565b610721576040517f08c379a000000000000000000000000000000000000000000000000000000000815260040161071890612b77565b60405180910390fd5b61072c838383611125565b505050565b600061073d600861141f565b9050610749600861142d565b60005b83811015610803576000610761878786610864565b90506009600084815260200190815260200160002081908060018154018082558091505060019003906000526020600020016000909190919091505533600a600085815260200190815260200160002060006101000a81548173ffffffffffffffffffffffffffffffffffffffff021916908373ffffffffffffffffffffffffffffffffffffffff1602179055505080806107fb90612e27565b91505061074c565b507fb9144c96c86541f6fa89c9f2f02495cccf4b08cd6643e26d34ee00aa586558a8338260405161083592919061294f565b60405180910390a15050505050565b61085f83838360405180602001604052806000815250610ce0565b505050565b6000808210158015610877575060018211155b6108b6576040517f08c379a00000000000000000000000000000000000000000000000000000000081526004016108ad90612af7565b60405180910390fd5b60006108c2600761141f565b90506108ce600761142d565b6108d83082611443565b60008314156109305761092f8186868080601f016020809104026020016040519081016040528093929190818152602001838380828437600081840152601f19601f82011690508083019250505050505050611661565b5b809150509392505050565b60606009600083815260200190815260200160002080548060200260200160405190810160405280929190818152602001828054801561099a57602002820191906000526020600020905b815481526020019060010190808311610986575b50505050509050919050565b600a6020528060005260406000206000915054906101000a900473ffffffffffffffffffffffffffffffffffffffff1681565b6000806109e5836116d5565b9050600073ffffffffffffffffffffffffffffffffffffffff168173ffffffffffffffffffffffffffffffffffffffff161415610a57576040517f08c379a0000000000000000000000000000000000000000000000000000000008152600401610a4e90612b17565b60405180910390fd5b80915050919050565b60008073ffffffffffffffffffffffffffffffffffffffff168273ffffffffffffffffffffffffffffffffffffffff161415610ad1576040517f08c379a0000000000000000000000000000000000000000000000000000000008152600401610ac890612a97565b60405180910390fd5b600360008373ffffffffffffffffffffffffffffffffffffffff1673ffffffffffffffffffffffffffffffffffffffff168152602001908152602001600020549050919050565b60008110158015610b2a575060018111155b610b69576040517f08c379a0000000000000000000000000000000000000000000000000000000008152600401610b6090612af7565b60405180910390fd5b6001811415610bc157610bc08484848080601f016020809104026020016040519081016040528093929190818152602001838380828437600081840152601f19601f82011690508083019250505050505050611661565b5b3073ffffffffffffffffffffffffffffffffffffffff166323b872dd8787876040518463ffffffff1660e01b8152600401610bfe939291906128cc565b600060405180830381600087803b158015610c1857600080fd5b505af1158015610c2c573d6000803e3d6000fd5b50505050505050505050565b606060018054610c4790612dc4565b80601f0160208091040260200160405190810160405280929190818152602001828054610c7390612dc4565b8015610cc05780601f10610c9557610100808354040283529160200191610cc0565b820191906000526020600020905b815481529060010190602001808311610ca357829003601f168201915b5050505050905090565b610cdc610cd5610fcf565b8383611712565b5050565b610cf1610ceb610fcf565b83611090565b610d30576040517f08c379a0000000000000000000000000000000000000000000000000000000008152600401610d27906129d7565b60405180910390fd5b610d3c8484848461187f565b50505050565b6060610d4d82610f84565b6000600660008481526020019081526020016000208054610d6d90612dc4565b80601f0160208091040260200160405190810160405280929190818152602001828054610d9990612dc4565b8015610de65780601f10610dbb57610100808354040283529160200191610de6565b820191906000526020600020905b815481529060010190602001808311610dc957829003601f168201915b505050505090506000610df76118db565b9050600081511415610e0d578192505050610e50565b600082511115610e42578082604051602001610e2a92919061288d565b60405160208183030381529060405292505050610e50565b610e4b846118f2565b925050505b919050565b6000600560008473ffffffffffffffffffffffffffffffffffffffff1673ffffffffffffffffffffffffffffffffffffffff16815260200190815260200160002060008373ffffffffffffffffffffffffffffffffffffffff1673ffffffffffffffffffffffffffffffffffffffff16815260200190815260200160002060009054906101000a900460ff16905092915050565b60096020528160005260406000208181548110610f0557600080fd5b90600052602060002001600091509150505481565b60007f01ffc9a7000000000000000000000000000000000000000000000000000000007bffffffffffffffffffffffffffffffffffffffffffffffffffffffff1916827bffffffffffffffffffffffffffffffffffffffffffffffffffffffff1916149050919050565b610f8d8161195a565b610fcc576040517f08c379a0000000000000000000000000000000000000000000000000000000008152600401610fc390612b17565b60405180910390fd5b50565b600033905090565b816004600083815260200190815260200160002060006101000a81548173ffffffffffffffffffffffffffffffffffffffff021916908373ffffffffffffffffffffffffffffffffffffffff160217905550808273ffffffffffffffffffffffffffffffffffffffff1661104a836109d9565b73ffffffffffffffffffffffffffffffffffffffff167f8c5be1e5ebec7d5bd14f71427d1e84f3dd0314c0f7b2291e5b200ac8c7c3b92560405160405180910390a45050565b60008061109c836109d9565b90508073ffffffffffffffffffffffffffffffffffffffff168473ffffffffffffffffffffffffffffffffffffffff1614806110de57506110dd8185610e55565b5b8061111c57508373ffffffffffffffffffffffffffffffffffffffff166111048461057a565b73ffffffffffffffffffffffffffffffffffffffff16145b91505092915050565b8273ffffffffffffffffffffffffffffffffffffffff16611145826109d9565b73ffffffffffffffffffffffffffffffffffffffff161461119b576040517f08c379a000000000000000000000000000000000000000000000000000000000815260040161119290612a17565b60405180910390fd5b600073ffffffffffffffffffffffffffffffffffffffff168273ffffffffffffffffffffffffffffffffffffffff16141561120b576040517f08c379a000000000000000000000000000000000000000000000000000000000815260040161120290612a57565b60405180910390fd5b611218838383600161199b565b8273ffffffffffffffffffffffffffffffffffffffff16611238826109d9565b73ffffffffffffffffffffffffffffffffffffffff161461128e576040517f08c379a000000000000000000000000000000000000000000000000000000000815260040161128590612a17565b60405180910390fd5b6004600082815260200190815260200160002060006101000a81549073ffffffffffffffffffffffffffffffffffffffff02191690556001600360008573ffffffffffffffffffffffffffffffffffffffff1673ffffffffffffffffffffffffffffffffffffffff168152602001908152602001600020600082825403925050819055506001600360008473ffffffffffffffffffffffffffffffffffffffff1673ffffffffffffffffffffffffffffffffffffffff16815260200190815260200160002060008282540192505081905550816002600083815260200190815260200160002060006101000a81548173ffffffffffffffffffffffffffffffffffffffff021916908373ffffffffffffffffffffffffffffffffffffffff160217905550808273ffffffffffffffffffffffffffffffffffffffff168473ffffffffffffffffffffffffffffffffffffffff167fddf252ad1be2c89b69c2b068fc378daa952ba7f163c4a11628f55a4df523b3ef60405160405180910390a461141a8383836001611ac1565b505050565b600081600001549050919050565b6001816000016000828254019250508190555050565b600073ffffffffffffffffffffffffffffffffffffffff168273ffffffffffffffffffffffffffffffffffffffff1614156114b3576040517f08c379a00000000000000000000000000000000000000000000000000000000081526004016114aa90612ad7565b60405180910390fd5b6114bc8161195a565b156114fc576040517f08c379a00000000000000000000000000000000000000000000000000000000081526004016114f390612a37565b60405180910390fd5b61150a60008383600161199b565b6115138161195a565b15611553576040517f08c379a000000000000000000000000000000000000000000000000000000000815260040161154a90612a37565b60405180910390fd5b6001600360008473ffffffffffffffffffffffffffffffffffffffff1673ffffffffffffffffffffffffffffffffffffffff16815260200190815260200160002060008282540192505081905550816002600083815260200190815260200160002060006101000a81548173ffffffffffffffffffffffffffffffffffffffff021916908373ffffffffffffffffffffffffffffffffffffffff160217905550808273ffffffffffffffffffffffffffffffffffffffff16600073ffffffffffffffffffffffffffffffffffffffff167fddf252ad1be2c89b69c2b068fc378daa952ba7f163c4a11628f55a4df523b3ef60405160405180910390a461165d600083836001611ac1565b5050565b61166a8261195a565b6116a9576040517f08c379a00000000000000000000000000000000000000000000000000000000081526004016116a090612ab7565b60405180910390fd5b806006600084815260200190815260200160002090805190602001906116d0929190611fdc565b505050565b60006002600083815260200190815260200160002060009054906101000a900473ffffffffffffffffffffffffffffffffffffffff169050919050565b8173ffffffffffffffffffffffffffffffffffffffff168373ffffffffffffffffffffffffffffffffffffffff161415611781576040517f08c379a000000000000000000000000000000000000000000000000000000000815260040161177890612a77565b60405180910390fd5b80600560008573ffffffffffffffffffffffffffffffffffffffff1673ffffffffffffffffffffffffffffffffffffffff16815260200190815260200160002060008473ffffffffffffffffffffffffffffffffffffffff1673ffffffffffffffffffffffffffffffffffffffff16815260200190815260200160002060006101000a81548160ff0219169083151502179055508173ffffffffffffffffffffffffffffffffffffffff168373ffffffffffffffffffffffffffffffffffffffff167f17307eab39ab6107e8899845ad3d59bd9653f200f220920489ca2b5937696c3183604051611872919061299a565b60405180910390a3505050565b61188a848484611125565b61189684848484611ac7565b6118d5576040517f08c379a00000000000000000000000000000000000000000000000000000000081526004016118cc906129f7565b60405180910390fd5b50505050565b606060405180602001604052806000815250905090565b60606118fd82610f84565b60006119076118db565b905060008151116119275760405180602001604052806000815250611952565b8061193184611c5e565b60405160200161194292919061288d565b6040516020818303038152906040525b915050919050565b60008073ffffffffffffffffffffffffffffffffffffffff1661197c836116d5565b73ffffffffffffffffffffffffffffffffffffffff1614159050919050565b6001811115611abb57600073ffffffffffffffffffffffffffffffffffffffff168473ffffffffffffffffffffffffffffffffffffffff1614611a2f5780600360008673ffffffffffffffffffffffffffffffffffffffff1673ffffffffffffffffffffffffffffffffffffffff1681526020019081526020016000206000828254611a279190612cda565b925050819055505b600073ffffffffffffffffffffffffffffffffffffffff168373ffffffffffffffffffffffffffffffffffffffff1614611aba5780600360008573ffffffffffffffffffffffffffffffffffffffff1673ffffffffffffffffffffffffffffffffffffffff1681526020019081526020016000206000828254611ab29190612c84565b925050819055505b5b50505050565b50505050565b6000611ae88473ffffffffffffffffffffffffffffffffffffffff16611d82565b15611c51578373ffffffffffffffffffffffffffffffffffffffff1663150b7a02611b11610fcf565b8786866040518563ffffffff1660e01b8152600401611b339493929190612903565b602060405180830381600087803b158015611b4d57600080fd5b505af1925050508015611b7e57506040513d601f19601f82011682018060405250810190611b7b91906123fc565b60015b611c01573d8060008114611bae576040519150601f19603f3d011682016040523d82523d6000602084013e611bb3565b606091505b50600081511415611bf9576040517f08c379a0000000000000000000000000000000000000000000000000000000008152600401611bf0906129f7565b60405180910390fd5b805181602001fd5b63150b7a0260e01b7bffffffffffffffffffffffffffffffffffffffffffffffffffffffff1916817bffffffffffffffffffffffffffffffffffffffffffffffffffffffff191614915050611c56565b600190505b949350505050565b606060006001611c6d84611da5565b01905060008167ffffffffffffffff811115611cb2577f4e487b7100000000000000000000000000000000000000000000000000000000600052604160045260246000fd5b6040519080825280601f01601f191660200182016040528015611ce45781602001600182028036833780820191505090505b509050600082602001820190505b600115611d77578080600190039150507f3031323334353637383961626364656600000000000000000000000000000000600a86061a8153600a8581611d61577f4e487b7100000000000000000000000000000000000000000000000000000000600052601260045260246000fd5b0494506000851415611d7257611d77565b611cf2565b819350505050919050565b6000808273ffffffffffffffffffffffffffffffffffffffff163b119050919050565b600080600090507a184f03e93ff9f4daa797ed6e38ed64bf6a1f0100000000000000008310611e29577a184f03e93ff9f4daa797ed6e38ed64bf6a1f0100000000000000008381611e1f577f4e487b7100000000000000000000000000000000000000000000000000000000600052601260045260246000fd5b0492506040810190505b6d04ee2d6d415b85acef81000000008310611e8c576d04ee2d6d415b85acef81000000008381611e82577f4e487b7100000000000000000000000000000000000000000000000000000000600052601260045260246000fd5b0492506020810190505b662386f26fc100008310611ee157662386f26fc100008381611ed7577f4e487b7100000000000000000000000000000000000000000000000000000000600052601260045260246000fd5b0492506010810190505b6305f5e1008310611f30576305f5e1008381611f26577f4e487b7100000000000000000000000000000000000000000000000000000000600052601260045260246000fd5b0492506008810190505b6127108310611f7b576127108381611f71577f4e487b7100000000000000000000000000000000000000000000000000000000600052601260045260246000fd5b0492506004810190505b60648310611fc45760648381611fba577f4e487b7100000000000000000000000000000000000000000000000000000000600052601260045260246000fd5b0492506002810190505b600a8310611fd3576001810190505b80915050919050565b828054611fe890612dc4565b90600052602060002090601f01602090048101928261200a5760008555612051565b82601f1061202357805160ff1916838001178555612051565b82800160010185558215612051579182015b82811115612050578251825591602001919060010190612035565b5b50905061205e9190612062565b5090565b5b8082111561207b576000816000905550600101612063565b5090565b600061209261208d84612bd7565b612bb2565b9050828152602081018484840111156120aa57600080fd5b6120b5848285612d82565b509392505050565b6000813590506120cc816132a2565b92915050565b6000813590506120e1816132b9565b92915050565b6000813590506120f6816132d0565b92915050565b60008151905061210b816132d0565b92915050565b600082601f83011261212257600080fd5b813561213284826020860161207f565b91505092915050565b60008083601f84011261214d57600080fd5b8235905067ffffffffffffffff81111561216657600080fd5b60208301915083600182028301111561217e57600080fd5b9250929050565b600081359050612194816132e7565b92915050565b6000602082840312156121ac57600080fd5b60006121ba848285016120bd565b91505092915050565b600080604083850312156121d657600080fd5b60006121e4858286016120bd565b92505060206121f5858286016120bd565b9150509250929050565b60008060006060848603121561221457600080fd5b6000612222868287016120bd565b9350506020612233868287016120bd565b925050604061224486828701612185565b9150509250925092565b6000806000806080858703121561226457600080fd5b6000612272878288016120bd565b9450506020612283878288016120bd565b935050604061229487828801612185565b925050606085013567ffffffffffffffff8111156122b157600080fd5b6122bd87828801612111565b91505092959194509250565b60008060008060008060a087890312156122e257600080fd5b60006122f089828a016120bd565b965050602061230189828a016120bd565b955050604061231289828a01612185565b945050606087013567ffffffffffffffff81111561232f57600080fd5b61233b89828a0161213b565b9350935050608061234e89828a01612185565b9150509295509295509295565b6000806040838503121561236e57600080fd5b600061237c858286016120bd565b925050602061238d858286016120d2565b9150509250929050565b600080604083850312156123aa57600080fd5b60006123b8858286016120bd565b92505060206123c985828601612185565b9150509250929050565b6000602082840312156123e557600080fd5b60006123f3848285016120e7565b91505092915050565b60006020828403121561240e57600080fd5b600061241c848285016120fc565b91505092915050565b60008060006040848603121561243a57600080fd5b600084013567ffffffffffffffff81111561245457600080fd5b6124608682870161213b565b9350935050602061247386828701612185565b9150509250925092565b6000806000806060858703121561249357600080fd5b600085013567ffffffffffffffff8111156124ad57600080fd5b6124b98782880161213b565b945094505060206124cc87828801612185565b92505060406124dd87828801612185565b91505092959194509250565b6000602082840312156124fb57600080fd5b600061250984828501612185565b91505092915050565b6000806040838503121561252557600080fd5b600061253385828601612185565b925050602061254485828601612185565b9150509250929050565b600061255a838361286f565b60208301905092915050565b61256f81612d0e565b82525050565b600061258082612c18565b61258a8185612c46565b935061259583612c08565b8060005b838110156125c65781516125ad888261254e565b97506125b883612c39565b925050600181019050612599565b5085935050505092915050565b6125dc81612d20565b82525050565b60006125ed82612c23565b6125f78185612c57565b9350612607818560208601612d91565b61261081612efd565b840191505092915050565b600061262682612c2e565b6126308185612c68565b9350612640818560208601612d91565b61264981612efd565b840191505092915050565b600061265f82612c2e565b6126698185612c79565b9350612679818560208601612d91565b80840191505092915050565b6000612692602d83612c68565b915061269d82612f0e565b604082019050919050565b60006126b5603283612c68565b91506126c082612f5d565b604082019050919050565b60006126d8602583612c68565b91506126e382612fac565b604082019050919050565b60006126fb601c83612c68565b915061270682612ffb565b602082019050919050565b600061271e602483612c68565b915061272982613024565b604082019050919050565b6000612741601983612c68565b915061274c82613073565b602082019050919050565b6000612764602983612c68565b915061276f8261309c565b604082019050919050565b6000612787602e83612c68565b9150612792826130eb565b604082019050919050565b60006127aa602083612c68565b91506127b58261313a565b602082019050919050565b60006127cd600d83612c68565b91506127d882613163565b602082019050919050565b60006127f0601883612c68565b91506127fb8261318c565b602082019050919050565b6000612813602183612c68565b915061281e826131b5565b604082019050919050565b6000612836603d83612c68565b915061284182613204565b604082019050919050565b6000612859603183612c68565b915061286482613253565b604082019050919050565b61287881612d78565b82525050565b61288781612d78565b82525050565b60006128998285612654565b91506128a58284612654565b91508190509392505050565b60006020820190506128c66000830184612566565b92915050565b60006060820190506128e16000830186612566565b6128ee6020830185612566565b6128fb604083018461287e565b949350505050565b60006080820190506129186000830187612566565b6129256020830186612566565b612932604083018561287e565b818103606083015261294481846125e2565b905095945050505050565b60006040820190506129646000830185612566565b612971602083018461287e565b9392505050565b600060208201905081810360008301526129928184612575565b905092915050565b60006020820190506129af60008301846125d3565b92915050565b600060208201905081810360008301526129cf818461261b565b905092915050565b600060208201905081810360008301526129f081612685565b9050919050565b60006020820190508181036000830152612a10816126a8565b9050919050565b60006020820190508181036000830152612a30816126cb565b9050919050565b60006020820190508181036000830152612a50816126ee565b9050919050565b60006020820190508181036000830152612a7081612711565b9050919050565b60006020820190508181036000830152612a9081612734565b9050919050565b60006020820190508181036000830152612ab081612757565b9050919050565b60006020820190508181036000830152612ad08161277a565b9050919050565b60006020820190508181036000830152612af08161279d565b9050919050565b60006020820190508181036000830152612b10816127c0565b9050919050565b60006020820190508181036000830152612b30816127e3565b9050919050565b60006020820190508181036000830152612b5081612806565b9050919050565b60006020820190508181036000830152612b7081612829565b9050919050565b60006020820190508181036000830152612b908161284c565b9050919050565b6000602082019050612bac600083018461287e565b92915050565b6000612bbc612bcd565b9050612bc88282612df6565b919050565b6000604051905090565b600067ffffffffffffffff821115612bf257612bf1612ece565b5b612bfb82612efd565b9050602081019050919050565b6000819050602082019050919050565b600081519050919050565b600081519050919050565b600081519050919050565b6000602082019050919050565b600082825260208201905092915050565b600082825260208201905092915050565b600082825260208201905092915050565b600081905092915050565b6000612c8f82612d78565b9150612c9a83612d78565b9250827fffffffffffffffffffffffffffffffffffffffffffffffffffffffffffffffff03821115612ccf57612cce612e70565b5b828201905092915050565b6000612ce582612d78565b9150612cf083612d78565b925082821015612d0357612d02612e70565b5b828203905092915050565b6000612d1982612d58565b9050919050565b60008115159050919050565b60007fffffffff0000000000000000000000000000000000000000000000000000000082169050919050565b600073ffffffffffffffffffffffffffffffffffffffff82169050919050565b6000819050919050565b82818337600083830152505050565b60005b83811015612daf578082015181840152602081019050612d94565b83811115612dbe576000848401525b50505050565b60006002820490506001821680612ddc57607f821691505b60208210811415612df057612def612e9f565b5b50919050565b612dff82612efd565b810181811067ffffffffffffffff82111715612e1e57612e1d612ece565b5b80604052505050565b6000612e3282612d78565b91507fffffffffffffffffffffffffffffffffffffffffffffffffffffffffffffffff821415612e6557612e64612e70565b5b600182019050919050565b7f4e487b7100000000000000000000000000000000000000000000000000000000600052601160045260246000fd5b7f4e487b7100000000000000000000000000000000000000000000000000000000600052602260045260246000fd5b7f4e487b7100000000000000000000000000000000000000000000000000000000600052604160045260246000fd5b6000601f19601f8301169050919050565b7f4552433732313a2063616c6c6572206973206e6f7420746f6b656e206f776e6560008201527f72206f7220617070726f76656400000000000000000000000000000000000000602082015250565b7f4552433732313a207472616e7366657220746f206e6f6e20455243373231526560008201527f63656976657220696d706c656d656e7465720000000000000000000000000000602082015250565b7f4552433732313a207472616e736665722066726f6d20696e636f72726563742060008201527f6f776e6572000000000000000000000000000000000000000000000000000000602082015250565b7f4552433732313a20746f6b656e20616c7265616479206d696e74656400000000600082015250565b7f4552433732313a207472616e7366657220746f20746865207a65726f2061646460008201527f7265737300000000000000000000000000000000000000000000000000000000602082015250565b7f4552433732313a20617070726f766520746f2063616c6c657200000000000000600082015250565b7f4552433732313a2061646472657373207a65726f206973206e6f74206120766160008201527f6c6964206f776e65720000000000000000000000000000000000000000000000602082015250565b7f45524337323155524953746f726167653a2055524920736574206f66206e6f6e60008201527f6578697374656e7420746f6b656e000000000000000000000000000000000000602082015250565b7f4552433732313a206d696e7420746f20746865207a65726f2061646472657373600082015250565b7f496e76616c69642076616c756500000000000000000000000000000000000000600082015250565b7f4552433732313a20696e76616c696420746f6b656e2049440000000000000000600082015250565b7f4552433732313a20617070726f76616c20746f2063757272656e74206f776e6560008201527f7200000000000000000000000000000000000000000000000000000000000000602082015250565b7f4552433732313a20617070726f76652063616c6c6572206973206e6f7420746f60008201527f6b656e206f776e6572206f7220617070726f76656420666f7220616c6c000000602082015250565b7f4552433732313a207472616e736665722063616c6c6572206973206e6f74206f60008201527f776e6572206e6f7220617070726f766564000000000000000000000000000000602082015250565b6132ab81612d0e565b81146132b657600080fd5b50565b6132c281612d20565b81146132cd57600080fd5b50565b6132d981612d2c565b81146132e457600080fd5b50565b6132f081612d78565b81146132fb57600080fd5b5056fea26469706673582212205ba5fea085ca00e6180e8b9185860b7e11ae7cf0d4f3bbaea9e967d6ecdaebec64736f6c63430008040033",
  "linkReferences": {},
  "deployedLinkReferences": {}
}