{
  "_format": "hh-sol-artifact-1",
  "contractName": "Trustified",
  "sourceName": "contracts/Trustified.sol",
  "abi": [
    {
      "inputs": [],
      "stateMutability": "nonpayable",
      "type": "constructor"
    },
    {
      "anonymous": false,
      "inputs": [
        {
          "indexed": true,
          "internalType": "address",
          "name": "owner",
          "type": "address"
        },
        {
          "indexed": true,
          "internalType": "address",
          "name": "approved",
          "type": "address"
        },
        {
          "indexed": true,
          "internalType": "uint256",
          "name": "tokenId",
          "type": "uint256"
        }
      ],
      "name": "Approval",
      "type": "event"
    },
    {
      "anonymous": false,
      "inputs": [
        {
          "indexed": true,
          "internalType": "address",
          "name": "owner",
          "type": "address"
        },
        {
          "indexed": true,
          "internalType": "address",
          "name": "operator",
          "type": "address"
        },
        {
          "indexed": false,
          "internalType": "bool",
          "name": "approved",
          "type": "bool"
        }
      ],
      "name": "ApprovalForAll",
      "type": "event"
    },
    {
      "anonymous": false,
      "inputs": [
        {
          "indexed": true,
          "internalType": "uint256",
          "name": "eventId",
          "type": "uint256"
        },
        {
          "indexed": false,
          "internalType": "uint256[]",
          "name": "tokenIds",
          "type": "uint256[]"
        },
        {
          "indexed": true,
          "internalType": "address",
          "name": "issuer",
          "type": "address"
        }
      ],
      "name": "TokensMinted",
      "type": "event"
    },
    {
      "anonymous": false,
      "inputs": [
        {
          "indexed": true,
          "internalType": "address",
          "name": "from",
          "type": "address"
        },
        {
          "indexed": true,
          "internalType": "address",
          "name": "to",
          "type": "address"
        },
        {
          "indexed": true,
          "internalType": "uint256",
          "name": "tokenId",
          "type": "uint256"
        }
      ],
      "name": "Transfer",
      "type": "event"
    },
    {
      "inputs": [
        {
          "internalType": "address",
          "name": "to",
          "type": "address"
        },
        {
          "internalType": "uint256",
          "name": "tokenId",
          "type": "uint256"
        }
      ],
      "name": "approve",
      "outputs": [],
      "stateMutability": "nonpayable",
      "type": "function"
    },
    {
      "inputs": [
        {
          "internalType": "address",
          "name": "owner",
          "type": "address"
        }
      ],
      "name": "balanceOf",
      "outputs": [
        {
          "internalType": "uint256",
          "name": "",
          "type": "uint256"
        }
      ],
      "stateMutability": "view",
      "type": "function"
    },
    {
      "inputs": [
        {
          "internalType": "string",
          "name": "tokenUri",
          "type": "string"
        },
        {
          "internalType": "uint256",
          "name": "quantity",
          "type": "uint256"
        },
        {
          "internalType": "uint256",
          "name": "value",
          "type": "uint256"
        },
        {
          "internalType": "bool",
          "name": "nonTransferable",
          "type": "bool"
        },
        {
          "internalType": "uint256",
          "name": "price",
          "type": "uint256"
        }
      ],
      "name": "bulkMintERC721",
      "outputs": [],
      "stateMutability": "payable",
      "type": "function"
    },
    {
      "inputs": [],
      "name": "claimFees",
      "outputs": [
        {
          "internalType": "uint256",
          "name": "",
          "type": "uint256"
        }
      ],
      "stateMutability": "view",
      "type": "function"
    },
    {
      "inputs": [
        {
          "internalType": "uint256",
          "name": "tokenId",
          "type": "uint256"
        }
      ],
      "name": "claimRoyality",
      "outputs": [],
      "stateMutability": "payable",
      "type": "function"
    },
    {
      "inputs": [],
      "name": "creationFees",
      "outputs": [
        {
          "internalType": "uint256",
          "name": "",
          "type": "uint256"
        }
      ],
      "stateMutability": "view",
      "type": "function"
    },
    {
      "inputs": [
        {
          "internalType": "uint256",
          "name": "tokenId",
          "type": "uint256"
        }
      ],
      "name": "getApproved",
      "outputs": [
        {
          "internalType": "address",
          "name": "",
          "type": "address"
        }
      ],
      "stateMutability": "view",
      "type": "function"
    },
    {
      "inputs": [
        {
          "internalType": "address",
          "name": "owner",
          "type": "address"
        },
        {
          "internalType": "address",
          "name": "operator",
          "type": "address"
        }
      ],
      "name": "isApprovedForAll",
      "outputs": [
        {
          "internalType": "bool",
          "name": "",
          "type": "bool"
        }
      ],
      "stateMutability": "view",
      "type": "function"
    },
    {
      "inputs": [],
      "name": "name",
      "outputs": [
        {
          "internalType": "string",
          "name": "",
          "type": "string"
        }
      ],
      "stateMutability": "view",
      "type": "function"
    },
    {
      "inputs": [],
      "name": "owner",
      "outputs": [
        {
          "internalType": "address payable",
          "name": "",
          "type": "address"
        }
      ],
      "stateMutability": "view",
      "type": "function"
    },
    {
      "inputs": [
        {
          "internalType": "uint256",
          "name": "tokenId",
          "type": "uint256"
        }
      ],
      "name": "ownerOf",
      "outputs": [
        {
          "internalType": "address",
          "name": "",
          "type": "address"
        }
      ],
      "stateMutability": "view",
      "type": "function"
    },
    {
      "inputs": [
        {
          "internalType": "address",
          "name": "from",
          "type": "address"
        },
        {
          "internalType": "address",
          "name": "to",
          "type": "address"
        },
        {
          "internalType": "uint256",
          "name": "tokenId",
          "type": "uint256"
        }
      ],
      "name": "safeTransferFrom",
      "outputs": [],
      "stateMutability": "nonpayable",
      "type": "function"
    },
    {
      "inputs": [
        {
          "internalType": "address",
          "name": "from",
          "type": "address"
        },
        {
          "internalType": "address",
          "name": "to",
          "type": "address"
        },
        {
          "internalType": "uint256",
          "name": "tokenId",
          "type": "uint256"
        },
        {
          "internalType": "bytes",
          "name": "data",
          "type": "bytes"
        }
      ],
      "name": "safeTransferFrom",
      "outputs": [],
      "stateMutability": "nonpayable",
      "type": "function"
    },
    {
      "inputs": [
        {
          "internalType": "address",
          "name": "operator",
          "type": "address"
        },
        {
          "internalType": "bool",
          "name": "approved",
          "type": "bool"
        }
      ],
      "name": "setApprovalForAll",
      "outputs": [],
      "stateMutability": "nonpayable",
      "type": "function"
    },
    {
      "inputs": [
        {
          "internalType": "uint256",
          "name": "_claimFees",
          "type": "uint256"
        }
      ],
      "name": "setClaimFees",
      "outputs": [],
      "stateMutability": "nonpayable",
      "type": "function"
    },
    {
      "inputs": [
        {
          "internalType": "uint256",
          "name": "_creationFees",
          "type": "uint256"
        }
      ],
      "name": "setCreationFees",
      "outputs": [],
      "stateMutability": "nonpayable",
      "type": "function"
    },
    {
      "inputs": [
        {
          "internalType": "bytes4",
          "name": "interfaceId",
          "type": "bytes4"
        }
      ],
      "name": "supportsInterface",
      "outputs": [
        {
          "internalType": "bool",
          "name": "",
          "type": "bool"
        }
      ],
      "stateMutability": "view",
      "type": "function"
    },
    {
      "inputs": [],
      "name": "symbol",
      "outputs": [
        {
          "internalType": "string",
          "name": "",
          "type": "string"
        }
      ],
      "stateMutability": "view",
      "type": "function"
    },
    {
      "inputs": [
        {
          "internalType": "uint256",
          "name": "tokenId",
          "type": "uint256"
        }
      ],
      "name": "tokenURI",
      "outputs": [
        {
          "internalType": "string",
          "name": "",
          "type": "string"
        }
      ],
      "stateMutability": "view",
      "type": "function"
    },
    {
      "inputs": [
        {
          "internalType": "address",
          "name": "from",
          "type": "address"
        },
        {
          "internalType": "address",
          "name": "to",
          "type": "address"
        },
        {
          "internalType": "uint256",
          "name": "tokenId",
          "type": "uint256"
        }
      ],
      "name": "transferFrom",
      "outputs": [],
      "stateMutability": "nonpayable",
      "type": "function"
    },
    {
      "inputs": [
        {
          "internalType": "address",
          "name": "from",
          "type": "address"
        },
        {
          "internalType": "address",
          "name": "to",
          "type": "address"
        },
        {
          "internalType": "uint256",
          "name": "tokenId",
          "type": "uint256"
        },
        {
          "internalType": "string",
          "name": "tokenURI",
          "type": "string"
        },
        {
          "internalType": "uint256",
          "name": "value",
          "type": "uint256"
        }
      ],
      "name": "transferToken",
      "outputs": [],
      "stateMutability": "payable",
      "type": "function"
    }
  ],
  "bytecode": "0x608060405266038d7ea4c68000600c556014600d553480156200002157600080fd5b506040518060400160405280600b81526020017f54727573746966696564310000000000000000000000000000000000000000008152506040518060400160405280600381526020017f54463100000000000000000000000000000000000000000000000000000000008152508160009080519060200190620000a692919062000111565b508060019080519060200190620000bf92919062000111565b505050600160088190555033600960006101000a81548173ffffffffffffffffffffffffffffffffffffffff021916908373ffffffffffffffffffffffffffffffffffffffff16021790555062000226565b8280546200011f90620001c1565b90600052602060002090601f0160209004810192826200014357600085556200018f565b82601f106200015e57805160ff19168380011785556200018f565b828001600101855582156200018f579182015b828111156200018e57825182559160200191906001019062000171565b5b5090506200019e9190620001a2565b5090565b5b80821115620001bd576000816000905550600101620001a3565b5090565b60006002820490506001821680620001da57607f821691505b60208210811415620001f157620001f0620001f7565b5b50919050565b7f4e487b7100000000000000000000000000000000000000000000000000000000600052602260045260246000fd5b613c0080620002366000396000f3fe60806040526004361061012a5760003560e01c806373b79cb5116100ab578063aac5e3041161006f578063aac5e304146103d4578063b88d4fde146103f0578063c259a8ec14610419578063c87b56dd14610442578063d294f0931461047f578063e985e9c5146104aa5761012a565b806373b79cb51461030e57806380574834146103395780638da5cb5b1461035557806395d89b4114610380578063a22cb465146103ab5761012a565b806323b872dd116100f257806323b872dd146102265780632cd052701461024f57806342842e0e1461026b5780636352211e1461029457806370a08231146102d15761012a565b806301ffc9a71461012f57806306fdde031461016c578063081812fc14610197578063095ea7b3146101d457806322154445146101fd575b600080fd5b34801561013b57600080fd5b506101566004803603810190610151919061298d565b6104e7565b6040516101639190612fa5565b60405180910390f35b34801561017857600080fd5b506101816105c9565b60405161018e9190612fc0565b60405180910390f35b3480156101a357600080fd5b506101be60048036038101906101b99190612a71565b61065b565b6040516101cb9190612f01565b60405180910390f35b3480156101e057600080fd5b506101fb60048036038101906101f69190612951565b6106a1565b005b34801561020957600080fd5b50610224600480360381019061021f9190612a71565b6107b9565b005b34801561023257600080fd5b5061024d600480360381019061024891906127b9565b610897565b005b610269600480360381019061026491906129df565b6108f7565b005b34801561027757600080fd5b50610292600480360381019061028d91906127b9565b610c6b565b005b3480156102a057600080fd5b506102bb60048036038101906102b69190612a71565b610c8b565b6040516102c89190612f01565b60405180910390f35b3480156102dd57600080fd5b506102f860048036038101906102f39190612754565b610d12565b6040516103059190613282565b60405180910390f35b34801561031a57600080fd5b50610323610dca565b6040516103309190613282565b60405180910390f35b610353600480360381019061034e9190612883565b610dd0565b005b34801561036157600080fd5b5061036a610f42565b6040516103779190612f1c565b60405180910390f35b34801561038c57600080fd5b50610395610f68565b6040516103a29190612fc0565b60405180910390f35b3480156103b757600080fd5b506103d260048036038101906103cd9190612915565b610ffa565b005b6103ee60048036038101906103e99190612a71565b611010565b005b3480156103fc57600080fd5b5061041760048036038101906104129190612808565b611144565b005b34801561042557600080fd5b50610440600480360381019061043b9190612a71565b6111a6565b005b34801561044e57600080fd5b5061046960048036038101906104649190612a71565b611240565b6040516104769190612fc0565b60405180910390f35b34801561048b57600080fd5b50610494611353565b6040516104a19190613282565b60405180910390f35b3480156104b657600080fd5b506104d160048036038101906104cc919061277d565b611359565b6040516104de9190612fa5565b60405180910390f35b60007f80ac58cd000000000000000000000000000000000000000000000000000000007bffffffffffffffffffffffffffffffffffffffffffffffffffffffff1916827bffffffffffffffffffffffffffffffffffffffffffffffffffffffff191614806105b257507f5b5e139f000000000000000000000000000000000000000000000000000000007bffffffffffffffffffffffffffffffffffffffffffffffffffffffff1916827bffffffffffffffffffffffffffffffffffffffffffffffffffffffff1916145b806105c257506105c1826113ed565b5b9050919050565b6060600080546105d8906134f6565b80601f0160208091040260200160405190810160405280929190818152602001828054610604906134f6565b80156106515780601f1061062657610100808354040283529160200191610651565b820191906000526020600020905b81548152906001019060200180831161063457829003601f168201915b5050505050905090565b600061066682611457565b6004600083815260200190815260200160002060009054906101000a900473ffffffffffffffffffffffffffffffffffffffff169050919050565b60006106ac82610c8b565b90508073ffffffffffffffffffffffffffffffffffffffff168373ffffffffffffffffffffffffffffffffffffffff16141561071d576040517f08c379a0000000000000000000000000000000000000000000000000000000008152600401610714906131e2565b60405180910390fd5b8073ffffffffffffffffffffffffffffffffffffffff1661073c6114a2565b73ffffffffffffffffffffffffffffffffffffffff16148061076b575061076a816107656114a2565b611359565b5b6107aa576040517f08c379a00000000000000000000000000000000000000000000000000000000081526004016107a190613202565b60405180910390fd5b6107b483836114aa565b505050565b600960009054906101000a900473ffffffffffffffffffffffffffffffffffffffff1673ffffffffffffffffffffffffffffffffffffffff163373ffffffffffffffffffffffffffffffffffffffff1614610849576040517f08c379a000000000000000000000000000000000000000000000000000000000815260040161084090613242565b60405180910390fd5b606481111561088d576040517f08c379a0000000000000000000000000000000000000000000000000000000008152600401610884906131a2565b60405180910390fd5b80600d8190555050565b6108a86108a26114a2565b82611563565b6108e7576040517f08c379a00000000000000000000000000000000000000000000000000000000081526004016108de90613002565b60405180910390fd5b6108f28383836115f8565b505050565b6108ff6118f2565b60008411610942576040517f08c379a000000000000000000000000000000000000000000000000000000000815260040161093990613102565b60405180910390fd5b60008310158015610954575060018311155b610993576040517f08c379a000000000000000000000000000000000000000000000000000000000815260040161098a90613182565b60405180910390fd5b600c5434146109d7576040517f08c379a00000000000000000000000000000000000000000000000000000000081526004016109ce90613162565b60405180910390fd5b60006109e3600b611942565b90506109ef600b611950565b60008567ffffffffffffffff811115610a31577f4e487b7100000000000000000000000000000000000000000000000000000000600052604160045260246000fd5b604051908082528060200260200182016040528015610a5f5781602001602082028036833780820191505090505b50905060005b86811015610ba0576000610a7a8a8a89611966565b905060405180608001604052808281526020013373ffffffffffffffffffffffffffffffffffffffff168152602001868152602001871515815250600e60008381526020019081526020016000206000820151816000015560208201518160010160006101000a81548173ffffffffffffffffffffffffffffffffffffffff021916908373ffffffffffffffffffffffffffffffffffffffff1602179055506040820151816002015560608201518160030160006101000a81548160ff02191690831515021790555090505080838381518110610b80577f4e487b7100000000000000000000000000000000000000000000000000000000600052603260045260246000fd5b602002602001018181525050508080610b9890613559565b915050610a65565b50600960009054906101000a900473ffffffffffffffffffffffffffffffffffffffff1673ffffffffffffffffffffffffffffffffffffffff166108fc349081150290604051600060405180830381858888f19350505050158015610c09573d6000803e3d6000fd5b503373ffffffffffffffffffffffffffffffffffffffff16827f88c55e90330027a4740cd7d2bafb3fc31c21bbaa17745d80b328c53c4916ebf483604051610c519190612f83565b60405180910390a35050610c63611a32565b505050505050565b610c8683838360405180602001604052806000815250611144565b505050565b600080610c9783611a3c565b9050600073ffffffffffffffffffffffffffffffffffffffff168173ffffffffffffffffffffffffffffffffffffffff161415610d09576040517f08c379a0000000000000000000000000000000000000000000000000000000008152600401610d00906131c2565b60405180910390fd5b80915050919050565b60008073ffffffffffffffffffffffffffffffffffffffff168273ffffffffffffffffffffffffffffffffffffffff161415610d83576040517f08c379a0000000000000000000000000000000000000000000000000000000008152600401610d7a906130e2565b60405180910390fd5b600360008373ffffffffffffffffffffffffffffffffffffffff1673ffffffffffffffffffffffffffffffffffffffff168152602001908152602001600020549050919050565b600c5481565b610dd86118f2565b60008110158015610dea575060018111155b610e29576040517f08c379a0000000000000000000000000000000000000000000000000000000008152600401610e2090613182565b60405180910390fd5b6001811415610e8157610e808484848080601f016020809104026020016040519081016040528093929190818152602001838380828437600081840152601f19601f82011690508083019250505050505050611a79565b5b3073ffffffffffffffffffffffffffffffffffffffff168673ffffffffffffffffffffffffffffffffffffffff1614610f1d57610ebe3385611563565b610efd576040517f08c379a0000000000000000000000000000000000000000000000000000000008152600401610ef490613222565b60405180910390fd5b610f0f610f086114a2565b86866115f8565b610f1884611010565b610f32565b610f288686866115f8565b610f3184611010565b5b610f3a611a32565b505050505050565b600960009054906101000a900473ffffffffffffffffffffffffffffffffffffffff1681565b606060018054610f77906134f6565b80601f0160208091040260200160405190810160405280929190818152602001828054610fa3906134f6565b8015610ff05780601f10610fc557610100808354040283529160200191610ff0565b820191906000526020600020905b815481529060010190602001808311610fd357829003601f168201915b5050505050905090565b61100c6110056114a2565b8383611aed565b5050565b6000349050600061103f6064611031600d5485611c5a90919063ffffffff16565b611c7090919063ffffffff16565b9050600960009054906101000a900473ffffffffffffffffffffffffffffffffffffffff1673ffffffffffffffffffffffffffffffffffffffff166108fc829081150290604051600060405180830381858888f193505050501580156110a9573d6000803e3d6000fd5b5060006110bf8284611c8690919063ffffffff16565b9050600e600085815260200190815260200160002060010160009054906101000a900473ffffffffffffffffffffffffffffffffffffffff1673ffffffffffffffffffffffffffffffffffffffff166108fc829081150290604051600060405180830381858888f1935050505015801561113d573d6000803e3d6000fd5b5050505050565b61115561114f6114a2565b83611563565b611194576040517f08c379a000000000000000000000000000000000000000000000000000000000815260040161118b90613002565b60405180910390fd5b6111a084848484611c9c565b50505050565b600960009054906101000a900473ffffffffffffffffffffffffffffffffffffffff1673ffffffffffffffffffffffffffffffffffffffff163373ffffffffffffffffffffffffffffffffffffffff1614611236576040517f08c379a000000000000000000000000000000000000000000000000000000000815260040161122d90613242565b60405180910390fd5b80600c8190555050565b606061124b82611457565b600060066000848152602001908152602001600020805461126b906134f6565b80601f0160208091040260200160405190810160405280929190818152602001828054611297906134f6565b80156112e45780601f106112b9576101008083540402835291602001916112e4565b820191906000526020600020905b8154815290600101906020018083116112c757829003601f168201915b5050505050905060006112f5611cf8565b905060008151141561130b57819250505061134e565b600082511115611340578082604051602001611328929190612edd565b6040516020818303038152906040529250505061134e565b61134984611d0f565b925050505b919050565b600d5481565b6000600560008473ffffffffffffffffffffffffffffffffffffffff1673ffffffffffffffffffffffffffffffffffffffff16815260200190815260200160002060008373ffffffffffffffffffffffffffffffffffffffff1673ffffffffffffffffffffffffffffffffffffffff16815260200190815260200160002060009054906101000a900460ff16905092915050565b60007f01ffc9a7000000000000000000000000000000000000000000000000000000007bffffffffffffffffffffffffffffffffffffffffffffffffffffffff1916827bffffffffffffffffffffffffffffffffffffffffffffffffffffffff1916149050919050565b61146081611d77565b61149f576040517f08c379a0000000000000000000000000000000000000000000000000000000008152600401611496906131c2565b60405180910390fd5b50565b600033905090565b816004600083815260200190815260200160002060006101000a81548173ffffffffffffffffffffffffffffffffffffffff021916908373ffffffffffffffffffffffffffffffffffffffff160217905550808273ffffffffffffffffffffffffffffffffffffffff1661151d83610c8b565b73ffffffffffffffffffffffffffffffffffffffff167f8c5be1e5ebec7d5bd14f71427d1e84f3dd0314c0f7b2291e5b200ac8c7c3b92560405160405180910390a45050565b60008061156f83610c8b565b90508073ffffffffffffffffffffffffffffffffffffffff168473ffffffffffffffffffffffffffffffffffffffff1614806115b157506115b08185611359565b5b806115ef57508373ffffffffffffffffffffffffffffffffffffffff166115d78461065b565b73ffffffffffffffffffffffffffffffffffffffff16145b91505092915050565b8273ffffffffffffffffffffffffffffffffffffffff1661161882610c8b565b73ffffffffffffffffffffffffffffffffffffffff161461166e576040517f08c379a000000000000000000000000000000000000000000000000000000000815260040161166590613042565b60405180910390fd5b600073ffffffffffffffffffffffffffffffffffffffff168273ffffffffffffffffffffffffffffffffffffffff1614156116de576040517f08c379a00000000000000000000000000000000000000000000000000000000081526004016116d590613082565b60405180910390fd5b6116eb8383836001611db8565b8273ffffffffffffffffffffffffffffffffffffffff1661170b82610c8b565b73ffffffffffffffffffffffffffffffffffffffff1614611761576040517f08c379a000000000000000000000000000000000000000000000000000000000815260040161175890613042565b60405180910390fd5b6004600082815260200190815260200160002060006101000a81549073ffffffffffffffffffffffffffffffffffffffff02191690556001600360008573ffffffffffffffffffffffffffffffffffffffff1673ffffffffffffffffffffffffffffffffffffffff168152602001908152602001600020600082825403925050819055506001600360008473ffffffffffffffffffffffffffffffffffffffff1673ffffffffffffffffffffffffffffffffffffffff16815260200190815260200160002060008282540192505081905550816002600083815260200190815260200160002060006101000a81548173ffffffffffffffffffffffffffffffffffffffff021916908373ffffffffffffffffffffffffffffffffffffffff160217905550808273ffffffffffffffffffffffffffffffffffffffff168473ffffffffffffffffffffffffffffffffffffffff167fddf252ad1be2c89b69c2b068fc378daa952ba7f163c4a11628f55a4df523b3ef60405160405180910390a46118ed8383836001611e5d565b505050565b60026008541415611938576040517f08c379a000000000000000000000000000000000000000000000000000000000815260040161192f90613262565b60405180910390fd5b6002600881905550565b600081600001549050919050565b6001816000016000828254019250508190555050565b600080611973600a611942565b905061197f600a611950565b6119893082611e63565b6000831415611a2757600085859050116119d8576040517f08c379a00000000000000000000000000000000000000000000000000000000081526004016119cf906130c2565b60405180910390fd5b611a268186868080601f016020809104026020016040519081016040528093929190818152602001838380828437600081840152601f19601f82011690508083019250505050505050611a79565b5b809150509392505050565b6001600881905550565b60006002600083815260200190815260200160002060009054906101000a900473ffffffffffffffffffffffffffffffffffffffff169050919050565b611a8282611d77565b611ac1576040517f08c379a0000000000000000000000000000000000000000000000000000000008152600401611ab890613122565b60405180910390fd5b80600660008481526020019081526020016000209080519060200190611ae8929190612596565b505050565b8173ffffffffffffffffffffffffffffffffffffffff168373ffffffffffffffffffffffffffffffffffffffff161415611b5c576040517f08c379a0000000000000000000000000000000000000000000000000000000008152600401611b53906130a2565b60405180910390fd5b80600560008573ffffffffffffffffffffffffffffffffffffffff1673ffffffffffffffffffffffffffffffffffffffff16815260200190815260200160002060008473ffffffffffffffffffffffffffffffffffffffff1673ffffffffffffffffffffffffffffffffffffffff16815260200190815260200160002060006101000a81548160ff0219169083151502179055508173ffffffffffffffffffffffffffffffffffffffff168373ffffffffffffffffffffffffffffffffffffffff167f17307eab39ab6107e8899845ad3d59bd9653f200f220920489ca2b5937696c3183604051611c4d9190612fa5565b60405180910390a3505050565b60008183611c6891906133a0565b905092915050565b60008183611c7e919061336f565b905092915050565b60008183611c9491906133fa565b905092915050565b611ca78484846115f8565b611cb384848484612081565b611cf2576040517f08c379a0000000000000000000000000000000000000000000000000000000008152600401611ce990613022565b60405180910390fd5b50505050565b606060405180602001604052806000815250905090565b6060611d1a82611457565b6000611d24611cf8565b90506000815111611d445760405180602001604052806000815250611d6f565b80611d4e84612218565b604051602001611d5f929190612edd565b6040516020818303038152906040525b915050919050565b60008073ffffffffffffffffffffffffffffffffffffffff16611d9983611a3c565b73ffffffffffffffffffffffffffffffffffffffff1614159050919050565b3073ffffffffffffffffffffffffffffffffffffffff168473ffffffffffffffffffffffffffffffffffffffff1614611e575760011515600e600084815260200190815260200160002060030160009054906101000a900460ff1615151415611e56576040517f08c379a0000000000000000000000000000000000000000000000000000000008152600401611e4d90612fe2565b60405180910390fd5b5b50505050565b50505050565b600073ffffffffffffffffffffffffffffffffffffffff168273ffffffffffffffffffffffffffffffffffffffff161415611ed3576040517f08c379a0000000000000000000000000000000000000000000000000000000008152600401611eca90613142565b60405180910390fd5b611edc81611d77565b15611f1c576040517f08c379a0000000000000000000000000000000000000000000000000000000008152600401611f1390613062565b60405180910390fd5b611f2a600083836001611db8565b611f3381611d77565b15611f73576040517f08c379a0000000000000000000000000000000000000000000000000000000008152600401611f6a90613062565b60405180910390fd5b6001600360008473ffffffffffffffffffffffffffffffffffffffff1673ffffffffffffffffffffffffffffffffffffffff16815260200190815260200160002060008282540192505081905550816002600083815260200190815260200160002060006101000a81548173ffffffffffffffffffffffffffffffffffffffff021916908373ffffffffffffffffffffffffffffffffffffffff160217905550808273ffffffffffffffffffffffffffffffffffffffff16600073ffffffffffffffffffffffffffffffffffffffff167fddf252ad1be2c89b69c2b068fc378daa952ba7f163c4a11628f55a4df523b3ef60405160405180910390a461207d600083836001611e5d565b5050565b60006120a28473ffffffffffffffffffffffffffffffffffffffff1661233c565b1561220b578373ffffffffffffffffffffffffffffffffffffffff1663150b7a026120cb6114a2565b8786866040518563ffffffff1660e01b81526004016120ed9493929190612f37565b602060405180830381600087803b15801561210757600080fd5b505af192505050801561213857506040513d601f19601f8201168201806040525081019061213591906129b6565b60015b6121bb573d8060008114612168576040519150601f19603f3d011682016040523d82523d6000602084013e61216d565b606091505b506000815114156121b3576040517f08c379a00000000000000000000000000000000000000000000000000000000081526004016121aa90613022565b60405180910390fd5b805181602001fd5b63150b7a0260e01b7bffffffffffffffffffffffffffffffffffffffffffffffffffffffff1916817bffffffffffffffffffffffffffffffffffffffffffffffffffffffff191614915050612210565b600190505b949350505050565b6060600060016122278461235f565b01905060008167ffffffffffffffff81111561226c577f4e487b7100000000000000000000000000000000000000000000000000000000600052604160045260246000fd5b6040519080825280601f01601f19166020018201604052801561229e5781602001600182028036833780820191505090505b509050600082602001820190505b600115612331578080600190039150507f3031323334353637383961626364656600000000000000000000000000000000600a86061a8153600a858161231b577f4e487b7100000000000000000000000000000000000000000000000000000000600052601260045260246000fd5b049450600085141561232c57612331565b6122ac565b819350505050919050565b6000808273ffffffffffffffffffffffffffffffffffffffff163b119050919050565b600080600090507a184f03e93ff9f4daa797ed6e38ed64bf6a1f01000000000000000083106123e3577a184f03e93ff9f4daa797ed6e38ed64bf6a1f01000000000000000083816123d9577f4e487b7100000000000000000000000000000000000000000000000000000000600052601260045260246000fd5b0492506040810190505b6d04ee2d6d415b85acef81000000008310612446576d04ee2d6d415b85acef8100000000838161243c577f4e487b7100000000000000000000000000000000000000000000000000000000600052601260045260246000fd5b0492506020810190505b662386f26fc10000831061249b57662386f26fc100008381612491577f4e487b7100000000000000000000000000000000000000000000000000000000600052601260045260246000fd5b0492506010810190505b6305f5e10083106124ea576305f5e10083816124e0577f4e487b7100000000000000000000000000000000000000000000000000000000600052601260045260246000fd5b0492506008810190505b612710831061253557612710838161252b577f4e487b7100000000000000000000000000000000000000000000000000000000600052601260045260246000fd5b0492506004810190505b6064831061257e5760648381612574577f4e487b7100000000000000000000000000000000000000000000000000000000600052601260045260246000fd5b0492506002810190505b600a831061258d576001810190505b80915050919050565b8280546125a2906134f6565b90600052602060002090601f0160209004810192826125c4576000855561260b565b82601f106125dd57805160ff191683800117855561260b565b8280016001018555821561260b579182015b8281111561260a5782518255916020019190600101906125ef565b5b509050612618919061261c565b5090565b5b8082111561263557600081600090555060010161261d565b5090565b600061264c612647846132c2565b61329d565b90508281526020810184848401111561266457600080fd5b61266f8482856134b4565b509392505050565b60008135905061268681613b6e565b92915050565b60008135905061269b81613b85565b92915050565b6000813590506126b081613b9c565b92915050565b6000815190506126c581613b9c565b92915050565b600082601f8301126126dc57600080fd5b81356126ec848260208601612639565b91505092915050565b60008083601f84011261270757600080fd5b8235905067ffffffffffffffff81111561272057600080fd5b60208301915083600182028301111561273857600080fd5b9250929050565b60008135905061274e81613bb3565b92915050565b60006020828403121561276657600080fd5b600061277484828501612677565b91505092915050565b6000806040838503121561279057600080fd5b600061279e85828601612677565b92505060206127af85828601612677565b9150509250929050565b6000806000606084860312156127ce57600080fd5b60006127dc86828701612677565b93505060206127ed86828701612677565b92505060406127fe8682870161273f565b9150509250925092565b6000806000806080858703121561281e57600080fd5b600061282c87828801612677565b945050602061283d87828801612677565b935050604061284e8782880161273f565b925050606085013567ffffffffffffffff81111561286b57600080fd5b612877878288016126cb565b91505092959194509250565b60008060008060008060a0878903121561289c57600080fd5b60006128aa89828a01612677565b96505060206128bb89828a01612677565b95505060406128cc89828a0161273f565b945050606087013567ffffffffffffffff8111156128e957600080fd5b6128f589828a016126f5565b9350935050608061290889828a0161273f565b9150509295509295509295565b6000806040838503121561292857600080fd5b600061293685828601612677565b92505060206129478582860161268c565b9150509250929050565b6000806040838503121561296457600080fd5b600061297285828601612677565b92505060206129838582860161273f565b9150509250929050565b60006020828403121561299f57600080fd5b60006129ad848285016126a1565b91505092915050565b6000602082840312156129c857600080fd5b60006129d6848285016126b6565b91505092915050565b60008060008060008060a087890312156129f857600080fd5b600087013567ffffffffffffffff811115612a1257600080fd5b612a1e89828a016126f5565b96509650506020612a3189828a0161273f565b9450506040612a4289828a0161273f565b9350506060612a5389828a0161268c565b9250506080612a6489828a0161273f565b9150509295509295509295565b600060208284031215612a8357600080fd5b6000612a918482850161273f565b91505092915050565b6000612aa68383612ebf565b60208301905092915050565b612abb81613440565b82525050565b612aca8161342e565b82525050565b6000612adb82613303565b612ae58185613331565b9350612af0836132f3565b8060005b83811015612b21578151612b088882612a9a565b9750612b1383613324565b925050600181019050612af4565b5085935050505092915050565b612b3781613452565b82525050565b6000612b488261330e565b612b528185613342565b9350612b628185602086016134c3565b612b6b8161365e565b840191505092915050565b6000612b8182613319565b612b8b8185613353565b9350612b9b8185602086016134c3565b612ba48161365e565b840191505092915050565b6000612bba82613319565b612bc48185613364565b9350612bd48185602086016134c3565b80840191505092915050565b6000612bed601d83613353565b9150612bf88261366f565b602082019050919050565b6000612c10602d83613353565b9150612c1b82613698565b604082019050919050565b6000612c33603283613353565b9150612c3e826136e7565b604082019050919050565b6000612c56602583613353565b9150612c6182613736565b604082019050919050565b6000612c79601c83613353565b9150612c8482613785565b602082019050919050565b6000612c9c602483613353565b9150612ca7826137ae565b604082019050919050565b6000612cbf601983613353565b9150612cca826137fd565b602082019050919050565b6000612ce2601b83613353565b9150612ced82613826565b602082019050919050565b6000612d05602983613353565b9150612d108261384f565b604082019050919050565b6000612d28601083613353565b9150612d338261389e565b602082019050919050565b6000612d4b602e83613353565b9150612d56826138c7565b604082019050919050565b6000612d6e602083613353565b9150612d7982613916565b602082019050919050565b6000612d91602583613353565b9150612d9c8261393f565b604082019050919050565b6000612db4600d83613353565b9150612dbf8261398e565b602082019050919050565b6000612dd7601483613353565b9150612de2826139b7565b602082019050919050565b6000612dfa601883613353565b9150612e05826139e0565b602082019050919050565b6000612e1d602183613353565b9150612e2882613a09565b604082019050919050565b6000612e40603d83613353565b9150612e4b82613a58565b604082019050919050565b6000612e63603183613353565b9150612e6e82613aa7565b604082019050919050565b6000612e86602f83613353565b9150612e9182613af6565b604082019050919050565b6000612ea9601f83613353565b9150612eb482613b45565b602082019050919050565b612ec8816134aa565b82525050565b612ed7816134aa565b82525050565b6000612ee98285612baf565b9150612ef58284612baf565b91508190509392505050565b6000602082019050612f166000830184612ac1565b92915050565b6000602082019050612f316000830184612ab2565b92915050565b6000608082019050612f4c6000830187612ac1565b612f596020830186612ac1565b612f666040830185612ece565b8181036060830152612f788184612b3d565b905095945050505050565b60006020820190508181036000830152612f9d8184612ad0565b905092915050565b6000602082019050612fba6000830184612b2e565b92915050565b60006020820190508181036000830152612fda8184612b76565b905092915050565b60006020820190508181036000830152612ffb81612be0565b9050919050565b6000602082019050818103600083015261301b81612c03565b9050919050565b6000602082019050818103600083015261303b81612c26565b9050919050565b6000602082019050818103600083015261305b81612c49565b9050919050565b6000602082019050818103600083015261307b81612c6c565b9050919050565b6000602082019050818103600083015261309b81612c8f565b9050919050565b600060208201905081810360008301526130bb81612cb2565b9050919050565b600060208201905081810360008301526130db81612cd5565b9050919050565b600060208201905081810360008301526130fb81612cf8565b9050919050565b6000602082019050818103600083015261311b81612d1b565b9050919050565b6000602082019050818103600083015261313b81612d3e565b9050919050565b6000602082019050818103600083015261315b81612d61565b9050919050565b6000602082019050818103600083015261317b81612d84565b9050919050565b6000602082019050818103600083015261319b81612da7565b9050919050565b600060208201905081810360008301526131bb81612dca565b9050919050565b600060208201905081810360008301526131db81612ded565b9050919050565b600060208201905081810360008301526131fb81612e10565b9050919050565b6000602082019050818103600083015261321b81612e33565b9050919050565b6000602082019050818103600083015261323b81612e56565b9050919050565b6000602082019050818103600083015261325b81612e79565b9050919050565b6000602082019050818103600083015261327b81612e9c565b9050919050565b60006020820190506132976000830184612ece565b92915050565b60006132a76132b8565b90506132b38282613528565b919050565b6000604051905090565b600067ffffffffffffffff8211156132dd576132dc61362f565b5b6132e68261365e565b9050602081019050919050565b6000819050602082019050919050565b600081519050919050565b600081519050919050565b600081519050919050565b6000602082019050919050565b600082825260208201905092915050565b600082825260208201905092915050565b600082825260208201905092915050565b600081905092915050565b600061337a826134aa565b9150613385836134aa565b925082613395576133946135d1565b5b828204905092915050565b60006133ab826134aa565b91506133b6836134aa565b9250817fffffffffffffffffffffffffffffffffffffffffffffffffffffffffffffffff04831182151516156133ef576133ee6135a2565b5b828202905092915050565b6000613405826134aa565b9150613410836134aa565b925082821015613423576134226135a2565b5b828203905092915050565b60006134398261348a565b9050919050565b600061344b8261348a565b9050919050565b60008115159050919050565b60007fffffffff0000000000000000000000000000000000000000000000000000000082169050919050565b600073ffffffffffffffffffffffffffffffffffffffff82169050919050565b6000819050919050565b82818337600083830152505050565b60005b838110156134e15780820151818401526020810190506134c6565b838111156134f0576000848401525b50505050565b6000600282049050600182168061350e57607f821691505b6020821081141561352257613521613600565b5b50919050565b6135318261365e565b810181811067ffffffffffffffff821117156135505761354f61362f565b5b80604052505050565b6000613564826134aa565b91507fffffffffffffffffffffffffffffffffffffffffffffffffffffffffffffffff821415613597576135966135a2565b5b600182019050919050565b7f4e487b7100000000000000000000000000000000000000000000000000000000600052601160045260246000fd5b7f4e487b7100000000000000000000000000000000000000000000000000000000600052601260045260246000fd5b7f4e487b7100000000000000000000000000000000000000000000000000000000600052602260045260246000fd5b7f4e487b7100000000000000000000000000000000000000000000000000000000600052604160045260246000fd5b6000601f19601f8301169050919050565b7f4e6f7420616c6c6f77656420746f207472616e7366657220746f6b656e000000600082015250565b7f4552433732313a2063616c6c6572206973206e6f7420746f6b656e206f776e6560008201527f72206f7220617070726f76656400000000000000000000000000000000000000602082015250565b7f4552433732313a207472616e7366657220746f206e6f6e20455243373231526560008201527f63656976657220696d706c656d656e7465720000000000000000000000000000602082015250565b7f4552433732313a207472616e736665722066726f6d20696e636f72726563742060008201527f6f776e6572000000000000000000000000000000000000000000000000000000602082015250565b7f4552433732313a20746f6b656e20616c7265616479206d696e74656400000000600082015250565b7f4552433732313a207472616e7366657220746f20746865207a65726f2061646460008201527f7265737300000000000000000000000000000000000000000000000000000000602082015250565b7f4552433732313a20617070726f766520746f2063616c6c657200000000000000600082015250565b7f546f6b656e20555249206d757374206e6f7420626520656d7074790000000000600082015250565b7f4552433732313a2061646472657373207a65726f206973206e6f74206120766160008201527f6c6964206f776e65720000000000000000000000000000000000000000000000602082015250565b7f496e76616c6964207175616e7469747900000000000000000000000000000000600082015250565b7f45524337323155524953746f726167653a2055524920736574206f66206e6f6e60008201527f6578697374656e7420746f6b656e000000000000000000000000000000000000602082015250565b7f4552433732313a206d696e7420746f20746865207a65726f2061646472657373600082015250565b7f416d6f756e74206d75737420626520657175616c20746f206372656174696f6e60008201527f2066656573000000000000000000000000000000000000000000000000000000602082015250565b7f496e76616c69642076616c756500000000000000000000000000000000000000600082015250565b7f496e76616c696420636c61696d20616d6f756e74000000000000000000000000600082015250565b7f4552433732313a20696e76616c696420746f6b656e2049440000000000000000600082015250565b7f4552433732313a20617070726f76616c20746f2063757272656e74206f776e6560008201527f7200000000000000000000000000000000000000000000000000000000000000602082015250565b7f4552433732313a20617070726f76652063616c6c6572206973206e6f7420746f60008201527f6b656e206f776e6572206f7220617070726f76656420666f7220616c6c000000602082015250565b7f4552433732313a207472616e736665722063616c6c6572206973206e6f74206f60008201527f776e6572206e6f7220617070726f766564000000000000000000000000000000602082015250565b7f4f6e6c792074686520636f6e7472616374206f776e65722063616e2063616c6c60008201527f20746869732066756e6374696f6e2e0000000000000000000000000000000000602082015250565b7f5265656e7472616e637947756172643a207265656e7472616e742063616c6c00600082015250565b613b778161342e565b8114613b8257600080fd5b50565b613b8e81613452565b8114613b9957600080fd5b50565b613ba58161345e565b8114613bb057600080fd5b50565b613bbc816134aa565b8114613bc757600080fd5b5056fea2646970667358221220431085b9aeb3f5b1d7f6578e4adab7b817faa296fd75c7ebcb67bc111277548364736f6c63430008040033",
  "linkReferences": {},
  "deployedLinkReferences": {}
}