{
  "_format": "hh-sol-artifact-1",
  "contractName": "Trustified",
  "sourceName": "contracts/Trustified.sol",
  "abi": [
    {
      "inputs": [],
      "stateMutability": "nonpayable",
      "type": "constructor"
    },
    {
      "anonymous": false,
      "inputs": [
        {
          "indexed": true,
          "internalType": "address",
          "name": "owner",
          "type": "address"
        },
        {
          "indexed": true,
          "internalType": "address",
          "name": "approved",
          "type": "address"
        },
        {
          "indexed": true,
          "internalType": "uint256",
          "name": "tokenId",
          "type": "uint256"
        }
      ],
      "name": "Approval",
      "type": "event"
    },
    {
      "anonymous": false,
      "inputs": [
        {
          "indexed": true,
          "internalType": "address",
          "name": "owner",
          "type": "address"
        },
        {
          "indexed": true,
          "internalType": "address",
          "name": "operator",
          "type": "address"
        },
        {
          "indexed": false,
          "internalType": "bool",
          "name": "approved",
          "type": "bool"
        }
      ],
      "name": "ApprovalForAll",
      "type": "event"
    },
    {
      "anonymous": false,
      "inputs": [
        {
          "indexed": false,
          "internalType": "address",
          "name": "",
          "type": "address"
        },
        {
          "indexed": false,
          "internalType": "uint256",
          "name": "",
          "type": "uint256"
        }
      ],
      "name": "TokenMinted",
      "type": "event"
    },
    {
      "anonymous": false,
      "inputs": [
        {
          "indexed": true,
          "internalType": "address",
          "name": "from",
          "type": "address"
        },
        {
          "indexed": true,
          "internalType": "address",
          "name": "to",
          "type": "address"
        },
        {
          "indexed": true,
          "internalType": "uint256",
          "name": "tokenId",
          "type": "uint256"
        }
      ],
      "name": "Transfer",
      "type": "event"
    },
    {
      "inputs": [],
      "name": "allTokenMinted",
      "outputs": [
        {
          "internalType": "bool",
          "name": "",
          "type": "bool"
        }
      ],
      "stateMutability": "view",
      "type": "function"
    },
    {
      "inputs": [
        {
          "internalType": "address",
          "name": "to",
          "type": "address"
        },
        {
          "internalType": "uint256",
          "name": "tokenId",
          "type": "uint256"
        }
      ],
      "name": "approve",
      "outputs": [],
      "stateMutability": "nonpayable",
      "type": "function"
    },
    {
      "inputs": [
        {
          "internalType": "address",
          "name": "owner",
          "type": "address"
        }
      ],
      "name": "balanceOf",
      "outputs": [
        {
          "internalType": "uint256",
          "name": "",
          "type": "uint256"
        }
      ],
      "stateMutability": "view",
      "type": "function"
    },
    {
      "inputs": [
        {
          "internalType": "string",
          "name": "tokenUri",
          "type": "string"
        },
        {
          "internalType": "uint256",
          "name": "quantity",
          "type": "uint256"
        },
        {
          "internalType": "uint256",
          "name": "value",
          "type": "uint256"
        },
        {
          "internalType": "bool",
          "name": "nonTransferable",
          "type": "bool"
        }
      ],
      "name": "bulkMintERC721",
      "outputs": [],
      "stateMutability": "nonpayable",
      "type": "function"
    },
    {
      "inputs": [
        {
          "internalType": "uint256",
          "name": "tokenId",
          "type": "uint256"
        }
      ],
      "name": "getApproved",
      "outputs": [
        {
          "internalType": "address",
          "name": "",
          "type": "address"
        }
      ],
      "stateMutability": "view",
      "type": "function"
    },
    {
      "inputs": [],
      "name": "getMintStatus",
      "outputs": [
        {
          "internalType": "bool",
          "name": "",
          "type": "bool"
        }
      ],
      "stateMutability": "view",
      "type": "function"
    },
    {
      "inputs": [
        {
          "internalType": "uint256",
          "name": "eventId",
          "type": "uint256"
        }
      ],
      "name": "getTokenIds",
      "outputs": [
        {
          "internalType": "uint256[]",
          "name": "",
          "type": "uint256[]"
        }
      ],
      "stateMutability": "view",
      "type": "function"
    },
    {
      "inputs": [
        {
          "internalType": "address",
          "name": "owner",
          "type": "address"
        },
        {
          "internalType": "address",
          "name": "operator",
          "type": "address"
        }
      ],
      "name": "isApprovedForAll",
      "outputs": [
        {
          "internalType": "bool",
          "name": "",
          "type": "bool"
        }
      ],
      "stateMutability": "view",
      "type": "function"
    },
    {
      "inputs": [
        {
          "internalType": "uint256",
          "name": "",
          "type": "uint256"
        }
      ],
      "name": "issuers",
      "outputs": [
        {
          "internalType": "address",
          "name": "",
          "type": "address"
        }
      ],
      "stateMutability": "view",
      "type": "function"
    },
    {
      "inputs": [],
      "name": "name",
      "outputs": [
        {
          "internalType": "string",
          "name": "",
          "type": "string"
        }
      ],
      "stateMutability": "view",
      "type": "function"
    },
    {
      "inputs": [
        {
          "internalType": "uint256",
          "name": "tokenId",
          "type": "uint256"
        }
      ],
      "name": "ownerOf",
      "outputs": [
        {
          "internalType": "address",
          "name": "",
          "type": "address"
        }
      ],
      "stateMutability": "view",
      "type": "function"
    },
    {
      "inputs": [
        {
          "internalType": "address",
          "name": "from",
          "type": "address"
        },
        {
          "internalType": "address",
          "name": "to",
          "type": "address"
        },
        {
          "internalType": "uint256",
          "name": "tokenId",
          "type": "uint256"
        }
      ],
      "name": "safeTransferFrom",
      "outputs": [],
      "stateMutability": "nonpayable",
      "type": "function"
    },
    {
      "inputs": [
        {
          "internalType": "address",
          "name": "from",
          "type": "address"
        },
        {
          "internalType": "address",
          "name": "to",
          "type": "address"
        },
        {
          "internalType": "uint256",
          "name": "tokenId",
          "type": "uint256"
        },
        {
          "internalType": "bytes",
          "name": "data",
          "type": "bytes"
        }
      ],
      "name": "safeTransferFrom",
      "outputs": [],
      "stateMutability": "nonpayable",
      "type": "function"
    },
    {
      "inputs": [
        {
          "internalType": "address",
          "name": "operator",
          "type": "address"
        },
        {
          "internalType": "bool",
          "name": "approved",
          "type": "bool"
        }
      ],
      "name": "setApprovalForAll",
      "outputs": [],
      "stateMutability": "nonpayable",
      "type": "function"
    },
    {
      "inputs": [
        {
          "internalType": "bytes4",
          "name": "interfaceId",
          "type": "bytes4"
        }
      ],
      "name": "supportsInterface",
      "outputs": [
        {
          "internalType": "bool",
          "name": "",
          "type": "bool"
        }
      ],
      "stateMutability": "view",
      "type": "function"
    },
    {
      "inputs": [],
      "name": "symbol",
      "outputs": [
        {
          "internalType": "string",
          "name": "",
          "type": "string"
        }
      ],
      "stateMutability": "view",
      "type": "function"
    },
    {
      "inputs": [
        {
          "internalType": "uint256",
          "name": "",
          "type": "uint256"
        },
        {
          "internalType": "uint256",
          "name": "",
          "type": "uint256"
        }
      ],
      "name": "tokenIds",
      "outputs": [
        {
          "internalType": "uint256",
          "name": "",
          "type": "uint256"
        }
      ],
      "stateMutability": "view",
      "type": "function"
    },
    {
      "inputs": [
        {
          "internalType": "uint256",
          "name": "tokenId",
          "type": "uint256"
        }
      ],
      "name": "tokenURI",
      "outputs": [
        {
          "internalType": "string",
          "name": "",
          "type": "string"
        }
      ],
      "stateMutability": "view",
      "type": "function"
    },
    {
      "inputs": [
        {
          "internalType": "address",
          "name": "from",
          "type": "address"
        },
        {
          "internalType": "address",
          "name": "to",
          "type": "address"
        },
        {
          "internalType": "uint256",
          "name": "tokenId",
          "type": "uint256"
        }
      ],
      "name": "transferFrom",
      "outputs": [],
      "stateMutability": "nonpayable",
      "type": "function"
    },
    {
      "inputs": [
        {
          "internalType": "address",
          "name": "from",
          "type": "address"
        },
        {
          "internalType": "address",
          "name": "to",
          "type": "address"
        },
        {
          "internalType": "uint256",
          "name": "tokenId",
          "type": "uint256"
        },
        {
          "internalType": "string",
          "name": "tokenURI",
          "type": "string"
        },
        {
          "internalType": "uint256",
          "name": "value",
          "type": "uint256"
        }
      ],
      "name": "transferToken",
      "outputs": [],
      "stateMutability": "nonpayable",
      "type": "function"
    }
  ],
  "bytecode": "0x60806040523480156200001157600080fd5b506040518060400160405280600d81526020017f49747354727573746966696564000000000000000000000000000000000000008152506040518060400160405280600381526020017f4954460000000000000000000000000000000000000000000000000000000000815250816000908051906020019062000096929190620000b8565b508060019080519060200190620000af929190620000b8565b505050620001cd565b828054620000c69062000168565b90600052602060002090601f016020900481019282620000ea576000855562000136565b82601f106200010557805160ff191683800117855562000136565b8280016001018555821562000136579182015b828111156200013557825182559160200191906001019062000118565b5b50905062000145919062000149565b5090565b5b80821115620001645760008160009055506001016200014a565b5090565b600060028204905060018216806200018157607f821691505b602082108114156200019857620001976200019e565b5b50919050565b7f4e487b7100000000000000000000000000000000000000000000000000000000600052602260045260246000fd5b6135db80620001dd6000396000f3fe608060405234801561001057600080fd5b506004361061012c5760003560e01c80636352211e116100ad578063a22cb46511610071578063a22cb46514610355578063b88d4fde14610371578063c87b56dd1461038d578063e985e9c5146103bd578063eed8cc35146103ed5761012c565b80636352211e1461029d57806370a08231146102cd57806380574834146102fd578063941ada0e1461031957806395d89b41146103375761012c565b806323b872dd116100f457806323b872dd146101e757806342842e0e14610203578063436afe321461021f57806357991d301461023d57806361ec30c41461026d5761012c565b806301ffc9a71461013157806306fdde0314610161578063081812fc1461017f578063095ea7b3146101af5780631ba7ddd2146101cb575b600080fd5b61014b60048036038101906101469190612553565b61041d565b6040516101589190612b2b565b60405180910390f35b6101696104ff565b6040516101769190612b46565b60405180910390f35b61019960048036038101906101949190612625565b610591565b6040516101a69190612a79565b60405180910390f35b6101c960048036038101906101c49190612517565b6105d7565b005b6101e560048036038101906101e091906125a5565b6106ef565b005b61020160048036038101906101fc919061237f565b6108f8565b005b61021d6004803603810190610218919061237f565b610958565b005b610227610978565b6040516102349190612b2b565b60405180910390f35b61025760048036038101906102529190612625565b61098b565b6040516102649190612b09565b60405180910390f35b61028760048036038101906102829190612625565b610a97565b6040516102949190612a79565b60405180910390f35b6102b760048036038101906102b29190612625565b610aca565b6040516102c49190612a79565b60405180910390f35b6102e760048036038101906102e2919061231a565b610b51565b6040516102f49190612da8565b60405180910390f35b61031760048036038101906103129190612449565b610c09565b005b610321610d59565b60405161032e9190612b2b565b60405180910390f35b61033f610d70565b60405161034c9190612b46565b60405180910390f35b61036f600480360381019061036a91906124db565b610e02565b005b61038b600480360381019061038691906123ce565b610e18565b005b6103a760048036038101906103a29190612625565b610e7a565b6040516103b49190612b46565b60405180910390f35b6103d760048036038101906103d29190612343565b610f8d565b6040516103e49190612b2b565b60405180910390f35b6104076004803603810190610402919061264e565b611021565b6040516104149190612da8565b60405180910390f35b60007f80ac58cd000000000000000000000000000000000000000000000000000000007bffffffffffffffffffffffffffffffffffffffffffffffffffffffff1916827bffffffffffffffffffffffffffffffffffffffffffffffffffffffff191614806104e857507f5b5e139f000000000000000000000000000000000000000000000000000000007bffffffffffffffffffffffffffffffffffffffffffffffffffffffff1916827bffffffffffffffffffffffffffffffffffffffffffffffffffffffff1916145b806104f857506104f782611052565b5b9050919050565b60606000805461050e90612fa1565b80601f016020809104026020016040519081016040528092919081815260200182805461053a90612fa1565b80156105875780601f1061055c57610100808354040283529160200191610587565b820191906000526020600020905b81548152906001019060200180831161056a57829003601f168201915b5050505050905090565b600061059c826110bc565b6004600083815260200190815260200160002060009054906101000a900473ffffffffffffffffffffffffffffffffffffffff169050919050565b60006105e282610aca565b90508073ffffffffffffffffffffffffffffffffffffffff168373ffffffffffffffffffffffffffffffffffffffff161415610653576040517f08c379a000000000000000000000000000000000000000000000000000000000815260040161064a90612d48565b60405180910390fd5b8073ffffffffffffffffffffffffffffffffffffffff16610672611107565b73ffffffffffffffffffffffffffffffffffffffff1614806106a157506106a08161069b611107565b610f8d565b5b6106e0576040517f08c379a00000000000000000000000000000000000000000000000000000000081526004016106d790612d68565b60405180910390fd5b6106ea838361110f565b505050565b60008311610732576040517f08c379a000000000000000000000000000000000000000000000000000000000815260040161072990612ca8565b60405180910390fd5b60008210158015610744575060018211155b610783576040517f08c379a000000000000000000000000000000000000000000000000000000000815260040161077a90612d08565b60405180910390fd5b600061078f60096111c8565b905061079b60096111d6565b60005b848110156108b65760006107b38888876111ec565b9050600b600084815260200190815260200160002081908060018154018082558091505060019003906000526020600020016000909190919091505533600c600085815260200190815260200160002060006101000a81548173ffffffffffffffffffffffffffffffffffffffff021916908373ffffffffffffffffffffffffffffffffffffffff16021790555083600d600083815260200190815260200160002060006101000a81548160ff021916908315150217905550600060018261087b9190612e95565b9050868114156108a1576001600a60006101000a81548160ff0219169083151502179055505b505080806108ae90613004565b91505061079e565b507fb9144c96c86541f6fa89c9f2f02495cccf4b08cd6643e26d34ee00aa586558a833826040516108e8929190612ae0565b60405180910390a1505050505050565b610909610903611107565b826112b8565b610948576040517f08c379a000000000000000000000000000000000000000000000000000000000815260040161093f90612b88565b60405180910390fd5b61095383838361134d565b505050565b61097383838360405180602001604052806000815250610e18565b505050565b600a60009054906101000a900460ff1681565b60603373ffffffffffffffffffffffffffffffffffffffff16600c600084815260200190815260200160002060009054906101000a900473ffffffffffffffffffffffffffffffffffffffff1673ffffffffffffffffffffffffffffffffffffffff1614610a2e576040517f08c379a0000000000000000000000000000000000000000000000000000000008152600401610a2590612c48565b60405180910390fd5b600b6000838152602001908152602001600020805480602002602001604051908101604052809291908181526020018280548015610a8b57602002820191906000526020600020905b815481526020019060010190808311610a77575b50505050509050919050565b600c6020528060005260406000206000915054906101000a900473ffffffffffffffffffffffffffffffffffffffff1681565b600080610ad683611647565b9050600073ffffffffffffffffffffffffffffffffffffffff168173ffffffffffffffffffffffffffffffffffffffff161415610b48576040517f08c379a0000000000000000000000000000000000000000000000000000000008152600401610b3f90612d28565b60405180910390fd5b80915050919050565b60008073ffffffffffffffffffffffffffffffffffffffff168273ffffffffffffffffffffffffffffffffffffffff161415610bc2576040517f08c379a0000000000000000000000000000000000000000000000000000000008152600401610bb990612c88565b60405180910390fd5b600360008373ffffffffffffffffffffffffffffffffffffffff1673ffffffffffffffffffffffffffffffffffffffff168152602001908152602001600020549050919050565b60008110158015610c1b575060018111155b610c5a576040517f08c379a0000000000000000000000000000000000000000000000000000000008152600401610c5190612d08565b60405180910390fd5b6001811415610cb257610cb18484848080601f016020809104026020016040519081016040528093929190818152602001838380828437600081840152601f19601f82011690508083019250505050505050611684565b5b3073ffffffffffffffffffffffffffffffffffffffff168673ffffffffffffffffffffffffffffffffffffffff1614610d4557610cef33856112b8565b610d2e576040517f08c379a0000000000000000000000000000000000000000000000000000000008152600401610d2590612d88565b60405180910390fd5b610d40610d39611107565b868661134d565b610d51565b610d5086868661134d565b5b505050505050565b6000600a60009054906101000a900460ff16905090565b606060018054610d7f90612fa1565b80601f0160208091040260200160405190810160405280929190818152602001828054610dab90612fa1565b8015610df85780601f10610dcd57610100808354040283529160200191610df8565b820191906000526020600020905b815481529060010190602001808311610ddb57829003601f168201915b5050505050905090565b610e14610e0d611107565b83836116f8565b5050565b610e29610e23611107565b836112b8565b610e68576040517f08c379a0000000000000000000000000000000000000000000000000000000008152600401610e5f90612b88565b60405180910390fd5b610e7484848484611865565b50505050565b6060610e85826110bc565b6000600660008481526020019081526020016000208054610ea590612fa1565b80601f0160208091040260200160405190810160405280929190818152602001828054610ed190612fa1565b8015610f1e5780601f10610ef357610100808354040283529160200191610f1e565b820191906000526020600020905b815481529060010190602001808311610f0157829003601f168201915b505050505090506000610f2f6118c1565b9050600081511415610f45578192505050610f88565b600082511115610f7a578082604051602001610f62929190612a55565b60405160208183030381529060405292505050610f88565b610f83846118d8565b925050505b919050565b6000600560008473ffffffffffffffffffffffffffffffffffffffff1673ffffffffffffffffffffffffffffffffffffffff16815260200190815260200160002060008373ffffffffffffffffffffffffffffffffffffffff1673ffffffffffffffffffffffffffffffffffffffff16815260200190815260200160002060009054906101000a900460ff16905092915050565b600b602052816000526040600020818154811061103d57600080fd5b90600052602060002001600091509150505481565b60007f01ffc9a7000000000000000000000000000000000000000000000000000000007bffffffffffffffffffffffffffffffffffffffffffffffffffffffff1916827bffffffffffffffffffffffffffffffffffffffffffffffffffffffff1916149050919050565b6110c581611940565b611104576040517f08c379a00000000000000000000000000000000000000000000000000000000081526004016110fb90612d28565b60405180910390fd5b50565b600033905090565b816004600083815260200190815260200160002060006101000a81548173ffffffffffffffffffffffffffffffffffffffff021916908373ffffffffffffffffffffffffffffffffffffffff160217905550808273ffffffffffffffffffffffffffffffffffffffff1661118283610aca565b73ffffffffffffffffffffffffffffffffffffffff167f8c5be1e5ebec7d5bd14f71427d1e84f3dd0314c0f7b2291e5b200ac8c7c3b92560405160405180910390a45050565b600081600001549050919050565b6001816000016000828254019250508190555050565b6000806111f960086111c8565b905061120560086111d6565b61120f3082611981565b60008314156112ad576000858590501161125e576040517f08c379a000000000000000000000000000000000000000000000000000000000815260040161125590612c68565b60405180910390fd5b6112ac8186868080601f016020809104026020016040519081016040528093929190818152602001838380828437600081840152601f19601f82011690508083019250505050505050611684565b5b809150509392505050565b6000806112c483610aca565b90508073ffffffffffffffffffffffffffffffffffffffff168473ffffffffffffffffffffffffffffffffffffffff16148061130657506113058185610f8d565b5b8061134457508373ffffffffffffffffffffffffffffffffffffffff1661132c84610591565b73ffffffffffffffffffffffffffffffffffffffff16145b91505092915050565b8273ffffffffffffffffffffffffffffffffffffffff1661136d82610aca565b73ffffffffffffffffffffffffffffffffffffffff16146113c3576040517f08c379a00000000000000000000000000000000000000000000000000000000081526004016113ba90612bc8565b60405180910390fd5b600073ffffffffffffffffffffffffffffffffffffffff168273ffffffffffffffffffffffffffffffffffffffff161415611433576040517f08c379a000000000000000000000000000000000000000000000000000000000815260040161142a90612c08565b60405180910390fd5b6114408383836001611b9f565b8273ffffffffffffffffffffffffffffffffffffffff1661146082610aca565b73ffffffffffffffffffffffffffffffffffffffff16146114b6576040517f08c379a00000000000000000000000000000000000000000000000000000000081526004016114ad90612bc8565b60405180910390fd5b6004600082815260200190815260200160002060006101000a81549073ffffffffffffffffffffffffffffffffffffffff02191690556001600360008573ffffffffffffffffffffffffffffffffffffffff1673ffffffffffffffffffffffffffffffffffffffff168152602001908152602001600020600082825403925050819055506001600360008473ffffffffffffffffffffffffffffffffffffffff1673ffffffffffffffffffffffffffffffffffffffff16815260200190815260200160002060008282540192505081905550816002600083815260200190815260200160002060006101000a81548173ffffffffffffffffffffffffffffffffffffffff021916908373ffffffffffffffffffffffffffffffffffffffff160217905550808273ffffffffffffffffffffffffffffffffffffffff168473ffffffffffffffffffffffffffffffffffffffff167fddf252ad1be2c89b69c2b068fc378daa952ba7f163c4a11628f55a4df523b3ef60405160405180910390a46116428383836001611c41565b505050565b60006002600083815260200190815260200160002060009054906101000a900473ffffffffffffffffffffffffffffffffffffffff169050919050565b61168d82611940565b6116cc576040517f08c379a00000000000000000000000000000000000000000000000000000000081526004016116c390612cc8565b60405180910390fd5b806006600084815260200190815260200160002090805190602001906116f392919061215c565b505050565b8173ffffffffffffffffffffffffffffffffffffffff168373ffffffffffffffffffffffffffffffffffffffff161415611767576040517f08c379a000000000000000000000000000000000000000000000000000000000815260040161175e90612c28565b60405180910390fd5b80600560008573ffffffffffffffffffffffffffffffffffffffff1673ffffffffffffffffffffffffffffffffffffffff16815260200190815260200160002060008473ffffffffffffffffffffffffffffffffffffffff1673ffffffffffffffffffffffffffffffffffffffff16815260200190815260200160002060006101000a81548160ff0219169083151502179055508173ffffffffffffffffffffffffffffffffffffffff168373ffffffffffffffffffffffffffffffffffffffff167f17307eab39ab6107e8899845ad3d59bd9653f200f220920489ca2b5937696c31836040516118589190612b2b565b60405180910390a3505050565b61187084848461134d565b61187c84848484611c47565b6118bb576040517f08c379a00000000000000000000000000000000000000000000000000000000081526004016118b290612ba8565b60405180910390fd5b50505050565b606060405180602001604052806000815250905090565b60606118e3826110bc565b60006118ed6118c1565b9050600081511161190d5760405180602001604052806000815250611938565b8061191784611dde565b604051602001611928929190612a55565b6040516020818303038152906040525b915050919050565b60008073ffffffffffffffffffffffffffffffffffffffff1661196283611647565b73ffffffffffffffffffffffffffffffffffffffff1614159050919050565b600073ffffffffffffffffffffffffffffffffffffffff168273ffffffffffffffffffffffffffffffffffffffff1614156119f1576040517f08c379a00000000000000000000000000000000000000000000000000000000081526004016119e890612ce8565b60405180910390fd5b6119fa81611940565b15611a3a576040517f08c379a0000000000000000000000000000000000000000000000000000000008152600401611a3190612be8565b60405180910390fd5b611a48600083836001611b9f565b611a5181611940565b15611a91576040517f08c379a0000000000000000000000000000000000000000000000000000000008152600401611a8890612be8565b60405180910390fd5b6001600360008473ffffffffffffffffffffffffffffffffffffffff1673ffffffffffffffffffffffffffffffffffffffff16815260200190815260200160002060008282540192505081905550816002600083815260200190815260200160002060006101000a81548173ffffffffffffffffffffffffffffffffffffffff021916908373ffffffffffffffffffffffffffffffffffffffff160217905550808273ffffffffffffffffffffffffffffffffffffffff16600073ffffffffffffffffffffffffffffffffffffffff167fddf252ad1be2c89b69c2b068fc378daa952ba7f163c4a11628f55a4df523b3ef60405160405180910390a4611b9b600083836001611c41565b5050565b3073ffffffffffffffffffffffffffffffffffffffff168473ffffffffffffffffffffffffffffffffffffffff1614611c3b5760011515600d600084815260200190815260200160002060009054906101000a900460ff1615151415611c3a576040517f08c379a0000000000000000000000000000000000000000000000000000000008152600401611c3190612b68565b60405180910390fd5b5b50505050565b50505050565b6000611c688473ffffffffffffffffffffffffffffffffffffffff16611f02565b15611dd1578373ffffffffffffffffffffffffffffffffffffffff1663150b7a02611c91611107565b8786866040518563ffffffff1660e01b8152600401611cb39493929190612a94565b602060405180830381600087803b158015611ccd57600080fd5b505af1925050508015611cfe57506040513d601f19601f82011682018060405250810190611cfb919061257c565b60015b611d81573d8060008114611d2e576040519150601f19603f3d011682016040523d82523d6000602084013e611d33565b606091505b50600081511415611d79576040517f08c379a0000000000000000000000000000000000000000000000000000000008152600401611d7090612ba8565b60405180910390fd5b805181602001fd5b63150b7a0260e01b7bffffffffffffffffffffffffffffffffffffffffffffffffffffffff1916817bffffffffffffffffffffffffffffffffffffffffffffffffffffffff191614915050611dd6565b600190505b949350505050565b606060006001611ded84611f25565b01905060008167ffffffffffffffff811115611e32577f4e487b7100000000000000000000000000000000000000000000000000000000600052604160045260246000fd5b6040519080825280601f01601f191660200182016040528015611e645781602001600182028036833780820191505090505b509050600082602001820190505b600115611ef7578080600190039150507f3031323334353637383961626364656600000000000000000000000000000000600a86061a8153600a8581611ee1577f4e487b7100000000000000000000000000000000000000000000000000000000600052601260045260246000fd5b0494506000851415611ef257611ef7565b611e72565b819350505050919050565b6000808273ffffffffffffffffffffffffffffffffffffffff163b119050919050565b600080600090507a184f03e93ff9f4daa797ed6e38ed64bf6a1f0100000000000000008310611fa9577a184f03e93ff9f4daa797ed6e38ed64bf6a1f0100000000000000008381611f9f577f4e487b7100000000000000000000000000000000000000000000000000000000600052601260045260246000fd5b0492506040810190505b6d04ee2d6d415b85acef8100000000831061200c576d04ee2d6d415b85acef81000000008381612002577f4e487b7100000000000000000000000000000000000000000000000000000000600052601260045260246000fd5b0492506020810190505b662386f26fc10000831061206157662386f26fc100008381612057577f4e487b7100000000000000000000000000000000000000000000000000000000600052601260045260246000fd5b0492506010810190505b6305f5e10083106120b0576305f5e10083816120a6577f4e487b7100000000000000000000000000000000000000000000000000000000600052601260045260246000fd5b0492506008810190505b61271083106120fb5761271083816120f1577f4e487b7100000000000000000000000000000000000000000000000000000000600052601260045260246000fd5b0492506004810190505b60648310612144576064838161213a577f4e487b7100000000000000000000000000000000000000000000000000000000600052601260045260246000fd5b0492506002810190505b600a8310612153576001810190505b80915050919050565b82805461216890612fa1565b90600052602060002090601f01602090048101928261218a57600085556121d1565b82601f106121a357805160ff19168380011785556121d1565b828001600101855582156121d1579182015b828111156121d05782518255916020019190600101906121b5565b5b5090506121de91906121e2565b5090565b5b808211156121fb5760008160009055506001016121e3565b5090565b600061221261220d84612de8565b612dc3565b90508281526020810184848401111561222a57600080fd5b612235848285612f5f565b509392505050565b60008135905061224c81613549565b92915050565b60008135905061226181613560565b92915050565b60008135905061227681613577565b92915050565b60008151905061228b81613577565b92915050565b600082601f8301126122a257600080fd5b81356122b28482602086016121ff565b91505092915050565b60008083601f8401126122cd57600080fd5b8235905067ffffffffffffffff8111156122e657600080fd5b6020830191508360018202830111156122fe57600080fd5b9250929050565b6000813590506123148161358e565b92915050565b60006020828403121561232c57600080fd5b600061233a8482850161223d565b91505092915050565b6000806040838503121561235657600080fd5b60006123648582860161223d565b92505060206123758582860161223d565b9150509250929050565b60008060006060848603121561239457600080fd5b60006123a28682870161223d565b93505060206123b38682870161223d565b92505060406123c486828701612305565b9150509250925092565b600080600080608085870312156123e457600080fd5b60006123f28782880161223d565b94505060206124038782880161223d565b935050604061241487828801612305565b925050606085013567ffffffffffffffff81111561243157600080fd5b61243d87828801612291565b91505092959194509250565b60008060008060008060a0878903121561246257600080fd5b600061247089828a0161223d565b965050602061248189828a0161223d565b955050604061249289828a01612305565b945050606087013567ffffffffffffffff8111156124af57600080fd5b6124bb89828a016122bb565b935093505060806124ce89828a01612305565b9150509295509295509295565b600080604083850312156124ee57600080fd5b60006124fc8582860161223d565b925050602061250d85828601612252565b9150509250929050565b6000806040838503121561252a57600080fd5b60006125388582860161223d565b925050602061254985828601612305565b9150509250929050565b60006020828403121561256557600080fd5b600061257384828501612267565b91505092915050565b60006020828403121561258e57600080fd5b600061259c8482850161227c565b91505092915050565b6000806000806000608086880312156125bd57600080fd5b600086013567ffffffffffffffff8111156125d757600080fd5b6125e3888289016122bb565b955095505060206125f688828901612305565b935050604061260788828901612305565b925050606061261888828901612252565b9150509295509295909350565b60006020828403121561263757600080fd5b600061264584828501612305565b91505092915050565b6000806040838503121561266157600080fd5b600061266f85828601612305565b925050602061268085828601612305565b9150509250929050565b60006126968383612a37565b60208301905092915050565b6126ab81612eeb565b82525050565b60006126bc82612e29565b6126c68185612e57565b93506126d183612e19565b8060005b838110156127025781516126e9888261268a565b97506126f483612e4a565b9250506001810190506126d5565b5085935050505092915050565b61271881612efd565b82525050565b600061272982612e34565b6127338185612e68565b9350612743818560208601612f6e565b61274c816130da565b840191505092915050565b600061276282612e3f565b61276c8185612e79565b935061277c818560208601612f6e565b612785816130da565b840191505092915050565b600061279b82612e3f565b6127a58185612e8a565b93506127b5818560208601612f6e565b80840191505092915050565b60006127ce601d83612e79565b91506127d9826130eb565b602082019050919050565b60006127f1602d83612e79565b91506127fc82613114565b604082019050919050565b6000612814603283612e79565b915061281f82613163565b604082019050919050565b6000612837602583612e79565b9150612842826131b2565b604082019050919050565b600061285a601c83612e79565b915061286582613201565b602082019050919050565b600061287d602483612e79565b91506128888261322a565b604082019050919050565b60006128a0601983612e79565b91506128ab82613279565b602082019050919050565b60006128c3603583612e79565b91506128ce826132a2565b604082019050919050565b60006128e6601b83612e79565b91506128f1826132f1565b602082019050919050565b6000612909602983612e79565b91506129148261331a565b604082019050919050565b600061292c601083612e79565b915061293782613369565b602082019050919050565b600061294f602e83612e79565b915061295a82613392565b604082019050919050565b6000612972602083612e79565b915061297d826133e1565b602082019050919050565b6000612995600d83612e79565b91506129a08261340a565b602082019050919050565b60006129b8601883612e79565b91506129c382613433565b602082019050919050565b60006129db602183612e79565b91506129e68261345c565b604082019050919050565b60006129fe603d83612e79565b9150612a09826134ab565b604082019050919050565b6000612a21603183612e79565b9150612a2c826134fa565b604082019050919050565b612a4081612f55565b82525050565b612a4f81612f55565b82525050565b6000612a618285612790565b9150612a6d8284612790565b91508190509392505050565b6000602082019050612a8e60008301846126a2565b92915050565b6000608082019050612aa960008301876126a2565b612ab660208301866126a2565b612ac36040830185612a46565b8181036060830152612ad5818461271e565b905095945050505050565b6000604082019050612af560008301856126a2565b612b026020830184612a46565b9392505050565b60006020820190508181036000830152612b2381846126b1565b905092915050565b6000602082019050612b40600083018461270f565b92915050565b60006020820190508181036000830152612b608184612757565b905092915050565b60006020820190508181036000830152612b81816127c1565b9050919050565b60006020820190508181036000830152612ba1816127e4565b9050919050565b60006020820190508181036000830152612bc181612807565b9050919050565b60006020820190508181036000830152612be18161282a565b9050919050565b60006020820190508181036000830152612c018161284d565b9050919050565b60006020820190508181036000830152612c2181612870565b9050919050565b60006020820190508181036000830152612c4181612893565b9050919050565b60006020820190508181036000830152612c61816128b6565b9050919050565b60006020820190508181036000830152612c81816128d9565b9050919050565b60006020820190508181036000830152612ca1816128fc565b9050919050565b60006020820190508181036000830152612cc18161291f565b9050919050565b60006020820190508181036000830152612ce181612942565b9050919050565b60006020820190508181036000830152612d0181612965565b9050919050565b60006020820190508181036000830152612d2181612988565b9050919050565b60006020820190508181036000830152612d41816129ab565b9050919050565b60006020820190508181036000830152612d61816129ce565b9050919050565b60006020820190508181036000830152612d81816129f1565b9050919050565b60006020820190508181036000830152612da181612a14565b9050919050565b6000602082019050612dbd6000830184612a46565b92915050565b6000612dcd612dde565b9050612dd98282612fd3565b919050565b6000604051905090565b600067ffffffffffffffff821115612e0357612e026130ab565b5b612e0c826130da565b9050602081019050919050565b6000819050602082019050919050565b600081519050919050565b600081519050919050565b600081519050919050565b6000602082019050919050565b600082825260208201905092915050565b600082825260208201905092915050565b600082825260208201905092915050565b600081905092915050565b6000612ea082612f55565b9150612eab83612f55565b9250827fffffffffffffffffffffffffffffffffffffffffffffffffffffffffffffffff03821115612ee057612edf61304d565b5b828201905092915050565b6000612ef682612f35565b9050919050565b60008115159050919050565b60007fffffffff0000000000000000000000000000000000000000000000000000000082169050919050565b600073ffffffffffffffffffffffffffffffffffffffff82169050919050565b6000819050919050565b82818337600083830152505050565b60005b83811015612f8c578082015181840152602081019050612f71565b83811115612f9b576000848401525b50505050565b60006002820490506001821680612fb957607f821691505b60208210811415612fcd57612fcc61307c565b5b50919050565b612fdc826130da565b810181811067ffffffffffffffff82111715612ffb57612ffa6130ab565b5b80604052505050565b600061300f82612f55565b91507fffffffffffffffffffffffffffffffffffffffffffffffffffffffffffffffff8214156130425761304161304d565b5b600182019050919050565b7f4e487b7100000000000000000000000000000000000000000000000000000000600052601160045260246000fd5b7f4e487b7100000000000000000000000000000000000000000000000000000000600052602260045260246000fd5b7f4e487b7100000000000000000000000000000000000000000000000000000000600052604160045260246000fd5b6000601f19601f8301169050919050565b7f4e6f7420616c6c6f77656420746f207472616e7366657220746f6b656e000000600082015250565b7f4552433732313a2063616c6c6572206973206e6f7420746f6b656e206f776e6560008201527f72206f7220617070726f76656400000000000000000000000000000000000000602082015250565b7f4552433732313a207472616e7366657220746f206e6f6e20455243373231526560008201527f63656976657220696d706c656d656e7465720000000000000000000000000000602082015250565b7f4552433732313a207472616e736665722066726f6d20696e636f72726563742060008201527f6f776e6572000000000000000000000000000000000000000000000000000000602082015250565b7f4552433732313a20746f6b656e20616c7265616479206d696e74656400000000600082015250565b7f4552433732313a207472616e7366657220746f20746865207a65726f2061646460008201527f7265737300000000000000000000000000000000000000000000000000000000602082015250565b7f4552433732313a20617070726f766520746f2063616c6c657200000000000000600082015250565b7f4f6e6c7920697373756572206f662074686973206576656e742063616e20626560008201527f206163636573732074686520746f6b656e496473210000000000000000000000602082015250565b7f546f6b656e20555249206d757374206e6f7420626520656d7074790000000000600082015250565b7f4552433732313a2061646472657373207a65726f206973206e6f74206120766160008201527f6c6964206f776e65720000000000000000000000000000000000000000000000602082015250565b7f496e76616c6964207175616e7469747900000000000000000000000000000000600082015250565b7f45524337323155524953746f726167653a2055524920736574206f66206e6f6e60008201527f6578697374656e7420746f6b656e000000000000000000000000000000000000602082015250565b7f4552433732313a206d696e7420746f20746865207a65726f2061646472657373600082015250565b7f496e76616c69642076616c756500000000000000000000000000000000000000600082015250565b7f4552433732313a20696e76616c696420746f6b656e2049440000000000000000600082015250565b7f4552433732313a20617070726f76616c20746f2063757272656e74206f776e6560008201527f7200000000000000000000000000000000000000000000000000000000000000602082015250565b7f4552433732313a20617070726f76652063616c6c6572206973206e6f7420746f60008201527f6b656e206f776e6572206f7220617070726f76656420666f7220616c6c000000602082015250565b7f4552433732313a207472616e736665722063616c6c6572206973206e6f74206f60008201527f776e6572206e6f7220617070726f766564000000000000000000000000000000602082015250565b61355281612eeb565b811461355d57600080fd5b50565b61356981612efd565b811461357457600080fd5b50565b61358081612f09565b811461358b57600080fd5b50565b61359781612f55565b81146135a257600080fd5b5056fea2646970667358221220fcf5650bd2779cc4a59afccf6eb947ef0de636aae189ce64e6f74f3e2e954f3f64736f6c63430008040033",
  "linkReferences": {},
  "deployedLinkReferences": {}
}