{
  "_format": "hh-sol-artifact-1",
  "contractName": "Trustified",
  "sourceName": "contracts/Trustified.sol",
  "abi": [
    {
      "inputs": [
        {
          "internalType": "address",
          "name": "_issuernftaddress",
          "type": "address"
        },
        {
          "internalType": "address[]",
          "name": "_owners",
          "type": "address[]"
        },
        {
          "internalType": "uint256",
          "name": "_numConfirmationsRequired",
          "type": "uint256"
        }
      ],
      "stateMutability": "nonpayable",
      "type": "constructor"
    },
    {
      "anonymous": false,
      "inputs": [
        {
          "indexed": true,
          "internalType": "address",
          "name": "owner",
          "type": "address"
        },
        {
          "indexed": true,
          "internalType": "address",
          "name": "approved",
          "type": "address"
        },
        {
          "indexed": true,
          "internalType": "uint256",
          "name": "tokenId",
          "type": "uint256"
        }
      ],
      "name": "Approval",
      "type": "event"
    },
    {
      "anonymous": false,
      "inputs": [
        {
          "indexed": true,
          "internalType": "address",
          "name": "owner",
          "type": "address"
        },
        {
          "indexed": true,
          "internalType": "address",
          "name": "operator",
          "type": "address"
        },
        {
          "indexed": false,
          "internalType": "bool",
          "name": "approved",
          "type": "bool"
        }
      ],
      "name": "ApprovalForAll",
      "type": "event"
    },
    {
      "anonymous": false,
      "inputs": [
        {
          "indexed": true,
          "internalType": "address",
          "name": "owner",
          "type": "address"
        },
        {
          "indexed": true,
          "internalType": "uint256",
          "name": "txIndex",
          "type": "uint256"
        },
        {
          "indexed": true,
          "internalType": "address",
          "name": "to",
          "type": "address"
        },
        {
          "indexed": false,
          "internalType": "uint256",
          "name": "amount",
          "type": "uint256"
        }
      ],
      "name": "SubmitTransaction",
      "type": "event"
    },
    {
      "anonymous": false,
      "inputs": [
        {
          "indexed": true,
          "internalType": "uint256",
          "name": "eventId",
          "type": "uint256"
        },
        {
          "indexed": false,
          "internalType": "uint256[]",
          "name": "tokenIds",
          "type": "uint256[]"
        },
        {
          "indexed": true,
          "internalType": "address",
          "name": "issuer",
          "type": "address"
        }
      ],
      "name": "TokensCreated",
      "type": "event"
    },
    {
      "anonymous": false,
      "inputs": [
        {
          "indexed": true,
          "internalType": "address",
          "name": "from",
          "type": "address"
        },
        {
          "indexed": true,
          "internalType": "address",
          "name": "to",
          "type": "address"
        },
        {
          "indexed": true,
          "internalType": "uint256",
          "name": "tokenId",
          "type": "uint256"
        }
      ],
      "name": "Transfer",
      "type": "event"
    },
    {
      "inputs": [
        {
          "internalType": "address[]",
          "name": "wallets",
          "type": "address[]"
        },
        {
          "internalType": "uint256",
          "name": "eventId",
          "type": "uint256"
        },
        {
          "internalType": "string",
          "name": "tokenURI",
          "type": "string"
        }
      ],
      "name": "airdropnfts",
      "outputs": [],
      "stateMutability": "nonpayable",
      "type": "function"
    },
    {
      "inputs": [
        {
          "internalType": "address",
          "name": "to",
          "type": "address"
        },
        {
          "internalType": "uint256",
          "name": "tokenId",
          "type": "uint256"
        }
      ],
      "name": "approve",
      "outputs": [],
      "stateMutability": "nonpayable",
      "type": "function"
    },
    {
      "inputs": [
        {
          "internalType": "address",
          "name": "owner",
          "type": "address"
        }
      ],
      "name": "balanceOf",
      "outputs": [
        {
          "internalType": "uint256",
          "name": "",
          "type": "uint256"
        }
      ],
      "stateMutability": "view",
      "type": "function"
    },
    {
      "inputs": [
        {
          "internalType": "uint256",
          "name": "quantity",
          "type": "uint256"
        },
        {
          "internalType": "bool",
          "name": "nonTransferable",
          "type": "bool"
        }
      ],
      "name": "bulkMintERC721",
      "outputs": [],
      "stateMutability": "payable",
      "type": "function"
    },
    {
      "inputs": [
        {
          "internalType": "uint256",
          "name": "_txIndex",
          "type": "uint256"
        }
      ],
      "name": "confirmTransaction",
      "outputs": [],
      "stateMutability": "nonpayable",
      "type": "function"
    },
    {
      "inputs": [
        {
          "internalType": "uint256",
          "name": "tokenId",
          "type": "uint256"
        }
      ],
      "name": "getApproved",
      "outputs": [
        {
          "internalType": "address",
          "name": "",
          "type": "address"
        }
      ],
      "stateMutability": "view",
      "type": "function"
    },
    {
      "inputs": [],
      "name": "getContractBalance",
      "outputs": [
        {
          "internalType": "uint256",
          "name": "",
          "type": "uint256"
        }
      ],
      "stateMutability": "view",
      "type": "function"
    },
    {
      "inputs": [
        {
          "internalType": "uint256",
          "name": "_txIndex",
          "type": "uint256"
        }
      ],
      "name": "getTransaction",
      "outputs": [
        {
          "internalType": "address",
          "name": "to",
          "type": "address"
        },
        {
          "internalType": "uint256",
          "name": "amount",
          "type": "uint256"
        },
        {
          "internalType": "bool",
          "name": "executed",
          "type": "bool"
        },
        {
          "internalType": "uint256",
          "name": "numConfirmations",
          "type": "uint256"
        }
      ],
      "stateMutability": "view",
      "type": "function"
    },
    {
      "inputs": [
        {
          "internalType": "address",
          "name": "owner",
          "type": "address"
        },
        {
          "internalType": "address",
          "name": "operator",
          "type": "address"
        }
      ],
      "name": "isApprovedForAll",
      "outputs": [
        {
          "internalType": "bool",
          "name": "",
          "type": "bool"
        }
      ],
      "stateMutability": "view",
      "type": "function"
    },
    {
      "inputs": [
        {
          "internalType": "uint256",
          "name": "",
          "type": "uint256"
        },
        {
          "internalType": "address",
          "name": "",
          "type": "address"
        }
      ],
      "name": "isConfirmed",
      "outputs": [
        {
          "internalType": "bool",
          "name": "",
          "type": "bool"
        }
      ],
      "stateMutability": "view",
      "type": "function"
    },
    {
      "inputs": [
        {
          "internalType": "address",
          "name": "",
          "type": "address"
        }
      ],
      "name": "isOwner",
      "outputs": [
        {
          "internalType": "bool",
          "name": "",
          "type": "bool"
        }
      ],
      "stateMutability": "view",
      "type": "function"
    },
    {
      "inputs": [],
      "name": "name",
      "outputs": [
        {
          "internalType": "string",
          "name": "",
          "type": "string"
        }
      ],
      "stateMutability": "view",
      "type": "function"
    },
    {
      "inputs": [],
      "name": "numConfirmationsRequired",
      "outputs": [
        {
          "internalType": "uint256",
          "name": "",
          "type": "uint256"
        }
      ],
      "stateMutability": "view",
      "type": "function"
    },
    {
      "inputs": [
        {
          "internalType": "uint256",
          "name": "tokenId",
          "type": "uint256"
        }
      ],
      "name": "ownerOf",
      "outputs": [
        {
          "internalType": "address",
          "name": "",
          "type": "address"
        }
      ],
      "stateMutability": "view",
      "type": "function"
    },
    {
      "inputs": [
        {
          "internalType": "uint256",
          "name": "",
          "type": "uint256"
        }
      ],
      "name": "owners",
      "outputs": [
        {
          "internalType": "address",
          "name": "",
          "type": "address"
        }
      ],
      "stateMutability": "view",
      "type": "function"
    },
    {
      "inputs": [
        {
          "internalType": "string",
          "name": "tokenURI",
          "type": "string"
        },
        {
          "internalType": "uint256",
          "name": "tokenId",
          "type": "uint256"
        },
        {
          "internalType": "address",
          "name": "to",
          "type": "address"
        }
      ],
      "name": "safeMint",
      "outputs": [],
      "stateMutability": "nonpayable",
      "type": "function"
    },
    {
      "inputs": [
        {
          "internalType": "address",
          "name": "from",
          "type": "address"
        },
        {
          "internalType": "address",
          "name": "to",
          "type": "address"
        },
        {
          "internalType": "uint256",
          "name": "tokenId",
          "type": "uint256"
        }
      ],
      "name": "safeTransferFrom",
      "outputs": [],
      "stateMutability": "nonpayable",
      "type": "function"
    },
    {
      "inputs": [
        {
          "internalType": "address",
          "name": "from",
          "type": "address"
        },
        {
          "internalType": "address",
          "name": "to",
          "type": "address"
        },
        {
          "internalType": "uint256",
          "name": "tokenId",
          "type": "uint256"
        },
        {
          "internalType": "bytes",
          "name": "data",
          "type": "bytes"
        }
      ],
      "name": "safeTransferFrom",
      "outputs": [],
      "stateMutability": "nonpayable",
      "type": "function"
    },
    {
      "inputs": [
        {
          "internalType": "address",
          "name": "operator",
          "type": "address"
        },
        {
          "internalType": "bool",
          "name": "approved",
          "type": "bool"
        }
      ],
      "name": "setApprovalForAll",
      "outputs": [],
      "stateMutability": "nonpayable",
      "type": "function"
    },
    {
      "inputs": [
        {
          "internalType": "address",
          "name": "_to",
          "type": "address"
        },
        {
          "internalType": "uint256",
          "name": "_amount",
          "type": "uint256"
        }
      ],
      "name": "submitTransaction",
      "outputs": [],
      "stateMutability": "nonpayable",
      "type": "function"
    },
    {
      "inputs": [
        {
          "internalType": "bytes4",
          "name": "interfaceId",
          "type": "bytes4"
        }
      ],
      "name": "supportsInterface",
      "outputs": [
        {
          "internalType": "bool",
          "name": "",
          "type": "bool"
        }
      ],
      "stateMutability": "view",
      "type": "function"
    },
    {
      "inputs": [],
      "name": "symbol",
      "outputs": [
        {
          "internalType": "string",
          "name": "",
          "type": "string"
        }
      ],
      "stateMutability": "view",
      "type": "function"
    },
    {
      "inputs": [
        {
          "internalType": "uint256",
          "name": "tokenId",
          "type": "uint256"
        }
      ],
      "name": "tokenURI",
      "outputs": [
        {
          "internalType": "string",
          "name": "",
          "type": "string"
        }
      ],
      "stateMutability": "view",
      "type": "function"
    },
    {
      "inputs": [
        {
          "internalType": "uint256",
          "name": "",
          "type": "uint256"
        }
      ],
      "name": "transactions",
      "outputs": [
        {
          "internalType": "address",
          "name": "to",
          "type": "address"
        },
        {
          "internalType": "uint256",
          "name": "amount",
          "type": "uint256"
        },
        {
          "internalType": "bool",
          "name": "executed",
          "type": "bool"
        },
        {
          "internalType": "uint256",
          "name": "numConfirmations",
          "type": "uint256"
        }
      ],
      "stateMutability": "view",
      "type": "function"
    },
    {
      "inputs": [
        {
          "internalType": "address",
          "name": "from",
          "type": "address"
        },
        {
          "internalType": "address",
          "name": "to",
          "type": "address"
        },
        {
          "internalType": "uint256",
          "name": "tokenId",
          "type": "uint256"
        }
      ],
      "name": "transferFrom",
      "outputs": [],
      "stateMutability": "nonpayable",
      "type": "function"
    },
    {
      "inputs": [
        {
          "internalType": "uint256",
          "name": "_listingPrice",
          "type": "uint256"
        }
      ],
      "name": "updateListingPrice",
      "outputs": [],
      "stateMutability": "nonpayable",
      "type": "function"
    },
    {
      "inputs": [
        {
          "internalType": "uint256",
          "name": "_txIndex",
          "type": "uint256"
        }
      ],
      "name": "withdrawFunds",
      "outputs": [],
      "stateMutability": "nonpayable",
      "type": "function"
    },
    {
      "stateMutability": "payable",
      "type": "receive"
    }
  ],
  "bytecode": "0x608060405260006009553480156200001657600080fd5b506040516200541b3803806200541b83398181016040528101906200003c919062000579565b6040518060400160405280600c81526020017f54727573746966696564763500000000000000000000000000000000000000008152506040518060400160405280600581526020017f54464476350000000000000000000000000000000000000000000000000000008152508160009080519060200190620000c0929190620003f9565b508060019080519060200190620000d9929190620003f9565b505050600160088190555082600a60006101000a81548173ffffffffffffffffffffffffffffffffffffffff021916908373ffffffffffffffffffffffffffffffffffffffff16021790555060008251116200016c576040517f08c379a00000000000000000000000000000000000000000000000000000000081526004016200016390620006a6565b60405180910390fd5b6000811180156200017e575081518111155b620001c0576040517f08c379a0000000000000000000000000000000000000000000000000000000008152600401620001b790620006ea565b60405180910390fd5b60005b8251811015620003e857600083828151811062000209577f4e487b7100000000000000000000000000000000000000000000000000000000600052603260045260246000fd5b60200260200101519050600073ffffffffffffffffffffffffffffffffffffffff168173ffffffffffffffffffffffffffffffffffffffff16141562000286576040517f08c379a00000000000000000000000000000000000000000000000000000000081526004016200027d90620006c8565b60405180910390fd5b600e60008273ffffffffffffffffffffffffffffffffffffffff1673ffffffffffffffffffffffffffffffffffffffff16815260200190815260200160002060009054906101000a900460ff161562000316576040517f08c379a00000000000000000000000000000000000000000000000000000000081526004016200030d9062000684565b60405180910390fd5b6001600e60008373ffffffffffffffffffffffffffffffffffffffff1673ffffffffffffffffffffffffffffffffffffffff16815260200190815260200160002060006101000a81548160ff021916908315150217905550600d819080600181540180825580915050600190039060005260206000200160009091909190916101000a81548173ffffffffffffffffffffffffffffffffffffffff021916908373ffffffffffffffffffffffffffffffffffffffff160217905550508080620003df906200081f565b915050620001c3565b5080600f8190555050505062000a09565b8280546200040790620007b3565b90600052602060002090601f0160209004810192826200042b576000855562000477565b82601f106200044657805160ff191683800117855562000477565b8280016001018555821562000477579182015b828111156200047657825182559160200191906001019062000459565b5b5090506200048691906200048a565b5090565b5b80821115620004a55760008160009055506001016200048b565b5090565b6000620004c0620004ba8462000735565b6200070c565b90508083825260208201905082856020860282011115620004e057600080fd5b60005b85811015620005145781620004f988826200051e565b845260208401935060208301925050600181019050620004e3565b5050509392505050565b6000815190506200052f81620009d5565b92915050565b600082601f8301126200054757600080fd5b815162000559848260208601620004a9565b91505092915050565b6000815190506200057381620009ef565b92915050565b6000806000606084860312156200058f57600080fd5b60006200059f868287016200051e565b935050602084015167ffffffffffffffff811115620005bd57600080fd5b620005cb8682870162000535565b9250506040620005de8682870162000562565b9150509250925092565b6000620005f760108362000764565b915062000604826200090b565b602082019050919050565b60006200061e600f8362000764565b91506200062b8262000934565b602082019050919050565b600062000645600d8362000764565b915062000652826200095d565b602082019050919050565b60006200066c60288362000764565b9150620006798262000986565b604082019050919050565b600060208201905081810360008301526200069f81620005e8565b9050919050565b60006020820190508181036000830152620006c1816200060f565b9050919050565b60006020820190508181036000830152620006e38162000636565b9050919050565b6000602082019050818103600083015262000705816200065d565b9050919050565b6000620007186200072b565b9050620007268282620007e9565b919050565b6000604051905090565b600067ffffffffffffffff821115620007535762000752620008cb565b5b602082029050602081019050919050565b600082825260208201905092915050565b6000620007828262000789565b9050919050565b600073ffffffffffffffffffffffffffffffffffffffff82169050919050565b6000819050919050565b60006002820490506001821680620007cc57607f821691505b60208210811415620007e357620007e26200089c565b5b50919050565b620007f482620008fa565b810181811067ffffffffffffffff82111715620008165762000815620008cb565b5b80604052505050565b60006200082c82620007a9565b91507fffffffffffffffffffffffffffffffffffffffffffffffffffffffffffffffff8214156200086257620008616200086d565b5b600182019050919050565b7f4e487b7100000000000000000000000000000000000000000000000000000000600052601160045260246000fd5b7f4e487b7100000000000000000000000000000000000000000000000000000000600052602260045260246000fd5b7f4e487b7100000000000000000000000000000000000000000000000000000000600052604160045260246000fd5b6000601f19601f8301169050919050565b7f6f776e6572206e6f7420756e6971756500000000000000000000000000000000600082015250565b7f6f776e6572732072657175697265640000000000000000000000000000000000600082015250565b7f696e76616c6964206f776e657200000000000000000000000000000000000000600082015250565b7f696e76616c6964206e756d626572206f6620726571756972656420636f6e666960008201527f726d6174696f6e73000000000000000000000000000000000000000000000000602082015250565b620009e08162000775565b8114620009ec57600080fd5b50565b620009fa81620007a9565b811462000a0657600080fd5b50565b614a028062000a196000396000f3fe6080604052600436106101a05760003560e01c80636352211e116100ec578063ae677aa31161008a578063c87b56dd11610064578063c87b56dd1461060e578063d0549b851461064b578063d27e79e214610676578063e985e9c51461069f576101a7565b8063ae677aa314610593578063b88d4fde146105bc578063c01a8c84146105e5576101a7565b806380f59a65116100c657806380f59a65146104c257806395d89b41146104ff5780639ace38c21461052a578063a22cb4651461056a576101a7565b80636352211e1461041d5780636f9fb98a1461045a57806370a0823114610485576101a7565b80631d43b653116101595780632f54bf6e116101335780632f54bf6e1461034e57806332eb80c21461038b57806333ea3dc8146103b457806342842e0e146103f4576101a7565b80631d43b653146102e05780631e9ee2181461030957806323b872dd14610325576101a7565b806301ffc9a7146101ac578063025e7c27146101e957806306fdde0314610226578063081812fc14610251578063095ea7b31461028e578063155dd5ee146102b7576101a7565b366101a757005b600080fd5b3480156101b857600080fd5b506101d360048036038101906101ce91906135bf565b6106dc565b6040516101e09190613cf9565b60405180910390f35b3480156101f557600080fd5b50610210600480360381019061020b919061367d565b6107be565b60405161021d9190613c2b565b60405180910390f35b34801561023257600080fd5b5061023b6107fd565b6040516102489190613d14565b60405180910390f35b34801561025d57600080fd5b506102786004803603810190610273919061367d565b61088f565b6040516102859190613c2b565b60405180910390f35b34801561029a57600080fd5b506102b560048036038101906102b091906134fa565b6108d5565b005b3480156102c357600080fd5b506102de60048036038101906102d9919061367d565b6109ed565b005b3480156102ec57600080fd5b50610307600480360381019061030291906134fa565b610c82565b005b610323600480360381019061031e919061370b565b610e66565b005b34801561033157600080fd5b5061034c600480360381019061034791906133f4565b6112d4565b005b34801561035a57600080fd5b506103756004803603810190610370919061338f565b611334565b6040516103829190613cf9565b60405180910390f35b34801561039757600080fd5b506103b260048036038101906103ad9190613611565b611354565b005b3480156103c057600080fd5b506103db60048036038101906103d6919061367d565b611491565b6040516103eb9493929190613c92565b60405180910390f35b34801561040057600080fd5b5061041b600480360381019061041691906133f4565b611534565b005b34801561042957600080fd5b50610444600480360381019061043f919061367d565b611554565b6040516104519190613c2b565b60405180910390f35b34801561046657600080fd5b5061046f6115db565b60405161047c9190614056565b60405180910390f35b34801561049157600080fd5b506104ac60048036038101906104a7919061338f565b6115e3565b6040516104b99190614056565b60405180910390f35b3480156104ce57600080fd5b506104e960048036038101906104e491906136cf565b61169b565b6040516104f69190613cf9565b60405180910390f35b34801561050b57600080fd5b506105146116ca565b6040516105219190613d14565b60405180910390f35b34801561053657600080fd5b50610551600480360381019061054c919061367d565b61175c565b6040516105619493929190613c92565b60405180910390f35b34801561057657600080fd5b50610591600480360381019061058c91906134be565b6117c9565b005b34801561059f57600080fd5b506105ba60048036038101906105b5919061367d565b6117df565b005b3480156105c857600080fd5b506105e360048036038101906105de9190613443565b611875565b005b3480156105f157600080fd5b5061060c6004803603810190610607919061367d565b6118d7565b005b34801561061a57600080fd5b506106356004803603810190610630919061367d565b611bbc565b6040516106429190613d14565b60405180910390f35b34801561065757600080fd5b50610660611ccf565b60405161066d9190614056565b60405180910390f35b34801561068257600080fd5b5061069d60048036038101906106989190613536565b611cd5565b005b3480156106ab57600080fd5b506106c660048036038101906106c191906133b8565b612042565b6040516106d39190613cf9565b60405180910390f35b60007f80ac58cd000000000000000000000000000000000000000000000000000000007bffffffffffffffffffffffffffffffffffffffffffffffffffffffff1916827bffffffffffffffffffffffffffffffffffffffffffffffffffffffff191614806107a757507f5b5e139f000000000000000000000000000000000000000000000000000000007bffffffffffffffffffffffffffffffffffffffffffffffffffffffff1916827bffffffffffffffffffffffffffffffffffffffffffffffffffffffff1916145b806107b757506107b6826120d6565b5b9050919050565b600d81815481106107ce57600080fd5b906000526020600020016000915054906101000a900473ffffffffffffffffffffffffffffffffffffffff1681565b60606000805461080c906142a9565b80601f0160208091040260200160405190810160405280929190818152602001828054610838906142a9565b80156108855780601f1061085a57610100808354040283529160200191610885565b820191906000526020600020905b81548152906001019060200180831161086857829003601f168201915b5050505050905090565b600061089a82612140565b6004600083815260200190815260200160002060009054906101000a900473ffffffffffffffffffffffffffffffffffffffff169050919050565b60006108e082611554565b90508073ffffffffffffffffffffffffffffffffffffffff168373ffffffffffffffffffffffffffffffffffffffff161415610951576040517f08c379a000000000000000000000000000000000000000000000000000000000815260040161094890613f56565b60405180910390fd5b8073ffffffffffffffffffffffffffffffffffffffff1661097061218b565b73ffffffffffffffffffffffffffffffffffffffff16148061099f575061099e8161099961218b565b612042565b5b6109de576040517f08c379a00000000000000000000000000000000000000000000000000000000081526004016109d590613f96565b60405180910390fd5b6109e88383612193565b505050565b600e60003373ffffffffffffffffffffffffffffffffffffffff1673ffffffffffffffffffffffffffffffffffffffff16815260200190815260200160002060009054906101000a900460ff16610a79576040517f08c379a0000000000000000000000000000000000000000000000000000000008152600401610a7090614036565b60405180910390fd5b806013805490508110610ac1576040517f08c379a0000000000000000000000000000000000000000000000000000000008152600401610ab890613ed6565b60405180910390fd5b8160138181548110610afc577f4e487b7100000000000000000000000000000000000000000000000000000000600052603260045260246000fd5b906000526020600020906004020160020160009054906101000a900460ff1615610b5b576040517f08c379a0000000000000000000000000000000000000000000000000000000008152600401610b5290613fb6565b60405180910390fd5b600060138481548110610b97577f4e487b7100000000000000000000000000000000000000000000000000000000600052603260045260246000fd5b906000526020600020906004020190508060000160009054906101000a900473ffffffffffffffffffffffffffffffffffffffff1673ffffffffffffffffffffffffffffffffffffffff166108fc82600101549081150290604051600060405180830381858888f19350505050158015610c15573d6000803e3d6000fd5b50600f5481600301541015610c5f576040517f08c379a0000000000000000000000000000000000000000000000000000000008152600401610c5690614016565b60405180910390fd5b60018160020160006101000a81548160ff02191690831515021790555050505050565b600e60003373ffffffffffffffffffffffffffffffffffffffff1673ffffffffffffffffffffffffffffffffffffffff16815260200190815260200160002060009054906101000a900460ff16610d0e576040517f08c379a0000000000000000000000000000000000000000000000000000000008152600401610d0590614036565b60405180910390fd5b60006013805490509050601360405180608001604052808573ffffffffffffffffffffffffffffffffffffffff1681526020018481526020016000151581526020016000815250908060018154018082558091505060019003906000526020600020906004020160009091909190915060008201518160000160006101000a81548173ffffffffffffffffffffffffffffffffffffffff021916908373ffffffffffffffffffffffffffffffffffffffff1602179055506020820151816001015560408201518160020160006101000a81548160ff0219169083151502179055506060820151816003015550508273ffffffffffffffffffffffffffffffffffffffff16813373ffffffffffffffffffffffffffffffffffffffff167fcd144288a078b7562351164feb1762115faca27f30827b4142f2bbe27166e32085604051610e599190614056565b60405180910390a4505050565b610e6e61224c565b6000600a60009054906101000a900473ffffffffffffffffffffffffffffffffffffffff16905060008173ffffffffffffffffffffffffffffffffffffffff166370a08231336040518263ffffffff1660e01b8152600401610ed09190613c2b565b60206040518083038186803b158015610ee857600080fd5b505afa158015610efc573d6000803e3d6000fd5b505050506040513d601f19601f82011682018060405250810190610f2091906136a6565b11610f60576040517f08c379a0000000000000000000000000000000000000000000000000000000008152600401610f5790613fd6565b60405180910390fd5b82600954610f6e9190614199565b3414610faf576040517f08c379a0000000000000000000000000000000000000000000000000000000008152600401610fa690613f76565b60405180910390fd5b60008311610ff2576040517f08c379a0000000000000000000000000000000000000000000000000000000008152600401610fe990613e96565b60405180910390fd5b6000610ffe600c61229c565b905061100a600c6122aa565b60008467ffffffffffffffff81111561104c577f4e487b7100000000000000000000000000000000000000000000000000000000600052604160045260246000fd5b60405190808252806020026020018201604052801561107a5781602001602082028036833780820191505090505b50905060005b85811015611217576000611094600b61229c565b90506110a0600b6122aa565b60405180608001604052808281526020013373ffffffffffffffffffffffffffffffffffffffff168152602001871515815260200160001515815250601060008381526020019081526020016000206000820151816000015560208201518160010160006101000a81548173ffffffffffffffffffffffffffffffffffffffff021916908373ffffffffffffffffffffffffffffffffffffffff16021790555060408201518160010160146101000a81548160ff02191690831515021790555060608201518160010160156101000a81548160ff021916908315150217905550905050808383815181106111bd577f4e487b7100000000000000000000000000000000000000000000000000000000600052603260045260246000fd5b6020026020010181815250506011600085815260200190815260200160002081908060018154018082558091505060019003906000526020600020016000909190919091505550808061120f9061430c565b915050611080565b508481511415611271573373ffffffffffffffffffffffffffffffffffffffff16827f8c2f5d183b50912b2ffb4c5f5e9cfa5582707e8434a6591d0dcd7221c54a760b836040516112689190613cd7565b60405180910390a35b3073ffffffffffffffffffffffffffffffffffffffff166108fc866009546112999190614199565b9081150290604051600060405180830381858888f193505050501580156112c4573d6000803e3d6000fd5b505050506112d06122c0565b5050565b6112e56112df61218b565b826122ca565b611324576040517f08c379a000000000000000000000000000000000000000000000000000000000815260040161131b90613d56565b60405180910390fd5b61132f83838361235f565b505050565b600e6020528060005260406000206000915054906101000a900460ff1681565b600015156010600084815260200190815260200160002060010160159054906101000a900460ff161515146113be576040517f08c379a00000000000000000000000000000000000000000000000000000000081526004016113b590613e36565b60405180910390fd5b6113c88183612659565b6000848490501161140e576040517f08c379a000000000000000000000000000000000000000000000000000000000815260040161140590613e56565b60405180910390fd5b61145c8285858080601f016020809104026020016040519081016040528093929190818152602001838380828437600081840152601f19601f82011690508083019250505050505050612877565b60016010600084815260200190815260200160002060010160156101000a81548160ff02191690831515021790555050505050565b6000806000806000601386815481106114d3577f4e487b7100000000000000000000000000000000000000000000000000000000600052603260045260246000fd5b906000526020600020906004020190508060000160009054906101000a900473ffffffffffffffffffffffffffffffffffffffff1681600101548260020160009054906101000a900460ff1683600301549450945094509450509193509193565b61154f83838360405180602001604052806000815250611875565b505050565b600080611560836128eb565b9050600073ffffffffffffffffffffffffffffffffffffffff168173ffffffffffffffffffffffffffffffffffffffff1614156115d2576040517f08c379a00000000000000000000000000000000000000000000000000000000081526004016115c990613f36565b60405180910390fd5b80915050919050565b600047905090565b60008073ffffffffffffffffffffffffffffffffffffffff168273ffffffffffffffffffffffffffffffffffffffff161415611654576040517f08c379a000000000000000000000000000000000000000000000000000000000815260040161164b90613e76565b60405180910390fd5b600360008373ffffffffffffffffffffffffffffffffffffffff1673ffffffffffffffffffffffffffffffffffffffff168152602001908152602001600020549050919050565b60126020528160005260406000206020528060005260406000206000915091509054906101000a900460ff1681565b6060600180546116d9906142a9565b80601f0160208091040260200160405190810160405280929190818152602001828054611705906142a9565b80156117525780601f1061172757610100808354040283529160200191611752565b820191906000526020600020905b81548152906001019060200180831161173557829003601f168201915b5050505050905090565b6013818154811061176c57600080fd5b90600052602060002090600402016000915090508060000160009054906101000a900473ffffffffffffffffffffffffffffffffffffffff16908060010154908060020160009054906101000a900460ff16908060030154905084565b6117db6117d461218b565b8383612928565b5050565b600e60003373ffffffffffffffffffffffffffffffffffffffff1673ffffffffffffffffffffffffffffffffffffffff16815260200190815260200160002060009054906101000a900460ff1661186b576040517f08c379a000000000000000000000000000000000000000000000000000000000815260040161186290614036565b60405180910390fd5b8060098190555050565b61188661188061218b565b836122ca565b6118c5576040517f08c379a00000000000000000000000000000000000000000000000000000000081526004016118bc90613d56565b60405180910390fd5b6118d184848484612a95565b50505050565b600e60003373ffffffffffffffffffffffffffffffffffffffff1673ffffffffffffffffffffffffffffffffffffffff16815260200190815260200160002060009054906101000a900460ff16611963576040517f08c379a000000000000000000000000000000000000000000000000000000000815260040161195a90614036565b60405180910390fd5b8060138054905081106119ab576040517f08c379a00000000000000000000000000000000000000000000000000000000081526004016119a290613ed6565b60405180910390fd5b81601381815481106119e6577f4e487b7100000000000000000000000000000000000000000000000000000000600052603260045260246000fd5b906000526020600020906004020160020160009054906101000a900460ff1615611a45576040517f08c379a0000000000000000000000000000000000000000000000000000000008152600401611a3c90613fb6565b60405180910390fd5b826012600082815260200190815260200160002060003373ffffffffffffffffffffffffffffffffffffffff1673ffffffffffffffffffffffffffffffffffffffff16815260200190815260200160002060009054906101000a900460ff1615611ae4576040517f08c379a0000000000000000000000000000000000000000000000000000000008152600401611adb90613f16565b60405180910390fd5b600060138581548110611b20577f4e487b7100000000000000000000000000000000000000000000000000000000600052603260045260246000fd5b906000526020600020906004020190506001816003016000828254611b459190614143565b9250508190555060016012600087815260200190815260200160002060003373ffffffffffffffffffffffffffffffffffffffff1673ffffffffffffffffffffffffffffffffffffffff16815260200190815260200160002060006101000a81548160ff0219169083151502179055505050505050565b6060611bc782612140565b6000600660008481526020019081526020016000208054611be7906142a9565b80601f0160208091040260200160405190810160405280929190818152602001828054611c13906142a9565b8015611c605780601f10611c3557610100808354040283529160200191611c60565b820191906000526020600020905b815481529060010190602001808311611c4357829003601f168201915b505050505090506000611c71612af1565b9050600081511415611c87578192505050611cca565b600082511115611cbc578082604051602001611ca4929190613c07565b60405160208183030381529060405292505050611cca565b611cc584612b08565b925050505b919050565b600f5481565b60116000848152602001908152602001600020805490508585905014611d30576040517f08c379a0000000000000000000000000000000000000000000000000000000008152600401611d2790613d96565b60405180910390fd5b600060116000858152602001908152602001600020805480602002602001604051908101604052809291908181526020018280548015611d8f57602002820191906000526020600020905b815481526020019060010190808311611d7b575b5050505050905060005b8151811015612039576000151560106000848481518110611de3577f4e487b7100000000000000000000000000000000000000000000000000000000600052603260045260246000fd5b6020026020010151815260200190815260200160002060010160159054906101000a900460ff16151514611e4c576040517f08c379a0000000000000000000000000000000000000000000000000000000008152600401611e4390613e36565b60405180910390fd5b611ee3878783818110611e88577f4e487b7100000000000000000000000000000000000000000000000000000000600052603260045260246000fd5b9050602002016020810190611e9d919061338f565b838381518110611ed6577f4e487b7100000000000000000000000000000000000000000000000000000000600052603260045260246000fd5b6020026020010151612659565b60008484905011611f29576040517f08c379a0000000000000000000000000000000000000000000000000000000008152600401611f2090613e56565b60405180910390fd5b611fb7828281518110611f65577f4e487b7100000000000000000000000000000000000000000000000000000000600052603260045260246000fd5b602002602001015185858080601f016020809104026020016040519081016040528093929190818152602001838380828437600081840152601f19601f82011690508083019250505050505050612877565b600160106000848481518110611ff6577f4e487b7100000000000000000000000000000000000000000000000000000000600052603260045260246000fd5b6020026020010151815260200190815260200160002060010160156101000a81548160ff02191690831515021790555080806120319061430c565b915050611d99565b50505050505050565b6000600560008473ffffffffffffffffffffffffffffffffffffffff1673ffffffffffffffffffffffffffffffffffffffff16815260200190815260200160002060008373ffffffffffffffffffffffffffffffffffffffff1673ffffffffffffffffffffffffffffffffffffffff16815260200190815260200160002060009054906101000a900460ff16905092915050565b60007f01ffc9a7000000000000000000000000000000000000000000000000000000007bffffffffffffffffffffffffffffffffffffffffffffffffffffffff1916827bffffffffffffffffffffffffffffffffffffffffffffffffffffffff1916149050919050565b61214981612b70565b612188576040517f08c379a000000000000000000000000000000000000000000000000000000000815260040161217f90613f36565b60405180910390fd5b50565b600033905090565b816004600083815260200190815260200160002060006101000a81548173ffffffffffffffffffffffffffffffffffffffff021916908373ffffffffffffffffffffffffffffffffffffffff160217905550808273ffffffffffffffffffffffffffffffffffffffff1661220683611554565b73ffffffffffffffffffffffffffffffffffffffff167f8c5be1e5ebec7d5bd14f71427d1e84f3dd0314c0f7b2291e5b200ac8c7c3b92560405160405180910390a45050565b60026008541415612292576040517f08c379a000000000000000000000000000000000000000000000000000000000815260040161228990613ff6565b60405180910390fd5b6002600881905550565b600081600001549050919050565b6001816000016000828254019250508190555050565b6001600881905550565b6000806122d683611554565b90508073ffffffffffffffffffffffffffffffffffffffff168473ffffffffffffffffffffffffffffffffffffffff16148061231857506123178185612042565b5b8061235657508373ffffffffffffffffffffffffffffffffffffffff1661233e8461088f565b73ffffffffffffffffffffffffffffffffffffffff16145b91505092915050565b8273ffffffffffffffffffffffffffffffffffffffff1661237f82611554565b73ffffffffffffffffffffffffffffffffffffffff16146123d5576040517f08c379a00000000000000000000000000000000000000000000000000000000081526004016123cc90613db6565b60405180910390fd5b600073ffffffffffffffffffffffffffffffffffffffff168273ffffffffffffffffffffffffffffffffffffffff161415612445576040517f08c379a000000000000000000000000000000000000000000000000000000000815260040161243c90613df6565b60405180910390fd5b6124528383836001612bb1565b8273ffffffffffffffffffffffffffffffffffffffff1661247282611554565b73ffffffffffffffffffffffffffffffffffffffff16146124c8576040517f08c379a00000000000000000000000000000000000000000000000000000000081526004016124bf90613db6565b60405180910390fd5b6004600082815260200190815260200160002060006101000a81549073ffffffffffffffffffffffffffffffffffffffff02191690556001600360008573ffffffffffffffffffffffffffffffffffffffff1673ffffffffffffffffffffffffffffffffffffffff168152602001908152602001600020600082825403925050819055506001600360008473ffffffffffffffffffffffffffffffffffffffff1673ffffffffffffffffffffffffffffffffffffffff16815260200190815260200160002060008282540192505081905550816002600083815260200190815260200160002060006101000a81548173ffffffffffffffffffffffffffffffffffffffff021916908373ffffffffffffffffffffffffffffffffffffffff160217905550808273ffffffffffffffffffffffffffffffffffffffff168473ffffffffffffffffffffffffffffffffffffffff167fddf252ad1be2c89b69c2b068fc378daa952ba7f163c4a11628f55a4df523b3ef60405160405180910390a46126548383836001612c57565b505050565b600073ffffffffffffffffffffffffffffffffffffffff168273ffffffffffffffffffffffffffffffffffffffff1614156126c9576040517f08c379a00000000000000000000000000000000000000000000000000000000081526004016126c090613ef6565b60405180910390fd5b6126d281612b70565b15612712576040517f08c379a000000000000000000000000000000000000000000000000000000000815260040161270990613dd6565b60405180910390fd5b612720600083836001612bb1565b61272981612b70565b15612769576040517f08c379a000000000000000000000000000000000000000000000000000000000815260040161276090613dd6565b60405180910390fd5b6001600360008473ffffffffffffffffffffffffffffffffffffffff1673ffffffffffffffffffffffffffffffffffffffff16815260200190815260200160002060008282540192505081905550816002600083815260200190815260200160002060006101000a81548173ffffffffffffffffffffffffffffffffffffffff021916908373ffffffffffffffffffffffffffffffffffffffff160217905550808273ffffffffffffffffffffffffffffffffffffffff16600073ffffffffffffffffffffffffffffffffffffffff167fddf252ad1be2c89b69c2b068fc378daa952ba7f163c4a11628f55a4df523b3ef60405160405180910390a4612873600083836001612c57565b5050565b61288082612b70565b6128bf576040517f08c379a00000000000000000000000000000000000000000000000000000000081526004016128b690613eb6565b60405180910390fd5b806006600084815260200190815260200160002090805190602001906128e6929190613172565b505050565b60006002600083815260200190815260200160002060009054906101000a900473ffffffffffffffffffffffffffffffffffffffff169050919050565b8173ffffffffffffffffffffffffffffffffffffffff168373ffffffffffffffffffffffffffffffffffffffff161415612997576040517f08c379a000000000000000000000000000000000000000000000000000000000815260040161298e90613e16565b60405180910390fd5b80600560008573ffffffffffffffffffffffffffffffffffffffff1673ffffffffffffffffffffffffffffffffffffffff16815260200190815260200160002060008473ffffffffffffffffffffffffffffffffffffffff1673ffffffffffffffffffffffffffffffffffffffff16815260200190815260200160002060006101000a81548160ff0219169083151502179055508173ffffffffffffffffffffffffffffffffffffffff168373ffffffffffffffffffffffffffffffffffffffff167f17307eab39ab6107e8899845ad3d59bd9653f200f220920489ca2b5937696c3183604051612a889190613cf9565b60405180910390a3505050565b612aa084848461235f565b612aac84848484612c5d565b612aeb576040517f08c379a0000000000000000000000000000000000000000000000000000000008152600401612ae290613d76565b60405180910390fd5b50505050565b606060405180602001604052806000815250905090565b6060612b1382612140565b6000612b1d612af1565b90506000815111612b3d5760405180602001604052806000815250612b68565b80612b4784612df4565b604051602001612b58929190613c07565b6040516020818303038152906040525b915050919050565b60008073ffffffffffffffffffffffffffffffffffffffff16612b92836128eb565b73ffffffffffffffffffffffffffffffffffffffff1614159050919050565b600073ffffffffffffffffffffffffffffffffffffffff168473ffffffffffffffffffffffffffffffffffffffff1614612c5157600115156010600084815260200190815260200160002060010160149054906101000a900460ff1615151415612c50576040517f08c379a0000000000000000000000000000000000000000000000000000000008152600401612c4790613d36565b60405180910390fd5b5b50505050565b50505050565b6000612c7e8473ffffffffffffffffffffffffffffffffffffffff16612f18565b15612de7578373ffffffffffffffffffffffffffffffffffffffff1663150b7a02612ca761218b565b8786866040518563ffffffff1660e01b8152600401612cc99493929190613c46565b602060405180830381600087803b158015612ce357600080fd5b505af1925050508015612d1457506040513d601f19601f82011682018060405250810190612d1191906135e8565b60015b612d97573d8060008114612d44576040519150601f19603f3d011682016040523d82523d6000602084013e612d49565b606091505b50600081511415612d8f576040517f08c379a0000000000000000000000000000000000000000000000000000000008152600401612d8690613d76565b60405180910390fd5b805181602001fd5b63150b7a0260e01b7bffffffffffffffffffffffffffffffffffffffffffffffffffffffff1916817bffffffffffffffffffffffffffffffffffffffffffffffffffffffff191614915050612dec565b600190505b949350505050565b606060006001612e0384612f3b565b01905060008167ffffffffffffffff811115612e48577f4e487b7100000000000000000000000000000000000000000000000000000000600052604160045260246000fd5b6040519080825280601f01601f191660200182016040528015612e7a5781602001600182028036833780820191505090505b509050600082602001820190505b600115612f0d578080600190039150507f3031323334353637383961626364656600000000000000000000000000000000600a86061a8153600a8581612ef7577f4e487b7100000000000000000000000000000000000000000000000000000000600052601260045260246000fd5b0494506000851415612f0857612f0d565b612e88565b819350505050919050565b6000808273ffffffffffffffffffffffffffffffffffffffff163b119050919050565b600080600090507a184f03e93ff9f4daa797ed6e38ed64bf6a1f0100000000000000008310612fbf577a184f03e93ff9f4daa797ed6e38ed64bf6a1f0100000000000000008381612fb5577f4e487b7100000000000000000000000000000000000000000000000000000000600052601260045260246000fd5b0492506040810190505b6d04ee2d6d415b85acef81000000008310613022576d04ee2d6d415b85acef81000000008381613018577f4e487b7100000000000000000000000000000000000000000000000000000000600052601260045260246000fd5b0492506020810190505b662386f26fc10000831061307757662386f26fc10000838161306d577f4e487b7100000000000000000000000000000000000000000000000000000000600052601260045260246000fd5b0492506010810190505b6305f5e10083106130c6576305f5e10083816130bc577f4e487b7100000000000000000000000000000000000000000000000000000000600052601260045260246000fd5b0492506008810190505b6127108310613111576127108381613107577f4e487b7100000000000000000000000000000000000000000000000000000000600052601260045260246000fd5b0492506004810190505b6064831061315a5760648381613150577f4e487b7100000000000000000000000000000000000000000000000000000000600052601260045260246000fd5b0492506002810190505b600a8310613169576001810190505b80915050919050565b82805461317e906142a9565b90600052602060002090601f0160209004810192826131a057600085556131e7565b82601f106131b957805160ff19168380011785556131e7565b828001600101855582156131e7579182015b828111156131e65782518255916020019190600101906131cb565b5b5090506131f491906131f8565b5090565b5b808211156132115760008160009055506001016131f9565b5090565b600061322861322384614096565b614071565b90508281526020810184848401111561324057600080fd5b61324b848285614267565b509392505050565b60008135905061326281614970565b92915050565b60008083601f84011261327a57600080fd5b8235905067ffffffffffffffff81111561329357600080fd5b6020830191508360208202830111156132ab57600080fd5b9250929050565b6000813590506132c181614987565b92915050565b6000813590506132d68161499e565b92915050565b6000815190506132eb8161499e565b92915050565b600082601f83011261330257600080fd5b8135613312848260208601613215565b91505092915050565b60008083601f84011261332d57600080fd5b8235905067ffffffffffffffff81111561334657600080fd5b60208301915083600182028301111561335e57600080fd5b9250929050565b600081359050613374816149b5565b92915050565b600081519050613389816149b5565b92915050565b6000602082840312156133a157600080fd5b60006133af84828501613253565b91505092915050565b600080604083850312156133cb57600080fd5b60006133d985828601613253565b92505060206133ea85828601613253565b9150509250929050565b60008060006060848603121561340957600080fd5b600061341786828701613253565b935050602061342886828701613253565b925050604061343986828701613365565b9150509250925092565b6000806000806080858703121561345957600080fd5b600061346787828801613253565b945050602061347887828801613253565b935050604061348987828801613365565b925050606085013567ffffffffffffffff8111156134a657600080fd5b6134b2878288016132f1565b91505092959194509250565b600080604083850312156134d157600080fd5b60006134df85828601613253565b92505060206134f0858286016132b2565b9150509250929050565b6000806040838503121561350d57600080fd5b600061351b85828601613253565b925050602061352c85828601613365565b9150509250929050565b60008060008060006060868803121561354e57600080fd5b600086013567ffffffffffffffff81111561356857600080fd5b61357488828901613268565b9550955050602061358788828901613365565b935050604086013567ffffffffffffffff8111156135a457600080fd5b6135b08882890161331b565b92509250509295509295909350565b6000602082840312156135d157600080fd5b60006135df848285016132c7565b91505092915050565b6000602082840312156135fa57600080fd5b6000613608848285016132dc565b91505092915050565b6000806000806060858703121561362757600080fd5b600085013567ffffffffffffffff81111561364157600080fd5b61364d8782880161331b565b9450945050602061366087828801613365565b925050604061367187828801613253565b91505092959194509250565b60006020828403121561368f57600080fd5b600061369d84828501613365565b91505092915050565b6000602082840312156136b857600080fd5b60006136c68482850161337a565b91505092915050565b600080604083850312156136e257600080fd5b60006136f085828601613365565b925050602061370185828601613253565b9150509250929050565b6000806040838503121561371e57600080fd5b600061372c85828601613365565b925050602061373d858286016132b2565b9150509250929050565b60006137538383613be9565b60208301905092915050565b613768816141f3565b82525050565b6000613779826140d7565b6137838185614105565b935061378e836140c7565b8060005b838110156137bf5781516137a68882613747565b97506137b1836140f8565b925050600181019050613792565b5085935050505092915050565b6137d581614205565b82525050565b60006137e6826140e2565b6137f08185614116565b9350613800818560208601614276565b613809816143e2565b840191505092915050565b600061381f826140ed565b6138298185614127565b9350613839818560208601614276565b613842816143e2565b840191505092915050565b6000613858826140ed565b6138628185614138565b9350613872818560208601614276565b80840191505092915050565b600061388b601d83614127565b9150613896826143f3565b602082019050919050565b60006138ae602d83614127565b91506138b98261441c565b604082019050919050565b60006138d1603283614127565b91506138dc8261446b565b604082019050919050565b60006138f4603f83614127565b91506138ff826144ba565b604082019050919050565b6000613917602583614127565b915061392282614509565b604082019050919050565b600061393a601c83614127565b915061394582614558565b602082019050919050565b600061395d602483614127565b915061396882614581565b604082019050919050565b6000613980601983614127565b915061398b826145d0565b602082019050919050565b60006139a3601d83614127565b91506139ae826145f9565b602082019050919050565b60006139c6601b83614127565b91506139d182614622565b602082019050919050565b60006139e9602983614127565b91506139f48261464b565b604082019050919050565b6000613a0c601083614127565b9150613a178261469a565b602082019050919050565b6000613a2f602e83614127565b9150613a3a826146c3565b604082019050919050565b6000613a52601183614127565b9150613a5d82614712565b602082019050919050565b6000613a75602083614127565b9150613a808261473b565b602082019050919050565b6000613a98601483614127565b9150613aa382614764565b602082019050919050565b6000613abb601883614127565b9150613ac68261478d565b602082019050919050565b6000613ade602183614127565b9150613ae9826147b6565b604082019050919050565b6000613b01602483614127565b9150613b0c82614805565b604082019050919050565b6000613b24603d83614127565b9150613b2f82614854565b604082019050919050565b6000613b47601383614127565b9150613b52826148a3565b602082019050919050565b6000613b6a601a83614127565b9150613b75826148cc565b602082019050919050565b6000613b8d601f83614127565b9150613b98826148f5565b602082019050919050565b6000613bb0601183614127565b9150613bbb8261491e565b602082019050919050565b6000613bd3600983614127565b9150613bde82614947565b602082019050919050565b613bf28161425d565b82525050565b613c018161425d565b82525050565b6000613c13828561384d565b9150613c1f828461384d565b91508190509392505050565b6000602082019050613c40600083018461375f565b92915050565b6000608082019050613c5b600083018761375f565b613c68602083018661375f565b613c756040830185613bf8565b8181036060830152613c8781846137db565b905095945050505050565b6000608082019050613ca7600083018761375f565b613cb46020830186613bf8565b613cc160408301856137cc565b613cce6060830184613bf8565b95945050505050565b60006020820190508181036000830152613cf1818461376e565b905092915050565b6000602082019050613d0e60008301846137cc565b92915050565b60006020820190508181036000830152613d2e8184613814565b905092915050565b60006020820190508181036000830152613d4f8161387e565b9050919050565b60006020820190508181036000830152613d6f816138a1565b9050919050565b60006020820190508181036000830152613d8f816138c4565b9050919050565b60006020820190508181036000830152613daf816138e7565b9050919050565b60006020820190508181036000830152613dcf8161390a565b9050919050565b60006020820190508181036000830152613def8161392d565b9050919050565b60006020820190508181036000830152613e0f81613950565b9050919050565b60006020820190508181036000830152613e2f81613973565b9050919050565b60006020820190508181036000830152613e4f81613996565b9050919050565b60006020820190508181036000830152613e6f816139b9565b9050919050565b60006020820190508181036000830152613e8f816139dc565b9050919050565b60006020820190508181036000830152613eaf816139ff565b9050919050565b60006020820190508181036000830152613ecf81613a22565b9050919050565b60006020820190508181036000830152613eef81613a45565b9050919050565b60006020820190508181036000830152613f0f81613a68565b9050919050565b60006020820190508181036000830152613f2f81613a8b565b9050919050565b60006020820190508181036000830152613f4f81613aae565b9050919050565b60006020820190508181036000830152613f6f81613ad1565b9050919050565b60006020820190508181036000830152613f8f81613af4565b9050919050565b60006020820190508181036000830152613faf81613b17565b9050919050565b60006020820190508181036000830152613fcf81613b3a565b9050919050565b60006020820190508181036000830152613fef81613b5d565b9050919050565b6000602082019050818103600083015261400f81613b80565b9050919050565b6000602082019050818103600083015261402f81613ba3565b9050919050565b6000602082019050818103600083015261404f81613bc6565b9050919050565b600060208201905061406b6000830184613bf8565b92915050565b600061407b61408c565b905061408782826142db565b919050565b6000604051905090565b600067ffffffffffffffff8211156140b1576140b06143b3565b5b6140ba826143e2565b9050602081019050919050565b6000819050602082019050919050565b600081519050919050565b600081519050919050565b600081519050919050565b6000602082019050919050565b600082825260208201905092915050565b600082825260208201905092915050565b600082825260208201905092915050565b600081905092915050565b600061414e8261425d565b91506141598361425d565b9250827fffffffffffffffffffffffffffffffffffffffffffffffffffffffffffffffff0382111561418e5761418d614355565b5b828201905092915050565b60006141a48261425d565b91506141af8361425d565b9250817fffffffffffffffffffffffffffffffffffffffffffffffffffffffffffffffff04831182151516156141e8576141e7614355565b5b828202905092915050565b60006141fe8261423d565b9050919050565b60008115159050919050565b60007fffffffff0000000000000000000000000000000000000000000000000000000082169050919050565b600073ffffffffffffffffffffffffffffffffffffffff82169050919050565b6000819050919050565b82818337600083830152505050565b60005b83811015614294578082015181840152602081019050614279565b838111156142a3576000848401525b50505050565b600060028204905060018216806142c157607f821691505b602082108114156142d5576142d4614384565b5b50919050565b6142e4826143e2565b810181811067ffffffffffffffff82111715614303576143026143b3565b5b80604052505050565b60006143178261425d565b91507fffffffffffffffffffffffffffffffffffffffffffffffffffffffffffffffff82141561434a57614349614355565b5b600182019050919050565b7f4e487b7100000000000000000000000000000000000000000000000000000000600052601160045260246000fd5b7f4e487b7100000000000000000000000000000000000000000000000000000000600052602260045260246000fd5b7f4e487b7100000000000000000000000000000000000000000000000000000000600052604160045260246000fd5b6000601f19601f8301169050919050565b7f4e6f7420616c6c6f77656420746f207472616e7366657220746f6b656e000000600082015250565b7f4552433732313a2063616c6c6572206973206e6f7420746f6b656e206f776e6560008201527f72206f7220617070726f76656400000000000000000000000000000000000000602082015250565b7f4552433732313a207472616e7366657220746f206e6f6e20455243373231526560008201527f63656976657220696d706c656d656e7465720000000000000000000000000000602082015250565b7f4e756d626572206f6620746f6b656e49647320616e6420636f6c6c6563746f7260008201527f73206f662074686973206576656e742073686f756c642062652073616d652100602082015250565b7f4552433732313a207472616e736665722066726f6d20696e636f72726563742060008201527f6f776e6572000000000000000000000000000000000000000000000000000000602082015250565b7f4552433732313a20746f6b656e20616c7265616479206d696e74656400000000600082015250565b7f4552433732313a207472616e7366657220746f20746865207a65726f2061646460008201527f7265737300000000000000000000000000000000000000000000000000000000602082015250565b7f4552433732313a20617070726f766520746f2063616c6c657200000000000000600082015250565b7f5468697320746f6b656e20697320616c7265616479206d696e74656421000000600082015250565b7f546f6b656e20555249206d757374206e6f7420626520656d7074790000000000600082015250565b7f4552433732313a2061646472657373207a65726f206973206e6f74206120766160008201527f6c6964206f776e65720000000000000000000000000000000000000000000000602082015250565b7f496e76616c6964207175616e7469747900000000000000000000000000000000600082015250565b7f45524337323155524953746f726167653a2055524920736574206f66206e6f6e60008201527f6578697374656e7420746f6b656e000000000000000000000000000000000000602082015250565b7f747820646f6573206e6f74206578697374000000000000000000000000000000600082015250565b7f4552433732313a206d696e7420746f20746865207a65726f2061646472657373600082015250565b7f747820616c726561647920636f6e6669726d6564000000000000000000000000600082015250565b7f4552433732313a20696e76616c696420746f6b656e2049440000000000000000600082015250565b7f4552433732313a20617070726f76616c20746f2063757272656e74206f776e6560008201527f7200000000000000000000000000000000000000000000000000000000000000602082015250565b7f5072696365206d75737420626520657175616c20746f206c697374696e67207060008201527f7269636500000000000000000000000000000000000000000000000000000000602082015250565b7f4552433732313a20617070726f76652063616c6c6572206973206e6f7420746f60008201527f6b656e206f776e6572206f7220617070726f76656420666f7220616c6c000000602082015250565b7f747820616c726561647920657865637574656400000000000000000000000000600082015250565b7f596f7520646f6e2774206861766520497373756572206e667421000000000000600082015250565b7f5265656e7472616e637947756172643a207265656e7472616e742063616c6c00600082015250565b7f63616e6e6f742065786563757465207478000000000000000000000000000000600082015250565b7f6e6f74206f776e65720000000000000000000000000000000000000000000000600082015250565b614979816141f3565b811461498457600080fd5b50565b61499081614205565b811461499b57600080fd5b50565b6149a781614211565b81146149b257600080fd5b50565b6149be8161425d565b81146149c957600080fd5b5056fea2646970667358221220b68dc074151f60cf835e2bc12449c890c62b158e65295bf5e5f345c10ea029ad64736f6c63430008040033",
  "linkReferences": {},
  "deployedLinkReferences": {}
}