{
  "_format": "hh-sol-artifact-1",
  "contractName": "Trustified",
  "sourceName": "contracts/Trustified.sol",
  "abi": [
    {
      "inputs": [],
      "stateMutability": "nonpayable",
      "type": "constructor"
    },
    {
      "anonymous": false,
      "inputs": [
        {
          "indexed": true,
          "internalType": "address",
          "name": "owner",
          "type": "address"
        },
        {
          "indexed": true,
          "internalType": "address",
          "name": "approved",
          "type": "address"
        },
        {
          "indexed": true,
          "internalType": "uint256",
          "name": "tokenId",
          "type": "uint256"
        }
      ],
      "name": "Approval",
      "type": "event"
    },
    {
      "anonymous": false,
      "inputs": [
        {
          "indexed": true,
          "internalType": "address",
          "name": "owner",
          "type": "address"
        },
        {
          "indexed": true,
          "internalType": "address",
          "name": "operator",
          "type": "address"
        },
        {
          "indexed": false,
          "internalType": "bool",
          "name": "approved",
          "type": "bool"
        }
      ],
      "name": "ApprovalForAll",
      "type": "event"
    },
    {
      "anonymous": false,
      "inputs": [
        {
          "indexed": true,
          "internalType": "uint256",
          "name": "eventId",
          "type": "uint256"
        },
        {
          "indexed": false,
          "internalType": "uint256[]",
          "name": "tokenIds",
          "type": "uint256[]"
        },
        {
          "indexed": true,
          "internalType": "address",
          "name": "issuer",
          "type": "address"
        }
      ],
      "name": "TokensMinted",
      "type": "event"
    },
    {
      "anonymous": false,
      "inputs": [
        {
          "indexed": true,
          "internalType": "address",
          "name": "from",
          "type": "address"
        },
        {
          "indexed": true,
          "internalType": "address",
          "name": "to",
          "type": "address"
        },
        {
          "indexed": true,
          "internalType": "uint256",
          "name": "tokenId",
          "type": "uint256"
        }
      ],
      "name": "Transfer",
      "type": "event"
    },
    {
      "inputs": [
        {
          "internalType": "address",
          "name": "to",
          "type": "address"
        },
        {
          "internalType": "uint256",
          "name": "tokenId",
          "type": "uint256"
        }
      ],
      "name": "approve",
      "outputs": [],
      "stateMutability": "nonpayable",
      "type": "function"
    },
    {
      "inputs": [
        {
          "internalType": "address",
          "name": "owner",
          "type": "address"
        }
      ],
      "name": "balanceOf",
      "outputs": [
        {
          "internalType": "uint256",
          "name": "",
          "type": "uint256"
        }
      ],
      "stateMutability": "view",
      "type": "function"
    },
    {
      "inputs": [
        {
          "internalType": "string",
          "name": "tokenUri",
          "type": "string"
        },
        {
          "internalType": "uint256",
          "name": "quantity",
          "type": "uint256"
        },
        {
          "internalType": "uint256",
          "name": "value",
          "type": "uint256"
        },
        {
          "internalType": "bool",
          "name": "nonTransferable",
          "type": "bool"
        },
        {
          "internalType": "uint256",
          "name": "price",
          "type": "uint256"
        }
      ],
      "name": "bulkMintERC721",
      "outputs": [],
      "stateMutability": "payable",
      "type": "function"
    },
    {
      "inputs": [],
      "name": "claimFees",
      "outputs": [
        {
          "internalType": "uint256",
          "name": "",
          "type": "uint256"
        }
      ],
      "stateMutability": "view",
      "type": "function"
    },
    {
      "inputs": [
        {
          "internalType": "uint256",
          "name": "tokenId",
          "type": "uint256"
        }
      ],
      "name": "claimRoyality",
      "outputs": [],
      "stateMutability": "payable",
      "type": "function"
    },
    {
      "inputs": [],
      "name": "creationFees",
      "outputs": [
        {
          "internalType": "uint256",
          "name": "",
          "type": "uint256"
        }
      ],
      "stateMutability": "view",
      "type": "function"
    },
    {
      "inputs": [
        {
          "internalType": "uint256",
          "name": "tokenId",
          "type": "uint256"
        }
      ],
      "name": "getApproved",
      "outputs": [
        {
          "internalType": "address",
          "name": "",
          "type": "address"
        }
      ],
      "stateMutability": "view",
      "type": "function"
    },
    {
      "inputs": [
        {
          "internalType": "address",
          "name": "owner",
          "type": "address"
        },
        {
          "internalType": "address",
          "name": "operator",
          "type": "address"
        }
      ],
      "name": "isApprovedForAll",
      "outputs": [
        {
          "internalType": "bool",
          "name": "",
          "type": "bool"
        }
      ],
      "stateMutability": "view",
      "type": "function"
    },
    {
      "inputs": [],
      "name": "name",
      "outputs": [
        {
          "internalType": "string",
          "name": "",
          "type": "string"
        }
      ],
      "stateMutability": "view",
      "type": "function"
    },
    {
      "inputs": [],
      "name": "owner",
      "outputs": [
        {
          "internalType": "address payable",
          "name": "",
          "type": "address"
        }
      ],
      "stateMutability": "view",
      "type": "function"
    },
    {
      "inputs": [
        {
          "internalType": "uint256",
          "name": "tokenId",
          "type": "uint256"
        }
      ],
      "name": "ownerOf",
      "outputs": [
        {
          "internalType": "address",
          "name": "",
          "type": "address"
        }
      ],
      "stateMutability": "view",
      "type": "function"
    },
    {
      "inputs": [
        {
          "internalType": "address",
          "name": "from",
          "type": "address"
        },
        {
          "internalType": "address",
          "name": "to",
          "type": "address"
        },
        {
          "internalType": "uint256",
          "name": "tokenId",
          "type": "uint256"
        }
      ],
      "name": "safeTransferFrom",
      "outputs": [],
      "stateMutability": "nonpayable",
      "type": "function"
    },
    {
      "inputs": [
        {
          "internalType": "address",
          "name": "from",
          "type": "address"
        },
        {
          "internalType": "address",
          "name": "to",
          "type": "address"
        },
        {
          "internalType": "uint256",
          "name": "tokenId",
          "type": "uint256"
        },
        {
          "internalType": "bytes",
          "name": "data",
          "type": "bytes"
        }
      ],
      "name": "safeTransferFrom",
      "outputs": [],
      "stateMutability": "nonpayable",
      "type": "function"
    },
    {
      "inputs": [
        {
          "internalType": "address",
          "name": "operator",
          "type": "address"
        },
        {
          "internalType": "bool",
          "name": "approved",
          "type": "bool"
        }
      ],
      "name": "setApprovalForAll",
      "outputs": [],
      "stateMutability": "nonpayable",
      "type": "function"
    },
    {
      "inputs": [
        {
          "internalType": "uint256",
          "name": "_claimFees",
          "type": "uint256"
        }
      ],
      "name": "setClaimFees",
      "outputs": [],
      "stateMutability": "nonpayable",
      "type": "function"
    },
    {
      "inputs": [
        {
          "internalType": "uint256",
          "name": "_creationFees",
          "type": "uint256"
        }
      ],
      "name": "setCreationFees",
      "outputs": [],
      "stateMutability": "nonpayable",
      "type": "function"
    },
    {
      "inputs": [
        {
          "internalType": "bytes4",
          "name": "interfaceId",
          "type": "bytes4"
        }
      ],
      "name": "supportsInterface",
      "outputs": [
        {
          "internalType": "bool",
          "name": "",
          "type": "bool"
        }
      ],
      "stateMutability": "view",
      "type": "function"
    },
    {
      "inputs": [],
      "name": "symbol",
      "outputs": [
        {
          "internalType": "string",
          "name": "",
          "type": "string"
        }
      ],
      "stateMutability": "view",
      "type": "function"
    },
    {
      "inputs": [
        {
          "internalType": "uint256",
          "name": "tokenId",
          "type": "uint256"
        }
      ],
      "name": "tokenURI",
      "outputs": [
        {
          "internalType": "string",
          "name": "",
          "type": "string"
        }
      ],
      "stateMutability": "view",
      "type": "function"
    },
    {
      "inputs": [
        {
          "internalType": "address",
          "name": "from",
          "type": "address"
        },
        {
          "internalType": "address",
          "name": "to",
          "type": "address"
        },
        {
          "internalType": "uint256",
          "name": "tokenId",
          "type": "uint256"
        }
      ],
      "name": "transferFrom",
      "outputs": [],
      "stateMutability": "nonpayable",
      "type": "function"
    },
    {
      "inputs": [
        {
          "internalType": "address",
          "name": "from",
          "type": "address"
        },
        {
          "internalType": "address",
          "name": "to",
          "type": "address"
        },
        {
          "internalType": "uint256",
          "name": "tokenId",
          "type": "uint256"
        },
        {
          "internalType": "string",
          "name": "tokenURI",
          "type": "string"
        },
        {
          "internalType": "uint256",
          "name": "value",
          "type": "uint256"
        }
      ],
      "name": "transferToken",
      "outputs": [],
      "stateMutability": "payable",
      "type": "function"
    }
  ],
  "bytecode": "0x60806040526000600c556000600d553480156200001b57600080fd5b506040518060400160405280600b81526020017f54727573746966696564310000000000000000000000000000000000000000008152506040518060400160405280600381526020017f54463100000000000000000000000000000000000000000000000000000000008152508160009080519060200190620000a09291906200010b565b508060019080519060200190620000b99291906200010b565b505050600160088190555033600960006101000a81548173ffffffffffffffffffffffffffffffffffffffff021916908373ffffffffffffffffffffffffffffffffffffffff16021790555062000220565b8280546200011990620001bb565b90600052602060002090601f0160209004810192826200013d576000855562000189565b82601f106200015857805160ff191683800117855562000189565b8280016001018555821562000189579182015b82811115620001885782518255916020019190600101906200016b565b5b5090506200019891906200019c565b5090565b5b80821115620001b75760008160009055506001016200019d565b5090565b60006002820490506001821680620001d457607f821691505b60208210811415620001eb57620001ea620001f1565b5b50919050565b7f4e487b7100000000000000000000000000000000000000000000000000000000600052602260045260246000fd5b613cea80620002306000396000f3fe60806040526004361061012a5760003560e01c806373b79cb5116100ab578063aac5e3041161006f578063aac5e304146103d4578063b88d4fde146103f0578063c259a8ec14610419578063c87b56dd14610442578063d294f0931461047f578063e985e9c5146104aa5761012a565b806373b79cb51461030e57806380574834146103395780638da5cb5b1461035557806395d89b4114610380578063a22cb465146103ab5761012a565b806323b872dd116100f257806323b872dd146102265780632cd052701461024f57806342842e0e1461026b5780636352211e1461029457806370a08231146102d15761012a565b806301ffc9a71461012f57806306fdde031461016c578063081812fc14610197578063095ea7b3146101d457806322154445146101fd575b600080fd5b34801561013b57600080fd5b50610156600480360381019061015191906129e5565b6104e7565b6040516101639190613020565b60405180910390f35b34801561017857600080fd5b506101816105c9565b60405161018e919061303b565b60405180910390f35b3480156101a357600080fd5b506101be60048036038101906101b99190612ac9565b61065b565b6040516101cb9190612f7c565b60405180910390f35b3480156101e057600080fd5b506101fb60048036038101906101f691906129a9565b6106a1565b005b34801561020957600080fd5b50610224600480360381019061021f9190612ac9565b6107b9565b005b34801561023257600080fd5b5061024d60048036038101906102489190612811565b610897565b005b61026960048036038101906102649190612a37565b6108f7565b005b34801561027757600080fd5b50610292600480360381019061028d9190612811565b610c6b565b005b3480156102a057600080fd5b506102bb60048036038101906102b69190612ac9565b610c8b565b6040516102c89190612f7c565b60405180910390f35b3480156102dd57600080fd5b506102f860048036038101906102f391906127ac565b610d12565b604051610305919061331d565b60405180910390f35b34801561031a57600080fd5b50610323610dca565b604051610330919061331d565b60405180910390f35b610353600480360381019061034e91906128db565b610dd0565b005b34801561036157600080fd5b5061036a610f9a565b6040516103779190612f97565b60405180910390f35b34801561038c57600080fd5b50610395610fc0565b6040516103a2919061303b565b60405180910390f35b3480156103b757600080fd5b506103d260048036038101906103cd919061296d565b611052565b005b6103ee60048036038101906103e99190612ac9565b611068565b005b3480156103fc57600080fd5b5061041760048036038101906104129190612860565b61119c565b005b34801561042557600080fd5b50610440600480360381019061043b9190612ac9565b6111fe565b005b34801561044e57600080fd5b5061046960048036038101906104649190612ac9565b611298565b604051610476919061303b565b60405180910390f35b34801561048b57600080fd5b506104946113ab565b6040516104a1919061331d565b60405180910390f35b3480156104b657600080fd5b506104d160048036038101906104cc91906127d5565b6113b1565b6040516104de9190613020565b60405180910390f35b60007f80ac58cd000000000000000000000000000000000000000000000000000000007bffffffffffffffffffffffffffffffffffffffffffffffffffffffff1916827bffffffffffffffffffffffffffffffffffffffffffffffffffffffff191614806105b257507f5b5e139f000000000000000000000000000000000000000000000000000000007bffffffffffffffffffffffffffffffffffffffffffffffffffffffff1916827bffffffffffffffffffffffffffffffffffffffffffffffffffffffff1916145b806105c257506105c182611445565b5b9050919050565b6060600080546105d890613591565b80601f016020809104026020016040519081016040528092919081815260200182805461060490613591565b80156106515780601f1061062657610100808354040283529160200191610651565b820191906000526020600020905b81548152906001019060200180831161063457829003601f168201915b5050505050905090565b6000610666826114af565b6004600083815260200190815260200160002060009054906101000a900473ffffffffffffffffffffffffffffffffffffffff169050919050565b60006106ac82610c8b565b90508073ffffffffffffffffffffffffffffffffffffffff168373ffffffffffffffffffffffffffffffffffffffff16141561071d576040517f08c379a00000000000000000000000000000000000000000000000000000000081526004016107149061327d565b60405180910390fd5b8073ffffffffffffffffffffffffffffffffffffffff1661073c6114fa565b73ffffffffffffffffffffffffffffffffffffffff16148061076b575061076a816107656114fa565b6113b1565b5b6107aa576040517f08c379a00000000000000000000000000000000000000000000000000000000081526004016107a19061329d565b60405180910390fd5b6107b48383611502565b505050565b600960009054906101000a900473ffffffffffffffffffffffffffffffffffffffff1673ffffffffffffffffffffffffffffffffffffffff163373ffffffffffffffffffffffffffffffffffffffff1614610849576040517f08c379a0000000000000000000000000000000000000000000000000000000008152600401610840906132dd565b60405180910390fd5b606481111561088d576040517f08c379a00000000000000000000000000000000000000000000000000000000081526004016108849061323d565b60405180910390fd5b80600d8190555050565b6108a86108a26114fa565b826115bb565b6108e7576040517f08c379a00000000000000000000000000000000000000000000000000000000081526004016108de9061307d565b60405180910390fd5b6108f2838383611650565b505050565b6108ff61194a565b60008411610942576040517f08c379a00000000000000000000000000000000000000000000000000000000081526004016109399061317d565b60405180910390fd5b60008310158015610954575060018311155b610993576040517f08c379a000000000000000000000000000000000000000000000000000000000815260040161098a9061321d565b60405180910390fd5b600c5434146109d7576040517f08c379a00000000000000000000000000000000000000000000000000000000081526004016109ce906131fd565b60405180910390fd5b60006109e3600b61199a565b90506109ef600b6119a8565b60008567ffffffffffffffff811115610a31577f4e487b7100000000000000000000000000000000000000000000000000000000600052604160045260246000fd5b604051908082528060200260200182016040528015610a5f5781602001602082028036833780820191505090505b50905060005b86811015610ba0576000610a7a8a8a896119be565b905060405180608001604052808281526020013373ffffffffffffffffffffffffffffffffffffffff168152602001868152602001871515815250600e60008381526020019081526020016000206000820151816000015560208201518160010160006101000a81548173ffffffffffffffffffffffffffffffffffffffff021916908373ffffffffffffffffffffffffffffffffffffffff1602179055506040820151816002015560608201518160030160006101000a81548160ff02191690831515021790555090505080838381518110610b80577f4e487b7100000000000000000000000000000000000000000000000000000000600052603260045260246000fd5b602002602001018181525050508080610b98906135f4565b915050610a65565b50600960009054906101000a900473ffffffffffffffffffffffffffffffffffffffff1673ffffffffffffffffffffffffffffffffffffffff166108fc349081150290604051600060405180830381858888f19350505050158015610c09573d6000803e3d6000fd5b503373ffffffffffffffffffffffffffffffffffffffff16827f88c55e90330027a4740cd7d2bafb3fc31c21bbaa17745d80b328c53c4916ebf483604051610c519190612ffe565b60405180910390a35050610c63611a8a565b505050505050565b610c868383836040518060200160405280600081525061119c565b505050565b600080610c9783611a94565b9050600073ffffffffffffffffffffffffffffffffffffffff168173ffffffffffffffffffffffffffffffffffffffff161415610d09576040517f08c379a0000000000000000000000000000000000000000000000000000000008152600401610d009061325d565b60405180910390fd5b80915050919050565b60008073ffffffffffffffffffffffffffffffffffffffff168273ffffffffffffffffffffffffffffffffffffffff161415610d83576040517f08c379a0000000000000000000000000000000000000000000000000000000008152600401610d7a9061315d565b60405180910390fd5b600360008373ffffffffffffffffffffffffffffffffffffffff1673ffffffffffffffffffffffffffffffffffffffff168152602001908152602001600020549050919050565b600c5481565b610dd861194a565b60008110158015610dea575060018111155b610e29576040517f08c379a0000000000000000000000000000000000000000000000000000000008152600401610e209061321d565b60405180910390fd5b600e6000858152602001908152602001600020600201543414610e81576040517f08c379a0000000000000000000000000000000000000000000000000000000008152600401610e78906131bd565b60405180910390fd5b6001811415610ed957610ed88484848080601f016020809104026020016040519081016040528093929190818152602001838380828437600081840152601f19601f82011690508083019250505050505050611ad1565b5b3073ffffffffffffffffffffffffffffffffffffffff168673ffffffffffffffffffffffffffffffffffffffff1614610f7557610f1633856115bb565b610f55576040517f08c379a0000000000000000000000000000000000000000000000000000000008152600401610f4c906132bd565b60405180910390fd5b610f67610f606114fa565b8686611650565b610f7084611068565b610f8a565b610f80868686611650565b610f8984611068565b5b610f92611a8a565b505050505050565b600960009054906101000a900473ffffffffffffffffffffffffffffffffffffffff1681565b606060018054610fcf90613591565b80601f0160208091040260200160405190810160405280929190818152602001828054610ffb90613591565b80156110485780601f1061101d57610100808354040283529160200191611048565b820191906000526020600020905b81548152906001019060200180831161102b57829003601f168201915b5050505050905090565b61106461105d6114fa565b8383611b45565b5050565b600034905060006110976064611089600d5485611cb290919063ffffffff16565b611cc890919063ffffffff16565b9050600960009054906101000a900473ffffffffffffffffffffffffffffffffffffffff1673ffffffffffffffffffffffffffffffffffffffff166108fc829081150290604051600060405180830381858888f19350505050158015611101573d6000803e3d6000fd5b5060006111178284611cde90919063ffffffff16565b9050600e600085815260200190815260200160002060010160009054906101000a900473ffffffffffffffffffffffffffffffffffffffff1673ffffffffffffffffffffffffffffffffffffffff166108fc829081150290604051600060405180830381858888f19350505050158015611195573d6000803e3d6000fd5b5050505050565b6111ad6111a76114fa565b836115bb565b6111ec576040517f08c379a00000000000000000000000000000000000000000000000000000000081526004016111e39061307d565b60405180910390fd5b6111f884848484611cf4565b50505050565b600960009054906101000a900473ffffffffffffffffffffffffffffffffffffffff1673ffffffffffffffffffffffffffffffffffffffff163373ffffffffffffffffffffffffffffffffffffffff161461128e576040517f08c379a0000000000000000000000000000000000000000000000000000000008152600401611285906132dd565b60405180910390fd5b80600c8190555050565b60606112a3826114af565b60006006600084815260200190815260200160002080546112c390613591565b80601f01602080910402602001604051908101604052809291908181526020018280546112ef90613591565b801561133c5780601f106113115761010080835404028352916020019161133c565b820191906000526020600020905b81548152906001019060200180831161131f57829003601f168201915b50505050509050600061134d611d50565b90506000815114156113635781925050506113a6565b600082511115611398578082604051602001611380929190612f58565b604051602081830303815290604052925050506113a6565b6113a184611d67565b925050505b919050565b600d5481565b6000600560008473ffffffffffffffffffffffffffffffffffffffff1673ffffffffffffffffffffffffffffffffffffffff16815260200190815260200160002060008373ffffffffffffffffffffffffffffffffffffffff1673ffffffffffffffffffffffffffffffffffffffff16815260200190815260200160002060009054906101000a900460ff16905092915050565b60007f01ffc9a7000000000000000000000000000000000000000000000000000000007bffffffffffffffffffffffffffffffffffffffffffffffffffffffff1916827bffffffffffffffffffffffffffffffffffffffffffffffffffffffff1916149050919050565b6114b881611dcf565b6114f7576040517f08c379a00000000000000000000000000000000000000000000000000000000081526004016114ee9061325d565b60405180910390fd5b50565b600033905090565b816004600083815260200190815260200160002060006101000a81548173ffffffffffffffffffffffffffffffffffffffff021916908373ffffffffffffffffffffffffffffffffffffffff160217905550808273ffffffffffffffffffffffffffffffffffffffff1661157583610c8b565b73ffffffffffffffffffffffffffffffffffffffff167f8c5be1e5ebec7d5bd14f71427d1e84f3dd0314c0f7b2291e5b200ac8c7c3b92560405160405180910390a45050565b6000806115c783610c8b565b90508073ffffffffffffffffffffffffffffffffffffffff168473ffffffffffffffffffffffffffffffffffffffff161480611609575061160881856113b1565b5b8061164757508373ffffffffffffffffffffffffffffffffffffffff1661162f8461065b565b73ffffffffffffffffffffffffffffffffffffffff16145b91505092915050565b8273ffffffffffffffffffffffffffffffffffffffff1661167082610c8b565b73ffffffffffffffffffffffffffffffffffffffff16146116c6576040517f08c379a00000000000000000000000000000000000000000000000000000000081526004016116bd906130bd565b60405180910390fd5b600073ffffffffffffffffffffffffffffffffffffffff168273ffffffffffffffffffffffffffffffffffffffff161415611736576040517f08c379a000000000000000000000000000000000000000000000000000000000815260040161172d906130fd565b60405180910390fd5b6117438383836001611e10565b8273ffffffffffffffffffffffffffffffffffffffff1661176382610c8b565b73ffffffffffffffffffffffffffffffffffffffff16146117b9576040517f08c379a00000000000000000000000000000000000000000000000000000000081526004016117b0906130bd565b60405180910390fd5b6004600082815260200190815260200160002060006101000a81549073ffffffffffffffffffffffffffffffffffffffff02191690556001600360008573ffffffffffffffffffffffffffffffffffffffff1673ffffffffffffffffffffffffffffffffffffffff168152602001908152602001600020600082825403925050819055506001600360008473ffffffffffffffffffffffffffffffffffffffff1673ffffffffffffffffffffffffffffffffffffffff16815260200190815260200160002060008282540192505081905550816002600083815260200190815260200160002060006101000a81548173ffffffffffffffffffffffffffffffffffffffff021916908373ffffffffffffffffffffffffffffffffffffffff160217905550808273ffffffffffffffffffffffffffffffffffffffff168473ffffffffffffffffffffffffffffffffffffffff167fddf252ad1be2c89b69c2b068fc378daa952ba7f163c4a11628f55a4df523b3ef60405160405180910390a46119458383836001611eb5565b505050565b60026008541415611990576040517f08c379a0000000000000000000000000000000000000000000000000000000008152600401611987906132fd565b60405180910390fd5b6002600881905550565b600081600001549050919050565b6001816000016000828254019250508190555050565b6000806119cb600a61199a565b90506119d7600a6119a8565b6119e13082611ebb565b6000831415611a7f5760008585905011611a30576040517f08c379a0000000000000000000000000000000000000000000000000000000008152600401611a279061313d565b60405180910390fd5b611a7e8186868080601f016020809104026020016040519081016040528093929190818152602001838380828437600081840152601f19601f82011690508083019250505050505050611ad1565b5b809150509392505050565b6001600881905550565b60006002600083815260200190815260200160002060009054906101000a900473ffffffffffffffffffffffffffffffffffffffff169050919050565b611ada82611dcf565b611b19576040517f08c379a0000000000000000000000000000000000000000000000000000000008152600401611b109061319d565b60405180910390fd5b80600660008481526020019081526020016000209080519060200190611b409291906125ee565b505050565b8173ffffffffffffffffffffffffffffffffffffffff168373ffffffffffffffffffffffffffffffffffffffff161415611bb4576040517f08c379a0000000000000000000000000000000000000000000000000000000008152600401611bab9061311d565b60405180910390fd5b80600560008573ffffffffffffffffffffffffffffffffffffffff1673ffffffffffffffffffffffffffffffffffffffff16815260200190815260200160002060008473ffffffffffffffffffffffffffffffffffffffff1673ffffffffffffffffffffffffffffffffffffffff16815260200190815260200160002060006101000a81548160ff0219169083151502179055508173ffffffffffffffffffffffffffffffffffffffff168373ffffffffffffffffffffffffffffffffffffffff167f17307eab39ab6107e8899845ad3d59bd9653f200f220920489ca2b5937696c3183604051611ca59190613020565b60405180910390a3505050565b60008183611cc0919061343b565b905092915050565b60008183611cd6919061340a565b905092915050565b60008183611cec9190613495565b905092915050565b611cff848484611650565b611d0b848484846120d9565b611d4a576040517f08c379a0000000000000000000000000000000000000000000000000000000008152600401611d419061309d565b60405180910390fd5b50505050565b606060405180602001604052806000815250905090565b6060611d72826114af565b6000611d7c611d50565b90506000815111611d9c5760405180602001604052806000815250611dc7565b80611da684612270565b604051602001611db7929190612f58565b6040516020818303038152906040525b915050919050565b60008073ffffffffffffffffffffffffffffffffffffffff16611df183611a94565b73ffffffffffffffffffffffffffffffffffffffff1614159050919050565b3073ffffffffffffffffffffffffffffffffffffffff168473ffffffffffffffffffffffffffffffffffffffff1614611eaf5760011515600e600084815260200190815260200160002060030160009054906101000a900460ff1615151415611eae576040517f08c379a0000000000000000000000000000000000000000000000000000000008152600401611ea59061305d565b60405180910390fd5b5b50505050565b50505050565b600073ffffffffffffffffffffffffffffffffffffffff168273ffffffffffffffffffffffffffffffffffffffff161415611f2b576040517f08c379a0000000000000000000000000000000000000000000000000000000008152600401611f22906131dd565b60405180910390fd5b611f3481611dcf565b15611f74576040517f08c379a0000000000000000000000000000000000000000000000000000000008152600401611f6b906130dd565b60405180910390fd5b611f82600083836001611e10565b611f8b81611dcf565b15611fcb576040517f08c379a0000000000000000000000000000000000000000000000000000000008152600401611fc2906130dd565b60405180910390fd5b6001600360008473ffffffffffffffffffffffffffffffffffffffff1673ffffffffffffffffffffffffffffffffffffffff16815260200190815260200160002060008282540192505081905550816002600083815260200190815260200160002060006101000a81548173ffffffffffffffffffffffffffffffffffffffff021916908373ffffffffffffffffffffffffffffffffffffffff160217905550808273ffffffffffffffffffffffffffffffffffffffff16600073ffffffffffffffffffffffffffffffffffffffff167fddf252ad1be2c89b69c2b068fc378daa952ba7f163c4a11628f55a4df523b3ef60405160405180910390a46120d5600083836001611eb5565b5050565b60006120fa8473ffffffffffffffffffffffffffffffffffffffff16612394565b15612263578373ffffffffffffffffffffffffffffffffffffffff1663150b7a026121236114fa565b8786866040518563ffffffff1660e01b81526004016121459493929190612fb2565b602060405180830381600087803b15801561215f57600080fd5b505af192505050801561219057506040513d601f19601f8201168201806040525081019061218d9190612a0e565b60015b612213573d80600081146121c0576040519150601f19603f3d011682016040523d82523d6000602084013e6121c5565b606091505b5060008151141561220b576040517f08c379a00000000000000000000000000000000000000000000000000000000081526004016122029061309d565b60405180910390fd5b805181602001fd5b63150b7a0260e01b7bffffffffffffffffffffffffffffffffffffffffffffffffffffffff1916817bffffffffffffffffffffffffffffffffffffffffffffffffffffffff191614915050612268565b600190505b949350505050565b60606000600161227f846123b7565b01905060008167ffffffffffffffff8111156122c4577f4e487b7100000000000000000000000000000000000000000000000000000000600052604160045260246000fd5b6040519080825280601f01601f1916602001820160405280156122f65781602001600182028036833780820191505090505b509050600082602001820190505b600115612389578080600190039150507f3031323334353637383961626364656600000000000000000000000000000000600a86061a8153600a8581612373577f4e487b7100000000000000000000000000000000000000000000000000000000600052601260045260246000fd5b049450600085141561238457612389565b612304565b819350505050919050565b6000808273ffffffffffffffffffffffffffffffffffffffff163b119050919050565b600080600090507a184f03e93ff9f4daa797ed6e38ed64bf6a1f010000000000000000831061243b577a184f03e93ff9f4daa797ed6e38ed64bf6a1f0100000000000000008381612431577f4e487b7100000000000000000000000000000000000000000000000000000000600052601260045260246000fd5b0492506040810190505b6d04ee2d6d415b85acef8100000000831061249e576d04ee2d6d415b85acef81000000008381612494577f4e487b7100000000000000000000000000000000000000000000000000000000600052601260045260246000fd5b0492506020810190505b662386f26fc1000083106124f357662386f26fc1000083816124e9577f4e487b7100000000000000000000000000000000000000000000000000000000600052601260045260246000fd5b0492506010810190505b6305f5e1008310612542576305f5e1008381612538577f4e487b7100000000000000000000000000000000000000000000000000000000600052601260045260246000fd5b0492506008810190505b612710831061258d576127108381612583577f4e487b7100000000000000000000000000000000000000000000000000000000600052601260045260246000fd5b0492506004810190505b606483106125d657606483816125cc577f4e487b7100000000000000000000000000000000000000000000000000000000600052601260045260246000fd5b0492506002810190505b600a83106125e5576001810190505b80915050919050565b8280546125fa90613591565b90600052602060002090601f01602090048101928261261c5760008555612663565b82601f1061263557805160ff1916838001178555612663565b82800160010185558215612663579182015b82811115612662578251825591602001919060010190612647565b5b5090506126709190612674565b5090565b5b8082111561268d576000816000905550600101612675565b5090565b60006126a461269f8461335d565b613338565b9050828152602081018484840111156126bc57600080fd5b6126c784828561354f565b509392505050565b6000813590506126de81613c58565b92915050565b6000813590506126f381613c6f565b92915050565b60008135905061270881613c86565b92915050565b60008151905061271d81613c86565b92915050565b600082601f83011261273457600080fd5b8135612744848260208601612691565b91505092915050565b60008083601f84011261275f57600080fd5b8235905067ffffffffffffffff81111561277857600080fd5b60208301915083600182028301111561279057600080fd5b9250929050565b6000813590506127a681613c9d565b92915050565b6000602082840312156127be57600080fd5b60006127cc848285016126cf565b91505092915050565b600080604083850312156127e857600080fd5b60006127f6858286016126cf565b9250506020612807858286016126cf565b9150509250929050565b60008060006060848603121561282657600080fd5b6000612834868287016126cf565b9350506020612845868287016126cf565b925050604061285686828701612797565b9150509250925092565b6000806000806080858703121561287657600080fd5b6000612884878288016126cf565b9450506020612895878288016126cf565b93505060406128a687828801612797565b925050606085013567ffffffffffffffff8111156128c357600080fd5b6128cf87828801612723565b91505092959194509250565b60008060008060008060a087890312156128f457600080fd5b600061290289828a016126cf565b965050602061291389828a016126cf565b955050604061292489828a01612797565b945050606087013567ffffffffffffffff81111561294157600080fd5b61294d89828a0161274d565b9350935050608061296089828a01612797565b9150509295509295509295565b6000806040838503121561298057600080fd5b600061298e858286016126cf565b925050602061299f858286016126e4565b9150509250929050565b600080604083850312156129bc57600080fd5b60006129ca858286016126cf565b92505060206129db85828601612797565b9150509250929050565b6000602082840312156129f757600080fd5b6000612a05848285016126f9565b91505092915050565b600060208284031215612a2057600080fd5b6000612a2e8482850161270e565b91505092915050565b60008060008060008060a08789031215612a5057600080fd5b600087013567ffffffffffffffff811115612a6a57600080fd5b612a7689828a0161274d565b96509650506020612a8989828a01612797565b9450506040612a9a89828a01612797565b9350506060612aab89828a016126e4565b9250506080612abc89828a01612797565b9150509295509295509295565b600060208284031215612adb57600080fd5b6000612ae984828501612797565b91505092915050565b6000612afe8383612f3a565b60208301905092915050565b612b13816134db565b82525050565b612b22816134c9565b82525050565b6000612b338261339e565b612b3d81856133cc565b9350612b488361338e565b8060005b83811015612b79578151612b608882612af2565b9750612b6b836133bf565b925050600181019050612b4c565b5085935050505092915050565b612b8f816134ed565b82525050565b6000612ba0826133a9565b612baa81856133dd565b9350612bba81856020860161355e565b612bc3816136f9565b840191505092915050565b6000612bd9826133b4565b612be381856133ee565b9350612bf381856020860161355e565b612bfc816136f9565b840191505092915050565b6000612c12826133b4565b612c1c81856133ff565b9350612c2c81856020860161355e565b80840191505092915050565b6000612c45601d836133ee565b9150612c508261370a565b602082019050919050565b6000612c68602d836133ee565b9150612c7382613733565b604082019050919050565b6000612c8b6032836133ee565b9150612c9682613782565b604082019050919050565b6000612cae6025836133ee565b9150612cb9826137d1565b604082019050919050565b6000612cd1601c836133ee565b9150612cdc82613820565b602082019050919050565b6000612cf46024836133ee565b9150612cff82613849565b604082019050919050565b6000612d176019836133ee565b9150612d2282613898565b602082019050919050565b6000612d3a601b836133ee565b9150612d45826138c1565b602082019050919050565b6000612d5d6029836133ee565b9150612d68826138ea565b604082019050919050565b6000612d806010836133ee565b9150612d8b82613939565b602082019050919050565b6000612da3602e836133ee565b9150612dae82613962565b604082019050919050565b6000612dc66026836133ee565b9150612dd1826139b1565b604082019050919050565b6000612de96020836133ee565b9150612df482613a00565b602082019050919050565b6000612e0c6025836133ee565b9150612e1782613a29565b604082019050919050565b6000612e2f600d836133ee565b9150612e3a82613a78565b602082019050919050565b6000612e526014836133ee565b9150612e5d82613aa1565b602082019050919050565b6000612e756018836133ee565b9150612e8082613aca565b602082019050919050565b6000612e986021836133ee565b9150612ea382613af3565b604082019050919050565b6000612ebb603d836133ee565b9150612ec682613b42565b604082019050919050565b6000612ede6031836133ee565b9150612ee982613b91565b604082019050919050565b6000612f01602f836133ee565b9150612f0c82613be0565b604082019050919050565b6000612f24601f836133ee565b9150612f2f82613c2f565b602082019050919050565b612f4381613545565b82525050565b612f5281613545565b82525050565b6000612f648285612c07565b9150612f708284612c07565b91508190509392505050565b6000602082019050612f916000830184612b19565b92915050565b6000602082019050612fac6000830184612b0a565b92915050565b6000608082019050612fc76000830187612b19565b612fd46020830186612b19565b612fe16040830185612f49565b8181036060830152612ff38184612b95565b905095945050505050565b600060208201905081810360008301526130188184612b28565b905092915050565b60006020820190506130356000830184612b86565b92915050565b600060208201905081810360008301526130558184612bce565b905092915050565b6000602082019050818103600083015261307681612c38565b9050919050565b6000602082019050818103600083015261309681612c5b565b9050919050565b600060208201905081810360008301526130b681612c7e565b9050919050565b600060208201905081810360008301526130d681612ca1565b9050919050565b600060208201905081810360008301526130f681612cc4565b9050919050565b6000602082019050818103600083015261311681612ce7565b9050919050565b6000602082019050818103600083015261313681612d0a565b9050919050565b6000602082019050818103600083015261315681612d2d565b9050919050565b6000602082019050818103600083015261317681612d50565b9050919050565b6000602082019050818103600083015261319681612d73565b9050919050565b600060208201905081810360008301526131b681612d96565b9050919050565b600060208201905081810360008301526131d681612db9565b9050919050565b600060208201905081810360008301526131f681612ddc565b9050919050565b6000602082019050818103600083015261321681612dff565b9050919050565b6000602082019050818103600083015261323681612e22565b9050919050565b6000602082019050818103600083015261325681612e45565b9050919050565b6000602082019050818103600083015261327681612e68565b9050919050565b6000602082019050818103600083015261329681612e8b565b9050919050565b600060208201905081810360008301526132b681612eae565b9050919050565b600060208201905081810360008301526132d681612ed1565b9050919050565b600060208201905081810360008301526132f681612ef4565b9050919050565b6000602082019050818103600083015261331681612f17565b9050919050565b60006020820190506133326000830184612f49565b92915050565b6000613342613353565b905061334e82826135c3565b919050565b6000604051905090565b600067ffffffffffffffff821115613378576133776136ca565b5b613381826136f9565b9050602081019050919050565b6000819050602082019050919050565b600081519050919050565b600081519050919050565b600081519050919050565b6000602082019050919050565b600082825260208201905092915050565b600082825260208201905092915050565b600082825260208201905092915050565b600081905092915050565b600061341582613545565b915061342083613545565b9250826134305761342f61366c565b5b828204905092915050565b600061344682613545565b915061345183613545565b9250817fffffffffffffffffffffffffffffffffffffffffffffffffffffffffffffffff048311821515161561348a5761348961363d565b5b828202905092915050565b60006134a082613545565b91506134ab83613545565b9250828210156134be576134bd61363d565b5b828203905092915050565b60006134d482613525565b9050919050565b60006134e682613525565b9050919050565b60008115159050919050565b60007fffffffff0000000000000000000000000000000000000000000000000000000082169050919050565b600073ffffffffffffffffffffffffffffffffffffffff82169050919050565b6000819050919050565b82818337600083830152505050565b60005b8381101561357c578082015181840152602081019050613561565b8381111561358b576000848401525b50505050565b600060028204905060018216806135a957607f821691505b602082108114156135bd576135bc61369b565b5b50919050565b6135cc826136f9565b810181811067ffffffffffffffff821117156135eb576135ea6136ca565b5b80604052505050565b60006135ff82613545565b91507fffffffffffffffffffffffffffffffffffffffffffffffffffffffffffffffff8214156136325761363161363d565b5b600182019050919050565b7f4e487b7100000000000000000000000000000000000000000000000000000000600052601160045260246000fd5b7f4e487b7100000000000000000000000000000000000000000000000000000000600052601260045260246000fd5b7f4e487b7100000000000000000000000000000000000000000000000000000000600052602260045260246000fd5b7f4e487b7100000000000000000000000000000000000000000000000000000000600052604160045260246000fd5b6000601f19601f8301169050919050565b7f4e6f7420616c6c6f77656420746f207472616e7366657220746f6b656e000000600082015250565b7f4552433732313a2063616c6c6572206973206e6f7420746f6b656e206f776e6560008201527f72206f7220617070726f76656400000000000000000000000000000000000000602082015250565b7f4552433732313a207472616e7366657220746f206e6f6e20455243373231526560008201527f63656976657220696d706c656d656e7465720000000000000000000000000000602082015250565b7f4552433732313a207472616e736665722066726f6d20696e636f72726563742060008201527f6f776e6572000000000000000000000000000000000000000000000000000000602082015250565b7f4552433732313a20746f6b656e20616c7265616479206d696e74656400000000600082015250565b7f4552433732313a207472616e7366657220746f20746865207a65726f2061646460008201527f7265737300000000000000000000000000000000000000000000000000000000602082015250565b7f4552433732313a20617070726f766520746f2063616c6c657200000000000000600082015250565b7f546f6b656e20555249206d757374206e6f7420626520656d7074790000000000600082015250565b7f4552433732313a2061646472657373207a65726f206973206e6f74206120766160008201527f6c6964206f776e65720000000000000000000000000000000000000000000000602082015250565b7f496e76616c6964207175616e7469747900000000000000000000000000000000600082015250565b7f45524337323155524953746f726167653a2055524920736574206f66206e6f6e60008201527f6578697374656e7420746f6b656e000000000000000000000000000000000000602082015250565b7f416d6f756e74206d75737420626520657175616c20746f207072696365206f6660008201527f20746f6b656e0000000000000000000000000000000000000000000000000000602082015250565b7f4552433732313a206d696e7420746f20746865207a65726f2061646472657373600082015250565b7f416d6f756e74206d75737420626520657175616c20746f206372656174696f6e60008201527f2066656573000000000000000000000000000000000000000000000000000000602082015250565b7f496e76616c69642076616c756500000000000000000000000000000000000000600082015250565b7f496e76616c696420636c61696d20616d6f756e74000000000000000000000000600082015250565b7f4552433732313a20696e76616c696420746f6b656e2049440000000000000000600082015250565b7f4552433732313a20617070726f76616c20746f2063757272656e74206f776e6560008201527f7200000000000000000000000000000000000000000000000000000000000000602082015250565b7f4552433732313a20617070726f76652063616c6c6572206973206e6f7420746f60008201527f6b656e206f776e6572206f7220617070726f76656420666f7220616c6c000000602082015250565b7f4552433732313a207472616e736665722063616c6c6572206973206e6f74206f60008201527f776e6572206e6f7220617070726f766564000000000000000000000000000000602082015250565b7f4f6e6c792074686520636f6e7472616374206f776e65722063616e2063616c6c60008201527f20746869732066756e6374696f6e2e0000000000000000000000000000000000602082015250565b7f5265656e7472616e637947756172643a207265656e7472616e742063616c6c00600082015250565b613c61816134c9565b8114613c6c57600080fd5b50565b613c78816134ed565b8114613c8357600080fd5b50565b613c8f816134f9565b8114613c9a57600080fd5b50565b613ca681613545565b8114613cb157600080fd5b5056fea264697066735822122048971d482907d2595b8744cde1713a425bf47bbed80682049b6f4c3247b30ce564736f6c63430008040033",
  "linkReferences": {},
  "deployedLinkReferences": {}
}