{
  "_format": "hh-sol-artifact-1",
  "contractName": "Trustified",
  "sourceName": "contracts/Trustified.sol",
  "abi": [
    {
      "inputs": [],
      "stateMutability": "nonpayable",
      "type": "constructor"
    },
    {
      "anonymous": false,
      "inputs": [
        {
          "indexed": true,
          "internalType": "address",
          "name": "owner",
          "type": "address"
        },
        {
          "indexed": true,
          "internalType": "address",
          "name": "approved",
          "type": "address"
        },
        {
          "indexed": true,
          "internalType": "uint256",
          "name": "tokenId",
          "type": "uint256"
        }
      ],
      "name": "Approval",
      "type": "event"
    },
    {
      "anonymous": false,
      "inputs": [
        {
          "indexed": true,
          "internalType": "address",
          "name": "owner",
          "type": "address"
        },
        {
          "indexed": true,
          "internalType": "address",
          "name": "operator",
          "type": "address"
        },
        {
          "indexed": false,
          "internalType": "bool",
          "name": "approved",
          "type": "bool"
        }
      ],
      "name": "ApprovalForAll",
      "type": "event"
    },
    {
      "anonymous": false,
      "inputs": [
        {
          "indexed": true,
          "internalType": "uint256",
          "name": "eventId",
          "type": "uint256"
        },
        {
          "indexed": false,
          "internalType": "uint256[]",
          "name": "tokenIds",
          "type": "uint256[]"
        },
        {
          "indexed": true,
          "internalType": "address",
          "name": "issuer",
          "type": "address"
        }
      ],
      "name": "TokensMinted",
      "type": "event"
    },
    {
      "anonymous": false,
      "inputs": [
        {
          "indexed": true,
          "internalType": "address",
          "name": "from",
          "type": "address"
        },
        {
          "indexed": true,
          "internalType": "address",
          "name": "to",
          "type": "address"
        },
        {
          "indexed": true,
          "internalType": "uint256",
          "name": "tokenId",
          "type": "uint256"
        }
      ],
      "name": "Transfer",
      "type": "event"
    },
    {
      "inputs": [
        {
          "internalType": "address",
          "name": "to",
          "type": "address"
        },
        {
          "internalType": "uint256",
          "name": "tokenId",
          "type": "uint256"
        }
      ],
      "name": "approve",
      "outputs": [],
      "stateMutability": "nonpayable",
      "type": "function"
    },
    {
      "inputs": [
        {
          "internalType": "address",
          "name": "owner",
          "type": "address"
        }
      ],
      "name": "balanceOf",
      "outputs": [
        {
          "internalType": "uint256",
          "name": "",
          "type": "uint256"
        }
      ],
      "stateMutability": "view",
      "type": "function"
    },
    {
      "inputs": [
        {
          "internalType": "string",
          "name": "tokenUri",
          "type": "string"
        },
        {
          "internalType": "uint256",
          "name": "quantity",
          "type": "uint256"
        },
        {
          "internalType": "uint256",
          "name": "value",
          "type": "uint256"
        },
        {
          "internalType": "bool",
          "name": "nonTransferable",
          "type": "bool"
        }
      ],
      "name": "bulkMintERC721",
      "outputs": [],
      "stateMutability": "nonpayable",
      "type": "function"
    },
    {
      "inputs": [
        {
          "internalType": "uint256",
          "name": "tokenId",
          "type": "uint256"
        }
      ],
      "name": "getApproved",
      "outputs": [
        {
          "internalType": "address",
          "name": "",
          "type": "address"
        }
      ],
      "stateMutability": "view",
      "type": "function"
    },
    {
      "inputs": [
        {
          "internalType": "address",
          "name": "owner",
          "type": "address"
        },
        {
          "internalType": "address",
          "name": "operator",
          "type": "address"
        }
      ],
      "name": "isApprovedForAll",
      "outputs": [
        {
          "internalType": "bool",
          "name": "",
          "type": "bool"
        }
      ],
      "stateMutability": "view",
      "type": "function"
    },
    {
      "inputs": [],
      "name": "name",
      "outputs": [
        {
          "internalType": "string",
          "name": "",
          "type": "string"
        }
      ],
      "stateMutability": "view",
      "type": "function"
    },
    {
      "inputs": [],
      "name": "owner",
      "outputs": [
        {
          "internalType": "address payable",
          "name": "",
          "type": "address"
        }
      ],
      "stateMutability": "view",
      "type": "function"
    },
    {
      "inputs": [
        {
          "internalType": "uint256",
          "name": "tokenId",
          "type": "uint256"
        }
      ],
      "name": "ownerOf",
      "outputs": [
        {
          "internalType": "address",
          "name": "",
          "type": "address"
        }
      ],
      "stateMutability": "view",
      "type": "function"
    },
    {
      "inputs": [
        {
          "internalType": "address",
          "name": "from",
          "type": "address"
        },
        {
          "internalType": "address",
          "name": "to",
          "type": "address"
        },
        {
          "internalType": "uint256",
          "name": "tokenId",
          "type": "uint256"
        }
      ],
      "name": "safeTransferFrom",
      "outputs": [],
      "stateMutability": "nonpayable",
      "type": "function"
    },
    {
      "inputs": [
        {
          "internalType": "address",
          "name": "from",
          "type": "address"
        },
        {
          "internalType": "address",
          "name": "to",
          "type": "address"
        },
        {
          "internalType": "uint256",
          "name": "tokenId",
          "type": "uint256"
        },
        {
          "internalType": "bytes",
          "name": "data",
          "type": "bytes"
        }
      ],
      "name": "safeTransferFrom",
      "outputs": [],
      "stateMutability": "nonpayable",
      "type": "function"
    },
    {
      "inputs": [
        {
          "internalType": "address",
          "name": "operator",
          "type": "address"
        },
        {
          "internalType": "bool",
          "name": "approved",
          "type": "bool"
        }
      ],
      "name": "setApprovalForAll",
      "outputs": [],
      "stateMutability": "nonpayable",
      "type": "function"
    },
    {
      "inputs": [
        {
          "internalType": "bytes4",
          "name": "interfaceId",
          "type": "bytes4"
        }
      ],
      "name": "supportsInterface",
      "outputs": [
        {
          "internalType": "bool",
          "name": "",
          "type": "bool"
        }
      ],
      "stateMutability": "view",
      "type": "function"
    },
    {
      "inputs": [],
      "name": "symbol",
      "outputs": [
        {
          "internalType": "string",
          "name": "",
          "type": "string"
        }
      ],
      "stateMutability": "view",
      "type": "function"
    },
    {
      "inputs": [
        {
          "internalType": "uint256",
          "name": "tokenId",
          "type": "uint256"
        }
      ],
      "name": "tokenURI",
      "outputs": [
        {
          "internalType": "string",
          "name": "",
          "type": "string"
        }
      ],
      "stateMutability": "view",
      "type": "function"
    },
    {
      "inputs": [
        {
          "internalType": "address",
          "name": "from",
          "type": "address"
        },
        {
          "internalType": "address",
          "name": "to",
          "type": "address"
        },
        {
          "internalType": "uint256",
          "name": "tokenId",
          "type": "uint256"
        }
      ],
      "name": "transferFrom",
      "outputs": [],
      "stateMutability": "nonpayable",
      "type": "function"
    },
    {
      "inputs": [
        {
          "internalType": "address",
          "name": "from",
          "type": "address"
        },
        {
          "internalType": "address",
          "name": "to",
          "type": "address"
        },
        {
          "internalType": "uint256",
          "name": "tokenId",
          "type": "uint256"
        },
        {
          "internalType": "string",
          "name": "tokenURI",
          "type": "string"
        },
        {
          "internalType": "uint256",
          "name": "value",
          "type": "uint256"
        }
      ],
      "name": "transferToken",
      "outputs": [],
      "stateMutability": "nonpayable",
      "type": "function"
    }
  ],
  "bytecode": "0x60806040523480156200001157600080fd5b506040518060400160405280600e81526020017f54727573746966696564546573740000000000000000000000000000000000008152506040518060400160405280600381526020017f544654000000000000000000000000000000000000000000000000000000000081525081600090805190602001906200009692919062000101565b508060019080519060200190620000af92919062000101565b505050600160088190555033600960006101000a81548173ffffffffffffffffffffffffffffffffffffffff021916908373ffffffffffffffffffffffffffffffffffffffff16021790555062000216565b8280546200010f90620001b1565b90600052602060002090601f0160209004810192826200013357600085556200017f565b82601f106200014e57805160ff19168380011785556200017f565b828001600101855582156200017f579182015b828111156200017e57825182559160200191906001019062000161565b5b5090506200018e919062000192565b5090565b5b80821115620001ad57600081600090555060010162000193565b5090565b60006002820490506001821680620001ca57607f821691505b60208210811415620001e157620001e0620001e7565b5b50919050565b7f4e487b7100000000000000000000000000000000000000000000000000000000600052602260045260246000fd5b61346580620002266000396000f3fe608060405234801561001057600080fd5b50600436106101005760003560e01c806370a0823111610097578063a22cb46511610066578063a22cb465146102ab578063b88d4fde146102c7578063c87b56dd146102e3578063e985e9c51461031357610100565b806370a082311461022357806380574834146102535780638da5cb5b1461026f57806395d89b411461028d57610100565b80631ba7ddd2116100d35780631ba7ddd21461019f57806323b872dd146101bb57806342842e0e146101d75780636352211e146101f357610100565b806301ffc9a71461010557806306fdde0314610135578063081812fc14610153578063095ea7b314610183575b600080fd5b61011f600480360381019061011a9190612482565b610343565b60405161012c9190612a1f565b60405180910390f35b61013d610425565b60405161014a9190612a3a565b60405180910390f35b61016d60048036038101906101689190612554565b6104b7565b60405161017a919061297b565b60405180910390f35b61019d60048036038101906101989190612446565b6104fd565b005b6101b960048036038101906101b491906124d4565b610615565b005b6101d560048036038101906101d091906122ae565b61092e565b005b6101f160048036038101906101ec91906122ae565b61098e565b005b61020d60048036038101906102089190612554565b6109ae565b60405161021a919061297b565b60405180910390f35b61023d60048036038101906102389190612249565b610a35565b60405161024a9190612c9c565b60405180910390f35b61026d60048036038101906102689190612378565b610aed565b005b610277610c4d565b6040516102849190612996565b60405180910390f35b610295610c73565b6040516102a29190612a3a565b60405180910390f35b6102c560048036038101906102c0919061240a565b610d05565b005b6102e160048036038101906102dc91906122fd565b610d1b565b005b6102fd60048036038101906102f89190612554565b610d7d565b60405161030a9190612a3a565b60405180910390f35b61032d60048036038101906103289190612272565b610e90565b60405161033a9190612a1f565b60405180910390f35b60007f80ac58cd000000000000000000000000000000000000000000000000000000007bffffffffffffffffffffffffffffffffffffffffffffffffffffffff1916827bffffffffffffffffffffffffffffffffffffffffffffffffffffffff1916148061040e57507f5b5e139f000000000000000000000000000000000000000000000000000000007bffffffffffffffffffffffffffffffffffffffffffffffffffffffff1916827bffffffffffffffffffffffffffffffffffffffffffffffffffffffff1916145b8061041e575061041d82610f24565b5b9050919050565b60606000805461043490612e51565b80601f016020809104026020016040519081016040528092919081815260200182805461046090612e51565b80156104ad5780601f10610482576101008083540402835291602001916104ad565b820191906000526020600020905b81548152906001019060200180831161049057829003601f168201915b5050505050905090565b60006104c282610f8e565b6004600083815260200190815260200160002060009054906101000a900473ffffffffffffffffffffffffffffffffffffffff169050919050565b6000610508826109ae565b90508073ffffffffffffffffffffffffffffffffffffffff168373ffffffffffffffffffffffffffffffffffffffff161415610579576040517f08c379a000000000000000000000000000000000000000000000000000000000815260040161057090612c1c565b60405180910390fd5b8073ffffffffffffffffffffffffffffffffffffffff16610598610fd9565b73ffffffffffffffffffffffffffffffffffffffff1614806105c757506105c6816105c1610fd9565b610e90565b5b610606576040517f08c379a00000000000000000000000000000000000000000000000000000000081526004016105fd90612c3c565b60405180910390fd5b6106108383610fe1565b505050565b61061d61109a565b60008311610660576040517f08c379a000000000000000000000000000000000000000000000000000000000815260040161065790612b7c565b60405180910390fd5b60008210158015610672575060018211155b6106b1576040517f08c379a00000000000000000000000000000000000000000000000000000000081526004016106a890612bdc565b60405180910390fd5b60006106bd600b6110ea565b90506106c9600b6110f8565b60008467ffffffffffffffff81111561070b577f4e487b7100000000000000000000000000000000000000000000000000000000600052604160045260246000fd5b6040519080825280602002602001820160405280156107395781602001602082028036833780820191505090505b50905060005b858110156108cd57600061075489898861110e565b905060405180608001604052808281526020013373ffffffffffffffffffffffffffffffffffffffff1681526020013373ffffffffffffffffffffffffffffffffffffffff168152602001861515815250600c60008381526020019081526020016000206000820151816000015560208201518160010160006101000a81548173ffffffffffffffffffffffffffffffffffffffff021916908373ffffffffffffffffffffffffffffffffffffffff16021790555060408201518160020160006101000a81548173ffffffffffffffffffffffffffffffffffffffff021916908373ffffffffffffffffffffffffffffffffffffffff16021790555060608201518160020160146101000a81548160ff021916908315150217905550905050808383815181106108ad577f4e487b7100000000000000000000000000000000000000000000000000000000600052603260045260246000fd5b6020026020010181815250505080806108c590612eb4565b91505061073f565b503373ffffffffffffffffffffffffffffffffffffffff16827f88c55e90330027a4740cd7d2bafb3fc31c21bbaa17745d80b328c53c4916ebf48360405161091591906129fd565b60405180910390a350506109276111da565b5050505050565b61093f610939610fd9565b826111e4565b61097e576040517f08c379a000000000000000000000000000000000000000000000000000000000815260040161097590612a7c565b60405180910390fd5b610989838383611279565b505050565b6109a983838360405180602001604052806000815250610d1b565b505050565b6000806109ba83611573565b9050600073ffffffffffffffffffffffffffffffffffffffff168173ffffffffffffffffffffffffffffffffffffffff161415610a2c576040517f08c379a0000000000000000000000000000000000000000000000000000000008152600401610a2390612bfc565b60405180910390fd5b80915050919050565b60008073ffffffffffffffffffffffffffffffffffffffff168273ffffffffffffffffffffffffffffffffffffffff161415610aa6576040517f08c379a0000000000000000000000000000000000000000000000000000000008152600401610a9d90612b5c565b60405180910390fd5b600360008373ffffffffffffffffffffffffffffffffffffffff1673ffffffffffffffffffffffffffffffffffffffff168152602001908152602001600020549050919050565b610af561109a565b60008110158015610b07575060018111155b610b46576040517f08c379a0000000000000000000000000000000000000000000000000000000008152600401610b3d90612bdc565b60405180910390fd5b6001811415610b9e57610b9d8484848080601f016020809104026020016040519081016040528093929190818152602001838380828437600081840152601f19601f820116905080830192505050505050506115b0565b5b3073ffffffffffffffffffffffffffffffffffffffff168673ffffffffffffffffffffffffffffffffffffffff1614610c3157610bdb33856111e4565b610c1a576040517f08c379a0000000000000000000000000000000000000000000000000000000008152600401610c1190612c5c565b60405180910390fd5b610c2c610c25610fd9565b8686611279565b610c3d565b610c3c868686611279565b5b610c456111da565b505050505050565b600960009054906101000a900473ffffffffffffffffffffffffffffffffffffffff1681565b606060018054610c8290612e51565b80601f0160208091040260200160405190810160405280929190818152602001828054610cae90612e51565b8015610cfb5780601f10610cd057610100808354040283529160200191610cfb565b820191906000526020600020905b815481529060010190602001808311610cde57829003601f168201915b5050505050905090565b610d17610d10610fd9565b8383611624565b5050565b610d2c610d26610fd9565b836111e4565b610d6b576040517f08c379a0000000000000000000000000000000000000000000000000000000008152600401610d6290612a7c565b60405180910390fd5b610d7784848484611791565b50505050565b6060610d8882610f8e565b6000600660008481526020019081526020016000208054610da890612e51565b80601f0160208091040260200160405190810160405280929190818152602001828054610dd490612e51565b8015610e215780601f10610df657610100808354040283529160200191610e21565b820191906000526020600020905b815481529060010190602001808311610e0457829003601f168201915b505050505090506000610e326117ed565b9050600081511415610e48578192505050610e8b565b600082511115610e7d578082604051602001610e65929190612957565b60405160208183030381529060405292505050610e8b565b610e8684611804565b925050505b919050565b6000600560008473ffffffffffffffffffffffffffffffffffffffff1673ffffffffffffffffffffffffffffffffffffffff16815260200190815260200160002060008373ffffffffffffffffffffffffffffffffffffffff1673ffffffffffffffffffffffffffffffffffffffff16815260200190815260200160002060009054906101000a900460ff16905092915050565b60007f01ffc9a7000000000000000000000000000000000000000000000000000000007bffffffffffffffffffffffffffffffffffffffffffffffffffffffff1916827bffffffffffffffffffffffffffffffffffffffffffffffffffffffff1916149050919050565b610f978161186c565b610fd6576040517f08c379a0000000000000000000000000000000000000000000000000000000008152600401610fcd90612bfc565b60405180910390fd5b50565b600033905090565b816004600083815260200190815260200160002060006101000a81548173ffffffffffffffffffffffffffffffffffffffff021916908373ffffffffffffffffffffffffffffffffffffffff160217905550808273ffffffffffffffffffffffffffffffffffffffff16611054836109ae565b73ffffffffffffffffffffffffffffffffffffffff167f8c5be1e5ebec7d5bd14f71427d1e84f3dd0314c0f7b2291e5b200ac8c7c3b92560405160405180910390a45050565b600260085414156110e0576040517f08c379a00000000000000000000000000000000000000000000000000000000081526004016110d790612c7c565b60405180910390fd5b6002600881905550565b600081600001549050919050565b6001816000016000828254019250508190555050565b60008061111b600a6110ea565b9050611127600a6110f8565b61113130826118ad565b60008314156111cf5760008585905011611180576040517f08c379a000000000000000000000000000000000000000000000000000000000815260040161117790612b3c565b60405180910390fd5b6111ce8186868080601f016020809104026020016040519081016040528093929190818152602001838380828437600081840152601f19601f820116905080830192505050505050506115b0565b5b809150509392505050565b6001600881905550565b6000806111f0836109ae565b90508073ffffffffffffffffffffffffffffffffffffffff168473ffffffffffffffffffffffffffffffffffffffff16148061123257506112318185610e90565b5b8061127057508373ffffffffffffffffffffffffffffffffffffffff16611258846104b7565b73ffffffffffffffffffffffffffffffffffffffff16145b91505092915050565b8273ffffffffffffffffffffffffffffffffffffffff16611299826109ae565b73ffffffffffffffffffffffffffffffffffffffff16146112ef576040517f08c379a00000000000000000000000000000000000000000000000000000000081526004016112e690612abc565b60405180910390fd5b600073ffffffffffffffffffffffffffffffffffffffff168273ffffffffffffffffffffffffffffffffffffffff16141561135f576040517f08c379a000000000000000000000000000000000000000000000000000000000815260040161135690612afc565b60405180910390fd5b61136c8383836001611acb565b8273ffffffffffffffffffffffffffffffffffffffff1661138c826109ae565b73ffffffffffffffffffffffffffffffffffffffff16146113e2576040517f08c379a00000000000000000000000000000000000000000000000000000000081526004016113d990612abc565b60405180910390fd5b6004600082815260200190815260200160002060006101000a81549073ffffffffffffffffffffffffffffffffffffffff02191690556001600360008573ffffffffffffffffffffffffffffffffffffffff1673ffffffffffffffffffffffffffffffffffffffff168152602001908152602001600020600082825403925050819055506001600360008473ffffffffffffffffffffffffffffffffffffffff1673ffffffffffffffffffffffffffffffffffffffff16815260200190815260200160002060008282540192505081905550816002600083815260200190815260200160002060006101000a81548173ffffffffffffffffffffffffffffffffffffffff021916908373ffffffffffffffffffffffffffffffffffffffff160217905550808273ffffffffffffffffffffffffffffffffffffffff168473ffffffffffffffffffffffffffffffffffffffff167fddf252ad1be2c89b69c2b068fc378daa952ba7f163c4a11628f55a4df523b3ef60405160405180910390a461156e8383836001611b70565b505050565b60006002600083815260200190815260200160002060009054906101000a900473ffffffffffffffffffffffffffffffffffffffff169050919050565b6115b98261186c565b6115f8576040517f08c379a00000000000000000000000000000000000000000000000000000000081526004016115ef90612b9c565b60405180910390fd5b8060066000848152602001908152602001600020908051906020019061161f92919061208b565b505050565b8173ffffffffffffffffffffffffffffffffffffffff168373ffffffffffffffffffffffffffffffffffffffff161415611693576040517f08c379a000000000000000000000000000000000000000000000000000000000815260040161168a90612b1c565b60405180910390fd5b80600560008573ffffffffffffffffffffffffffffffffffffffff1673ffffffffffffffffffffffffffffffffffffffff16815260200190815260200160002060008473ffffffffffffffffffffffffffffffffffffffff1673ffffffffffffffffffffffffffffffffffffffff16815260200190815260200160002060006101000a81548160ff0219169083151502179055508173ffffffffffffffffffffffffffffffffffffffff168373ffffffffffffffffffffffffffffffffffffffff167f17307eab39ab6107e8899845ad3d59bd9653f200f220920489ca2b5937696c31836040516117849190612a1f565b60405180910390a3505050565b61179c848484611279565b6117a884848484611b76565b6117e7576040517f08c379a00000000000000000000000000000000000000000000000000000000081526004016117de90612a9c565b60405180910390fd5b50505050565b606060405180602001604052806000815250905090565b606061180f82610f8e565b60006118196117ed565b905060008151116118395760405180602001604052806000815250611864565b8061184384611d0d565b604051602001611854929190612957565b6040516020818303038152906040525b915050919050565b60008073ffffffffffffffffffffffffffffffffffffffff1661188e83611573565b73ffffffffffffffffffffffffffffffffffffffff1614159050919050565b600073ffffffffffffffffffffffffffffffffffffffff168273ffffffffffffffffffffffffffffffffffffffff16141561191d576040517f08c379a000000000000000000000000000000000000000000000000000000000815260040161191490612bbc565b60405180910390fd5b6119268161186c565b15611966576040517f08c379a000000000000000000000000000000000000000000000000000000000815260040161195d90612adc565b60405180910390fd5b611974600083836001611acb565b61197d8161186c565b156119bd576040517f08c379a00000000000000000000000000000000000000000000000000000000081526004016119b490612adc565b60405180910390fd5b6001600360008473ffffffffffffffffffffffffffffffffffffffff1673ffffffffffffffffffffffffffffffffffffffff16815260200190815260200160002060008282540192505081905550816002600083815260200190815260200160002060006101000a81548173ffffffffffffffffffffffffffffffffffffffff021916908373ffffffffffffffffffffffffffffffffffffffff160217905550808273ffffffffffffffffffffffffffffffffffffffff16600073ffffffffffffffffffffffffffffffffffffffff167fddf252ad1be2c89b69c2b068fc378daa952ba7f163c4a11628f55a4df523b3ef60405160405180910390a4611ac7600083836001611b70565b5050565b3073ffffffffffffffffffffffffffffffffffffffff168473ffffffffffffffffffffffffffffffffffffffff1614611b6a5760011515600c600084815260200190815260200160002060020160149054906101000a900460ff1615151415611b69576040517f08c379a0000000000000000000000000000000000000000000000000000000008152600401611b6090612a5c565b60405180910390fd5b5b50505050565b50505050565b6000611b978473ffffffffffffffffffffffffffffffffffffffff16611e31565b15611d00578373ffffffffffffffffffffffffffffffffffffffff1663150b7a02611bc0610fd9565b8786866040518563ffffffff1660e01b8152600401611be294939291906129b1565b602060405180830381600087803b158015611bfc57600080fd5b505af1925050508015611c2d57506040513d601f19601f82011682018060405250810190611c2a91906124ab565b60015b611cb0573d8060008114611c5d576040519150601f19603f3d011682016040523d82523d6000602084013e611c62565b606091505b50600081511415611ca8576040517f08c379a0000000000000000000000000000000000000000000000000000000008152600401611c9f90612a9c565b60405180910390fd5b805181602001fd5b63150b7a0260e01b7bffffffffffffffffffffffffffffffffffffffffffffffffffffffff1916817bffffffffffffffffffffffffffffffffffffffffffffffffffffffff191614915050611d05565b600190505b949350505050565b606060006001611d1c84611e54565b01905060008167ffffffffffffffff811115611d61577f4e487b7100000000000000000000000000000000000000000000000000000000600052604160045260246000fd5b6040519080825280601f01601f191660200182016040528015611d935781602001600182028036833780820191505090505b509050600082602001820190505b600115611e26578080600190039150507f3031323334353637383961626364656600000000000000000000000000000000600a86061a8153600a8581611e10577f4e487b7100000000000000000000000000000000000000000000000000000000600052601260045260246000fd5b0494506000851415611e2157611e26565b611da1565b819350505050919050565b6000808273ffffffffffffffffffffffffffffffffffffffff163b119050919050565b600080600090507a184f03e93ff9f4daa797ed6e38ed64bf6a1f0100000000000000008310611ed8577a184f03e93ff9f4daa797ed6e38ed64bf6a1f0100000000000000008381611ece577f4e487b7100000000000000000000000000000000000000000000000000000000600052601260045260246000fd5b0492506040810190505b6d04ee2d6d415b85acef81000000008310611f3b576d04ee2d6d415b85acef81000000008381611f31577f4e487b7100000000000000000000000000000000000000000000000000000000600052601260045260246000fd5b0492506020810190505b662386f26fc100008310611f9057662386f26fc100008381611f86577f4e487b7100000000000000000000000000000000000000000000000000000000600052601260045260246000fd5b0492506010810190505b6305f5e1008310611fdf576305f5e1008381611fd5577f4e487b7100000000000000000000000000000000000000000000000000000000600052601260045260246000fd5b0492506008810190505b612710831061202a576127108381612020577f4e487b7100000000000000000000000000000000000000000000000000000000600052601260045260246000fd5b0492506004810190505b606483106120735760648381612069577f4e487b7100000000000000000000000000000000000000000000000000000000600052601260045260246000fd5b0492506002810190505b600a8310612082576001810190505b80915050919050565b82805461209790612e51565b90600052602060002090601f0160209004810192826120b95760008555612100565b82601f106120d257805160ff1916838001178555612100565b82800160010185558215612100579182015b828111156120ff5782518255916020019190600101906120e4565b5b50905061210d9190612111565b5090565b5b8082111561212a576000816000905550600101612112565b5090565b600061214161213c84612cdc565b612cb7565b90508281526020810184848401111561215957600080fd5b612164848285612e0f565b509392505050565b60008135905061217b816133d3565b92915050565b600081359050612190816133ea565b92915050565b6000813590506121a581613401565b92915050565b6000815190506121ba81613401565b92915050565b600082601f8301126121d157600080fd5b81356121e184826020860161212e565b91505092915050565b60008083601f8401126121fc57600080fd5b8235905067ffffffffffffffff81111561221557600080fd5b60208301915083600182028301111561222d57600080fd5b9250929050565b60008135905061224381613418565b92915050565b60006020828403121561225b57600080fd5b60006122698482850161216c565b91505092915050565b6000806040838503121561228557600080fd5b60006122938582860161216c565b92505060206122a48582860161216c565b9150509250929050565b6000806000606084860312156122c357600080fd5b60006122d18682870161216c565b93505060206122e28682870161216c565b92505060406122f386828701612234565b9150509250925092565b6000806000806080858703121561231357600080fd5b60006123218782880161216c565b94505060206123328782880161216c565b935050604061234387828801612234565b925050606085013567ffffffffffffffff81111561236057600080fd5b61236c878288016121c0565b91505092959194509250565b60008060008060008060a0878903121561239157600080fd5b600061239f89828a0161216c565b96505060206123b089828a0161216c565b95505060406123c189828a01612234565b945050606087013567ffffffffffffffff8111156123de57600080fd5b6123ea89828a016121ea565b935093505060806123fd89828a01612234565b9150509295509295509295565b6000806040838503121561241d57600080fd5b600061242b8582860161216c565b925050602061243c85828601612181565b9150509250929050565b6000806040838503121561245957600080fd5b60006124678582860161216c565b925050602061247885828601612234565b9150509250929050565b60006020828403121561249457600080fd5b60006124a284828501612196565b91505092915050565b6000602082840312156124bd57600080fd5b60006124cb848285016121ab565b91505092915050565b6000806000806000608086880312156124ec57600080fd5b600086013567ffffffffffffffff81111561250657600080fd5b612512888289016121ea565b9550955050602061252588828901612234565b935050604061253688828901612234565b925050606061254788828901612181565b9150509295509295909350565b60006020828403121561256657600080fd5b600061257484828501612234565b91505092915050565b60006125898383612939565b60208301905092915050565b61259e81612d9b565b82525050565b6125ad81612d89565b82525050565b60006125be82612d1d565b6125c88185612d4b565b93506125d383612d0d565b8060005b838110156126045781516125eb888261257d565b97506125f683612d3e565b9250506001810190506125d7565b5085935050505092915050565b61261a81612dad565b82525050565b600061262b82612d28565b6126358185612d5c565b9350612645818560208601612e1e565b61264e81612f8a565b840191505092915050565b600061266482612d33565b61266e8185612d6d565b935061267e818560208601612e1e565b61268781612f8a565b840191505092915050565b600061269d82612d33565b6126a78185612d7e565b93506126b7818560208601612e1e565b80840191505092915050565b60006126d0601d83612d6d565b91506126db82612f9b565b602082019050919050565b60006126f3602d83612d6d565b91506126fe82612fc4565b604082019050919050565b6000612716603283612d6d565b915061272182613013565b604082019050919050565b6000612739602583612d6d565b915061274482613062565b604082019050919050565b600061275c601c83612d6d565b9150612767826130b1565b602082019050919050565b600061277f602483612d6d565b915061278a826130da565b604082019050919050565b60006127a2601983612d6d565b91506127ad82613129565b602082019050919050565b60006127c5601b83612d6d565b91506127d082613152565b602082019050919050565b60006127e8602983612d6d565b91506127f38261317b565b604082019050919050565b600061280b601083612d6d565b9150612816826131ca565b602082019050919050565b600061282e602e83612d6d565b9150612839826131f3565b604082019050919050565b6000612851602083612d6d565b915061285c82613242565b602082019050919050565b6000612874600d83612d6d565b915061287f8261326b565b602082019050919050565b6000612897601883612d6d565b91506128a282613294565b602082019050919050565b60006128ba602183612d6d565b91506128c5826132bd565b604082019050919050565b60006128dd603d83612d6d565b91506128e88261330c565b604082019050919050565b6000612900603183612d6d565b915061290b8261335b565b604082019050919050565b6000612923601f83612d6d565b915061292e826133aa565b602082019050919050565b61294281612e05565b82525050565b61295181612e05565b82525050565b60006129638285612692565b915061296f8284612692565b91508190509392505050565b600060208201905061299060008301846125a4565b92915050565b60006020820190506129ab6000830184612595565b92915050565b60006080820190506129c660008301876125a4565b6129d360208301866125a4565b6129e06040830185612948565b81810360608301526129f28184612620565b905095945050505050565b60006020820190508181036000830152612a1781846125b3565b905092915050565b6000602082019050612a346000830184612611565b92915050565b60006020820190508181036000830152612a548184612659565b905092915050565b60006020820190508181036000830152612a75816126c3565b9050919050565b60006020820190508181036000830152612a95816126e6565b9050919050565b60006020820190508181036000830152612ab581612709565b9050919050565b60006020820190508181036000830152612ad58161272c565b9050919050565b60006020820190508181036000830152612af58161274f565b9050919050565b60006020820190508181036000830152612b1581612772565b9050919050565b60006020820190508181036000830152612b3581612795565b9050919050565b60006020820190508181036000830152612b55816127b8565b9050919050565b60006020820190508181036000830152612b75816127db565b9050919050565b60006020820190508181036000830152612b95816127fe565b9050919050565b60006020820190508181036000830152612bb581612821565b9050919050565b60006020820190508181036000830152612bd581612844565b9050919050565b60006020820190508181036000830152612bf581612867565b9050919050565b60006020820190508181036000830152612c158161288a565b9050919050565b60006020820190508181036000830152612c35816128ad565b9050919050565b60006020820190508181036000830152612c55816128d0565b9050919050565b60006020820190508181036000830152612c75816128f3565b9050919050565b60006020820190508181036000830152612c9581612916565b9050919050565b6000602082019050612cb16000830184612948565b92915050565b6000612cc1612cd2565b9050612ccd8282612e83565b919050565b6000604051905090565b600067ffffffffffffffff821115612cf757612cf6612f5b565b5b612d0082612f8a565b9050602081019050919050565b6000819050602082019050919050565b600081519050919050565b600081519050919050565b600081519050919050565b6000602082019050919050565b600082825260208201905092915050565b600082825260208201905092915050565b600082825260208201905092915050565b600081905092915050565b6000612d9482612de5565b9050919050565b6000612da682612de5565b9050919050565b60008115159050919050565b60007fffffffff0000000000000000000000000000000000000000000000000000000082169050919050565b600073ffffffffffffffffffffffffffffffffffffffff82169050919050565b6000819050919050565b82818337600083830152505050565b60005b83811015612e3c578082015181840152602081019050612e21565b83811115612e4b576000848401525b50505050565b60006002820490506001821680612e6957607f821691505b60208210811415612e7d57612e7c612f2c565b5b50919050565b612e8c82612f8a565b810181811067ffffffffffffffff82111715612eab57612eaa612f5b565b5b80604052505050565b6000612ebf82612e05565b91507fffffffffffffffffffffffffffffffffffffffffffffffffffffffffffffffff821415612ef257612ef1612efd565b5b600182019050919050565b7f4e487b7100000000000000000000000000000000000000000000000000000000600052601160045260246000fd5b7f4e487b7100000000000000000000000000000000000000000000000000000000600052602260045260246000fd5b7f4e487b7100000000000000000000000000000000000000000000000000000000600052604160045260246000fd5b6000601f19601f8301169050919050565b7f4e6f7420616c6c6f77656420746f207472616e7366657220746f6b656e000000600082015250565b7f4552433732313a2063616c6c6572206973206e6f7420746f6b656e206f776e6560008201527f72206f7220617070726f76656400000000000000000000000000000000000000602082015250565b7f4552433732313a207472616e7366657220746f206e6f6e20455243373231526560008201527f63656976657220696d706c656d656e7465720000000000000000000000000000602082015250565b7f4552433732313a207472616e736665722066726f6d20696e636f72726563742060008201527f6f776e6572000000000000000000000000000000000000000000000000000000602082015250565b7f4552433732313a20746f6b656e20616c7265616479206d696e74656400000000600082015250565b7f4552433732313a207472616e7366657220746f20746865207a65726f2061646460008201527f7265737300000000000000000000000000000000000000000000000000000000602082015250565b7f4552433732313a20617070726f766520746f2063616c6c657200000000000000600082015250565b7f546f6b656e20555249206d757374206e6f7420626520656d7074790000000000600082015250565b7f4552433732313a2061646472657373207a65726f206973206e6f74206120766160008201527f6c6964206f776e65720000000000000000000000000000000000000000000000602082015250565b7f496e76616c6964207175616e7469747900000000000000000000000000000000600082015250565b7f45524337323155524953746f726167653a2055524920736574206f66206e6f6e60008201527f6578697374656e7420746f6b656e000000000000000000000000000000000000602082015250565b7f4552433732313a206d696e7420746f20746865207a65726f2061646472657373600082015250565b7f496e76616c69642076616c756500000000000000000000000000000000000000600082015250565b7f4552433732313a20696e76616c696420746f6b656e2049440000000000000000600082015250565b7f4552433732313a20617070726f76616c20746f2063757272656e74206f776e6560008201527f7200000000000000000000000000000000000000000000000000000000000000602082015250565b7f4552433732313a20617070726f76652063616c6c6572206973206e6f7420746f60008201527f6b656e206f776e6572206f7220617070726f76656420666f7220616c6c000000602082015250565b7f4552433732313a207472616e736665722063616c6c6572206973206e6f74206f60008201527f776e6572206e6f7220617070726f766564000000000000000000000000000000602082015250565b7f5265656e7472616e637947756172643a207265656e7472616e742063616c6c00600082015250565b6133dc81612d89565b81146133e757600080fd5b50565b6133f381612dad565b81146133fe57600080fd5b50565b61340a81612db9565b811461341557600080fd5b50565b61342181612e05565b811461342c57600080fd5b5056fea264697066735822122068daf945edcb2b4fc6bcb42f965c1067b617798e8e2893ac195778465919fe7c64736f6c63430008040033",
  "linkReferences": {},
  "deployedLinkReferences": {}
}