{
  "_format": "hh-sol-artifact-1",
  "contractName": "TrustifiedIssuer",
  "sourceName": "contracts/TrustifiedIssuer.sol",
  "abi": [
    {
      "inputs": [
        {
          "internalType": "address[]",
          "name": "wallets",
          "type": "address[]"
        },
        {
          "internalType": "bool[]",
          "name": "allowed",
          "type": "bool[]"
        }
      ],
      "stateMutability": "nonpayable",
      "type": "constructor"
    },
    {
      "anonymous": false,
      "inputs": [
        {
          "indexed": true,
          "internalType": "address",
          "name": "owner",
          "type": "address"
        },
        {
          "indexed": true,
          "internalType": "address",
          "name": "approved",
          "type": "address"
        },
        {
          "indexed": true,
          "internalType": "uint256",
          "name": "tokenId",
          "type": "uint256"
        }
      ],
      "name": "Approval",
      "type": "event"
    },
    {
      "anonymous": false,
      "inputs": [
        {
          "indexed": true,
          "internalType": "address",
          "name": "owner",
          "type": "address"
        },
        {
          "indexed": true,
          "internalType": "address",
          "name": "operator",
          "type": "address"
        },
        {
          "indexed": false,
          "internalType": "bool",
          "name": "approved",
          "type": "bool"
        }
      ],
      "name": "ApprovalForAll",
      "type": "event"
    },
    {
      "anonymous": false,
      "inputs": [
        {
          "indexed": true,
          "internalType": "address",
          "name": "from",
          "type": "address"
        },
        {
          "indexed": true,
          "internalType": "address",
          "name": "to",
          "type": "address"
        },
        {
          "indexed": true,
          "internalType": "uint256",
          "name": "tokenId",
          "type": "uint256"
        }
      ],
      "name": "Transfer",
      "type": "event"
    },
    {
      "inputs": [
        {
          "internalType": "address",
          "name": "to",
          "type": "address"
        },
        {
          "internalType": "uint256",
          "name": "tokenId",
          "type": "uint256"
        }
      ],
      "name": "approve",
      "outputs": [],
      "stateMutability": "nonpayable",
      "type": "function"
    },
    {
      "inputs": [
        {
          "internalType": "address",
          "name": "owner",
          "type": "address"
        }
      ],
      "name": "balanceOf",
      "outputs": [
        {
          "internalType": "uint256",
          "name": "",
          "type": "uint256"
        }
      ],
      "stateMutability": "view",
      "type": "function"
    },
    {
      "inputs": [
        {
          "internalType": "string",
          "name": "tokenURI",
          "type": "string"
        },
        {
          "internalType": "address[]",
          "name": "issuers",
          "type": "address[]"
        }
      ],
      "name": "createTokens",
      "outputs": [],
      "stateMutability": "nonpayable",
      "type": "function"
    },
    {
      "inputs": [
        {
          "internalType": "uint256",
          "name": "tokenId",
          "type": "uint256"
        }
      ],
      "name": "getApproved",
      "outputs": [
        {
          "internalType": "address",
          "name": "",
          "type": "address"
        }
      ],
      "stateMutability": "view",
      "type": "function"
    },
    {
      "inputs": [
        {
          "internalType": "address",
          "name": "owner",
          "type": "address"
        },
        {
          "internalType": "address",
          "name": "operator",
          "type": "address"
        }
      ],
      "name": "isApprovedForAll",
      "outputs": [
        {
          "internalType": "bool",
          "name": "",
          "type": "bool"
        }
      ],
      "stateMutability": "view",
      "type": "function"
    },
    {
      "inputs": [],
      "name": "name",
      "outputs": [
        {
          "internalType": "string",
          "name": "",
          "type": "string"
        }
      ],
      "stateMutability": "view",
      "type": "function"
    },
    {
      "inputs": [],
      "name": "owner",
      "outputs": [
        {
          "internalType": "address",
          "name": "",
          "type": "address"
        }
      ],
      "stateMutability": "view",
      "type": "function"
    },
    {
      "inputs": [
        {
          "internalType": "uint256",
          "name": "tokenId",
          "type": "uint256"
        }
      ],
      "name": "ownerOf",
      "outputs": [
        {
          "internalType": "address",
          "name": "",
          "type": "address"
        }
      ],
      "stateMutability": "view",
      "type": "function"
    },
    {
      "inputs": [
        {
          "internalType": "address",
          "name": "from",
          "type": "address"
        },
        {
          "internalType": "address",
          "name": "to",
          "type": "address"
        },
        {
          "internalType": "uint256",
          "name": "tokenId",
          "type": "uint256"
        }
      ],
      "name": "safeTransferFrom",
      "outputs": [],
      "stateMutability": "nonpayable",
      "type": "function"
    },
    {
      "inputs": [
        {
          "internalType": "address",
          "name": "from",
          "type": "address"
        },
        {
          "internalType": "address",
          "name": "to",
          "type": "address"
        },
        {
          "internalType": "uint256",
          "name": "tokenId",
          "type": "uint256"
        },
        {
          "internalType": "bytes",
          "name": "data",
          "type": "bytes"
        }
      ],
      "name": "safeTransferFrom",
      "outputs": [],
      "stateMutability": "nonpayable",
      "type": "function"
    },
    {
      "inputs": [
        {
          "internalType": "address",
          "name": "wallet",
          "type": "address"
        },
        {
          "internalType": "bool",
          "name": "allowed",
          "type": "bool"
        }
      ],
      "name": "setAllowedWallet",
      "outputs": [],
      "stateMutability": "nonpayable",
      "type": "function"
    },
    {
      "inputs": [
        {
          "internalType": "address",
          "name": "operator",
          "type": "address"
        },
        {
          "internalType": "bool",
          "name": "approved",
          "type": "bool"
        }
      ],
      "name": "setApprovalForAll",
      "outputs": [],
      "stateMutability": "nonpayable",
      "type": "function"
    },
    {
      "inputs": [
        {
          "internalType": "bytes4",
          "name": "interfaceId",
          "type": "bytes4"
        }
      ],
      "name": "supportsInterface",
      "outputs": [
        {
          "internalType": "bool",
          "name": "",
          "type": "bool"
        }
      ],
      "stateMutability": "view",
      "type": "function"
    },
    {
      "inputs": [],
      "name": "symbol",
      "outputs": [
        {
          "internalType": "string",
          "name": "",
          "type": "string"
        }
      ],
      "stateMutability": "view",
      "type": "function"
    },
    {
      "inputs": [
        {
          "internalType": "uint256",
          "name": "tokenId",
          "type": "uint256"
        }
      ],
      "name": "tokenURI",
      "outputs": [
        {
          "internalType": "string",
          "name": "",
          "type": "string"
        }
      ],
      "stateMutability": "view",
      "type": "function"
    },
    {
      "inputs": [
        {
          "internalType": "address",
          "name": "from",
          "type": "address"
        },
        {
          "internalType": "address",
          "name": "to",
          "type": "address"
        },
        {
          "internalType": "uint256",
          "name": "tokenId",
          "type": "uint256"
        }
      ],
      "name": "transferFrom",
      "outputs": [],
      "stateMutability": "nonpayable",
      "type": "function"
    }
  ],
  "bytecode": "0x60806040523480156200001157600080fd5b50604051620034a1380380620034a183398181016040528101906200003791906200044b565b6040518060400160405280601281526020017f54727573746966696564497373756572763500000000000000000000000000008152506040518060400160405280600481526020017f54497635000000000000000000000000000000000000000000000000000000008152508160009080519060200190620000bb92919062000229565b508060019080519060200190620000d492919062000229565b50505033600960006101000a81548173ffffffffffffffffffffffffffffffffffffffff021916908373ffffffffffffffffffffffffffffffffffffffff16021790555060005b82518161ffff1610156200022057818161ffff168151811062000167577f4e487b7100000000000000000000000000000000000000000000000000000000600052603260045260246000fd5b6020026020010151600a6000858461ffff1681518110620001b1577f4e487b7100000000000000000000000000000000000000000000000000000000600052603260045260246000fd5b602002602001015173ffffffffffffffffffffffffffffffffffffffff1673ffffffffffffffffffffffffffffffffffffffff16815260200190815260200160002060006101000a81548160ff02191690831515021790555080806200021790620005ff565b9150506200011b565b50505062000701565b828054620002379062000593565b90600052602060002090601f0160209004810192826200025b5760008555620002a7565b82601f106200027657805160ff1916838001178555620002a7565b82800160010185558215620002a7579182015b82811115620002a657825182559160200191906001019062000289565b5b509050620002b69190620002ba565b5090565b5b80821115620002d5576000816000905550600101620002bb565b5090565b6000620002f0620002ea84620004e7565b620004be565b905080838252602082019050828560208602820111156200031057600080fd5b60005b85811015620003445781620003298882620003c3565b84526020840193506020830192505060018101905062000313565b5050509392505050565b6000620003656200035f8462000516565b620004be565b905080838252602082019050828560208602820111156200038557600080fd5b60005b85811015620003b957816200039e888262000434565b84526020840193506020830192505060018101905062000388565b5050509392505050565b600081519050620003d481620006cd565b92915050565b600082601f830112620003ec57600080fd5b8151620003fe848260208601620002d9565b91505092915050565b600082601f8301126200041957600080fd5b81516200042b8482602086016200034e565b91505092915050565b6000815190506200044581620006e7565b92915050565b600080604083850312156200045f57600080fd5b600083015167ffffffffffffffff8111156200047a57600080fd5b6200048885828601620003da565b925050602083015167ffffffffffffffff811115620004a657600080fd5b620004b48582860162000407565b9150509250929050565b6000620004ca620004dd565b9050620004d88282620005c9565b919050565b6000604051905090565b600067ffffffffffffffff8211156200050557620005046200068d565b5b602082029050602081019050919050565b600067ffffffffffffffff8211156200053457620005336200068d565b5b602082029050602081019050919050565b6000620005528262000573565b9050919050565b60008115159050919050565b600061ffff82169050919050565b600073ffffffffffffffffffffffffffffffffffffffff82169050919050565b60006002820490506001821680620005ac57607f821691505b60208210811415620005c357620005c26200065e565b5b50919050565b620005d482620006bc565b810181811067ffffffffffffffff82111715620005f657620005f56200068d565b5b80604052505050565b60006200060c8262000565565b915061ffff8214156200062457620006236200062f565b5b600182019050919050565b7f4e487b7100000000000000000000000000000000000000000000000000000000600052601160045260246000fd5b7f4e487b7100000000000000000000000000000000000000000000000000000000600052602260045260246000fd5b7f4e487b7100000000000000000000000000000000000000000000000000000000600052604160045260246000fd5b6000601f19601f8301169050919050565b620006d88162000545565b8114620006e457600080fd5b50565b620006f28162000559565b8114620006fe57600080fd5b50565b612d9080620007116000396000f3fe608060405234801561001057600080fd5b50600436106101005760003560e01c806370a0823111610097578063a22cb46511610066578063a22cb465146102ab578063b88d4fde146102c7578063c87b56dd146102e3578063e985e9c51461031357610100565b806370a08231146102235780638da5cb5b1461025357806395d89b41146102715780639c2901151461028f57610100565b806323b872dd116100d357806323b872dd1461019f578063322f89e6146101bb57806342842e0e146101d75780636352211e146101f357610100565b806301ffc9a71461010557806306fdde0314610135578063081812fc14610153578063095ea7b314610183575b600080fd5b61011f600480360381019061011a9190612032565b610343565b60405161012c9190612462565b60405180910390f35b61013d610425565b60405161014a919061247d565b60405180910390f35b61016d600480360381019061016891906120f4565b6104b7565b60405161017a91906123fb565b60405180910390f35b61019d60048036038101906101989190611ff6565b6104fd565b005b6101b960048036038101906101b49190611ef0565b610615565b005b6101d560048036038101906101d09190612084565b610675565b005b6101f160048036038101906101ec9190611ef0565b6107a2565b005b61020d600480360381019061020891906120f4565b6107c2565b60405161021a91906123fb565b60405180910390f35b61023d60048036038101906102389190611e8b565b610849565b60405161024a919061265f565b60405180910390f35b61025b610901565b60405161026891906123fb565b60405180910390f35b610279610927565b604051610286919061247d565b60405180910390f35b6102a960048036038101906102a49190611fba565b6109b9565b005b6102c560048036038101906102c09190611fba565b610aa4565b005b6102e160048036038101906102dc9190611f3f565b610aba565b005b6102fd60048036038101906102f891906120f4565b610b1c565b60405161030a919061247d565b60405180910390f35b61032d60048036038101906103289190611eb4565b610c2f565b60405161033a9190612462565b60405180910390f35b60007f80ac58cd000000000000000000000000000000000000000000000000000000007bffffffffffffffffffffffffffffffffffffffffffffffffffffffff1916827bffffffffffffffffffffffffffffffffffffffffffffffffffffffff1916148061040e57507f5b5e139f000000000000000000000000000000000000000000000000000000007bffffffffffffffffffffffffffffffffffffffffffffffffffffffff1916827bffffffffffffffffffffffffffffffffffffffffffffffffffffffff1916145b8061041e575061041d82610cc3565b5b9050919050565b606060008054610434906127fa565b80601f0160208091040260200160405190810160405280929190818152602001828054610460906127fa565b80156104ad5780601f10610482576101008083540402835291602001916104ad565b820191906000526020600020905b81548152906001019060200180831161049057829003601f168201915b5050505050905090565b60006104c282610d2d565b6004600083815260200190815260200160002060009054906101000a900473ffffffffffffffffffffffffffffffffffffffff169050919050565b6000610508826107c2565b90508073ffffffffffffffffffffffffffffffffffffffff168373ffffffffffffffffffffffffffffffffffffffff161415610579576040517f08c379a00000000000000000000000000000000000000000000000000000000081526004016105709061261f565b60405180910390fd5b8073ffffffffffffffffffffffffffffffffffffffff16610598610d78565b73ffffffffffffffffffffffffffffffffffffffff1614806105c757506105c6816105c1610d78565b610c2f565b5b610606576040517f08c379a00000000000000000000000000000000000000000000000000000000081526004016105fd9061263f565b60405180910390fd5b6106108383610d80565b505050565b610626610620610d78565b82610e39565b610665576040517f08c379a000000000000000000000000000000000000000000000000000000000815260040161065c9061249f565b60405180910390fd5b610670838383610ece565b505050565b600a60003373ffffffffffffffffffffffffffffffffffffffff1673ffffffffffffffffffffffffffffffffffffffff16815260200190815260200160002060009054906101000a900460ff16610701576040517f08c379a00000000000000000000000000000000000000000000000000000000081526004016106f89061257f565b60405180910390fd5b60005b8282905081101561079c5761071960076111c8565b600061072560076111de565b905061077e848484818110610763577f4e487b7100000000000000000000000000000000000000000000000000000000600052603260045260246000fd5b90506020020160208101906107789190611e8b565b826111ec565b610788818661140a565b5080806107949061285d565b915050610704565b50505050565b6107bd83838360405180602001604052806000815250610aba565b505050565b6000806107ce8361147e565b9050600073ffffffffffffffffffffffffffffffffffffffff168173ffffffffffffffffffffffffffffffffffffffff161415610840576040517f08c379a0000000000000000000000000000000000000000000000000000000008152600401610837906125ff565b60405180910390fd5b80915050919050565b60008073ffffffffffffffffffffffffffffffffffffffff168273ffffffffffffffffffffffffffffffffffffffff1614156108ba576040517f08c379a00000000000000000000000000000000000000000000000000000000081526004016108b19061255f565b60405180910390fd5b600360008373ffffffffffffffffffffffffffffffffffffffff1673ffffffffffffffffffffffffffffffffffffffff168152602001908152602001600020549050919050565b600960009054906101000a900473ffffffffffffffffffffffffffffffffffffffff1681565b606060018054610936906127fa565b80601f0160208091040260200160405190810160405280929190818152602001828054610962906127fa565b80156109af5780601f10610984576101008083540402835291602001916109af565b820191906000526020600020905b81548152906001019060200180831161099257829003601f168201915b5050505050905090565b600960009054906101000a900473ffffffffffffffffffffffffffffffffffffffff1673ffffffffffffffffffffffffffffffffffffffff163373ffffffffffffffffffffffffffffffffffffffff1614610a49576040517f08c379a0000000000000000000000000000000000000000000000000000000008152600401610a40906125df565b60405180910390fd5b80600a60008473ffffffffffffffffffffffffffffffffffffffff1673ffffffffffffffffffffffffffffffffffffffff16815260200190815260200160002060006101000a81548160ff0219169083151502179055505050565b610ab6610aaf610d78565b83836114bb565b5050565b610acb610ac5610d78565b83610e39565b610b0a576040517f08c379a0000000000000000000000000000000000000000000000000000000008152600401610b019061249f565b60405180910390fd5b610b1684848484611628565b50505050565b6060610b2782610d2d565b6000600660008481526020019081526020016000208054610b47906127fa565b80601f0160208091040260200160405190810160405280929190818152602001828054610b73906127fa565b8015610bc05780601f10610b9557610100808354040283529160200191610bc0565b820191906000526020600020905b815481529060010190602001808311610ba357829003601f168201915b505050505090506000610bd1611684565b9050600081511415610be7578192505050610c2a565b600082511115610c1c578082604051602001610c049291906123d7565b60405160208183030381529060405292505050610c2a565b610c258461169b565b925050505b919050565b6000600560008473ffffffffffffffffffffffffffffffffffffffff1673ffffffffffffffffffffffffffffffffffffffff16815260200190815260200160002060008373ffffffffffffffffffffffffffffffffffffffff1673ffffffffffffffffffffffffffffffffffffffff16815260200190815260200160002060009054906101000a900460ff16905092915050565b60007f01ffc9a7000000000000000000000000000000000000000000000000000000007bffffffffffffffffffffffffffffffffffffffffffffffffffffffff1916827bffffffffffffffffffffffffffffffffffffffffffffffffffffffff1916149050919050565b610d3681611703565b610d75576040517f08c379a0000000000000000000000000000000000000000000000000000000008152600401610d6c906125ff565b60405180910390fd5b50565b600033905090565b816004600083815260200190815260200160002060006101000a81548173ffffffffffffffffffffffffffffffffffffffff021916908373ffffffffffffffffffffffffffffffffffffffff160217905550808273ffffffffffffffffffffffffffffffffffffffff16610df3836107c2565b73ffffffffffffffffffffffffffffffffffffffff167f8c5be1e5ebec7d5bd14f71427d1e84f3dd0314c0f7b2291e5b200ac8c7c3b92560405160405180910390a45050565b600080610e45836107c2565b90508073ffffffffffffffffffffffffffffffffffffffff168473ffffffffffffffffffffffffffffffffffffffff161480610e875750610e868185610c2f565b5b80610ec557508373ffffffffffffffffffffffffffffffffffffffff16610ead846104b7565b73ffffffffffffffffffffffffffffffffffffffff16145b91505092915050565b8273ffffffffffffffffffffffffffffffffffffffff16610eee826107c2565b73ffffffffffffffffffffffffffffffffffffffff1614610f44576040517f08c379a0000000000000000000000000000000000000000000000000000000008152600401610f3b906124df565b60405180910390fd5b600073ffffffffffffffffffffffffffffffffffffffff168273ffffffffffffffffffffffffffffffffffffffff161415610fb4576040517f08c379a0000000000000000000000000000000000000000000000000000000008152600401610fab9061251f565b60405180910390fd5b610fc18383836001611744565b8273ffffffffffffffffffffffffffffffffffffffff16610fe1826107c2565b73ffffffffffffffffffffffffffffffffffffffff1614611037576040517f08c379a000000000000000000000000000000000000000000000000000000000815260040161102e906124df565b60405180910390fd5b6004600082815260200190815260200160002060006101000a81549073ffffffffffffffffffffffffffffffffffffffff02191690556001600360008573ffffffffffffffffffffffffffffffffffffffff1673ffffffffffffffffffffffffffffffffffffffff168152602001908152602001600020600082825403925050819055506001600360008473ffffffffffffffffffffffffffffffffffffffff1673ffffffffffffffffffffffffffffffffffffffff16815260200190815260200160002060008282540192505081905550816002600083815260200190815260200160002060006101000a81548173ffffffffffffffffffffffffffffffffffffffff021916908373ffffffffffffffffffffffffffffffffffffffff160217905550808273ffffffffffffffffffffffffffffffffffffffff168473ffffffffffffffffffffffffffffffffffffffff167fddf252ad1be2c89b69c2b068fc378daa952ba7f163c4a11628f55a4df523b3ef60405160405180910390a46111c3838383600161174a565b505050565b6001816000016000828254019250508190555050565b600081600001549050919050565b600073ffffffffffffffffffffffffffffffffffffffff168273ffffffffffffffffffffffffffffffffffffffff16141561125c576040517f08c379a0000000000000000000000000000000000000000000000000000000008152600401611253906125bf565b60405180910390fd5b61126581611703565b156112a5576040517f08c379a000000000000000000000000000000000000000000000000000000000815260040161129c906124ff565b60405180910390fd5b6112b3600083836001611744565b6112bc81611703565b156112fc576040517f08c379a00000000000000000000000000000000000000000000000000000000081526004016112f3906124ff565b60405180910390fd5b6001600360008473ffffffffffffffffffffffffffffffffffffffff1673ffffffffffffffffffffffffffffffffffffffff16815260200190815260200160002060008282540192505081905550816002600083815260200190815260200160002060006101000a81548173ffffffffffffffffffffffffffffffffffffffff021916908373ffffffffffffffffffffffffffffffffffffffff160217905550808273ffffffffffffffffffffffffffffffffffffffff16600073ffffffffffffffffffffffffffffffffffffffff167fddf252ad1be2c89b69c2b068fc378daa952ba7f163c4a11628f55a4df523b3ef60405160405180910390a461140660008383600161174a565b5050565b61141382611703565b611452576040517f08c379a00000000000000000000000000000000000000000000000000000000081526004016114499061259f565b60405180910390fd5b80600660008481526020019081526020016000209080519060200190611479929190611c65565b505050565b60006002600083815260200190815260200160002060009054906101000a900473ffffffffffffffffffffffffffffffffffffffff169050919050565b8173ffffffffffffffffffffffffffffffffffffffff168373ffffffffffffffffffffffffffffffffffffffff16141561152a576040517f08c379a00000000000000000000000000000000000000000000000000000000081526004016115219061253f565b60405180910390fd5b80600560008573ffffffffffffffffffffffffffffffffffffffff1673ffffffffffffffffffffffffffffffffffffffff16815260200190815260200160002060008473ffffffffffffffffffffffffffffffffffffffff1673ffffffffffffffffffffffffffffffffffffffff16815260200190815260200160002060006101000a81548160ff0219169083151502179055508173ffffffffffffffffffffffffffffffffffffffff168373ffffffffffffffffffffffffffffffffffffffff167f17307eab39ab6107e8899845ad3d59bd9653f200f220920489ca2b5937696c318360405161161b9190612462565b60405180910390a3505050565b611633848484610ece565b61163f84848484611750565b61167e576040517f08c379a0000000000000000000000000000000000000000000000000000000008152600401611675906124bf565b60405180910390fd5b50505050565b606060405180602001604052806000815250905090565b60606116a682610d2d565b60006116b0611684565b905060008151116116d057604051806020016040528060008152506116fb565b806116da846118e7565b6040516020016116eb9291906123d7565b6040516020818303038152906040525b915050919050565b60008073ffffffffffffffffffffffffffffffffffffffff166117258361147e565b73ffffffffffffffffffffffffffffffffffffffff1614159050919050565b50505050565b50505050565b60006117718473ffffffffffffffffffffffffffffffffffffffff16611a0b565b156118da578373ffffffffffffffffffffffffffffffffffffffff1663150b7a0261179a610d78565b8786866040518563ffffffff1660e01b81526004016117bc9493929190612416565b602060405180830381600087803b1580156117d657600080fd5b505af192505050801561180757506040513d601f19601f82011682018060405250810190611804919061205b565b60015b61188a573d8060008114611837576040519150601f19603f3d011682016040523d82523d6000602084013e61183c565b606091505b50600081511415611882576040517f08c379a0000000000000000000000000000000000000000000000000000000008152600401611879906124bf565b60405180910390fd5b805181602001fd5b63150b7a0260e01b7bffffffffffffffffffffffffffffffffffffffffffffffffffffffff1916817bffffffffffffffffffffffffffffffffffffffffffffffffffffffff1916149150506118df565b600190505b949350505050565b6060600060016118f684611a2e565b01905060008167ffffffffffffffff81111561193b577f4e487b7100000000000000000000000000000000000000000000000000000000600052604160045260246000fd5b6040519080825280601f01601f19166020018201604052801561196d5781602001600182028036833780820191505090505b509050600082602001820190505b600115611a00578080600190039150507f3031323334353637383961626364656600000000000000000000000000000000600a86061a8153600a85816119ea577f4e487b7100000000000000000000000000000000000000000000000000000000600052601260045260246000fd5b04945060008514156119fb57611a00565b61197b565b819350505050919050565b6000808273ffffffffffffffffffffffffffffffffffffffff163b119050919050565b600080600090507a184f03e93ff9f4daa797ed6e38ed64bf6a1f0100000000000000008310611ab2577a184f03e93ff9f4daa797ed6e38ed64bf6a1f0100000000000000008381611aa8577f4e487b7100000000000000000000000000000000000000000000000000000000600052601260045260246000fd5b0492506040810190505b6d04ee2d6d415b85acef81000000008310611b15576d04ee2d6d415b85acef81000000008381611b0b577f4e487b7100000000000000000000000000000000000000000000000000000000600052601260045260246000fd5b0492506020810190505b662386f26fc100008310611b6a57662386f26fc100008381611b60577f4e487b7100000000000000000000000000000000000000000000000000000000600052601260045260246000fd5b0492506010810190505b6305f5e1008310611bb9576305f5e1008381611baf577f4e487b7100000000000000000000000000000000000000000000000000000000600052601260045260246000fd5b0492506008810190505b6127108310611c04576127108381611bfa577f4e487b7100000000000000000000000000000000000000000000000000000000600052601260045260246000fd5b0492506004810190505b60648310611c4d5760648381611c43577f4e487b7100000000000000000000000000000000000000000000000000000000600052601260045260246000fd5b0492506002810190505b600a8310611c5c576001810190505b80915050919050565b828054611c71906127fa565b90600052602060002090601f016020900481019282611c935760008555611cda565b82601f10611cac57805160ff1916838001178555611cda565b82800160010185558215611cda579182015b82811115611cd9578251825591602001919060010190611cbe565b5b509050611ce79190611ceb565b5090565b5b80821115611d04576000816000905550600101611cec565b5090565b6000611d1b611d168461269f565b61267a565b905082815260208101848484011115611d3357600080fd5b611d3e8482856127b8565b509392505050565b6000611d59611d54846126d0565b61267a565b905082815260208101848484011115611d7157600080fd5b611d7c8482856127b8565b509392505050565b600081359050611d9381612cfe565b92915050565b60008083601f840112611dab57600080fd5b8235905067ffffffffffffffff811115611dc457600080fd5b602083019150836020820283011115611ddc57600080fd5b9250929050565b600081359050611df281612d15565b92915050565b600081359050611e0781612d2c565b92915050565b600081519050611e1c81612d2c565b92915050565b600082601f830112611e3357600080fd5b8135611e43848260208601611d08565b91505092915050565b600082601f830112611e5d57600080fd5b8135611e6d848260208601611d46565b91505092915050565b600081359050611e8581612d43565b92915050565b600060208284031215611e9d57600080fd5b6000611eab84828501611d84565b91505092915050565b60008060408385031215611ec757600080fd5b6000611ed585828601611d84565b9250506020611ee685828601611d84565b9150509250929050565b600080600060608486031215611f0557600080fd5b6000611f1386828701611d84565b9350506020611f2486828701611d84565b9250506040611f3586828701611e76565b9150509250925092565b60008060008060808587031215611f5557600080fd5b6000611f6387828801611d84565b9450506020611f7487828801611d84565b9350506040611f8587828801611e76565b925050606085013567ffffffffffffffff811115611fa257600080fd5b611fae87828801611e22565b91505092959194509250565b60008060408385031215611fcd57600080fd5b6000611fdb85828601611d84565b9250506020611fec85828601611de3565b9150509250929050565b6000806040838503121561200957600080fd5b600061201785828601611d84565b925050602061202885828601611e76565b9150509250929050565b60006020828403121561204457600080fd5b600061205284828501611df8565b91505092915050565b60006020828403121561206d57600080fd5b600061207b84828501611e0d565b91505092915050565b60008060006040848603121561209957600080fd5b600084013567ffffffffffffffff8111156120b357600080fd5b6120bf86828701611e4c565b935050602084013567ffffffffffffffff8111156120dc57600080fd5b6120e886828701611d99565b92509250509250925092565b60006020828403121561210657600080fd5b600061211484828501611e76565b91505092915050565b61212681612744565b82525050565b61213581612756565b82525050565b600061214682612701565b6121508185612717565b93506121608185602086016127c7565b61216981612933565b840191505092915050565b600061217f8261270c565b6121898185612728565b93506121998185602086016127c7565b6121a281612933565b840191505092915050565b60006121b88261270c565b6121c28185612739565b93506121d28185602086016127c7565b80840191505092915050565b60006121eb602d83612728565b91506121f682612944565b604082019050919050565b600061220e603283612728565b915061221982612993565b604082019050919050565b6000612231602583612728565b915061223c826129e2565b604082019050919050565b6000612254601c83612728565b915061225f82612a31565b602082019050919050565b6000612277602483612728565b915061228282612a5a565b604082019050919050565b600061229a601983612728565b91506122a582612aa9565b602082019050919050565b60006122bd602983612728565b91506122c882612ad2565b604082019050919050565b60006122e0602783612728565b91506122eb82612b21565b604082019050919050565b6000612303602e83612728565b915061230e82612b70565b604082019050919050565b6000612326602083612728565b915061233182612bbf565b602082019050919050565b6000612349602a83612728565b915061235482612be8565b604082019050919050565b600061236c601883612728565b915061237782612c37565b602082019050919050565b600061238f602183612728565b915061239a82612c60565b604082019050919050565b60006123b2603d83612728565b91506123bd82612caf565b604082019050919050565b6123d1816127ae565b82525050565b60006123e382856121ad565b91506123ef82846121ad565b91508190509392505050565b6000602082019050612410600083018461211d565b92915050565b600060808201905061242b600083018761211d565b612438602083018661211d565b61244560408301856123c8565b8181036060830152612457818461213b565b905095945050505050565b6000602082019050612477600083018461212c565b92915050565b600060208201905081810360008301526124978184612174565b905092915050565b600060208201905081810360008301526124b8816121de565b9050919050565b600060208201905081810360008301526124d881612201565b9050919050565b600060208201905081810360008301526124f881612224565b9050919050565b6000602082019050818103600083015261251881612247565b9050919050565b600060208201905081810360008301526125388161226a565b9050919050565b600060208201905081810360008301526125588161228d565b9050919050565b60006020820190508181036000830152612578816122b0565b9050919050565b60006020820190508181036000830152612598816122d3565b9050919050565b600060208201905081810360008301526125b8816122f6565b9050919050565b600060208201905081810360008301526125d881612319565b9050919050565b600060208201905081810360008301526125f88161233c565b9050919050565b600060208201905081810360008301526126188161235f565b9050919050565b6000602082019050818103600083015261263881612382565b9050919050565b60006020820190508181036000830152612658816123a5565b9050919050565b600060208201905061267460008301846123c8565b92915050565b6000612684612695565b9050612690828261282c565b919050565b6000604051905090565b600067ffffffffffffffff8211156126ba576126b9612904565b5b6126c382612933565b9050602081019050919050565b600067ffffffffffffffff8211156126eb576126ea612904565b5b6126f482612933565b9050602081019050919050565b600081519050919050565b600081519050919050565b600082825260208201905092915050565b600082825260208201905092915050565b600081905092915050565b600061274f8261278e565b9050919050565b60008115159050919050565b60007fffffffff0000000000000000000000000000000000000000000000000000000082169050919050565b600073ffffffffffffffffffffffffffffffffffffffff82169050919050565b6000819050919050565b82818337600083830152505050565b60005b838110156127e55780820151818401526020810190506127ca565b838111156127f4576000848401525b50505050565b6000600282049050600182168061281257607f821691505b60208210811415612826576128256128d5565b5b50919050565b61283582612933565b810181811067ffffffffffffffff8211171561285457612853612904565b5b80604052505050565b6000612868826127ae565b91507fffffffffffffffffffffffffffffffffffffffffffffffffffffffffffffffff82141561289b5761289a6128a6565b5b600182019050919050565b7f4e487b7100000000000000000000000000000000000000000000000000000000600052601160045260246000fd5b7f4e487b7100000000000000000000000000000000000000000000000000000000600052602260045260246000fd5b7f4e487b7100000000000000000000000000000000000000000000000000000000600052604160045260246000fd5b6000601f19601f8301169050919050565b7f4552433732313a2063616c6c6572206973206e6f7420746f6b656e206f776e6560008201527f72206f7220617070726f76656400000000000000000000000000000000000000602082015250565b7f4552433732313a207472616e7366657220746f206e6f6e20455243373231526560008201527f63656976657220696d706c656d656e7465720000000000000000000000000000602082015250565b7f4552433732313a207472616e736665722066726f6d20696e636f72726563742060008201527f6f776e6572000000000000000000000000000000000000000000000000000000602082015250565b7f4552433732313a20746f6b656e20616c7265616479206d696e74656400000000600082015250565b7f4552433732313a207472616e7366657220746f20746865207a65726f2061646460008201527f7265737300000000000000000000000000000000000000000000000000000000602082015250565b7f4552433732313a20617070726f766520746f2063616c6c657200000000000000600082015250565b7f4552433732313a2061646472657373207a65726f206973206e6f74206120766160008201527f6c6964206f776e65720000000000000000000000000000000000000000000000602082015250565b7f43616c6c6572206973206e6f7420616c6c6f77656420746f206372656174652060008201527f746f6b656e732100000000000000000000000000000000000000000000000000602082015250565b7f45524337323155524953746f726167653a2055524920736574206f66206e6f6e60008201527f6578697374656e7420746f6b656e000000000000000000000000000000000000602082015250565b7f4552433732313a206d696e7420746f20746865207a65726f2061646472657373600082015250565b7f4f6e6c7920636f6e7472616374206f776e65722063616e2063616c6c2074686960008201527f732066756e6374696f6e00000000000000000000000000000000000000000000602082015250565b7f4552433732313a20696e76616c696420746f6b656e2049440000000000000000600082015250565b7f4552433732313a20617070726f76616c20746f2063757272656e74206f776e6560008201527f7200000000000000000000000000000000000000000000000000000000000000602082015250565b7f4552433732313a20617070726f76652063616c6c6572206973206e6f7420746f60008201527f6b656e206f776e6572206f7220617070726f76656420666f7220616c6c000000602082015250565b612d0781612744565b8114612d1257600080fd5b50565b612d1e81612756565b8114612d2957600080fd5b50565b612d3581612762565b8114612d4057600080fd5b50565b612d4c816127ae565b8114612d5757600080fd5b5056fea26469706673582212202ec0ad844264629ec8ab53a1c5e46b144862b5054378c346ffeb215eee9cbc1764736f6c63430008040033",
  "linkReferences": {},
  "deployedLinkReferences": {}
}