{
  "_format": "hh-sol-artifact-1",
  "contractName": "Trustified",
  "sourceName": "contracts/Trustified.sol",
  "abi": [
    {
      "inputs": [],
      "stateMutability": "nonpayable",
      "type": "constructor"
    },
    {
      "anonymous": false,
      "inputs": [
        {
          "indexed": true,
          "internalType": "address",
          "name": "owner",
          "type": "address"
        },
        {
          "indexed": true,
          "internalType": "address",
          "name": "approved",
          "type": "address"
        },
        {
          "indexed": true,
          "internalType": "uint256",
          "name": "tokenId",
          "type": "uint256"
        }
      ],
      "name": "Approval",
      "type": "event"
    },
    {
      "anonymous": false,
      "inputs": [
        {
          "indexed": true,
          "internalType": "address",
          "name": "owner",
          "type": "address"
        },
        {
          "indexed": true,
          "internalType": "address",
          "name": "operator",
          "type": "address"
        },
        {
          "indexed": false,
          "internalType": "bool",
          "name": "approved",
          "type": "bool"
        }
      ],
      "name": "ApprovalForAll",
      "type": "event"
    },
    {
      "anonymous": false,
      "inputs": [
        {
          "indexed": false,
          "internalType": "address",
          "name": "",
          "type": "address"
        },
        {
          "indexed": false,
          "internalType": "uint256",
          "name": "",
          "type": "uint256"
        }
      ],
      "name": "TokenMinted",
      "type": "event"
    },
    {
      "anonymous": false,
      "inputs": [
        {
          "indexed": true,
          "internalType": "address",
          "name": "from",
          "type": "address"
        },
        {
          "indexed": true,
          "internalType": "address",
          "name": "to",
          "type": "address"
        },
        {
          "indexed": true,
          "internalType": "uint256",
          "name": "tokenId",
          "type": "uint256"
        }
      ],
      "name": "Transfer",
      "type": "event"
    },
    {
      "inputs": [],
      "name": "allTokenMinted",
      "outputs": [
        {
          "internalType": "bool",
          "name": "",
          "type": "bool"
        }
      ],
      "stateMutability": "view",
      "type": "function"
    },
    {
      "inputs": [
        {
          "internalType": "address",
          "name": "to",
          "type": "address"
        },
        {
          "internalType": "uint256",
          "name": "tokenId",
          "type": "uint256"
        }
      ],
      "name": "approve",
      "outputs": [],
      "stateMutability": "nonpayable",
      "type": "function"
    },
    {
      "inputs": [
        {
          "internalType": "address",
          "name": "owner",
          "type": "address"
        }
      ],
      "name": "balanceOf",
      "outputs": [
        {
          "internalType": "uint256",
          "name": "",
          "type": "uint256"
        }
      ],
      "stateMutability": "view",
      "type": "function"
    },
    {
      "inputs": [
        {
          "internalType": "string",
          "name": "tokenUri",
          "type": "string"
        },
        {
          "internalType": "uint256",
          "name": "quantity",
          "type": "uint256"
        },
        {
          "internalType": "uint256",
          "name": "value",
          "type": "uint256"
        },
        {
          "internalType": "bool",
          "name": "nonTransferable",
          "type": "bool"
        }
      ],
      "name": "bulkMintERC721",
      "outputs": [],
      "stateMutability": "nonpayable",
      "type": "function"
    },
    {
      "inputs": [
        {
          "internalType": "uint256",
          "name": "tokenId",
          "type": "uint256"
        }
      ],
      "name": "getApproved",
      "outputs": [
        {
          "internalType": "address",
          "name": "",
          "type": "address"
        }
      ],
      "stateMutability": "view",
      "type": "function"
    },
    {
      "inputs": [],
      "name": "getMintStatus",
      "outputs": [
        {
          "internalType": "bool",
          "name": "",
          "type": "bool"
        }
      ],
      "stateMutability": "view",
      "type": "function"
    },
    {
      "inputs": [
        {
          "internalType": "uint256",
          "name": "eventId",
          "type": "uint256"
        }
      ],
      "name": "getTokenIds",
      "outputs": [
        {
          "internalType": "uint256[]",
          "name": "",
          "type": "uint256[]"
        }
      ],
      "stateMutability": "view",
      "type": "function"
    },
    {
      "inputs": [
        {
          "internalType": "address",
          "name": "owner",
          "type": "address"
        },
        {
          "internalType": "address",
          "name": "operator",
          "type": "address"
        }
      ],
      "name": "isApprovedForAll",
      "outputs": [
        {
          "internalType": "bool",
          "name": "",
          "type": "bool"
        }
      ],
      "stateMutability": "view",
      "type": "function"
    },
    {
      "inputs": [
        {
          "internalType": "uint256",
          "name": "",
          "type": "uint256"
        }
      ],
      "name": "issuers",
      "outputs": [
        {
          "internalType": "address",
          "name": "",
          "type": "address"
        }
      ],
      "stateMutability": "view",
      "type": "function"
    },
    {
      "inputs": [],
      "name": "name",
      "outputs": [
        {
          "internalType": "string",
          "name": "",
          "type": "string"
        }
      ],
      "stateMutability": "view",
      "type": "function"
    },
    {
      "inputs": [
        {
          "internalType": "uint256",
          "name": "tokenId",
          "type": "uint256"
        }
      ],
      "name": "ownerOf",
      "outputs": [
        {
          "internalType": "address",
          "name": "",
          "type": "address"
        }
      ],
      "stateMutability": "view",
      "type": "function"
    },
    {
      "inputs": [
        {
          "internalType": "address",
          "name": "from",
          "type": "address"
        },
        {
          "internalType": "address",
          "name": "to",
          "type": "address"
        },
        {
          "internalType": "uint256",
          "name": "tokenId",
          "type": "uint256"
        }
      ],
      "name": "safeTransferFrom",
      "outputs": [],
      "stateMutability": "nonpayable",
      "type": "function"
    },
    {
      "inputs": [
        {
          "internalType": "address",
          "name": "from",
          "type": "address"
        },
        {
          "internalType": "address",
          "name": "to",
          "type": "address"
        },
        {
          "internalType": "uint256",
          "name": "tokenId",
          "type": "uint256"
        },
        {
          "internalType": "bytes",
          "name": "data",
          "type": "bytes"
        }
      ],
      "name": "safeTransferFrom",
      "outputs": [],
      "stateMutability": "nonpayable",
      "type": "function"
    },
    {
      "inputs": [
        {
          "internalType": "address",
          "name": "operator",
          "type": "address"
        },
        {
          "internalType": "bool",
          "name": "approved",
          "type": "bool"
        }
      ],
      "name": "setApprovalForAll",
      "outputs": [],
      "stateMutability": "nonpayable",
      "type": "function"
    },
    {
      "inputs": [
        {
          "internalType": "bytes4",
          "name": "interfaceId",
          "type": "bytes4"
        }
      ],
      "name": "supportsInterface",
      "outputs": [
        {
          "internalType": "bool",
          "name": "",
          "type": "bool"
        }
      ],
      "stateMutability": "view",
      "type": "function"
    },
    {
      "inputs": [],
      "name": "symbol",
      "outputs": [
        {
          "internalType": "string",
          "name": "",
          "type": "string"
        }
      ],
      "stateMutability": "view",
      "type": "function"
    },
    {
      "inputs": [
        {
          "internalType": "uint256",
          "name": "",
          "type": "uint256"
        },
        {
          "internalType": "uint256",
          "name": "",
          "type": "uint256"
        }
      ],
      "name": "tokenIds",
      "outputs": [
        {
          "internalType": "uint256",
          "name": "",
          "type": "uint256"
        }
      ],
      "stateMutability": "view",
      "type": "function"
    },
    {
      "inputs": [
        {
          "internalType": "uint256",
          "name": "tokenId",
          "type": "uint256"
        }
      ],
      "name": "tokenURI",
      "outputs": [
        {
          "internalType": "string",
          "name": "",
          "type": "string"
        }
      ],
      "stateMutability": "view",
      "type": "function"
    },
    {
      "inputs": [
        {
          "internalType": "address",
          "name": "from",
          "type": "address"
        },
        {
          "internalType": "address",
          "name": "to",
          "type": "address"
        },
        {
          "internalType": "uint256",
          "name": "tokenId",
          "type": "uint256"
        }
      ],
      "name": "transferFrom",
      "outputs": [],
      "stateMutability": "nonpayable",
      "type": "function"
    },
    {
      "inputs": [
        {
          "internalType": "address",
          "name": "from",
          "type": "address"
        },
        {
          "internalType": "address",
          "name": "to",
          "type": "address"
        },
        {
          "internalType": "uint256",
          "name": "tokenId",
          "type": "uint256"
        },
        {
          "internalType": "string",
          "name": "tokenURI",
          "type": "string"
        },
        {
          "internalType": "uint256",
          "name": "value",
          "type": "uint256"
        }
      ],
      "name": "transferToken",
      "outputs": [],
      "stateMutability": "nonpayable",
      "type": "function"
    }
  ],
  "bytecode": "0x60806040523480156200001157600080fd5b506040518060400160405280600d81526020017f49747354727573746966696564000000000000000000000000000000000000008152506040518060400160405280600381526020017f4954460000000000000000000000000000000000000000000000000000000000815250816000908051906020019062000096929190620000b8565b508060019080519060200190620000af929190620000b8565b505050620001cd565b828054620000c69062000168565b90600052602060002090601f016020900481019282620000ea576000855562000136565b82601f106200010557805160ff191683800117855562000136565b8280016001018555821562000136579182015b828111156200013557825182559160200191906001019062000118565b5b50905062000145919062000149565b5090565b5b80821115620001645760008160009055506001016200014a565b5090565b600060028204905060018216806200018157607f821691505b602082108114156200019857620001976200019e565b5b50919050565b7f4e487b7100000000000000000000000000000000000000000000000000000000600052602260045260246000fd5b6135f680620001dd6000396000f3fe608060405234801561001057600080fd5b506004361061012c5760003560e01c80636352211e116100ad578063a22cb46511610071578063a22cb46514610355578063b88d4fde14610371578063c87b56dd1461038d578063e985e9c5146103bd578063eed8cc35146103ed5761012c565b80636352211e1461029d57806370a08231146102cd57806380574834146102fd578063941ada0e1461031957806395d89b41146103375761012c565b806323b872dd116100f457806323b872dd146101e757806342842e0e14610203578063436afe321461021f57806357991d301461023d57806361ec30c41461026d5761012c565b806301ffc9a71461013157806306fdde0314610161578063081812fc1461017f578063095ea7b3146101af5780631ba7ddd2146101cb575b600080fd5b61014b6004803603810190610146919061256e565b61041d565b6040516101589190612b46565b60405180910390f35b6101696104ff565b6040516101769190612b61565b60405180910390f35b61019960048036038101906101949190612640565b610591565b6040516101a69190612a94565b60405180910390f35b6101c960048036038101906101c49190612532565b6105d7565b005b6101e560048036038101906101e091906125c0565b6106ef565b005b61020160048036038101906101fc919061239a565b610913565b005b61021d6004803603810190610218919061239a565b610973565b005b610227610993565b6040516102349190612b46565b60405180910390f35b61025760048036038101906102529190612640565b6109a6565b6040516102649190612b24565b60405180910390f35b61028760048036038101906102829190612640565b610ab2565b6040516102949190612a94565b60405180910390f35b6102b760048036038101906102b29190612640565b610ae5565b6040516102c49190612a94565b60405180910390f35b6102e760048036038101906102e29190612335565b610b6c565b6040516102f49190612dc3565b60405180910390f35b61031760048036038101906103129190612464565b610c24565b005b610321610d74565b60405161032e9190612b46565b60405180910390f35b61033f610d8b565b60405161034c9190612b61565b60405180910390f35b61036f600480360381019061036a91906124f6565b610e1d565b005b61038b600480360381019061038691906123e9565b610e33565b005b6103a760048036038101906103a29190612640565b610e95565b6040516103b49190612b61565b60405180910390f35b6103d760048036038101906103d2919061235e565b610fa8565b6040516103e49190612b46565b60405180910390f35b61040760048036038101906104029190612669565b61103c565b6040516104149190612dc3565b60405180910390f35b60007f80ac58cd000000000000000000000000000000000000000000000000000000007bffffffffffffffffffffffffffffffffffffffffffffffffffffffff1916827bffffffffffffffffffffffffffffffffffffffffffffffffffffffff191614806104e857507f5b5e139f000000000000000000000000000000000000000000000000000000007bffffffffffffffffffffffffffffffffffffffffffffffffffffffff1916827bffffffffffffffffffffffffffffffffffffffffffffffffffffffff1916145b806104f857506104f78261106d565b5b9050919050565b60606000805461050e90612fbc565b80601f016020809104026020016040519081016040528092919081815260200182805461053a90612fbc565b80156105875780601f1061055c57610100808354040283529160200191610587565b820191906000526020600020905b81548152906001019060200180831161056a57829003601f168201915b5050505050905090565b600061059c826110d7565b6004600083815260200190815260200160002060009054906101000a900473ffffffffffffffffffffffffffffffffffffffff169050919050565b60006105e282610ae5565b90508073ffffffffffffffffffffffffffffffffffffffff168373ffffffffffffffffffffffffffffffffffffffff161415610653576040517f08c379a000000000000000000000000000000000000000000000000000000000815260040161064a90612d63565b60405180910390fd5b8073ffffffffffffffffffffffffffffffffffffffff16610672611122565b73ffffffffffffffffffffffffffffffffffffffff1614806106a157506106a08161069b611122565b610fa8565b5b6106e0576040517f08c379a00000000000000000000000000000000000000000000000000000000081526004016106d790612d83565b60405180910390fd5b6106ea838361112a565b505050565b60008311610732576040517f08c379a000000000000000000000000000000000000000000000000000000000815260040161072990612cc3565b60405180910390fd5b60008210158015610744575060018211155b610783576040517f08c379a000000000000000000000000000000000000000000000000000000000815260040161077a90612d23565b60405180910390fd5b600061078f60096111e3565b905061079b60096111f1565b6000600a60006101000a81548160ff02191690831515021790555060005b848110156108d15760006107ce888887611207565b9050600b600084815260200190815260200160002081908060018154018082558091505060019003906000526020600020016000909190919091505533600c600085815260200190815260200160002060006101000a81548173ffffffffffffffffffffffffffffffffffffffff021916908373ffffffffffffffffffffffffffffffffffffffff16021790555083600d600083815260200190815260200160002060006101000a81548160ff02191690831515021790555060006001826108969190612eb0565b9050868114156108bc576001600a60006101000a81548160ff0219169083151502179055505b505080806108c99061301f565b9150506107b9565b507fb9144c96c86541f6fa89c9f2f02495cccf4b08cd6643e26d34ee00aa586558a83382604051610903929190612afb565b60405180910390a1505050505050565b61092461091e611122565b826112d3565b610963576040517f08c379a000000000000000000000000000000000000000000000000000000000815260040161095a90612ba3565b60405180910390fd5b61096e838383611368565b505050565b61098e83838360405180602001604052806000815250610e33565b505050565b600a60009054906101000a900460ff1681565b60603373ffffffffffffffffffffffffffffffffffffffff16600c600084815260200190815260200160002060009054906101000a900473ffffffffffffffffffffffffffffffffffffffff1673ffffffffffffffffffffffffffffffffffffffff1614610a49576040517f08c379a0000000000000000000000000000000000000000000000000000000008152600401610a4090612c63565b60405180910390fd5b600b6000838152602001908152602001600020805480602002602001604051908101604052809291908181526020018280548015610aa657602002820191906000526020600020905b815481526020019060010190808311610a92575b50505050509050919050565b600c6020528060005260406000206000915054906101000a900473ffffffffffffffffffffffffffffffffffffffff1681565b600080610af183611662565b9050600073ffffffffffffffffffffffffffffffffffffffff168173ffffffffffffffffffffffffffffffffffffffff161415610b63576040517f08c379a0000000000000000000000000000000000000000000000000000000008152600401610b5a90612d43565b60405180910390fd5b80915050919050565b60008073ffffffffffffffffffffffffffffffffffffffff168273ffffffffffffffffffffffffffffffffffffffff161415610bdd576040517f08c379a0000000000000000000000000000000000000000000000000000000008152600401610bd490612ca3565b60405180910390fd5b600360008373ffffffffffffffffffffffffffffffffffffffff1673ffffffffffffffffffffffffffffffffffffffff168152602001908152602001600020549050919050565b60008110158015610c36575060018111155b610c75576040517f08c379a0000000000000000000000000000000000000000000000000000000008152600401610c6c90612d23565b60405180910390fd5b6001811415610ccd57610ccc8484848080601f016020809104026020016040519081016040528093929190818152602001838380828437600081840152601f19601f8201169050808301925050505050505061169f565b5b3073ffffffffffffffffffffffffffffffffffffffff168673ffffffffffffffffffffffffffffffffffffffff1614610d6057610d0a33856112d3565b610d49576040517f08c379a0000000000000000000000000000000000000000000000000000000008152600401610d4090612da3565b60405180910390fd5b610d5b610d54611122565b8686611368565b610d6c565b610d6b868686611368565b5b505050505050565b6000600a60009054906101000a900460ff16905090565b606060018054610d9a90612fbc565b80601f0160208091040260200160405190810160405280929190818152602001828054610dc690612fbc565b8015610e135780601f10610de857610100808354040283529160200191610e13565b820191906000526020600020905b815481529060010190602001808311610df657829003601f168201915b5050505050905090565b610e2f610e28611122565b8383611713565b5050565b610e44610e3e611122565b836112d3565b610e83576040517f08c379a0000000000000000000000000000000000000000000000000000000008152600401610e7a90612ba3565b60405180910390fd5b610e8f84848484611880565b50505050565b6060610ea0826110d7565b6000600660008481526020019081526020016000208054610ec090612fbc565b80601f0160208091040260200160405190810160405280929190818152602001828054610eec90612fbc565b8015610f395780601f10610f0e57610100808354040283529160200191610f39565b820191906000526020600020905b815481529060010190602001808311610f1c57829003601f168201915b505050505090506000610f4a6118dc565b9050600081511415610f60578192505050610fa3565b600082511115610f95578082604051602001610f7d929190612a70565b60405160208183030381529060405292505050610fa3565b610f9e846118f3565b925050505b919050565b6000600560008473ffffffffffffffffffffffffffffffffffffffff1673ffffffffffffffffffffffffffffffffffffffff16815260200190815260200160002060008373ffffffffffffffffffffffffffffffffffffffff1673ffffffffffffffffffffffffffffffffffffffff16815260200190815260200160002060009054906101000a900460ff16905092915050565b600b602052816000526040600020818154811061105857600080fd5b90600052602060002001600091509150505481565b60007f01ffc9a7000000000000000000000000000000000000000000000000000000007bffffffffffffffffffffffffffffffffffffffffffffffffffffffff1916827bffffffffffffffffffffffffffffffffffffffffffffffffffffffff1916149050919050565b6110e08161195b565b61111f576040517f08c379a000000000000000000000000000000000000000000000000000000000815260040161111690612d43565b60405180910390fd5b50565b600033905090565b816004600083815260200190815260200160002060006101000a81548173ffffffffffffffffffffffffffffffffffffffff021916908373ffffffffffffffffffffffffffffffffffffffff160217905550808273ffffffffffffffffffffffffffffffffffffffff1661119d83610ae5565b73ffffffffffffffffffffffffffffffffffffffff167f8c5be1e5ebec7d5bd14f71427d1e84f3dd0314c0f7b2291e5b200ac8c7c3b92560405160405180910390a45050565b600081600001549050919050565b6001816000016000828254019250508190555050565b60008061121460086111e3565b905061122060086111f1565b61122a308261199c565b60008314156112c85760008585905011611279576040517f08c379a000000000000000000000000000000000000000000000000000000000815260040161127090612c83565b60405180910390fd5b6112c78186868080601f016020809104026020016040519081016040528093929190818152602001838380828437600081840152601f19601f8201169050808301925050505050505061169f565b5b809150509392505050565b6000806112df83610ae5565b90508073ffffffffffffffffffffffffffffffffffffffff168473ffffffffffffffffffffffffffffffffffffffff16148061132157506113208185610fa8565b5b8061135f57508373ffffffffffffffffffffffffffffffffffffffff1661134784610591565b73ffffffffffffffffffffffffffffffffffffffff16145b91505092915050565b8273ffffffffffffffffffffffffffffffffffffffff1661138882610ae5565b73ffffffffffffffffffffffffffffffffffffffff16146113de576040517f08c379a00000000000000000000000000000000000000000000000000000000081526004016113d590612be3565b60405180910390fd5b600073ffffffffffffffffffffffffffffffffffffffff168273ffffffffffffffffffffffffffffffffffffffff16141561144e576040517f08c379a000000000000000000000000000000000000000000000000000000000815260040161144590612c23565b60405180910390fd5b61145b8383836001611bba565b8273ffffffffffffffffffffffffffffffffffffffff1661147b82610ae5565b73ffffffffffffffffffffffffffffffffffffffff16146114d1576040517f08c379a00000000000000000000000000000000000000000000000000000000081526004016114c890612be3565b60405180910390fd5b6004600082815260200190815260200160002060006101000a81549073ffffffffffffffffffffffffffffffffffffffff02191690556001600360008573ffffffffffffffffffffffffffffffffffffffff1673ffffffffffffffffffffffffffffffffffffffff168152602001908152602001600020600082825403925050819055506001600360008473ffffffffffffffffffffffffffffffffffffffff1673ffffffffffffffffffffffffffffffffffffffff16815260200190815260200160002060008282540192505081905550816002600083815260200190815260200160002060006101000a81548173ffffffffffffffffffffffffffffffffffffffff021916908373ffffffffffffffffffffffffffffffffffffffff160217905550808273ffffffffffffffffffffffffffffffffffffffff168473ffffffffffffffffffffffffffffffffffffffff167fddf252ad1be2c89b69c2b068fc378daa952ba7f163c4a11628f55a4df523b3ef60405160405180910390a461165d8383836001611c5c565b505050565b60006002600083815260200190815260200160002060009054906101000a900473ffffffffffffffffffffffffffffffffffffffff169050919050565b6116a88261195b565b6116e7576040517f08c379a00000000000000000000000000000000000000000000000000000000081526004016116de90612ce3565b60405180910390fd5b8060066000848152602001908152602001600020908051906020019061170e929190612177565b505050565b8173ffffffffffffffffffffffffffffffffffffffff168373ffffffffffffffffffffffffffffffffffffffff161415611782576040517f08c379a000000000000000000000000000000000000000000000000000000000815260040161177990612c43565b60405180910390fd5b80600560008573ffffffffffffffffffffffffffffffffffffffff1673ffffffffffffffffffffffffffffffffffffffff16815260200190815260200160002060008473ffffffffffffffffffffffffffffffffffffffff1673ffffffffffffffffffffffffffffffffffffffff16815260200190815260200160002060006101000a81548160ff0219169083151502179055508173ffffffffffffffffffffffffffffffffffffffff168373ffffffffffffffffffffffffffffffffffffffff167f17307eab39ab6107e8899845ad3d59bd9653f200f220920489ca2b5937696c31836040516118739190612b46565b60405180910390a3505050565b61188b848484611368565b61189784848484611c62565b6118d6576040517f08c379a00000000000000000000000000000000000000000000000000000000081526004016118cd90612bc3565b60405180910390fd5b50505050565b606060405180602001604052806000815250905090565b60606118fe826110d7565b60006119086118dc565b905060008151116119285760405180602001604052806000815250611953565b8061193284611df9565b604051602001611943929190612a70565b6040516020818303038152906040525b915050919050565b60008073ffffffffffffffffffffffffffffffffffffffff1661197d83611662565b73ffffffffffffffffffffffffffffffffffffffff1614159050919050565b600073ffffffffffffffffffffffffffffffffffffffff168273ffffffffffffffffffffffffffffffffffffffff161415611a0c576040517f08c379a0000000000000000000000000000000000000000000000000000000008152600401611a0390612d03565b60405180910390fd5b611a158161195b565b15611a55576040517f08c379a0000000000000000000000000000000000000000000000000000000008152600401611a4c90612c03565b60405180910390fd5b611a63600083836001611bba565b611a6c8161195b565b15611aac576040517f08c379a0000000000000000000000000000000000000000000000000000000008152600401611aa390612c03565b60405180910390fd5b6001600360008473ffffffffffffffffffffffffffffffffffffffff1673ffffffffffffffffffffffffffffffffffffffff16815260200190815260200160002060008282540192505081905550816002600083815260200190815260200160002060006101000a81548173ffffffffffffffffffffffffffffffffffffffff021916908373ffffffffffffffffffffffffffffffffffffffff160217905550808273ffffffffffffffffffffffffffffffffffffffff16600073ffffffffffffffffffffffffffffffffffffffff167fddf252ad1be2c89b69c2b068fc378daa952ba7f163c4a11628f55a4df523b3ef60405160405180910390a4611bb6600083836001611c5c565b5050565b3073ffffffffffffffffffffffffffffffffffffffff168473ffffffffffffffffffffffffffffffffffffffff1614611c565760011515600d600084815260200190815260200160002060009054906101000a900460ff1615151415611c55576040517f08c379a0000000000000000000000000000000000000000000000000000000008152600401611c4c90612b83565b60405180910390fd5b5b50505050565b50505050565b6000611c838473ffffffffffffffffffffffffffffffffffffffff16611f1d565b15611dec578373ffffffffffffffffffffffffffffffffffffffff1663150b7a02611cac611122565b8786866040518563ffffffff1660e01b8152600401611cce9493929190612aaf565b602060405180830381600087803b158015611ce857600080fd5b505af1925050508015611d1957506040513d601f19601f82011682018060405250810190611d169190612597565b60015b611d9c573d8060008114611d49576040519150601f19603f3d011682016040523d82523d6000602084013e611d4e565b606091505b50600081511415611d94576040517f08c379a0000000000000000000000000000000000000000000000000000000008152600401611d8b90612bc3565b60405180910390fd5b805181602001fd5b63150b7a0260e01b7bffffffffffffffffffffffffffffffffffffffffffffffffffffffff1916817bffffffffffffffffffffffffffffffffffffffffffffffffffffffff191614915050611df1565b600190505b949350505050565b606060006001611e0884611f40565b01905060008167ffffffffffffffff811115611e4d577f4e487b7100000000000000000000000000000000000000000000000000000000600052604160045260246000fd5b6040519080825280601f01601f191660200182016040528015611e7f5781602001600182028036833780820191505090505b509050600082602001820190505b600115611f12578080600190039150507f3031323334353637383961626364656600000000000000000000000000000000600a86061a8153600a8581611efc577f4e487b7100000000000000000000000000000000000000000000000000000000600052601260045260246000fd5b0494506000851415611f0d57611f12565b611e8d565b819350505050919050565b6000808273ffffffffffffffffffffffffffffffffffffffff163b119050919050565b600080600090507a184f03e93ff9f4daa797ed6e38ed64bf6a1f0100000000000000008310611fc4577a184f03e93ff9f4daa797ed6e38ed64bf6a1f0100000000000000008381611fba577f4e487b7100000000000000000000000000000000000000000000000000000000600052601260045260246000fd5b0492506040810190505b6d04ee2d6d415b85acef81000000008310612027576d04ee2d6d415b85acef8100000000838161201d577f4e487b7100000000000000000000000000000000000000000000000000000000600052601260045260246000fd5b0492506020810190505b662386f26fc10000831061207c57662386f26fc100008381612072577f4e487b7100000000000000000000000000000000000000000000000000000000600052601260045260246000fd5b0492506010810190505b6305f5e10083106120cb576305f5e10083816120c1577f4e487b7100000000000000000000000000000000000000000000000000000000600052601260045260246000fd5b0492506008810190505b612710831061211657612710838161210c577f4e487b7100000000000000000000000000000000000000000000000000000000600052601260045260246000fd5b0492506004810190505b6064831061215f5760648381612155577f4e487b7100000000000000000000000000000000000000000000000000000000600052601260045260246000fd5b0492506002810190505b600a831061216e576001810190505b80915050919050565b82805461218390612fbc565b90600052602060002090601f0160209004810192826121a557600085556121ec565b82601f106121be57805160ff19168380011785556121ec565b828001600101855582156121ec579182015b828111156121eb5782518255916020019190600101906121d0565b5b5090506121f991906121fd565b5090565b5b808211156122165760008160009055506001016121fe565b5090565b600061222d61222884612e03565b612dde565b90508281526020810184848401111561224557600080fd5b612250848285612f7a565b509392505050565b60008135905061226781613564565b92915050565b60008135905061227c8161357b565b92915050565b60008135905061229181613592565b92915050565b6000815190506122a681613592565b92915050565b600082601f8301126122bd57600080fd5b81356122cd84826020860161221a565b91505092915050565b60008083601f8401126122e857600080fd5b8235905067ffffffffffffffff81111561230157600080fd5b60208301915083600182028301111561231957600080fd5b9250929050565b60008135905061232f816135a9565b92915050565b60006020828403121561234757600080fd5b600061235584828501612258565b91505092915050565b6000806040838503121561237157600080fd5b600061237f85828601612258565b925050602061239085828601612258565b9150509250929050565b6000806000606084860312156123af57600080fd5b60006123bd86828701612258565b93505060206123ce86828701612258565b92505060406123df86828701612320565b9150509250925092565b600080600080608085870312156123ff57600080fd5b600061240d87828801612258565b945050602061241e87828801612258565b935050604061242f87828801612320565b925050606085013567ffffffffffffffff81111561244c57600080fd5b612458878288016122ac565b91505092959194509250565b60008060008060008060a0878903121561247d57600080fd5b600061248b89828a01612258565b965050602061249c89828a01612258565b95505060406124ad89828a01612320565b945050606087013567ffffffffffffffff8111156124ca57600080fd5b6124d689828a016122d6565b935093505060806124e989828a01612320565b9150509295509295509295565b6000806040838503121561250957600080fd5b600061251785828601612258565b92505060206125288582860161226d565b9150509250929050565b6000806040838503121561254557600080fd5b600061255385828601612258565b925050602061256485828601612320565b9150509250929050565b60006020828403121561258057600080fd5b600061258e84828501612282565b91505092915050565b6000602082840312156125a957600080fd5b60006125b784828501612297565b91505092915050565b6000806000806000608086880312156125d857600080fd5b600086013567ffffffffffffffff8111156125f257600080fd5b6125fe888289016122d6565b9550955050602061261188828901612320565b935050604061262288828901612320565b92505060606126338882890161226d565b9150509295509295909350565b60006020828403121561265257600080fd5b600061266084828501612320565b91505092915050565b6000806040838503121561267c57600080fd5b600061268a85828601612320565b925050602061269b85828601612320565b9150509250929050565b60006126b18383612a52565b60208301905092915050565b6126c681612f06565b82525050565b60006126d782612e44565b6126e18185612e72565b93506126ec83612e34565b8060005b8381101561271d57815161270488826126a5565b975061270f83612e65565b9250506001810190506126f0565b5085935050505092915050565b61273381612f18565b82525050565b600061274482612e4f565b61274e8185612e83565b935061275e818560208601612f89565b612767816130f5565b840191505092915050565b600061277d82612e5a565b6127878185612e94565b9350612797818560208601612f89565b6127a0816130f5565b840191505092915050565b60006127b682612e5a565b6127c08185612ea5565b93506127d0818560208601612f89565b80840191505092915050565b60006127e9601d83612e94565b91506127f482613106565b602082019050919050565b600061280c602d83612e94565b91506128178261312f565b604082019050919050565b600061282f603283612e94565b915061283a8261317e565b604082019050919050565b6000612852602583612e94565b915061285d826131cd565b604082019050919050565b6000612875601c83612e94565b91506128808261321c565b602082019050919050565b6000612898602483612e94565b91506128a382613245565b604082019050919050565b60006128bb601983612e94565b91506128c682613294565b602082019050919050565b60006128de603583612e94565b91506128e9826132bd565b604082019050919050565b6000612901601b83612e94565b915061290c8261330c565b602082019050919050565b6000612924602983612e94565b915061292f82613335565b604082019050919050565b6000612947601083612e94565b915061295282613384565b602082019050919050565b600061296a602e83612e94565b9150612975826133ad565b604082019050919050565b600061298d602083612e94565b9150612998826133fc565b602082019050919050565b60006129b0600d83612e94565b91506129bb82613425565b602082019050919050565b60006129d3601883612e94565b91506129de8261344e565b602082019050919050565b60006129f6602183612e94565b9150612a0182613477565b604082019050919050565b6000612a19603d83612e94565b9150612a24826134c6565b604082019050919050565b6000612a3c603183612e94565b9150612a4782613515565b604082019050919050565b612a5b81612f70565b82525050565b612a6a81612f70565b82525050565b6000612a7c82856127ab565b9150612a8882846127ab565b91508190509392505050565b6000602082019050612aa960008301846126bd565b92915050565b6000608082019050612ac460008301876126bd565b612ad160208301866126bd565b612ade6040830185612a61565b8181036060830152612af08184612739565b905095945050505050565b6000604082019050612b1060008301856126bd565b612b1d6020830184612a61565b9392505050565b60006020820190508181036000830152612b3e81846126cc565b905092915050565b6000602082019050612b5b600083018461272a565b92915050565b60006020820190508181036000830152612b7b8184612772565b905092915050565b60006020820190508181036000830152612b9c816127dc565b9050919050565b60006020820190508181036000830152612bbc816127ff565b9050919050565b60006020820190508181036000830152612bdc81612822565b9050919050565b60006020820190508181036000830152612bfc81612845565b9050919050565b60006020820190508181036000830152612c1c81612868565b9050919050565b60006020820190508181036000830152612c3c8161288b565b9050919050565b60006020820190508181036000830152612c5c816128ae565b9050919050565b60006020820190508181036000830152612c7c816128d1565b9050919050565b60006020820190508181036000830152612c9c816128f4565b9050919050565b60006020820190508181036000830152612cbc81612917565b9050919050565b60006020820190508181036000830152612cdc8161293a565b9050919050565b60006020820190508181036000830152612cfc8161295d565b9050919050565b60006020820190508181036000830152612d1c81612980565b9050919050565b60006020820190508181036000830152612d3c816129a3565b9050919050565b60006020820190508181036000830152612d5c816129c6565b9050919050565b60006020820190508181036000830152612d7c816129e9565b9050919050565b60006020820190508181036000830152612d9c81612a0c565b9050919050565b60006020820190508181036000830152612dbc81612a2f565b9050919050565b6000602082019050612dd86000830184612a61565b92915050565b6000612de8612df9565b9050612df48282612fee565b919050565b6000604051905090565b600067ffffffffffffffff821115612e1e57612e1d6130c6565b5b612e27826130f5565b9050602081019050919050565b6000819050602082019050919050565b600081519050919050565b600081519050919050565b600081519050919050565b6000602082019050919050565b600082825260208201905092915050565b600082825260208201905092915050565b600082825260208201905092915050565b600081905092915050565b6000612ebb82612f70565b9150612ec683612f70565b9250827fffffffffffffffffffffffffffffffffffffffffffffffffffffffffffffffff03821115612efb57612efa613068565b5b828201905092915050565b6000612f1182612f50565b9050919050565b60008115159050919050565b60007fffffffff0000000000000000000000000000000000000000000000000000000082169050919050565b600073ffffffffffffffffffffffffffffffffffffffff82169050919050565b6000819050919050565b82818337600083830152505050565b60005b83811015612fa7578082015181840152602081019050612f8c565b83811115612fb6576000848401525b50505050565b60006002820490506001821680612fd457607f821691505b60208210811415612fe857612fe7613097565b5b50919050565b612ff7826130f5565b810181811067ffffffffffffffff82111715613016576130156130c6565b5b80604052505050565b600061302a82612f70565b91507fffffffffffffffffffffffffffffffffffffffffffffffffffffffffffffffff82141561305d5761305c613068565b5b600182019050919050565b7f4e487b7100000000000000000000000000000000000000000000000000000000600052601160045260246000fd5b7f4e487b7100000000000000000000000000000000000000000000000000000000600052602260045260246000fd5b7f4e487b7100000000000000000000000000000000000000000000000000000000600052604160045260246000fd5b6000601f19601f8301169050919050565b7f4e6f7420616c6c6f77656420746f207472616e7366657220746f6b656e000000600082015250565b7f4552433732313a2063616c6c6572206973206e6f7420746f6b656e206f776e6560008201527f72206f7220617070726f76656400000000000000000000000000000000000000602082015250565b7f4552433732313a207472616e7366657220746f206e6f6e20455243373231526560008201527f63656976657220696d706c656d656e7465720000000000000000000000000000602082015250565b7f4552433732313a207472616e736665722066726f6d20696e636f72726563742060008201527f6f776e6572000000000000000000000000000000000000000000000000000000602082015250565b7f4552433732313a20746f6b656e20616c7265616479206d696e74656400000000600082015250565b7f4552433732313a207472616e7366657220746f20746865207a65726f2061646460008201527f7265737300000000000000000000000000000000000000000000000000000000602082015250565b7f4552433732313a20617070726f766520746f2063616c6c657200000000000000600082015250565b7f4f6e6c7920697373756572206f662074686973206576656e742063616e20626560008201527f206163636573732074686520746f6b656e496473210000000000000000000000602082015250565b7f546f6b656e20555249206d757374206e6f7420626520656d7074790000000000600082015250565b7f4552433732313a2061646472657373207a65726f206973206e6f74206120766160008201527f6c6964206f776e65720000000000000000000000000000000000000000000000602082015250565b7f496e76616c6964207175616e7469747900000000000000000000000000000000600082015250565b7f45524337323155524953746f726167653a2055524920736574206f66206e6f6e60008201527f6578697374656e7420746f6b656e000000000000000000000000000000000000602082015250565b7f4552433732313a206d696e7420746f20746865207a65726f2061646472657373600082015250565b7f496e76616c69642076616c756500000000000000000000000000000000000000600082015250565b7f4552433732313a20696e76616c696420746f6b656e2049440000000000000000600082015250565b7f4552433732313a20617070726f76616c20746f2063757272656e74206f776e6560008201527f7200000000000000000000000000000000000000000000000000000000000000602082015250565b7f4552433732313a20617070726f76652063616c6c6572206973206e6f7420746f60008201527f6b656e206f776e6572206f7220617070726f76656420666f7220616c6c000000602082015250565b7f4552433732313a207472616e736665722063616c6c6572206973206e6f74206f60008201527f776e6572206e6f7220617070726f766564000000000000000000000000000000602082015250565b61356d81612f06565b811461357857600080fd5b50565b61358481612f18565b811461358f57600080fd5b50565b61359b81612f24565b81146135a657600080fd5b50565b6135b281612f70565b81146135bd57600080fd5b5056fea26469706673582212200e07d84ec4204e77d78258b55275a752f6b0163fc5ffd5a69ec077ef812aac2764736f6c63430008040033",
  "linkReferences": {},
  "deployedLinkReferences": {}
}