{
  "_format": "hh-sol-artifact-1",
  "contractName": "TrustifiedNonTransferable",
  "sourceName": "contracts/Trustified-NonTransferable.sol",
  "abi": [
    {
      "inputs": [],
      "stateMutability": "nonpayable",
      "type": "constructor"
    },
    {
      "anonymous": false,
      "inputs": [
        {
          "indexed": true,
          "internalType": "address",
          "name": "owner",
          "type": "address"
        },
        {
          "indexed": true,
          "internalType": "address",
          "name": "approved",
          "type": "address"
        },
        {
          "indexed": true,
          "internalType": "uint256",
          "name": "tokenId",
          "type": "uint256"
        }
      ],
      "name": "Approval",
      "type": "event"
    },
    {
      "anonymous": false,
      "inputs": [
        {
          "indexed": true,
          "internalType": "address",
          "name": "owner",
          "type": "address"
        },
        {
          "indexed": true,
          "internalType": "address",
          "name": "operator",
          "type": "address"
        },
        {
          "indexed": false,
          "internalType": "bool",
          "name": "approved",
          "type": "bool"
        }
      ],
      "name": "ApprovalForAll",
      "type": "event"
    },
    {
      "anonymous": false,
      "inputs": [
        {
          "indexed": false,
          "internalType": "address",
          "name": "",
          "type": "address"
        },
        {
          "indexed": false,
          "internalType": "uint256",
          "name": "",
          "type": "uint256"
        }
      ],
      "name": "TokenMinted",
      "type": "event"
    },
    {
      "anonymous": false,
      "inputs": [
        {
          "indexed": true,
          "internalType": "address",
          "name": "from",
          "type": "address"
        },
        {
          "indexed": true,
          "internalType": "address",
          "name": "to",
          "type": "address"
        },
        {
          "indexed": true,
          "internalType": "uint256",
          "name": "tokenId",
          "type": "uint256"
        }
      ],
      "name": "Transfer",
      "type": "event"
    },
    {
      "inputs": [],
      "name": "allTokenMinted",
      "outputs": [
        {
          "internalType": "bool",
          "name": "",
          "type": "bool"
        }
      ],
      "stateMutability": "view",
      "type": "function"
    },
    {
      "inputs": [
        {
          "internalType": "address",
          "name": "to",
          "type": "address"
        },
        {
          "internalType": "uint256",
          "name": "tokenId",
          "type": "uint256"
        }
      ],
      "name": "approve",
      "outputs": [],
      "stateMutability": "nonpayable",
      "type": "function"
    },
    {
      "inputs": [
        {
          "internalType": "address",
          "name": "owner",
          "type": "address"
        }
      ],
      "name": "balanceOf",
      "outputs": [
        {
          "internalType": "uint256",
          "name": "",
          "type": "uint256"
        }
      ],
      "stateMutability": "view",
      "type": "function"
    },
    {
      "inputs": [
        {
          "internalType": "string",
          "name": "tokenUri",
          "type": "string"
        },
        {
          "internalType": "uint256",
          "name": "quantity",
          "type": "uint256"
        },
        {
          "internalType": "uint256",
          "name": "value",
          "type": "uint256"
        }
      ],
      "name": "bulkMintERC721",
      "outputs": [],
      "stateMutability": "nonpayable",
      "type": "function"
    },
    {
      "inputs": [
        {
          "internalType": "uint256",
          "name": "tokenId",
          "type": "uint256"
        }
      ],
      "name": "getApproved",
      "outputs": [
        {
          "internalType": "address",
          "name": "",
          "type": "address"
        }
      ],
      "stateMutability": "view",
      "type": "function"
    },
    {
      "inputs": [],
      "name": "getMintStatus",
      "outputs": [
        {
          "internalType": "bool",
          "name": "",
          "type": "bool"
        }
      ],
      "stateMutability": "view",
      "type": "function"
    },
    {
      "inputs": [
        {
          "internalType": "uint256",
          "name": "eventId",
          "type": "uint256"
        }
      ],
      "name": "getTokenIds",
      "outputs": [
        {
          "internalType": "uint256[]",
          "name": "",
          "type": "uint256[]"
        }
      ],
      "stateMutability": "view",
      "type": "function"
    },
    {
      "inputs": [
        {
          "internalType": "address",
          "name": "owner",
          "type": "address"
        },
        {
          "internalType": "address",
          "name": "operator",
          "type": "address"
        }
      ],
      "name": "isApprovedForAll",
      "outputs": [
        {
          "internalType": "bool",
          "name": "",
          "type": "bool"
        }
      ],
      "stateMutability": "view",
      "type": "function"
    },
    {
      "inputs": [
        {
          "internalType": "uint256",
          "name": "",
          "type": "uint256"
        }
      ],
      "name": "issuers",
      "outputs": [
        {
          "internalType": "address",
          "name": "",
          "type": "address"
        }
      ],
      "stateMutability": "view",
      "type": "function"
    },
    {
      "inputs": [],
      "name": "name",
      "outputs": [
        {
          "internalType": "string",
          "name": "",
          "type": "string"
        }
      ],
      "stateMutability": "view",
      "type": "function"
    },
    {
      "inputs": [
        {
          "internalType": "uint256",
          "name": "tokenId",
          "type": "uint256"
        }
      ],
      "name": "ownerOf",
      "outputs": [
        {
          "internalType": "address",
          "name": "",
          "type": "address"
        }
      ],
      "stateMutability": "view",
      "type": "function"
    },
    {
      "inputs": [
        {
          "internalType": "string",
          "name": "tokenURI",
          "type": "string"
        },
        {
          "internalType": "uint256",
          "name": "value",
          "type": "uint256"
        }
      ],
      "name": "safeMint",
      "outputs": [
        {
          "internalType": "uint256",
          "name": "",
          "type": "uint256"
        }
      ],
      "stateMutability": "nonpayable",
      "type": "function"
    },
    {
      "inputs": [
        {
          "internalType": "address",
          "name": "from",
          "type": "address"
        },
        {
          "internalType": "address",
          "name": "to",
          "type": "address"
        },
        {
          "internalType": "uint256",
          "name": "tokenId",
          "type": "uint256"
        }
      ],
      "name": "safeTransferFrom",
      "outputs": [],
      "stateMutability": "nonpayable",
      "type": "function"
    },
    {
      "inputs": [
        {
          "internalType": "address",
          "name": "from",
          "type": "address"
        },
        {
          "internalType": "address",
          "name": "to",
          "type": "address"
        },
        {
          "internalType": "uint256",
          "name": "tokenId",
          "type": "uint256"
        },
        {
          "internalType": "bytes",
          "name": "data",
          "type": "bytes"
        }
      ],
      "name": "safeTransferFrom",
      "outputs": [],
      "stateMutability": "nonpayable",
      "type": "function"
    },
    {
      "inputs": [
        {
          "internalType": "address",
          "name": "operator",
          "type": "address"
        },
        {
          "internalType": "bool",
          "name": "approved",
          "type": "bool"
        }
      ],
      "name": "setApprovalForAll",
      "outputs": [],
      "stateMutability": "nonpayable",
      "type": "function"
    },
    {
      "inputs": [
        {
          "internalType": "bytes4",
          "name": "interfaceId",
          "type": "bytes4"
        }
      ],
      "name": "supportsInterface",
      "outputs": [
        {
          "internalType": "bool",
          "name": "",
          "type": "bool"
        }
      ],
      "stateMutability": "view",
      "type": "function"
    },
    {
      "inputs": [],
      "name": "symbol",
      "outputs": [
        {
          "internalType": "string",
          "name": "",
          "type": "string"
        }
      ],
      "stateMutability": "view",
      "type": "function"
    },
    {
      "inputs": [
        {
          "internalType": "uint256",
          "name": "",
          "type": "uint256"
        },
        {
          "internalType": "uint256",
          "name": "",
          "type": "uint256"
        }
      ],
      "name": "tokenIds",
      "outputs": [
        {
          "internalType": "uint256",
          "name": "",
          "type": "uint256"
        }
      ],
      "stateMutability": "view",
      "type": "function"
    },
    {
      "inputs": [
        {
          "internalType": "uint256",
          "name": "tokenId",
          "type": "uint256"
        }
      ],
      "name": "tokenURI",
      "outputs": [
        {
          "internalType": "string",
          "name": "",
          "type": "string"
        }
      ],
      "stateMutability": "view",
      "type": "function"
    },
    {
      "inputs": [
        {
          "internalType": "address",
          "name": "from",
          "type": "address"
        },
        {
          "internalType": "address",
          "name": "to",
          "type": "address"
        },
        {
          "internalType": "uint256",
          "name": "tokenId",
          "type": "uint256"
        }
      ],
      "name": "transferFrom",
      "outputs": [],
      "stateMutability": "nonpayable",
      "type": "function"
    },
    {
      "inputs": [
        {
          "internalType": "address",
          "name": "from",
          "type": "address"
        },
        {
          "internalType": "address",
          "name": "to",
          "type": "address"
        },
        {
          "internalType": "uint256",
          "name": "tokenId",
          "type": "uint256"
        },
        {
          "internalType": "string",
          "name": "tokenURI",
          "type": "string"
        },
        {
          "internalType": "uint256",
          "name": "value",
          "type": "uint256"
        }
      ],
      "name": "transferToken",
      "outputs": [],
      "stateMutability": "nonpayable",
      "type": "function"
    }
  ],
  "bytecode": "0x60806040523480156200001157600080fd5b506040518060400160405280600a81526020017f54727573746966696564000000000000000000000000000000000000000000008152506040518060400160405280600381526020017f54464e00000000000000000000000000000000000000000000000000000000008152506001828281600090805190602001906200009a929190620000d9565b508060019080519060200190620000b3929190620000d9565b50505080600660006101000a81548160ff021916908315150217905550505050620001ee565b828054620000e79062000189565b90600052602060002090601f0160209004810192826200010b576000855562000157565b82601f106200012657805160ff191683800117855562000157565b8280016001018555821562000157579182015b828111156200015657825182559160200191906001019062000139565b5b5090506200016691906200016a565b5090565b5b80821115620001855760008160009055506001016200016b565b5090565b60006002820490506001821680620001a257607f821691505b60208210811415620001b957620001b8620001bf565b5b50919050565b7f4e487b7100000000000000000000000000000000000000000000000000000000600052602260045260246000fd5b6135bd80620001fe6000396000f3fe608060405234801561001057600080fd5b50600436106101375760003560e01c806361ec30c4116100b857806395d89b411161007c57806395d89b4114610372578063a22cb46514610390578063b88d4fde146103ac578063c87b56dd146103c8578063e985e9c5146103f8578063eed8cc351461042857610137565b806361ec30c4146102a85780636352211e146102d857806370a08231146103085780638057483414610338578063941ada0e1461035457610137565b80632cba83d1116100ff5780632cba83d1146101f257806342842e0e1461020e578063436afe321461022a57806346b145e11461024857806357991d301461027857610137565b806301ffc9a71461013c57806306fdde031461016c578063081812fc1461018a578063095ea7b3146101ba57806323b872dd146101d6575b600080fd5b610156600480360381019061015191906125ca565b610458565b6040516101639190612bb4565b60405180910390f35b61017461053a565b6040516101819190612bcf565b60405180910390f35b6101a4600480360381019061019f91906126e0565b6105cc565b6040516101b19190612acb565b60405180910390f35b6101d460048036038101906101cf919061258e565b610612565b005b6101f060048036038101906101eb91906123f6565b61072a565b005b61020c60048036038101906102079190612674565b610834565b005b610228600480360381019061022391906123f6565b61097d565b005b61023261099d565b60405161023f9190612bb4565b60405180910390f35b610262600480360381019061025d919061261c565b6109b0565b60405161026f9190612dd1565b60405180910390f35b610292600480360381019061028d91906126e0565b610a87565b60405161029f9190612b92565b60405180910390f35b6102c260048036038101906102bd91906126e0565b610af2565b6040516102cf9190612acb565b60405180910390f35b6102f260048036038101906102ed91906126e0565b610b25565b6040516102ff9190612acb565b60405180910390f35b610322600480360381019061031d9190612391565b610bac565b60405161032f9190612dd1565b60405180910390f35b610352600480360381019061034d91906124c0565b610c64565b005b61035c610e18565b6040516103699190612bb4565b60405180910390f35b61037a610e2f565b6040516103879190612bcf565b60405180910390f35b6103aa60048036038101906103a59190612552565b610ec1565b005b6103c660048036038101906103c19190612445565b610ed7565b005b6103e260048036038101906103dd91906126e0565b610f39565b6040516103ef9190612bcf565b60405180910390f35b610412600480360381019061040d91906123ba565b61104c565b60405161041f9190612bb4565b60405180910390f35b610442600480360381019061043d9190612709565b6110e0565b60405161044f9190612dd1565b60405180910390f35b60007f80ac58cd000000000000000000000000000000000000000000000000000000007bffffffffffffffffffffffffffffffffffffffffffffffffffffffff1916827bffffffffffffffffffffffffffffffffffffffffffffffffffffffff1916148061052357507f5b5e139f000000000000000000000000000000000000000000000000000000007bffffffffffffffffffffffffffffffffffffffffffffffffffffffff1916827bffffffffffffffffffffffffffffffffffffffffffffffffffffffff1916145b80610533575061053282611111565b5b9050919050565b60606000805461054990612ffe565b80601f016020809104026020016040519081016040528092919081815260200182805461057590612ffe565b80156105c25780601f10610597576101008083540402835291602001916105c2565b820191906000526020600020905b8154815290600101906020018083116105a557829003601f168201915b5050505050905090565b60006105d78261117b565b6004600083815260200190815260200160002060009054906101000a900473ffffffffffffffffffffffffffffffffffffffff169050919050565b600061061d82610b25565b90508073ffffffffffffffffffffffffffffffffffffffff168373ffffffffffffffffffffffffffffffffffffffff16141561068e576040517f08c379a000000000000000000000000000000000000000000000000000000000815260040161068590612d51565b60405180910390fd5b8073ffffffffffffffffffffffffffffffffffffffff166106ad6111c6565b73ffffffffffffffffffffffffffffffffffffffff1614806106dc57506106db816106d66111c6565b61104c565b5b61071b576040517f08c379a000000000000000000000000000000000000000000000000000000000815260040161071290612d71565b60405180910390fd5b61072583836111ce565b505050565b60011515600660009054906101000a900460ff16151514156107af57600115156008600083815260200190815260200160002060009054906101000a900460ff16151514156107ae576040517f08c379a00000000000000000000000000000000000000000000000000000000081526004016107a590612db1565b60405180910390fd5b5b6107b98382611287565b6107f8576040517f08c379a00000000000000000000000000000000000000000000000000000000081526004016107ef90612d91565b60405180910390fd5b61080383838361131c565b60016008600083815260200190815260200160002060006101000a81548160ff021916908315150217905550505050565b6000610840600a611616565b905061084c600a611624565b60005b8381101561093c5760006108648787866109b0565b9050600c600084815260200190815260200160002081908060018154018082558091505060019003906000526020600020016000909190919091505533600d600085815260200190815260200160002060006101000a81548173ffffffffffffffffffffffffffffffffffffffff021916908373ffffffffffffffffffffffffffffffffffffffff16021790555060006001826109019190612ebe565b905085811415610927576001600b60006101000a81548160ff0219169083151502179055505b5050808061093490613061565b91505061084f565b507fb9144c96c86541f6fa89c9f2f02495cccf4b08cd6643e26d34ee00aa586558a8338260405161096e929190612b69565b60405180910390a15050505050565b61099883838360405180602001604052806000815250610ed7565b505050565b600b60009054906101000a900460ff1681565b60008082101580156109c3575060018211155b610a02576040517f08c379a00000000000000000000000000000000000000000000000000000000081526004016109f990612d11565b60405180910390fd5b6000610a0e6009611616565b9050610a1a6009611624565b610a24308261163a565b6000831415610a7c57610a7b8186868080601f016020809104026020016040519081016040528093929190818152602001838380828437600081840152601f19601f82011690508083019250505050505050611858565b5b809150509392505050565b6060600c6000838152602001908152602001600020805480602002602001604051908101604052809291908181526020018280548015610ae657602002820191906000526020600020905b815481526020019060010190808311610ad2575b50505050509050919050565b600d6020528060005260406000206000915054906101000a900473ffffffffffffffffffffffffffffffffffffffff1681565b600080610b31836118cc565b9050600073ffffffffffffffffffffffffffffffffffffffff168173ffffffffffffffffffffffffffffffffffffffff161415610ba3576040517f08c379a0000000000000000000000000000000000000000000000000000000008152600401610b9a90612d31565b60405180910390fd5b80915050919050565b60008073ffffffffffffffffffffffffffffffffffffffff168273ffffffffffffffffffffffffffffffffffffffff161415610c1d576040517f08c379a0000000000000000000000000000000000000000000000000000000008152600401610c1490612cb1565b60405180910390fd5b600360008373ffffffffffffffffffffffffffffffffffffffff1673ffffffffffffffffffffffffffffffffffffffff168152602001908152602001600020549050919050565b60008110158015610c76575060018111155b610cb5576040517f08c379a0000000000000000000000000000000000000000000000000000000008152600401610cac90612d11565b60405180910390fd5b60011515600e600086815260200190815260200160002060009054906101000a900460ff1615151415610d1d576040517f08c379a0000000000000000000000000000000000000000000000000000000008152600401610d1490612db1565b60405180910390fd5b6001811415610d7557610d748484848080601f016020809104026020016040519081016040528093929190818152602001838380828437600081840152601f19601f82011690508083019250505050505050611858565b5b3073ffffffffffffffffffffffffffffffffffffffff166323b872dd8787876040518463ffffffff1660e01b8152600401610db293929190612ae6565b600060405180830381600087803b158015610dcc57600080fd5b505af1158015610de0573d6000803e3d6000fd5b505050506001600e600086815260200190815260200160002060006101000a81548160ff021916908315150217905550505050505050565b6000600b60009054906101000a900460ff16905090565b606060018054610e3e90612ffe565b80601f0160208091040260200160405190810160405280929190818152602001828054610e6a90612ffe565b8015610eb75780601f10610e8c57610100808354040283529160200191610eb7565b820191906000526020600020905b815481529060010190602001808311610e9a57829003601f168201915b5050505050905090565b610ed3610ecc6111c6565b8383611909565b5050565b610ee8610ee26111c6565b83611287565b610f27576040517f08c379a0000000000000000000000000000000000000000000000000000000008152600401610f1e90612bf1565b60405180910390fd5b610f3384848484611a76565b50505050565b6060610f448261117b565b6000600760008481526020019081526020016000208054610f6490612ffe565b80601f0160208091040260200160405190810160405280929190818152602001828054610f9090612ffe565b8015610fdd5780601f10610fb257610100808354040283529160200191610fdd565b820191906000526020600020905b815481529060010190602001808311610fc057829003601f168201915b505050505090506000610fee611ad2565b9050600081511415611004578192505050611047565b600082511115611039578082604051602001611021929190612aa7565b60405160208183030381529060405292505050611047565b61104284611ae9565b925050505b919050565b6000600560008473ffffffffffffffffffffffffffffffffffffffff1673ffffffffffffffffffffffffffffffffffffffff16815260200190815260200160002060008373ffffffffffffffffffffffffffffffffffffffff1673ffffffffffffffffffffffffffffffffffffffff16815260200190815260200160002060009054906101000a900460ff16905092915050565b600c60205281600052604060002081815481106110fc57600080fd5b90600052602060002001600091509150505481565b60007f01ffc9a7000000000000000000000000000000000000000000000000000000007bffffffffffffffffffffffffffffffffffffffffffffffffffffffff1916827bffffffffffffffffffffffffffffffffffffffffffffffffffffffff1916149050919050565b61118481611b51565b6111c3576040517f08c379a00000000000000000000000000000000000000000000000000000000081526004016111ba90612d31565b60405180910390fd5b50565b600033905090565b816004600083815260200190815260200160002060006101000a81548173ffffffffffffffffffffffffffffffffffffffff021916908373ffffffffffffffffffffffffffffffffffffffff160217905550808273ffffffffffffffffffffffffffffffffffffffff1661124183610b25565b73ffffffffffffffffffffffffffffffffffffffff167f8c5be1e5ebec7d5bd14f71427d1e84f3dd0314c0f7b2291e5b200ac8c7c3b92560405160405180910390a45050565b60008061129383610b25565b90508073ffffffffffffffffffffffffffffffffffffffff168473ffffffffffffffffffffffffffffffffffffffff1614806112d557506112d4818561104c565b5b8061131357508373ffffffffffffffffffffffffffffffffffffffff166112fb846105cc565b73ffffffffffffffffffffffffffffffffffffffff16145b91505092915050565b8273ffffffffffffffffffffffffffffffffffffffff1661133c82610b25565b73ffffffffffffffffffffffffffffffffffffffff1614611392576040517f08c379a000000000000000000000000000000000000000000000000000000000815260040161138990612c31565b60405180910390fd5b600073ffffffffffffffffffffffffffffffffffffffff168273ffffffffffffffffffffffffffffffffffffffff161415611402576040517f08c379a00000000000000000000000000000000000000000000000000000000081526004016113f990612c71565b60405180910390fd5b61140f8383836001611b92565b8273ffffffffffffffffffffffffffffffffffffffff1661142f82610b25565b73ffffffffffffffffffffffffffffffffffffffff1614611485576040517f08c379a000000000000000000000000000000000000000000000000000000000815260040161147c90612c31565b60405180910390fd5b6004600082815260200190815260200160002060006101000a81549073ffffffffffffffffffffffffffffffffffffffff02191690556001600360008573ffffffffffffffffffffffffffffffffffffffff1673ffffffffffffffffffffffffffffffffffffffff168152602001908152602001600020600082825403925050819055506001600360008473ffffffffffffffffffffffffffffffffffffffff1673ffffffffffffffffffffffffffffffffffffffff16815260200190815260200160002060008282540192505081905550816002600083815260200190815260200160002060006101000a81548173ffffffffffffffffffffffffffffffffffffffff021916908373ffffffffffffffffffffffffffffffffffffffff160217905550808273ffffffffffffffffffffffffffffffffffffffff168473ffffffffffffffffffffffffffffffffffffffff167fddf252ad1be2c89b69c2b068fc378daa952ba7f163c4a11628f55a4df523b3ef60405160405180910390a46116118383836001611cb8565b505050565b600081600001549050919050565b6001816000016000828254019250508190555050565b600073ffffffffffffffffffffffffffffffffffffffff168273ffffffffffffffffffffffffffffffffffffffff1614156116aa576040517f08c379a00000000000000000000000000000000000000000000000000000000081526004016116a190612cf1565b60405180910390fd5b6116b381611b51565b156116f3576040517f08c379a00000000000000000000000000000000000000000000000000000000081526004016116ea90612c51565b60405180910390fd5b611701600083836001611b92565b61170a81611b51565b1561174a576040517f08c379a000000000000000000000000000000000000000000000000000000000815260040161174190612c51565b60405180910390fd5b6001600360008473ffffffffffffffffffffffffffffffffffffffff1673ffffffffffffffffffffffffffffffffffffffff16815260200190815260200160002060008282540192505081905550816002600083815260200190815260200160002060006101000a81548173ffffffffffffffffffffffffffffffffffffffff021916908373ffffffffffffffffffffffffffffffffffffffff160217905550808273ffffffffffffffffffffffffffffffffffffffff16600073ffffffffffffffffffffffffffffffffffffffff167fddf252ad1be2c89b69c2b068fc378daa952ba7f163c4a11628f55a4df523b3ef60405160405180910390a4611854600083836001611cb8565b5050565b61186182611b51565b6118a0576040517f08c379a000000000000000000000000000000000000000000000000000000000815260040161189790612cd1565b60405180910390fd5b806007600084815260200190815260200160002090805190602001906118c79291906121d3565b505050565b60006002600083815260200190815260200160002060009054906101000a900473ffffffffffffffffffffffffffffffffffffffff169050919050565b8173ffffffffffffffffffffffffffffffffffffffff168373ffffffffffffffffffffffffffffffffffffffff161415611978576040517f08c379a000000000000000000000000000000000000000000000000000000000815260040161196f90612c91565b60405180910390fd5b80600560008573ffffffffffffffffffffffffffffffffffffffff1673ffffffffffffffffffffffffffffffffffffffff16815260200190815260200160002060008473ffffffffffffffffffffffffffffffffffffffff1673ffffffffffffffffffffffffffffffffffffffff16815260200190815260200160002060006101000a81548160ff0219169083151502179055508173ffffffffffffffffffffffffffffffffffffffff168373ffffffffffffffffffffffffffffffffffffffff167f17307eab39ab6107e8899845ad3d59bd9653f200f220920489ca2b5937696c3183604051611a699190612bb4565b60405180910390a3505050565b611a8184848461131c565b611a8d84848484611cbe565b611acc576040517f08c379a0000000000000000000000000000000000000000000000000000000008152600401611ac390612c11565b60405180910390fd5b50505050565b606060405180602001604052806000815250905090565b6060611af48261117b565b6000611afe611ad2565b90506000815111611b1e5760405180602001604052806000815250611b49565b80611b2884611e55565b604051602001611b39929190612aa7565b6040516020818303038152906040525b915050919050565b60008073ffffffffffffffffffffffffffffffffffffffff16611b73836118cc565b73ffffffffffffffffffffffffffffffffffffffff1614159050919050565b6001811115611cb257600073ffffffffffffffffffffffffffffffffffffffff168473ffffffffffffffffffffffffffffffffffffffff1614611c265780600360008673ffffffffffffffffffffffffffffffffffffffff1673ffffffffffffffffffffffffffffffffffffffff1681526020019081526020016000206000828254611c1e9190612f14565b925050819055505b600073ffffffffffffffffffffffffffffffffffffffff168373ffffffffffffffffffffffffffffffffffffffff1614611cb15780600360008573ffffffffffffffffffffffffffffffffffffffff1673ffffffffffffffffffffffffffffffffffffffff1681526020019081526020016000206000828254611ca99190612ebe565b925050819055505b5b50505050565b50505050565b6000611cdf8473ffffffffffffffffffffffffffffffffffffffff16611f79565b15611e48578373ffffffffffffffffffffffffffffffffffffffff1663150b7a02611d086111c6565b8786866040518563ffffffff1660e01b8152600401611d2a9493929190612b1d565b602060405180830381600087803b158015611d4457600080fd5b505af1925050508015611d7557506040513d601f19601f82011682018060405250810190611d7291906125f3565b60015b611df8573d8060008114611da5576040519150601f19603f3d011682016040523d82523d6000602084013e611daa565b606091505b50600081511415611df0576040517f08c379a0000000000000000000000000000000000000000000000000000000008152600401611de790612c11565b60405180910390fd5b805181602001fd5b63150b7a0260e01b7bffffffffffffffffffffffffffffffffffffffffffffffffffffffff1916817bffffffffffffffffffffffffffffffffffffffffffffffffffffffff191614915050611e4d565b600190505b949350505050565b606060006001611e6484611f9c565b01905060008167ffffffffffffffff811115611ea9577f4e487b7100000000000000000000000000000000000000000000000000000000600052604160045260246000fd5b6040519080825280601f01601f191660200182016040528015611edb5781602001600182028036833780820191505090505b509050600082602001820190505b600115611f6e578080600190039150507f3031323334353637383961626364656600000000000000000000000000000000600a86061a8153600a8581611f58577f4e487b7100000000000000000000000000000000000000000000000000000000600052601260045260246000fd5b0494506000851415611f6957611f6e565b611ee9565b819350505050919050565b6000808273ffffffffffffffffffffffffffffffffffffffff163b119050919050565b600080600090507a184f03e93ff9f4daa797ed6e38ed64bf6a1f0100000000000000008310612020577a184f03e93ff9f4daa797ed6e38ed64bf6a1f0100000000000000008381612016577f4e487b7100000000000000000000000000000000000000000000000000000000600052601260045260246000fd5b0492506040810190505b6d04ee2d6d415b85acef81000000008310612083576d04ee2d6d415b85acef81000000008381612079577f4e487b7100000000000000000000000000000000000000000000000000000000600052601260045260246000fd5b0492506020810190505b662386f26fc1000083106120d857662386f26fc1000083816120ce577f4e487b7100000000000000000000000000000000000000000000000000000000600052601260045260246000fd5b0492506010810190505b6305f5e1008310612127576305f5e100838161211d577f4e487b7100000000000000000000000000000000000000000000000000000000600052601260045260246000fd5b0492506008810190505b6127108310612172576127108381612168577f4e487b7100000000000000000000000000000000000000000000000000000000600052601260045260246000fd5b0492506004810190505b606483106121bb57606483816121b1577f4e487b7100000000000000000000000000000000000000000000000000000000600052601260045260246000fd5b0492506002810190505b600a83106121ca576001810190505b80915050919050565b8280546121df90612ffe565b90600052602060002090601f0160209004810192826122015760008555612248565b82601f1061221a57805160ff1916838001178555612248565b82800160010185558215612248579182015b8281111561224757825182559160200191906001019061222c565b5b5090506122559190612259565b5090565b5b8082111561227257600081600090555060010161225a565b5090565b600061228961228484612e11565b612dec565b9050828152602081018484840111156122a157600080fd5b6122ac848285612fbc565b509392505050565b6000813590506122c38161352b565b92915050565b6000813590506122d881613542565b92915050565b6000813590506122ed81613559565b92915050565b60008151905061230281613559565b92915050565b600082601f83011261231957600080fd5b8135612329848260208601612276565b91505092915050565b60008083601f84011261234457600080fd5b8235905067ffffffffffffffff81111561235d57600080fd5b60208301915083600182028301111561237557600080fd5b9250929050565b60008135905061238b81613570565b92915050565b6000602082840312156123a357600080fd5b60006123b1848285016122b4565b91505092915050565b600080604083850312156123cd57600080fd5b60006123db858286016122b4565b92505060206123ec858286016122b4565b9150509250929050565b60008060006060848603121561240b57600080fd5b6000612419868287016122b4565b935050602061242a868287016122b4565b925050604061243b8682870161237c565b9150509250925092565b6000806000806080858703121561245b57600080fd5b6000612469878288016122b4565b945050602061247a878288016122b4565b935050604061248b8782880161237c565b925050606085013567ffffffffffffffff8111156124a857600080fd5b6124b487828801612308565b91505092959194509250565b60008060008060008060a087890312156124d957600080fd5b60006124e789828a016122b4565b96505060206124f889828a016122b4565b955050604061250989828a0161237c565b945050606087013567ffffffffffffffff81111561252657600080fd5b61253289828a01612332565b9350935050608061254589828a0161237c565b9150509295509295509295565b6000806040838503121561256557600080fd5b6000612573858286016122b4565b9250506020612584858286016122c9565b9150509250929050565b600080604083850312156125a157600080fd5b60006125af858286016122b4565b92505060206125c08582860161237c565b9150509250929050565b6000602082840312156125dc57600080fd5b60006125ea848285016122de565b91505092915050565b60006020828403121561260557600080fd5b6000612613848285016122f3565b91505092915050565b60008060006040848603121561263157600080fd5b600084013567ffffffffffffffff81111561264b57600080fd5b61265786828701612332565b9350935050602061266a8682870161237c565b9150509250925092565b6000806000806060858703121561268a57600080fd5b600085013567ffffffffffffffff8111156126a457600080fd5b6126b087828801612332565b945094505060206126c38782880161237c565b92505060406126d48782880161237c565b91505092959194509250565b6000602082840312156126f257600080fd5b60006127008482850161237c565b91505092915050565b6000806040838503121561271c57600080fd5b600061272a8582860161237c565b925050602061273b8582860161237c565b9150509250929050565b60006127518383612a89565b60208301905092915050565b61276681612f48565b82525050565b600061277782612e52565b6127818185612e80565b935061278c83612e42565b8060005b838110156127bd5781516127a48882612745565b97506127af83612e73565b925050600181019050612790565b5085935050505092915050565b6127d381612f5a565b82525050565b60006127e482612e5d565b6127ee8185612e91565b93506127fe818560208601612fcb565b61280781613137565b840191505092915050565b600061281d82612e68565b6128278185612ea2565b9350612837818560208601612fcb565b61284081613137565b840191505092915050565b600061285682612e68565b6128608185612eb3565b9350612870818560208601612fcb565b80840191505092915050565b6000612889602d83612ea2565b915061289482613148565b604082019050919050565b60006128ac603283612ea2565b91506128b782613197565b604082019050919050565b60006128cf602583612ea2565b91506128da826131e6565b604082019050919050565b60006128f2601c83612ea2565b91506128fd82613235565b602082019050919050565b6000612915602483612ea2565b91506129208261325e565b604082019050919050565b6000612938601983612ea2565b9150612943826132ad565b602082019050919050565b600061295b602983612ea2565b9150612966826132d6565b604082019050919050565b600061297e602e83612ea2565b915061298982613325565b604082019050919050565b60006129a1602083612ea2565b91506129ac82613374565b602082019050919050565b60006129c4600d83612ea2565b91506129cf8261339d565b602082019050919050565b60006129e7601883612ea2565b91506129f2826133c6565b602082019050919050565b6000612a0a602183612ea2565b9150612a15826133ef565b604082019050919050565b6000612a2d603d83612ea2565b9150612a388261343e565b604082019050919050565b6000612a50603183612ea2565b9150612a5b8261348d565b604082019050919050565b6000612a73602283612ea2565b9150612a7e826134dc565b604082019050919050565b612a9281612fb2565b82525050565b612aa181612fb2565b82525050565b6000612ab3828561284b565b9150612abf828461284b565b91508190509392505050565b6000602082019050612ae0600083018461275d565b92915050565b6000606082019050612afb600083018661275d565b612b08602083018561275d565b612b156040830184612a98565b949350505050565b6000608082019050612b32600083018761275d565b612b3f602083018661275d565b612b4c6040830185612a98565b8181036060830152612b5e81846127d9565b905095945050505050565b6000604082019050612b7e600083018561275d565b612b8b6020830184612a98565b9392505050565b60006020820190508181036000830152612bac818461276c565b905092915050565b6000602082019050612bc960008301846127ca565b92915050565b60006020820190508181036000830152612be98184612812565b905092915050565b60006020820190508181036000830152612c0a8161287c565b9050919050565b60006020820190508181036000830152612c2a8161289f565b9050919050565b60006020820190508181036000830152612c4a816128c2565b9050919050565b60006020820190508181036000830152612c6a816128e5565b9050919050565b60006020820190508181036000830152612c8a81612908565b9050919050565b60006020820190508181036000830152612caa8161292b565b9050919050565b60006020820190508181036000830152612cca8161294e565b9050919050565b60006020820190508181036000830152612cea81612971565b9050919050565b60006020820190508181036000830152612d0a81612994565b9050919050565b60006020820190508181036000830152612d2a816129b7565b9050919050565b60006020820190508181036000830152612d4a816129da565b9050919050565b60006020820190508181036000830152612d6a816129fd565b9050919050565b60006020820190508181036000830152612d8a81612a20565b9050919050565b60006020820190508181036000830152612daa81612a43565b9050919050565b60006020820190508181036000830152612dca81612a66565b9050919050565b6000602082019050612de66000830184612a98565b92915050565b6000612df6612e07565b9050612e028282613030565b919050565b6000604051905090565b600067ffffffffffffffff821115612e2c57612e2b613108565b5b612e3582613137565b9050602081019050919050565b6000819050602082019050919050565b600081519050919050565b600081519050919050565b600081519050919050565b6000602082019050919050565b600082825260208201905092915050565b600082825260208201905092915050565b600082825260208201905092915050565b600081905092915050565b6000612ec982612fb2565b9150612ed483612fb2565b9250827fffffffffffffffffffffffffffffffffffffffffffffffffffffffffffffffff03821115612f0957612f086130aa565b5b828201905092915050565b6000612f1f82612fb2565b9150612f2a83612fb2565b925082821015612f3d57612f3c6130aa565b5b828203905092915050565b6000612f5382612f92565b9050919050565b60008115159050919050565b60007fffffffff0000000000000000000000000000000000000000000000000000000082169050919050565b600073ffffffffffffffffffffffffffffffffffffffff82169050919050565b6000819050919050565b82818337600083830152505050565b60005b83811015612fe9578082015181840152602081019050612fce565b83811115612ff8576000848401525b50505050565b6000600282049050600182168061301657607f821691505b6020821081141561302a576130296130d9565b5b50919050565b61303982613137565b810181811067ffffffffffffffff8211171561305857613057613108565b5b80604052505050565b600061306c82612fb2565b91507fffffffffffffffffffffffffffffffffffffffffffffffffffffffffffffffff82141561309f5761309e6130aa565b5b600182019050919050565b7f4e487b7100000000000000000000000000000000000000000000000000000000600052601160045260246000fd5b7f4e487b7100000000000000000000000000000000000000000000000000000000600052602260045260246000fd5b7f4e487b7100000000000000000000000000000000000000000000000000000000600052604160045260246000fd5b6000601f19601f8301169050919050565b7f4552433732313a2063616c6c6572206973206e6f7420746f6b656e206f776e6560008201527f72206f7220617070726f76656400000000000000000000000000000000000000602082015250565b7f4552433732313a207472616e7366657220746f206e6f6e20455243373231526560008201527f63656976657220696d706c656d656e7465720000000000000000000000000000602082015250565b7f4552433732313a207472616e736665722066726f6d20696e636f72726563742060008201527f6f776e6572000000000000000000000000000000000000000000000000000000602082015250565b7f4552433732313a20746f6b656e20616c7265616479206d696e74656400000000600082015250565b7f4552433732313a207472616e7366657220746f20746865207a65726f2061646460008201527f7265737300000000000000000000000000000000000000000000000000000000602082015250565b7f4552433732313a20617070726f766520746f2063616c6c657200000000000000600082015250565b7f4552433732313a2061646472657373207a65726f206973206e6f74206120766160008201527f6c6964206f776e65720000000000000000000000000000000000000000000000602082015250565b7f45524337323155524953746f726167653a2055524920736574206f66206e6f6e60008201527f6578697374656e7420746f6b656e000000000000000000000000000000000000602082015250565b7f4552433732313a206d696e7420746f20746865207a65726f2061646472657373600082015250565b7f496e76616c69642076616c756500000000000000000000000000000000000000600082015250565b7f4552433732313a20696e76616c696420746f6b656e2049440000000000000000600082015250565b7f4552433732313a20617070726f76616c20746f2063757272656e74206f776e6560008201527f7200000000000000000000000000000000000000000000000000000000000000602082015250565b7f4552433732313a20617070726f76652063616c6c6572206973206e6f7420746f60008201527f6b656e206f776e6572206f7220617070726f76656420666f7220616c6c000000602082015250565b7f4552433732313a207472616e736665722063616c6c6572206973206e6f74206f60008201527f776e6572206e6f7220617070726f766564000000000000000000000000000000602082015250565b7f5468697320746f6b656e2063616e206e6f74206265207472616e73666572726560008201527f6421000000000000000000000000000000000000000000000000000000000000602082015250565b61353481612f48565b811461353f57600080fd5b50565b61354b81612f5a565b811461355657600080fd5b50565b61356281612f66565b811461356d57600080fd5b50565b61357981612fb2565b811461358457600080fd5b5056fea26469706673582212205b244aa05cd6f8eca1ba4235343536b5c9964f5004a4f4bf74a62cdc10f8b8d464736f6c63430008040033",
  "linkReferences": {},
  "deployedLinkReferences": {}
}