{
  "_format": "hh-sol-artifact-1",
  "contractName": "TrustifiedNonTransferable",
  "sourceName": "contracts/Trustified-NonTransferable.sol",
  "abi": [
    {
      "inputs": [],
      "stateMutability": "nonpayable",
      "type": "constructor"
    },
    {
      "anonymous": false,
      "inputs": [
        {
          "indexed": true,
          "internalType": "address",
          "name": "owner",
          "type": "address"
        },
        {
          "indexed": true,
          "internalType": "address",
          "name": "approved",
          "type": "address"
        },
        {
          "indexed": true,
          "internalType": "uint256",
          "name": "tokenId",
          "type": "uint256"
        }
      ],
      "name": "Approval",
      "type": "event"
    },
    {
      "anonymous": false,
      "inputs": [
        {
          "indexed": true,
          "internalType": "address",
          "name": "owner",
          "type": "address"
        },
        {
          "indexed": true,
          "internalType": "address",
          "name": "operator",
          "type": "address"
        },
        {
          "indexed": false,
          "internalType": "bool",
          "name": "approved",
          "type": "bool"
        }
      ],
      "name": "ApprovalForAll",
      "type": "event"
    },
    {
      "anonymous": false,
      "inputs": [
        {
          "indexed": false,
          "internalType": "address",
          "name": "",
          "type": "address"
        },
        {
          "indexed": false,
          "internalType": "uint256",
          "name": "",
          "type": "uint256"
        }
      ],
      "name": "TokenMinted",
      "type": "event"
    },
    {
      "anonymous": false,
      "inputs": [
        {
          "indexed": false,
          "internalType": "address",
          "name": "",
          "type": "address"
        },
        {
          "indexed": false,
          "internalType": "address",
          "name": "",
          "type": "address"
        },
        {
          "indexed": false,
          "internalType": "uint256",
          "name": "",
          "type": "uint256"
        }
      ],
      "name": "TokenTransfered",
      "type": "event"
    },
    {
      "anonymous": false,
      "inputs": [
        {
          "indexed": true,
          "internalType": "address",
          "name": "from",
          "type": "address"
        },
        {
          "indexed": true,
          "internalType": "address",
          "name": "to",
          "type": "address"
        },
        {
          "indexed": true,
          "internalType": "uint256",
          "name": "tokenId",
          "type": "uint256"
        }
      ],
      "name": "Transfer",
      "type": "event"
    },
    {
      "inputs": [
        {
          "internalType": "address",
          "name": "to",
          "type": "address"
        },
        {
          "internalType": "uint256",
          "name": "tokenId",
          "type": "uint256"
        }
      ],
      "name": "approve",
      "outputs": [],
      "stateMutability": "nonpayable",
      "type": "function"
    },
    {
      "inputs": [
        {
          "internalType": "address",
          "name": "owner",
          "type": "address"
        }
      ],
      "name": "balanceOf",
      "outputs": [
        {
          "internalType": "uint256",
          "name": "",
          "type": "uint256"
        }
      ],
      "stateMutability": "view",
      "type": "function"
    },
    {
      "inputs": [
        {
          "internalType": "string",
          "name": "tokenUri",
          "type": "string"
        },
        {
          "internalType": "uint256",
          "name": "quantity",
          "type": "uint256"
        }
      ],
      "name": "bulkMintBadgesERC721",
      "outputs": [],
      "stateMutability": "nonpayable",
      "type": "function"
    },
    {
      "inputs": [
        {
          "internalType": "uint256",
          "name": "quantity",
          "type": "uint256"
        }
      ],
      "name": "bulkMintERC721",
      "outputs": [],
      "stateMutability": "nonpayable",
      "type": "function"
    },
    {
      "inputs": [
        {
          "internalType": "uint256",
          "name": "tokenId",
          "type": "uint256"
        }
      ],
      "name": "getApproved",
      "outputs": [
        {
          "internalType": "address",
          "name": "",
          "type": "address"
        }
      ],
      "stateMutability": "view",
      "type": "function"
    },
    {
      "inputs": [
        {
          "internalType": "uint256",
          "name": "eventId",
          "type": "uint256"
        }
      ],
      "name": "getTokenIds",
      "outputs": [
        {
          "internalType": "uint256[]",
          "name": "",
          "type": "uint256[]"
        }
      ],
      "stateMutability": "view",
      "type": "function"
    },
    {
      "inputs": [
        {
          "internalType": "address",
          "name": "owner",
          "type": "address"
        },
        {
          "internalType": "address",
          "name": "operator",
          "type": "address"
        }
      ],
      "name": "isApprovedForAll",
      "outputs": [
        {
          "internalType": "bool",
          "name": "",
          "type": "bool"
        }
      ],
      "stateMutability": "view",
      "type": "function"
    },
    {
      "inputs": [],
      "name": "name",
      "outputs": [
        {
          "internalType": "string",
          "name": "",
          "type": "string"
        }
      ],
      "stateMutability": "view",
      "type": "function"
    },
    {
      "inputs": [
        {
          "internalType": "uint256",
          "name": "tokenId",
          "type": "uint256"
        }
      ],
      "name": "ownerOf",
      "outputs": [
        {
          "internalType": "address",
          "name": "",
          "type": "address"
        }
      ],
      "stateMutability": "view",
      "type": "function"
    },
    {
      "inputs": [],
      "name": "safeMint",
      "outputs": [
        {
          "internalType": "uint256",
          "name": "",
          "type": "uint256"
        }
      ],
      "stateMutability": "nonpayable",
      "type": "function"
    },
    {
      "inputs": [
        {
          "internalType": "string",
          "name": "tokenURI",
          "type": "string"
        }
      ],
      "name": "safeMintBadge",
      "outputs": [
        {
          "internalType": "uint256",
          "name": "",
          "type": "uint256"
        }
      ],
      "stateMutability": "nonpayable",
      "type": "function"
    },
    {
      "inputs": [
        {
          "internalType": "address",
          "name": "from",
          "type": "address"
        },
        {
          "internalType": "address",
          "name": "to",
          "type": "address"
        },
        {
          "internalType": "uint256",
          "name": "tokenId",
          "type": "uint256"
        }
      ],
      "name": "safeTransferFrom",
      "outputs": [],
      "stateMutability": "nonpayable",
      "type": "function"
    },
    {
      "inputs": [
        {
          "internalType": "address",
          "name": "from",
          "type": "address"
        },
        {
          "internalType": "address",
          "name": "to",
          "type": "address"
        },
        {
          "internalType": "uint256",
          "name": "tokenId",
          "type": "uint256"
        },
        {
          "internalType": "bytes",
          "name": "data",
          "type": "bytes"
        }
      ],
      "name": "safeTransferFrom",
      "outputs": [],
      "stateMutability": "nonpayable",
      "type": "function"
    },
    {
      "inputs": [
        {
          "internalType": "address",
          "name": "operator",
          "type": "address"
        },
        {
          "internalType": "bool",
          "name": "approved",
          "type": "bool"
        }
      ],
      "name": "setApprovalForAll",
      "outputs": [],
      "stateMutability": "nonpayable",
      "type": "function"
    },
    {
      "inputs": [
        {
          "internalType": "bytes4",
          "name": "interfaceId",
          "type": "bytes4"
        }
      ],
      "name": "supportsInterface",
      "outputs": [
        {
          "internalType": "bool",
          "name": "",
          "type": "bool"
        }
      ],
      "stateMutability": "view",
      "type": "function"
    },
    {
      "inputs": [],
      "name": "symbol",
      "outputs": [
        {
          "internalType": "string",
          "name": "",
          "type": "string"
        }
      ],
      "stateMutability": "view",
      "type": "function"
    },
    {
      "inputs": [
        {
          "internalType": "uint256",
          "name": "",
          "type": "uint256"
        },
        {
          "internalType": "uint256",
          "name": "",
          "type": "uint256"
        }
      ],
      "name": "tokenIds",
      "outputs": [
        {
          "internalType": "uint256",
          "name": "",
          "type": "uint256"
        }
      ],
      "stateMutability": "view",
      "type": "function"
    },
    {
      "inputs": [
        {
          "internalType": "uint256",
          "name": "tokenId",
          "type": "uint256"
        }
      ],
      "name": "tokenURI",
      "outputs": [
        {
          "internalType": "string",
          "name": "",
          "type": "string"
        }
      ],
      "stateMutability": "view",
      "type": "function"
    },
    {
      "inputs": [
        {
          "internalType": "address",
          "name": "from",
          "type": "address"
        },
        {
          "internalType": "address",
          "name": "to",
          "type": "address"
        },
        {
          "internalType": "uint256",
          "name": "tokenId",
          "type": "uint256"
        }
      ],
      "name": "transferBadgesToken",
      "outputs": [],
      "stateMutability": "nonpayable",
      "type": "function"
    },
    {
      "inputs": [
        {
          "internalType": "address",
          "name": "from",
          "type": "address"
        },
        {
          "internalType": "address",
          "name": "to",
          "type": "address"
        },
        {
          "internalType": "uint256",
          "name": "tokenId",
          "type": "uint256"
        }
      ],
      "name": "transferFrom",
      "outputs": [],
      "stateMutability": "nonpayable",
      "type": "function"
    },
    {
      "inputs": [
        {
          "internalType": "address",
          "name": "from",
          "type": "address"
        },
        {
          "internalType": "address",
          "name": "to",
          "type": "address"
        },
        {
          "internalType": "uint256",
          "name": "tokenId",
          "type": "uint256"
        },
        {
          "internalType": "string",
          "name": "tokenURI",
          "type": "string"
        }
      ],
      "name": "transferToken",
      "outputs": [],
      "stateMutability": "nonpayable",
      "type": "function"
    }
  ],
  "bytecode": "0x60806040523480156200001157600080fd5b506040518060400160405280600a81526020017f54727573746966696564000000000000000000000000000000000000000000008152506040518060400160405280600381526020017f54464e0000000000000000000000000000000000000000000000000000000000815250816000908051906020019062000096929190620000b8565b508060019080519060200190620000af929190620000b8565b505050620001cd565b828054620000c69062000168565b90600052602060002090601f016020900481019282620000ea576000855562000136565b82601f106200010557805160ff191683800117855562000136565b8280016001018555821562000136579182015b828111156200013557825182559160200191906001019062000118565b5b50905062000145919062000149565b5090565b5b80821115620001645760008160009055506001016200014a565b5090565b600060028204905060018216806200018157607f821691505b602082108114156200019857620001976200019e565b5b50919050565b7f4e487b7100000000000000000000000000000000000000000000000000000000600052602260045260246000fd5b6134cb80620001dd6000396000f3fe608060405234801561001057600080fd5b50600436106101375760003560e01c80636871ee40116100b8578063b88d4fde1161007c578063b88d4fde1461035e578063c87b56dd1461037a578063d4d94b05146103aa578063deeb9a3f146103c6578063e985e9c5146103e2578063eed8cc351461041257610137565b80636871ee40146102ba57806370a08231146102d85780637b2eb35c1461030857806395d89b4114610324578063a22cb4651461034257610137565b8063265d9a6c116100ff578063265d9a6c146101f25780632743dfd01461022257806342842e0e1461023e57806357991d301461025a5780636352211e1461028a57610137565b806301ffc9a71461013c57806306fdde031461016c578063081812fc1461018a578063095ea7b3146101ba57806323b872dd146101d6575b600080fd5b61015660048036038101906101519190612542565b610442565b6040516101639190612ada565b60405180910390f35b610174610524565b6040516101819190612af5565b60405180910390f35b6101a4600480360381019061019f9190612629565b6105b6565b6040516101b191906129f1565b60405180910390f35b6101d460048036038101906101cf9190612506565b6105fc565b005b6101f060048036038101906101eb9190612385565b610714565b005b61020c60048036038101906102079190612594565b61076d565b6040516102199190612cd7565b60405180910390f35b61023c60048036038101906102379190612629565b6107a3565b005b61025860048036038101906102539190612385565b61085e565b005b610274600480360381019061026f9190612629565b61087e565b6040516102819190612ab8565b60405180910390f35b6102a4600480360381019061029f9190612629565b6108e9565b6040516102b191906129f1565b60405180910390f35b6102c2610970565b6040516102cf9190612cd7565b60405180910390f35b6102f260048036038101906102ed9190612320565b61099a565b6040516102ff9190612cd7565b60405180910390f35b610322600480360381019061031d919061244f565b610a52565b005b61032c610ba0565b6040516103399190612af5565b60405180910390f35b61035c600480360381019061035791906124ca565b610c32565b005b610378600480360381019061037391906123d4565b610c48565b005b610394600480360381019061038f9190612629565b610caa565b6040516103a19190612af5565b60405180910390f35b6103c460048036038101906103bf91906125d5565b610dbd565b005b6103e060048036038101906103db9190612385565b610e7a565b005b6103fc60048036038101906103f79190612349565b610fbd565b6040516104099190612ada565b60405180910390f35b61042c60048036038101906104279190612652565b611051565b6040516104399190612cd7565b60405180910390f35b60007f80ac58cd000000000000000000000000000000000000000000000000000000007bffffffffffffffffffffffffffffffffffffffffffffffffffffffff1916827bffffffffffffffffffffffffffffffffffffffffffffffffffffffff1916148061050d57507f5b5e139f000000000000000000000000000000000000000000000000000000007bffffffffffffffffffffffffffffffffffffffffffffffffffffffff1916827bffffffffffffffffffffffffffffffffffffffffffffffffffffffff1916145b8061051d575061051c82611082565b5b9050919050565b60606000805461053390612f35565b80601f016020809104026020016040519081016040528092919081815260200182805461055f90612f35565b80156105ac5780601f10610581576101008083540402835291602001916105ac565b820191906000526020600020905b81548152906001019060200180831161058f57829003601f168201915b5050505050905090565b60006105c1826110ec565b6004600083815260200190815260200160002060009054906101000a900473ffffffffffffffffffffffffffffffffffffffff169050919050565b6000610607826108e9565b90508073ffffffffffffffffffffffffffffffffffffffff168373ffffffffffffffffffffffffffffffffffffffff161415610678576040517f08c379a000000000000000000000000000000000000000000000000000000000815260040161066f90612c57565b60405180910390fd5b8073ffffffffffffffffffffffffffffffffffffffff16610697611137565b73ffffffffffffffffffffffffffffffffffffffff1614806106c657506106c5816106c0611137565b610fbd565b5b610705576040517f08c379a00000000000000000000000000000000000000000000000000000000081526004016106fc90612c77565b60405180910390fd5b61070f838361113f565b505050565b61071e83826111f8565b61075d576040517f08c379a000000000000000000000000000000000000000000000000000000000815260040161075490612c97565b60405180910390fd5b61076883838361128d565b505050565b60008061077a6007611587565b90506107866007611595565b61079030826115ab565b61079a81846117c9565b80915050919050565b60006107af6008611587565b90506107bb6008611595565b60005b828110156108205760006107d0610970565b90506009600084815260200190815260200160002081908060018154018082558091505060019003906000526020600020016000909190919091505550808061081890612f98565b9150506107be565b507fb9144c96c86541f6fa89c9f2f02495cccf4b08cd6643e26d34ee00aa586558a83382604051610852929190612a8f565b60405180910390a15050565b61087983838360405180602001604052806000815250610c48565b505050565b6060600960008381526020019081526020016000208054806020026020016040519081016040528092919081815260200182805480156108dd57602002820191906000526020600020905b8154815260200190600101908083116108c9575b50505050509050919050565b6000806108f58361183d565b9050600073ffffffffffffffffffffffffffffffffffffffff168173ffffffffffffffffffffffffffffffffffffffff161415610967576040517f08c379a000000000000000000000000000000000000000000000000000000000815260040161095e90612c37565b60405180910390fd5b80915050919050565b60008061097d6007611587565b90506109896007611595565b61099330826115ab565b8091505090565b60008073ffffffffffffffffffffffffffffffffffffffff168273ffffffffffffffffffffffffffffffffffffffff161415610a0b576040517f08c379a0000000000000000000000000000000000000000000000000000000008152600401610a0290612bd7565b60405180910390fd5b600360008373ffffffffffffffffffffffffffffffffffffffff1673ffffffffffffffffffffffffffffffffffffffff168152602001908152602001600020549050919050565b60011515600a600084815260200190815260200160002060009054906101000a900460ff1615151415610aba576040517f08c379a0000000000000000000000000000000000000000000000000000000008152600401610ab190612cb7565b60405180910390fd5b610ac482826117c9565b3073ffffffffffffffffffffffffffffffffffffffff166323b872dd8585856040518463ffffffff1660e01b8152600401610b0193929190612a0c565b600060405180830381600087803b158015610b1b57600080fd5b505af1158015610b2f573d6000803e3d6000fd5b505050507fec61728879a33aa50b55e1f4789dcfc1c680f30a24d7b8694a9f874e242a97b4848484604051610b6693929190612a0c565b60405180910390a16001600a600084815260200190815260200160002060006101000a81548160ff02191690831515021790555050505050565b606060018054610baf90612f35565b80601f0160208091040260200160405190810160405280929190818152602001828054610bdb90612f35565b8015610c285780601f10610bfd57610100808354040283529160200191610c28565b820191906000526020600020905b815481529060010190602001808311610c0b57829003601f168201915b5050505050905090565b610c44610c3d611137565b838361187a565b5050565b610c59610c53611137565b836111f8565b610c98576040517f08c379a0000000000000000000000000000000000000000000000000000000008152600401610c8f90612b17565b60405180910390fd5b610ca4848484846119e7565b50505050565b6060610cb5826110ec565b6000600660008481526020019081526020016000208054610cd590612f35565b80601f0160208091040260200160405190810160405280929190818152602001828054610d0190612f35565b8015610d4e5780601f10610d2357610100808354040283529160200191610d4e565b820191906000526020600020905b815481529060010190602001808311610d3157829003601f168201915b505050505090506000610d5f611a43565b9050600081511415610d75578192505050610db8565b600082511115610daa578082604051602001610d929291906129cd565b60405160208183030381529060405292505050610db8565b610db384611a5a565b925050505b919050565b6000610dc96008611587565b9050610dd56008611595565b60005b82811015610e3b576000610deb8561076d565b905060096000848152602001908152602001600020819080600181540180825580915050600190039060005260206000200160009091909190915055508080610e3390612f98565b915050610dd8565b507fb9144c96c86541f6fa89c9f2f02495cccf4b08cd6643e26d34ee00aa586558a83382604051610e6d929190612a8f565b60405180910390a1505050565b60011515600a600083815260200190815260200160002060009054906101000a900460ff1615151415610ee2576040517f08c379a0000000000000000000000000000000000000000000000000000000008152600401610ed990612cb7565b60405180910390fd5b3073ffffffffffffffffffffffffffffffffffffffff166323b872dd8484846040518463ffffffff1660e01b8152600401610f1f93929190612a0c565b600060405180830381600087803b158015610f3957600080fd5b505af1158015610f4d573d6000803e3d6000fd5b505050507fec61728879a33aa50b55e1f4789dcfc1c680f30a24d7b8694a9f874e242a97b4838383604051610f8493929190612a0c565b60405180910390a16001600a600083815260200190815260200160002060006101000a81548160ff021916908315150217905550505050565b6000600560008473ffffffffffffffffffffffffffffffffffffffff1673ffffffffffffffffffffffffffffffffffffffff16815260200190815260200160002060008373ffffffffffffffffffffffffffffffffffffffff1673ffffffffffffffffffffffffffffffffffffffff16815260200190815260200160002060009054906101000a900460ff16905092915050565b6009602052816000526040600020818154811061106d57600080fd5b90600052602060002001600091509150505481565b60007f01ffc9a7000000000000000000000000000000000000000000000000000000007bffffffffffffffffffffffffffffffffffffffffffffffffffffffff1916827bffffffffffffffffffffffffffffffffffffffffffffffffffffffff1916149050919050565b6110f581611ac2565b611134576040517f08c379a000000000000000000000000000000000000000000000000000000000815260040161112b90612c37565b60405180910390fd5b50565b600033905090565b816004600083815260200190815260200160002060006101000a81548173ffffffffffffffffffffffffffffffffffffffff021916908373ffffffffffffffffffffffffffffffffffffffff160217905550808273ffffffffffffffffffffffffffffffffffffffff166111b2836108e9565b73ffffffffffffffffffffffffffffffffffffffff167f8c5be1e5ebec7d5bd14f71427d1e84f3dd0314c0f7b2291e5b200ac8c7c3b92560405160405180910390a45050565b600080611204836108e9565b90508073ffffffffffffffffffffffffffffffffffffffff168473ffffffffffffffffffffffffffffffffffffffff16148061124657506112458185610fbd565b5b8061128457508373ffffffffffffffffffffffffffffffffffffffff1661126c846105b6565b73ffffffffffffffffffffffffffffffffffffffff16145b91505092915050565b8273ffffffffffffffffffffffffffffffffffffffff166112ad826108e9565b73ffffffffffffffffffffffffffffffffffffffff1614611303576040517f08c379a00000000000000000000000000000000000000000000000000000000081526004016112fa90612b57565b60405180910390fd5b600073ffffffffffffffffffffffffffffffffffffffff168273ffffffffffffffffffffffffffffffffffffffff161415611373576040517f08c379a000000000000000000000000000000000000000000000000000000000815260040161136a90612b97565b60405180910390fd5b6113808383836001611b03565b8273ffffffffffffffffffffffffffffffffffffffff166113a0826108e9565b73ffffffffffffffffffffffffffffffffffffffff16146113f6576040517f08c379a00000000000000000000000000000000000000000000000000000000081526004016113ed90612b57565b60405180910390fd5b6004600082815260200190815260200160002060006101000a81549073ffffffffffffffffffffffffffffffffffffffff02191690556001600360008573ffffffffffffffffffffffffffffffffffffffff1673ffffffffffffffffffffffffffffffffffffffff168152602001908152602001600020600082825403925050819055506001600360008473ffffffffffffffffffffffffffffffffffffffff1673ffffffffffffffffffffffffffffffffffffffff16815260200190815260200160002060008282540192505081905550816002600083815260200190815260200160002060006101000a81548173ffffffffffffffffffffffffffffffffffffffff021916908373ffffffffffffffffffffffffffffffffffffffff160217905550808273ffffffffffffffffffffffffffffffffffffffff168473ffffffffffffffffffffffffffffffffffffffff167fddf252ad1be2c89b69c2b068fc378daa952ba7f163c4a11628f55a4df523b3ef60405160405180910390a46115828383836001611c29565b505050565b600081600001549050919050565b6001816000016000828254019250508190555050565b600073ffffffffffffffffffffffffffffffffffffffff168273ffffffffffffffffffffffffffffffffffffffff16141561161b576040517f08c379a000000000000000000000000000000000000000000000000000000000815260040161161290612c17565b60405180910390fd5b61162481611ac2565b15611664576040517f08c379a000000000000000000000000000000000000000000000000000000000815260040161165b90612b77565b60405180910390fd5b611672600083836001611b03565b61167b81611ac2565b156116bb576040517f08c379a00000000000000000000000000000000000000000000000000000000081526004016116b290612b77565b60405180910390fd5b6001600360008473ffffffffffffffffffffffffffffffffffffffff1673ffffffffffffffffffffffffffffffffffffffff16815260200190815260200160002060008282540192505081905550816002600083815260200190815260200160002060006101000a81548173ffffffffffffffffffffffffffffffffffffffff021916908373ffffffffffffffffffffffffffffffffffffffff160217905550808273ffffffffffffffffffffffffffffffffffffffff16600073ffffffffffffffffffffffffffffffffffffffff167fddf252ad1be2c89b69c2b068fc378daa952ba7f163c4a11628f55a4df523b3ef60405160405180910390a46117c5600083836001611c29565b5050565b6117d282611ac2565b611811576040517f08c379a000000000000000000000000000000000000000000000000000000000815260040161180890612bf7565b60405180910390fd5b80600660008481526020019081526020016000209080519060200190611838929190612144565b505050565b60006002600083815260200190815260200160002060009054906101000a900473ffffffffffffffffffffffffffffffffffffffff169050919050565b8173ffffffffffffffffffffffffffffffffffffffff168373ffffffffffffffffffffffffffffffffffffffff1614156118e9576040517f08c379a00000000000000000000000000000000000000000000000000000000081526004016118e090612bb7565b60405180910390fd5b80600560008573ffffffffffffffffffffffffffffffffffffffff1673ffffffffffffffffffffffffffffffffffffffff16815260200190815260200160002060008473ffffffffffffffffffffffffffffffffffffffff1673ffffffffffffffffffffffffffffffffffffffff16815260200190815260200160002060006101000a81548160ff0219169083151502179055508173ffffffffffffffffffffffffffffffffffffffff168373ffffffffffffffffffffffffffffffffffffffff167f17307eab39ab6107e8899845ad3d59bd9653f200f220920489ca2b5937696c31836040516119da9190612ada565b60405180910390a3505050565b6119f284848461128d565b6119fe84848484611c2f565b611a3d576040517f08c379a0000000000000000000000000000000000000000000000000000000008152600401611a3490612b37565b60405180910390fd5b50505050565b606060405180602001604052806000815250905090565b6060611a65826110ec565b6000611a6f611a43565b90506000815111611a8f5760405180602001604052806000815250611aba565b80611a9984611dc6565b604051602001611aaa9291906129cd565b6040516020818303038152906040525b915050919050565b60008073ffffffffffffffffffffffffffffffffffffffff16611ae48361183d565b73ffffffffffffffffffffffffffffffffffffffff1614159050919050565b6001811115611c2357600073ffffffffffffffffffffffffffffffffffffffff168473ffffffffffffffffffffffffffffffffffffffff1614611b975780600360008673ffffffffffffffffffffffffffffffffffffffff1673ffffffffffffffffffffffffffffffffffffffff1681526020019081526020016000206000828254611b8f9190612e4b565b925050819055505b600073ffffffffffffffffffffffffffffffffffffffff168373ffffffffffffffffffffffffffffffffffffffff1614611c225780600360008573ffffffffffffffffffffffffffffffffffffffff1673ffffffffffffffffffffffffffffffffffffffff1681526020019081526020016000206000828254611c1a9190612df5565b925050819055505b5b50505050565b50505050565b6000611c508473ffffffffffffffffffffffffffffffffffffffff16611eea565b15611db9578373ffffffffffffffffffffffffffffffffffffffff1663150b7a02611c79611137565b8786866040518563ffffffff1660e01b8152600401611c9b9493929190612a43565b602060405180830381600087803b158015611cb557600080fd5b505af1925050508015611ce657506040513d601f19601f82011682018060405250810190611ce3919061256b565b60015b611d69573d8060008114611d16576040519150601f19603f3d011682016040523d82523d6000602084013e611d1b565b606091505b50600081511415611d61576040517f08c379a0000000000000000000000000000000000000000000000000000000008152600401611d5890612b37565b60405180910390fd5b805181602001fd5b63150b7a0260e01b7bffffffffffffffffffffffffffffffffffffffffffffffffffffffff1916817bffffffffffffffffffffffffffffffffffffffffffffffffffffffff191614915050611dbe565b600190505b949350505050565b606060006001611dd584611f0d565b01905060008167ffffffffffffffff811115611e1a577f4e487b7100000000000000000000000000000000000000000000000000000000600052604160045260246000fd5b6040519080825280601f01601f191660200182016040528015611e4c5781602001600182028036833780820191505090505b509050600082602001820190505b600115611edf578080600190039150507f3031323334353637383961626364656600000000000000000000000000000000600a86061a8153600a8581611ec9577f4e487b7100000000000000000000000000000000000000000000000000000000600052601260045260246000fd5b0494506000851415611eda57611edf565b611e5a565b819350505050919050565b6000808273ffffffffffffffffffffffffffffffffffffffff163b119050919050565b600080600090507a184f03e93ff9f4daa797ed6e38ed64bf6a1f0100000000000000008310611f91577a184f03e93ff9f4daa797ed6e38ed64bf6a1f0100000000000000008381611f87577f4e487b7100000000000000000000000000000000000000000000000000000000600052601260045260246000fd5b0492506040810190505b6d04ee2d6d415b85acef81000000008310611ff4576d04ee2d6d415b85acef81000000008381611fea577f4e487b7100000000000000000000000000000000000000000000000000000000600052601260045260246000fd5b0492506020810190505b662386f26fc10000831061204957662386f26fc10000838161203f577f4e487b7100000000000000000000000000000000000000000000000000000000600052601260045260246000fd5b0492506010810190505b6305f5e1008310612098576305f5e100838161208e577f4e487b7100000000000000000000000000000000000000000000000000000000600052601260045260246000fd5b0492506008810190505b61271083106120e35761271083816120d9577f4e487b7100000000000000000000000000000000000000000000000000000000600052601260045260246000fd5b0492506004810190505b6064831061212c5760648381612122577f4e487b7100000000000000000000000000000000000000000000000000000000600052601260045260246000fd5b0492506002810190505b600a831061213b576001810190505b80915050919050565b82805461215090612f35565b90600052602060002090601f01602090048101928261217257600085556121b9565b82601f1061218b57805160ff19168380011785556121b9565b828001600101855582156121b9579182015b828111156121b857825182559160200191906001019061219d565b5b5090506121c691906121ca565b5090565b5b808211156121e35760008160009055506001016121cb565b5090565b60006121fa6121f584612d17565b612cf2565b90508281526020810184848401111561221257600080fd5b61221d848285612ef3565b509392505050565b600061223861223384612d48565b612cf2565b90508281526020810184848401111561225057600080fd5b61225b848285612ef3565b509392505050565b60008135905061227281613439565b92915050565b60008135905061228781613450565b92915050565b60008135905061229c81613467565b92915050565b6000815190506122b181613467565b92915050565b600082601f8301126122c857600080fd5b81356122d88482602086016121e7565b91505092915050565b600082601f8301126122f257600080fd5b8135612302848260208601612225565b91505092915050565b60008135905061231a8161347e565b92915050565b60006020828403121561233257600080fd5b600061234084828501612263565b91505092915050565b6000806040838503121561235c57600080fd5b600061236a85828601612263565b925050602061237b85828601612263565b9150509250929050565b60008060006060848603121561239a57600080fd5b60006123a886828701612263565b93505060206123b986828701612263565b92505060406123ca8682870161230b565b9150509250925092565b600080600080608085870312156123ea57600080fd5b60006123f887828801612263565b945050602061240987828801612263565b935050604061241a8782880161230b565b925050606085013567ffffffffffffffff81111561243757600080fd5b612443878288016122b7565b91505092959194509250565b6000806000806080858703121561246557600080fd5b600061247387828801612263565b945050602061248487828801612263565b93505060406124958782880161230b565b925050606085013567ffffffffffffffff8111156124b257600080fd5b6124be878288016122e1565b91505092959194509250565b600080604083850312156124dd57600080fd5b60006124eb85828601612263565b92505060206124fc85828601612278565b9150509250929050565b6000806040838503121561251957600080fd5b600061252785828601612263565b92505060206125388582860161230b565b9150509250929050565b60006020828403121561255457600080fd5b60006125628482850161228d565b91505092915050565b60006020828403121561257d57600080fd5b600061258b848285016122a2565b91505092915050565b6000602082840312156125a657600080fd5b600082013567ffffffffffffffff8111156125c057600080fd5b6125cc848285016122e1565b91505092915050565b600080604083850312156125e857600080fd5b600083013567ffffffffffffffff81111561260257600080fd5b61260e858286016122e1565b925050602061261f8582860161230b565b9150509250929050565b60006020828403121561263b57600080fd5b60006126498482850161230b565b91505092915050565b6000806040838503121561266557600080fd5b60006126738582860161230b565b92505060206126848582860161230b565b9150509250929050565b600061269a83836129af565b60208301905092915050565b6126af81612e7f565b82525050565b60006126c082612d89565b6126ca8185612db7565b93506126d583612d79565b8060005b838110156127065781516126ed888261268e565b97506126f883612daa565b9250506001810190506126d9565b5085935050505092915050565b61271c81612e91565b82525050565b600061272d82612d94565b6127378185612dc8565b9350612747818560208601612f02565b6127508161306e565b840191505092915050565b600061276682612d9f565b6127708185612dd9565b9350612780818560208601612f02565b6127898161306e565b840191505092915050565b600061279f82612d9f565b6127a98185612dea565b93506127b9818560208601612f02565b80840191505092915050565b60006127d2602d83612dd9565b91506127dd8261307f565b604082019050919050565b60006127f5603283612dd9565b9150612800826130ce565b604082019050919050565b6000612818602583612dd9565b91506128238261311d565b604082019050919050565b600061283b601c83612dd9565b91506128468261316c565b602082019050919050565b600061285e602483612dd9565b915061286982613195565b604082019050919050565b6000612881601983612dd9565b915061288c826131e4565b602082019050919050565b60006128a4602983612dd9565b91506128af8261320d565b604082019050919050565b60006128c7602e83612dd9565b91506128d28261325c565b604082019050919050565b60006128ea602083612dd9565b91506128f5826132ab565b602082019050919050565b600061290d601883612dd9565b9150612918826132d4565b602082019050919050565b6000612930602183612dd9565b915061293b826132fd565b604082019050919050565b6000612953603d83612dd9565b915061295e8261334c565b604082019050919050565b6000612976603183612dd9565b91506129818261339b565b604082019050919050565b6000612999602283612dd9565b91506129a4826133ea565b604082019050919050565b6129b881612ee9565b82525050565b6129c781612ee9565b82525050565b60006129d98285612794565b91506129e58284612794565b91508190509392505050565b6000602082019050612a0660008301846126a6565b92915050565b6000606082019050612a2160008301866126a6565b612a2e60208301856126a6565b612a3b60408301846129be565b949350505050565b6000608082019050612a5860008301876126a6565b612a6560208301866126a6565b612a7260408301856129be565b8181036060830152612a848184612722565b905095945050505050565b6000604082019050612aa460008301856126a6565b612ab160208301846129be565b9392505050565b60006020820190508181036000830152612ad281846126b5565b905092915050565b6000602082019050612aef6000830184612713565b92915050565b60006020820190508181036000830152612b0f818461275b565b905092915050565b60006020820190508181036000830152612b30816127c5565b9050919050565b60006020820190508181036000830152612b50816127e8565b9050919050565b60006020820190508181036000830152612b708161280b565b9050919050565b60006020820190508181036000830152612b908161282e565b9050919050565b60006020820190508181036000830152612bb081612851565b9050919050565b60006020820190508181036000830152612bd081612874565b9050919050565b60006020820190508181036000830152612bf081612897565b9050919050565b60006020820190508181036000830152612c10816128ba565b9050919050565b60006020820190508181036000830152612c30816128dd565b9050919050565b60006020820190508181036000830152612c5081612900565b9050919050565b60006020820190508181036000830152612c7081612923565b9050919050565b60006020820190508181036000830152612c9081612946565b9050919050565b60006020820190508181036000830152612cb081612969565b9050919050565b60006020820190508181036000830152612cd08161298c565b9050919050565b6000602082019050612cec60008301846129be565b92915050565b6000612cfc612d0d565b9050612d088282612f67565b919050565b6000604051905090565b600067ffffffffffffffff821115612d3257612d3161303f565b5b612d3b8261306e565b9050602081019050919050565b600067ffffffffffffffff821115612d6357612d6261303f565b5b612d6c8261306e565b9050602081019050919050565b6000819050602082019050919050565b600081519050919050565b600081519050919050565b600081519050919050565b6000602082019050919050565b600082825260208201905092915050565b600082825260208201905092915050565b600082825260208201905092915050565b600081905092915050565b6000612e0082612ee9565b9150612e0b83612ee9565b9250827fffffffffffffffffffffffffffffffffffffffffffffffffffffffffffffffff03821115612e4057612e3f612fe1565b5b828201905092915050565b6000612e5682612ee9565b9150612e6183612ee9565b925082821015612e7457612e73612fe1565b5b828203905092915050565b6000612e8a82612ec9565b9050919050565b60008115159050919050565b60007fffffffff0000000000000000000000000000000000000000000000000000000082169050919050565b600073ffffffffffffffffffffffffffffffffffffffff82169050919050565b6000819050919050565b82818337600083830152505050565b60005b83811015612f20578082015181840152602081019050612f05565b83811115612f2f576000848401525b50505050565b60006002820490506001821680612f4d57607f821691505b60208210811415612f6157612f60613010565b5b50919050565b612f708261306e565b810181811067ffffffffffffffff82111715612f8f57612f8e61303f565b5b80604052505050565b6000612fa382612ee9565b91507fffffffffffffffffffffffffffffffffffffffffffffffffffffffffffffffff821415612fd657612fd5612fe1565b5b600182019050919050565b7f4e487b7100000000000000000000000000000000000000000000000000000000600052601160045260246000fd5b7f4e487b7100000000000000000000000000000000000000000000000000000000600052602260045260246000fd5b7f4e487b7100000000000000000000000000000000000000000000000000000000600052604160045260246000fd5b6000601f19601f8301169050919050565b7f4552433732313a2063616c6c6572206973206e6f7420746f6b656e206f776e6560008201527f72206f7220617070726f76656400000000000000000000000000000000000000602082015250565b7f4552433732313a207472616e7366657220746f206e6f6e20455243373231526560008201527f63656976657220696d706c656d656e7465720000000000000000000000000000602082015250565b7f4552433732313a207472616e736665722066726f6d20696e636f72726563742060008201527f6f776e6572000000000000000000000000000000000000000000000000000000602082015250565b7f4552433732313a20746f6b656e20616c7265616479206d696e74656400000000600082015250565b7f4552433732313a207472616e7366657220746f20746865207a65726f2061646460008201527f7265737300000000000000000000000000000000000000000000000000000000602082015250565b7f4552433732313a20617070726f766520746f2063616c6c657200000000000000600082015250565b7f4552433732313a2061646472657373207a65726f206973206e6f74206120766160008201527f6c6964206f776e65720000000000000000000000000000000000000000000000602082015250565b7f45524337323155524953746f726167653a2055524920736574206f66206e6f6e60008201527f6578697374656e7420746f6b656e000000000000000000000000000000000000602082015250565b7f4552433732313a206d696e7420746f20746865207a65726f2061646472657373600082015250565b7f4552433732313a20696e76616c696420746f6b656e2049440000000000000000600082015250565b7f4552433732313a20617070726f76616c20746f2063757272656e74206f776e6560008201527f7200000000000000000000000000000000000000000000000000000000000000602082015250565b7f4552433732313a20617070726f76652063616c6c6572206973206e6f7420746f60008201527f6b656e206f776e6572206f7220617070726f76656420666f7220616c6c000000602082015250565b7f4552433732313a207472616e736665722063616c6c6572206973206e6f74206f60008201527f776e6572206e6f7220617070726f766564000000000000000000000000000000602082015250565b7f5468697320746f6b656e2063616e206e6f74206265207472616e73666572726560008201527f6421000000000000000000000000000000000000000000000000000000000000602082015250565b61344281612e7f565b811461344d57600080fd5b50565b61345981612e91565b811461346457600080fd5b50565b61347081612e9d565b811461347b57600080fd5b50565b61348781612ee9565b811461349257600080fd5b5056fea2646970667358221220ca104a9eef4358d4445fbe3c5e3f2287b78831801e159281d9bfeb13ecddc0c964736f6c63430008040033",
  "linkReferences": {},
  "deployedLinkReferences": {}
}