{
  "_format": "hh-sol-artifact-1",
  "contractName": "Trustified",
  "sourceName": "contracts/Trustified.sol",
  "abi": [
    {
      "inputs": [],
      "stateMutability": "nonpayable",
      "type": "constructor"
    },
    {
      "anonymous": false,
      "inputs": [
        {
          "indexed": true,
          "internalType": "address",
          "name": "owner",
          "type": "address"
        },
        {
          "indexed": true,
          "internalType": "address",
          "name": "approved",
          "type": "address"
        },
        {
          "indexed": true,
          "internalType": "uint256",
          "name": "tokenId",
          "type": "uint256"
        }
      ],
      "name": "Approval",
      "type": "event"
    },
    {
      "anonymous": false,
      "inputs": [
        {
          "indexed": true,
          "internalType": "address",
          "name": "owner",
          "type": "address"
        },
        {
          "indexed": true,
          "internalType": "address",
          "name": "operator",
          "type": "address"
        },
        {
          "indexed": false,
          "internalType": "bool",
          "name": "approved",
          "type": "bool"
        }
      ],
      "name": "ApprovalForAll",
      "type": "event"
    },
    {
      "anonymous": false,
      "inputs": [
        {
          "indexed": false,
          "internalType": "address",
          "name": "",
          "type": "address"
        },
        {
          "indexed": false,
          "internalType": "uint256",
          "name": "",
          "type": "uint256"
        }
      ],
      "name": "TokenMinted",
      "type": "event"
    },
    {
      "anonymous": false,
      "inputs": [
        {
          "indexed": true,
          "internalType": "address",
          "name": "from",
          "type": "address"
        },
        {
          "indexed": true,
          "internalType": "address",
          "name": "to",
          "type": "address"
        },
        {
          "indexed": true,
          "internalType": "uint256",
          "name": "tokenId",
          "type": "uint256"
        }
      ],
      "name": "Transfer",
      "type": "event"
    },
    {
      "inputs": [
        {
          "internalType": "address",
          "name": "to",
          "type": "address"
        },
        {
          "internalType": "uint256",
          "name": "tokenId",
          "type": "uint256"
        }
      ],
      "name": "approve",
      "outputs": [],
      "stateMutability": "nonpayable",
      "type": "function"
    },
    {
      "inputs": [
        {
          "internalType": "address",
          "name": "owner",
          "type": "address"
        }
      ],
      "name": "balanceOf",
      "outputs": [
        {
          "internalType": "uint256",
          "name": "",
          "type": "uint256"
        }
      ],
      "stateMutability": "view",
      "type": "function"
    },
    {
      "inputs": [
        {
          "internalType": "string",
          "name": "tokenUri",
          "type": "string"
        },
        {
          "internalType": "uint256",
          "name": "quantity",
          "type": "uint256"
        },
        {
          "internalType": "uint256",
          "name": "value",
          "type": "uint256"
        }
      ],
      "name": "bulkMintERC721",
      "outputs": [],
      "stateMutability": "nonpayable",
      "type": "function"
    },
    {
      "inputs": [
        {
          "internalType": "uint256",
          "name": "tokenId",
          "type": "uint256"
        }
      ],
      "name": "getApproved",
      "outputs": [
        {
          "internalType": "address",
          "name": "",
          "type": "address"
        }
      ],
      "stateMutability": "view",
      "type": "function"
    },
    {
      "inputs": [
        {
          "internalType": "uint256",
          "name": "eventId",
          "type": "uint256"
        }
      ],
      "name": "getTokenIds",
      "outputs": [
        {
          "internalType": "uint256[]",
          "name": "",
          "type": "uint256[]"
        }
      ],
      "stateMutability": "view",
      "type": "function"
    },
    {
      "inputs": [
        {
          "internalType": "address",
          "name": "owner",
          "type": "address"
        },
        {
          "internalType": "address",
          "name": "operator",
          "type": "address"
        }
      ],
      "name": "isApprovedForAll",
      "outputs": [
        {
          "internalType": "bool",
          "name": "",
          "type": "bool"
        }
      ],
      "stateMutability": "view",
      "type": "function"
    },
    {
      "inputs": [],
      "name": "name",
      "outputs": [
        {
          "internalType": "string",
          "name": "",
          "type": "string"
        }
      ],
      "stateMutability": "view",
      "type": "function"
    },
    {
      "inputs": [
        {
          "internalType": "uint256",
          "name": "tokenId",
          "type": "uint256"
        }
      ],
      "name": "ownerOf",
      "outputs": [
        {
          "internalType": "address",
          "name": "",
          "type": "address"
        }
      ],
      "stateMutability": "view",
      "type": "function"
    },
    {
      "inputs": [
        {
          "internalType": "string",
          "name": "tokenURI",
          "type": "string"
        },
        {
          "internalType": "uint256",
          "name": "value",
          "type": "uint256"
        }
      ],
      "name": "safeMint",
      "outputs": [
        {
          "internalType": "uint256",
          "name": "",
          "type": "uint256"
        }
      ],
      "stateMutability": "nonpayable",
      "type": "function"
    },
    {
      "inputs": [
        {
          "internalType": "address",
          "name": "from",
          "type": "address"
        },
        {
          "internalType": "address",
          "name": "to",
          "type": "address"
        },
        {
          "internalType": "uint256",
          "name": "tokenId",
          "type": "uint256"
        }
      ],
      "name": "safeTransferFrom",
      "outputs": [],
      "stateMutability": "nonpayable",
      "type": "function"
    },
    {
      "inputs": [
        {
          "internalType": "address",
          "name": "from",
          "type": "address"
        },
        {
          "internalType": "address",
          "name": "to",
          "type": "address"
        },
        {
          "internalType": "uint256",
          "name": "tokenId",
          "type": "uint256"
        },
        {
          "internalType": "bytes",
          "name": "data",
          "type": "bytes"
        }
      ],
      "name": "safeTransferFrom",
      "outputs": [],
      "stateMutability": "nonpayable",
      "type": "function"
    },
    {
      "inputs": [
        {
          "internalType": "address",
          "name": "operator",
          "type": "address"
        },
        {
          "internalType": "bool",
          "name": "approved",
          "type": "bool"
        }
      ],
      "name": "setApprovalForAll",
      "outputs": [],
      "stateMutability": "nonpayable",
      "type": "function"
    },
    {
      "inputs": [
        {
          "internalType": "bytes4",
          "name": "interfaceId",
          "type": "bytes4"
        }
      ],
      "name": "supportsInterface",
      "outputs": [
        {
          "internalType": "bool",
          "name": "",
          "type": "bool"
        }
      ],
      "stateMutability": "view",
      "type": "function"
    },
    {
      "inputs": [],
      "name": "symbol",
      "outputs": [
        {
          "internalType": "string",
          "name": "",
          "type": "string"
        }
      ],
      "stateMutability": "view",
      "type": "function"
    },
    {
      "inputs": [
        {
          "internalType": "uint256",
          "name": "",
          "type": "uint256"
        },
        {
          "internalType": "uint256",
          "name": "",
          "type": "uint256"
        }
      ],
      "name": "tokenIds",
      "outputs": [
        {
          "internalType": "uint256",
          "name": "",
          "type": "uint256"
        }
      ],
      "stateMutability": "view",
      "type": "function"
    },
    {
      "inputs": [
        {
          "internalType": "uint256",
          "name": "tokenId",
          "type": "uint256"
        }
      ],
      "name": "tokenURI",
      "outputs": [
        {
          "internalType": "string",
          "name": "",
          "type": "string"
        }
      ],
      "stateMutability": "view",
      "type": "function"
    },
    {
      "inputs": [
        {
          "internalType": "address",
          "name": "from",
          "type": "address"
        },
        {
          "internalType": "address",
          "name": "to",
          "type": "address"
        },
        {
          "internalType": "uint256",
          "name": "tokenId",
          "type": "uint256"
        }
      ],
      "name": "transferFrom",
      "outputs": [],
      "stateMutability": "nonpayable",
      "type": "function"
    },
    {
      "inputs": [
        {
          "internalType": "address",
          "name": "from",
          "type": "address"
        },
        {
          "internalType": "address",
          "name": "to",
          "type": "address"
        },
        {
          "internalType": "uint256",
          "name": "tokenId",
          "type": "uint256"
        },
        {
          "internalType": "string",
          "name": "tokenURI",
          "type": "string"
        },
        {
          "internalType": "uint256",
          "name": "value",
          "type": "uint256"
        }
      ],
      "name": "transferToken",
      "outputs": [],
      "stateMutability": "nonpayable",
      "type": "function"
    }
  ],
  "bytecode": "0x60806040523480156200001157600080fd5b506040518060400160405280600a81526020017f54727573746966696564000000000000000000000000000000000000000000008152506040518060400160405280600381526020017f54464e0000000000000000000000000000000000000000000000000000000000815250816000908051906020019062000096929190620000b8565b508060019080519060200190620000af929190620000b8565b505050620001cd565b828054620000c69062000168565b90600052602060002090601f016020900481019282620000ea576000855562000136565b82601f106200010557805160ff191683800117855562000136565b8280016001018555821562000136579182015b828111156200013557825182559160200191906001019062000118565b5b50905062000145919062000149565b5090565b5b80821115620001645760008160009055506001016200014a565b5090565b600060028204905060018216806200018157607f821691505b602082108114156200019857620001976200019e565b5b50919050565b7f4e487b7100000000000000000000000000000000000000000000000000000000600052602260045260246000fd5b61327480620001dd6000396000f3fe608060405234801561001057600080fd5b50600436106101165760003560e01c80636352211e116100a2578063a22cb46511610071578063a22cb46514610303578063b88d4fde1461031f578063c87b56dd1461033b578063e985e9c51461036b578063eed8cc351461039b57610116565b80636352211e1461026957806370a082311461029957806380574834146102c957806395d89b41146102e557610116565b806323b872dd116100e957806323b872dd146101b55780632cba83d1146101d157806342842e0e146101ed57806346b145e11461020957806357991d301461023957610116565b806301ffc9a71461011b57806306fdde031461014b578063081812fc14610169578063095ea7b314610199575b600080fd5b61013560048036038101906101309190612313565b6103cb565b60405161014291906128da565b60405180910390f35b6101536104ad565b60405161016091906128f5565b60405180910390f35b610183600480360381019061017e9190612429565b61053f565b60405161019091906127f1565b60405180910390f35b6101b360048036038101906101ae91906122d7565b610585565b005b6101cf60048036038101906101ca919061213f565b61069d565b005b6101eb60048036038101906101e691906123bd565b6106f6565b005b6102076004803603810190610202919061213f565b6107b7565b005b610223600480360381019061021e9190612365565b6107d7565b6040516102309190612ad7565b60405180910390f35b610253600480360381019061024e9190612429565b6108ae565b60405161026091906128b8565b60405180910390f35b610283600480360381019061027e9190612429565b610919565b60405161029091906127f1565b60405180910390f35b6102b360048036038101906102ae91906120da565b6109a0565b6040516102c09190612ad7565b60405180910390f35b6102e360048036038101906102de9190612209565b610a58565b005b6102ed610b78565b6040516102fa91906128f5565b60405180910390f35b61031d6004803603810190610318919061229b565b610c0a565b005b6103396004803603810190610334919061218e565b610c20565b005b61035560048036038101906103509190612429565b610c82565b60405161036291906128f5565b60405180910390f35b61038560048036038101906103809190612103565b610d95565b60405161039291906128da565b60405180910390f35b6103b560048036038101906103b09190612452565b610e29565b6040516103c29190612ad7565b60405180910390f35b60007f80ac58cd000000000000000000000000000000000000000000000000000000007bffffffffffffffffffffffffffffffffffffffffffffffffffffffff1916827bffffffffffffffffffffffffffffffffffffffffffffffffffffffff1916148061049657507f5b5e139f000000000000000000000000000000000000000000000000000000007bffffffffffffffffffffffffffffffffffffffffffffffffffffffff1916827bffffffffffffffffffffffffffffffffffffffffffffffffffffffff1916145b806104a657506104a582610e5a565b5b9050919050565b6060600080546104bc90612d04565b80601f01602080910402602001604051908101604052809291908181526020018280546104e890612d04565b80156105355780601f1061050a57610100808354040283529160200191610535565b820191906000526020600020905b81548152906001019060200180831161051857829003601f168201915b5050505050905090565b600061054a82610ec4565b6004600083815260200190815260200160002060009054906101000a900473ffffffffffffffffffffffffffffffffffffffff169050919050565b600061059082610919565b90508073ffffffffffffffffffffffffffffffffffffffff168373ffffffffffffffffffffffffffffffffffffffff161415610601576040517f08c379a00000000000000000000000000000000000000000000000000000000081526004016105f890612a77565b60405180910390fd5b8073ffffffffffffffffffffffffffffffffffffffff16610620610f0f565b73ffffffffffffffffffffffffffffffffffffffff16148061064f575061064e81610649610f0f565b610d95565b5b61068e576040517f08c379a000000000000000000000000000000000000000000000000000000000815260040161068590612a97565b60405180910390fd5b6106988383610f17565b505050565b6106a78382610fd0565b6106e6576040517f08c379a00000000000000000000000000000000000000000000000000000000081526004016106dd90612ab7565b60405180910390fd5b6106f1838383611065565b505050565b6000610702600861135f565b905061070e600861136d565b60005b838110156107765760006107268787866107d7565b90506009600084815260200190815260200160002081908060018154018082558091505060019003906000526020600020016000909190919091505550808061076e90612d67565b915050610711565b507fb9144c96c86541f6fa89c9f2f02495cccf4b08cd6643e26d34ee00aa586558a833826040516107a892919061288f565b60405180910390a15050505050565b6107d283838360405180602001604052806000815250610c20565b505050565b60008082101580156107ea575060018211155b610829576040517f08c379a000000000000000000000000000000000000000000000000000000000815260040161082090612a37565b60405180910390fd5b6000610835600761135f565b9050610841600761136d565b61084b3082611383565b60008314156108a3576108a28186868080601f016020809104026020016040519081016040528093929190818152602001838380828437600081840152601f19601f820116905080830192505050505050506115a1565b5b809150509392505050565b60606009600083815260200190815260200160002080548060200260200160405190810160405280929190818152602001828054801561090d57602002820191906000526020600020905b8154815260200190600101908083116108f9575b50505050509050919050565b60008061092583611615565b9050600073ffffffffffffffffffffffffffffffffffffffff168173ffffffffffffffffffffffffffffffffffffffff161415610997576040517f08c379a000000000000000000000000000000000000000000000000000000000815260040161098e90612a57565b60405180910390fd5b80915050919050565b60008073ffffffffffffffffffffffffffffffffffffffff168273ffffffffffffffffffffffffffffffffffffffff161415610a11576040517f08c379a0000000000000000000000000000000000000000000000000000000008152600401610a08906129d7565b60405180910390fd5b600360008373ffffffffffffffffffffffffffffffffffffffff1673ffffffffffffffffffffffffffffffffffffffff168152602001908152602001600020549050919050565b60008110158015610a6a575060018111155b610aa9576040517f08c379a0000000000000000000000000000000000000000000000000000000008152600401610aa090612a37565b60405180910390fd5b6001811415610b0157610b008484848080601f016020809104026020016040519081016040528093929190818152602001838380828437600081840152601f19601f820116905080830192505050505050506115a1565b5b3073ffffffffffffffffffffffffffffffffffffffff166323b872dd8787876040518463ffffffff1660e01b8152600401610b3e9392919061280c565b600060405180830381600087803b158015610b5857600080fd5b505af1158015610b6c573d6000803e3d6000fd5b50505050505050505050565b606060018054610b8790612d04565b80601f0160208091040260200160405190810160405280929190818152602001828054610bb390612d04565b8015610c005780601f10610bd557610100808354040283529160200191610c00565b820191906000526020600020905b815481529060010190602001808311610be357829003601f168201915b5050505050905090565b610c1c610c15610f0f565b8383611652565b5050565b610c31610c2b610f0f565b83610fd0565b610c70576040517f08c379a0000000000000000000000000000000000000000000000000000000008152600401610c6790612917565b60405180910390fd5b610c7c848484846117bf565b50505050565b6060610c8d82610ec4565b6000600660008481526020019081526020016000208054610cad90612d04565b80601f0160208091040260200160405190810160405280929190818152602001828054610cd990612d04565b8015610d265780601f10610cfb57610100808354040283529160200191610d26565b820191906000526020600020905b815481529060010190602001808311610d0957829003601f168201915b505050505090506000610d3761181b565b9050600081511415610d4d578192505050610d90565b600082511115610d82578082604051602001610d6a9291906127cd565b60405160208183030381529060405292505050610d90565b610d8b84611832565b925050505b919050565b6000600560008473ffffffffffffffffffffffffffffffffffffffff1673ffffffffffffffffffffffffffffffffffffffff16815260200190815260200160002060008373ffffffffffffffffffffffffffffffffffffffff1673ffffffffffffffffffffffffffffffffffffffff16815260200190815260200160002060009054906101000a900460ff16905092915050565b60096020528160005260406000208181548110610e4557600080fd5b90600052602060002001600091509150505481565b60007f01ffc9a7000000000000000000000000000000000000000000000000000000007bffffffffffffffffffffffffffffffffffffffffffffffffffffffff1916827bffffffffffffffffffffffffffffffffffffffffffffffffffffffff1916149050919050565b610ecd8161189a565b610f0c576040517f08c379a0000000000000000000000000000000000000000000000000000000008152600401610f0390612a57565b60405180910390fd5b50565b600033905090565b816004600083815260200190815260200160002060006101000a81548173ffffffffffffffffffffffffffffffffffffffff021916908373ffffffffffffffffffffffffffffffffffffffff160217905550808273ffffffffffffffffffffffffffffffffffffffff16610f8a83610919565b73ffffffffffffffffffffffffffffffffffffffff167f8c5be1e5ebec7d5bd14f71427d1e84f3dd0314c0f7b2291e5b200ac8c7c3b92560405160405180910390a45050565b600080610fdc83610919565b90508073ffffffffffffffffffffffffffffffffffffffff168473ffffffffffffffffffffffffffffffffffffffff16148061101e575061101d8185610d95565b5b8061105c57508373ffffffffffffffffffffffffffffffffffffffff166110448461053f565b73ffffffffffffffffffffffffffffffffffffffff16145b91505092915050565b8273ffffffffffffffffffffffffffffffffffffffff1661108582610919565b73ffffffffffffffffffffffffffffffffffffffff16146110db576040517f08c379a00000000000000000000000000000000000000000000000000000000081526004016110d290612957565b60405180910390fd5b600073ffffffffffffffffffffffffffffffffffffffff168273ffffffffffffffffffffffffffffffffffffffff16141561114b576040517f08c379a000000000000000000000000000000000000000000000000000000000815260040161114290612997565b60405180910390fd5b61115883838360016118db565b8273ffffffffffffffffffffffffffffffffffffffff1661117882610919565b73ffffffffffffffffffffffffffffffffffffffff16146111ce576040517f08c379a00000000000000000000000000000000000000000000000000000000081526004016111c590612957565b60405180910390fd5b6004600082815260200190815260200160002060006101000a81549073ffffffffffffffffffffffffffffffffffffffff02191690556001600360008573ffffffffffffffffffffffffffffffffffffffff1673ffffffffffffffffffffffffffffffffffffffff168152602001908152602001600020600082825403925050819055506001600360008473ffffffffffffffffffffffffffffffffffffffff1673ffffffffffffffffffffffffffffffffffffffff16815260200190815260200160002060008282540192505081905550816002600083815260200190815260200160002060006101000a81548173ffffffffffffffffffffffffffffffffffffffff021916908373ffffffffffffffffffffffffffffffffffffffff160217905550808273ffffffffffffffffffffffffffffffffffffffff168473ffffffffffffffffffffffffffffffffffffffff167fddf252ad1be2c89b69c2b068fc378daa952ba7f163c4a11628f55a4df523b3ef60405160405180910390a461135a8383836001611a01565b505050565b600081600001549050919050565b6001816000016000828254019250508190555050565b600073ffffffffffffffffffffffffffffffffffffffff168273ffffffffffffffffffffffffffffffffffffffff1614156113f3576040517f08c379a00000000000000000000000000000000000000000000000000000000081526004016113ea90612a17565b60405180910390fd5b6113fc8161189a565b1561143c576040517f08c379a000000000000000000000000000000000000000000000000000000000815260040161143390612977565b60405180910390fd5b61144a6000838360016118db565b6114538161189a565b15611493576040517f08c379a000000000000000000000000000000000000000000000000000000000815260040161148a90612977565b60405180910390fd5b6001600360008473ffffffffffffffffffffffffffffffffffffffff1673ffffffffffffffffffffffffffffffffffffffff16815260200190815260200160002060008282540192505081905550816002600083815260200190815260200160002060006101000a81548173ffffffffffffffffffffffffffffffffffffffff021916908373ffffffffffffffffffffffffffffffffffffffff160217905550808273ffffffffffffffffffffffffffffffffffffffff16600073ffffffffffffffffffffffffffffffffffffffff167fddf252ad1be2c89b69c2b068fc378daa952ba7f163c4a11628f55a4df523b3ef60405160405180910390a461159d600083836001611a01565b5050565b6115aa8261189a565b6115e9576040517f08c379a00000000000000000000000000000000000000000000000000000000081526004016115e0906129f7565b60405180910390fd5b80600660008481526020019081526020016000209080519060200190611610929190611f1c565b505050565b60006002600083815260200190815260200160002060009054906101000a900473ffffffffffffffffffffffffffffffffffffffff169050919050565b8173ffffffffffffffffffffffffffffffffffffffff168373ffffffffffffffffffffffffffffffffffffffff1614156116c1576040517f08c379a00000000000000000000000000000000000000000000000000000000081526004016116b8906129b7565b60405180910390fd5b80600560008573ffffffffffffffffffffffffffffffffffffffff1673ffffffffffffffffffffffffffffffffffffffff16815260200190815260200160002060008473ffffffffffffffffffffffffffffffffffffffff1673ffffffffffffffffffffffffffffffffffffffff16815260200190815260200160002060006101000a81548160ff0219169083151502179055508173ffffffffffffffffffffffffffffffffffffffff168373ffffffffffffffffffffffffffffffffffffffff167f17307eab39ab6107e8899845ad3d59bd9653f200f220920489ca2b5937696c31836040516117b291906128da565b60405180910390a3505050565b6117ca848484611065565b6117d684848484611a07565b611815576040517f08c379a000000000000000000000000000000000000000000000000000000000815260040161180c90612937565b60405180910390fd5b50505050565b606060405180602001604052806000815250905090565b606061183d82610ec4565b600061184761181b565b905060008151116118675760405180602001604052806000815250611892565b8061187184611b9e565b6040516020016118829291906127cd565b6040516020818303038152906040525b915050919050565b60008073ffffffffffffffffffffffffffffffffffffffff166118bc83611615565b73ffffffffffffffffffffffffffffffffffffffff1614159050919050565b60018111156119fb57600073ffffffffffffffffffffffffffffffffffffffff168473ffffffffffffffffffffffffffffffffffffffff161461196f5780600360008673ffffffffffffffffffffffffffffffffffffffff1673ffffffffffffffffffffffffffffffffffffffff16815260200190815260200160002060008282546119679190612c1a565b925050819055505b600073ffffffffffffffffffffffffffffffffffffffff168373ffffffffffffffffffffffffffffffffffffffff16146119fa5780600360008573ffffffffffffffffffffffffffffffffffffffff1673ffffffffffffffffffffffffffffffffffffffff16815260200190815260200160002060008282546119f29190612bc4565b925050819055505b5b50505050565b50505050565b6000611a288473ffffffffffffffffffffffffffffffffffffffff16611cc2565b15611b91578373ffffffffffffffffffffffffffffffffffffffff1663150b7a02611a51610f0f565b8786866040518563ffffffff1660e01b8152600401611a739493929190612843565b602060405180830381600087803b158015611a8d57600080fd5b505af1925050508015611abe57506040513d601f19601f82011682018060405250810190611abb919061233c565b60015b611b41573d8060008114611aee576040519150601f19603f3d011682016040523d82523d6000602084013e611af3565b606091505b50600081511415611b39576040517f08c379a0000000000000000000000000000000000000000000000000000000008152600401611b3090612937565b60405180910390fd5b805181602001fd5b63150b7a0260e01b7bffffffffffffffffffffffffffffffffffffffffffffffffffffffff1916817bffffffffffffffffffffffffffffffffffffffffffffffffffffffff191614915050611b96565b600190505b949350505050565b606060006001611bad84611ce5565b01905060008167ffffffffffffffff811115611bf2577f4e487b7100000000000000000000000000000000000000000000000000000000600052604160045260246000fd5b6040519080825280601f01601f191660200182016040528015611c245781602001600182028036833780820191505090505b509050600082602001820190505b600115611cb7578080600190039150507f3031323334353637383961626364656600000000000000000000000000000000600a86061a8153600a8581611ca1577f4e487b7100000000000000000000000000000000000000000000000000000000600052601260045260246000fd5b0494506000851415611cb257611cb7565b611c32565b819350505050919050565b6000808273ffffffffffffffffffffffffffffffffffffffff163b119050919050565b600080600090507a184f03e93ff9f4daa797ed6e38ed64bf6a1f0100000000000000008310611d69577a184f03e93ff9f4daa797ed6e38ed64bf6a1f0100000000000000008381611d5f577f4e487b7100000000000000000000000000000000000000000000000000000000600052601260045260246000fd5b0492506040810190505b6d04ee2d6d415b85acef81000000008310611dcc576d04ee2d6d415b85acef81000000008381611dc2577f4e487b7100000000000000000000000000000000000000000000000000000000600052601260045260246000fd5b0492506020810190505b662386f26fc100008310611e2157662386f26fc100008381611e17577f4e487b7100000000000000000000000000000000000000000000000000000000600052601260045260246000fd5b0492506010810190505b6305f5e1008310611e70576305f5e1008381611e66577f4e487b7100000000000000000000000000000000000000000000000000000000600052601260045260246000fd5b0492506008810190505b6127108310611ebb576127108381611eb1577f4e487b7100000000000000000000000000000000000000000000000000000000600052601260045260246000fd5b0492506004810190505b60648310611f045760648381611efa577f4e487b7100000000000000000000000000000000000000000000000000000000600052601260045260246000fd5b0492506002810190505b600a8310611f13576001810190505b80915050919050565b828054611f2890612d04565b90600052602060002090601f016020900481019282611f4a5760008555611f91565b82601f10611f6357805160ff1916838001178555611f91565b82800160010185558215611f91579182015b82811115611f90578251825591602001919060010190611f75565b5b509050611f9e9190611fa2565b5090565b5b80821115611fbb576000816000905550600101611fa3565b5090565b6000611fd2611fcd84612b17565b612af2565b905082815260208101848484011115611fea57600080fd5b611ff5848285612cc2565b509392505050565b60008135905061200c816131e2565b92915050565b600081359050612021816131f9565b92915050565b60008135905061203681613210565b92915050565b60008151905061204b81613210565b92915050565b600082601f83011261206257600080fd5b8135612072848260208601611fbf565b91505092915050565b60008083601f84011261208d57600080fd5b8235905067ffffffffffffffff8111156120a657600080fd5b6020830191508360018202830111156120be57600080fd5b9250929050565b6000813590506120d481613227565b92915050565b6000602082840312156120ec57600080fd5b60006120fa84828501611ffd565b91505092915050565b6000806040838503121561211657600080fd5b600061212485828601611ffd565b925050602061213585828601611ffd565b9150509250929050565b60008060006060848603121561215457600080fd5b600061216286828701611ffd565b935050602061217386828701611ffd565b9250506040612184868287016120c5565b9150509250925092565b600080600080608085870312156121a457600080fd5b60006121b287828801611ffd565b94505060206121c387828801611ffd565b93505060406121d4878288016120c5565b925050606085013567ffffffffffffffff8111156121f157600080fd5b6121fd87828801612051565b91505092959194509250565b60008060008060008060a0878903121561222257600080fd5b600061223089828a01611ffd565b965050602061224189828a01611ffd565b955050604061225289828a016120c5565b945050606087013567ffffffffffffffff81111561226f57600080fd5b61227b89828a0161207b565b9350935050608061228e89828a016120c5565b9150509295509295509295565b600080604083850312156122ae57600080fd5b60006122bc85828601611ffd565b92505060206122cd85828601612012565b9150509250929050565b600080604083850312156122ea57600080fd5b60006122f885828601611ffd565b9250506020612309858286016120c5565b9150509250929050565b60006020828403121561232557600080fd5b600061233384828501612027565b91505092915050565b60006020828403121561234e57600080fd5b600061235c8482850161203c565b91505092915050565b60008060006040848603121561237a57600080fd5b600084013567ffffffffffffffff81111561239457600080fd5b6123a08682870161207b565b935093505060206123b3868287016120c5565b9150509250925092565b600080600080606085870312156123d357600080fd5b600085013567ffffffffffffffff8111156123ed57600080fd5b6123f98782880161207b565b9450945050602061240c878288016120c5565b925050604061241d878288016120c5565b91505092959194509250565b60006020828403121561243b57600080fd5b6000612449848285016120c5565b91505092915050565b6000806040838503121561246557600080fd5b6000612473858286016120c5565b9250506020612484858286016120c5565b9150509250929050565b600061249a83836127af565b60208301905092915050565b6124af81612c4e565b82525050565b60006124c082612b58565b6124ca8185612b86565b93506124d583612b48565b8060005b838110156125065781516124ed888261248e565b97506124f883612b79565b9250506001810190506124d9565b5085935050505092915050565b61251c81612c60565b82525050565b600061252d82612b63565b6125378185612b97565b9350612547818560208601612cd1565b61255081612e3d565b840191505092915050565b600061256682612b6e565b6125708185612ba8565b9350612580818560208601612cd1565b61258981612e3d565b840191505092915050565b600061259f82612b6e565b6125a98185612bb9565b93506125b9818560208601612cd1565b80840191505092915050565b60006125d2602d83612ba8565b91506125dd82612e4e565b604082019050919050565b60006125f5603283612ba8565b915061260082612e9d565b604082019050919050565b6000612618602583612ba8565b915061262382612eec565b604082019050919050565b600061263b601c83612ba8565b915061264682612f3b565b602082019050919050565b600061265e602483612ba8565b915061266982612f64565b604082019050919050565b6000612681601983612ba8565b915061268c82612fb3565b602082019050919050565b60006126a4602983612ba8565b91506126af82612fdc565b604082019050919050565b60006126c7602e83612ba8565b91506126d28261302b565b604082019050919050565b60006126ea602083612ba8565b91506126f58261307a565b602082019050919050565b600061270d600d83612ba8565b9150612718826130a3565b602082019050919050565b6000612730601883612ba8565b915061273b826130cc565b602082019050919050565b6000612753602183612ba8565b915061275e826130f5565b604082019050919050565b6000612776603d83612ba8565b915061278182613144565b604082019050919050565b6000612799603183612ba8565b91506127a482613193565b604082019050919050565b6127b881612cb8565b82525050565b6127c781612cb8565b82525050565b60006127d98285612594565b91506127e58284612594565b91508190509392505050565b600060208201905061280660008301846124a6565b92915050565b600060608201905061282160008301866124a6565b61282e60208301856124a6565b61283b60408301846127be565b949350505050565b600060808201905061285860008301876124a6565b61286560208301866124a6565b61287260408301856127be565b81810360608301526128848184612522565b905095945050505050565b60006040820190506128a460008301856124a6565b6128b160208301846127be565b9392505050565b600060208201905081810360008301526128d281846124b5565b905092915050565b60006020820190506128ef6000830184612513565b92915050565b6000602082019050818103600083015261290f818461255b565b905092915050565b60006020820190508181036000830152612930816125c5565b9050919050565b60006020820190508181036000830152612950816125e8565b9050919050565b600060208201905081810360008301526129708161260b565b9050919050565b600060208201905081810360008301526129908161262e565b9050919050565b600060208201905081810360008301526129b081612651565b9050919050565b600060208201905081810360008301526129d081612674565b9050919050565b600060208201905081810360008301526129f081612697565b9050919050565b60006020820190508181036000830152612a10816126ba565b9050919050565b60006020820190508181036000830152612a30816126dd565b9050919050565b60006020820190508181036000830152612a5081612700565b9050919050565b60006020820190508181036000830152612a7081612723565b9050919050565b60006020820190508181036000830152612a9081612746565b9050919050565b60006020820190508181036000830152612ab081612769565b9050919050565b60006020820190508181036000830152612ad08161278c565b9050919050565b6000602082019050612aec60008301846127be565b92915050565b6000612afc612b0d565b9050612b088282612d36565b919050565b6000604051905090565b600067ffffffffffffffff821115612b3257612b31612e0e565b5b612b3b82612e3d565b9050602081019050919050565b6000819050602082019050919050565b600081519050919050565b600081519050919050565b600081519050919050565b6000602082019050919050565b600082825260208201905092915050565b600082825260208201905092915050565b600082825260208201905092915050565b600081905092915050565b6000612bcf82612cb8565b9150612bda83612cb8565b9250827fffffffffffffffffffffffffffffffffffffffffffffffffffffffffffffffff03821115612c0f57612c0e612db0565b5b828201905092915050565b6000612c2582612cb8565b9150612c3083612cb8565b925082821015612c4357612c42612db0565b5b828203905092915050565b6000612c5982612c98565b9050919050565b60008115159050919050565b60007fffffffff0000000000000000000000000000000000000000000000000000000082169050919050565b600073ffffffffffffffffffffffffffffffffffffffff82169050919050565b6000819050919050565b82818337600083830152505050565b60005b83811015612cef578082015181840152602081019050612cd4565b83811115612cfe576000848401525b50505050565b60006002820490506001821680612d1c57607f821691505b60208210811415612d3057612d2f612ddf565b5b50919050565b612d3f82612e3d565b810181811067ffffffffffffffff82111715612d5e57612d5d612e0e565b5b80604052505050565b6000612d7282612cb8565b91507fffffffffffffffffffffffffffffffffffffffffffffffffffffffffffffffff821415612da557612da4612db0565b5b600182019050919050565b7f4e487b7100000000000000000000000000000000000000000000000000000000600052601160045260246000fd5b7f4e487b7100000000000000000000000000000000000000000000000000000000600052602260045260246000fd5b7f4e487b7100000000000000000000000000000000000000000000000000000000600052604160045260246000fd5b6000601f19601f8301169050919050565b7f4552433732313a2063616c6c6572206973206e6f7420746f6b656e206f776e6560008201527f72206f7220617070726f76656400000000000000000000000000000000000000602082015250565b7f4552433732313a207472616e7366657220746f206e6f6e20455243373231526560008201527f63656976657220696d706c656d656e7465720000000000000000000000000000602082015250565b7f4552433732313a207472616e736665722066726f6d20696e636f72726563742060008201527f6f776e6572000000000000000000000000000000000000000000000000000000602082015250565b7f4552433732313a20746f6b656e20616c7265616479206d696e74656400000000600082015250565b7f4552433732313a207472616e7366657220746f20746865207a65726f2061646460008201527f7265737300000000000000000000000000000000000000000000000000000000602082015250565b7f4552433732313a20617070726f766520746f2063616c6c657200000000000000600082015250565b7f4552433732313a2061646472657373207a65726f206973206e6f74206120766160008201527f6c6964206f776e65720000000000000000000000000000000000000000000000602082015250565b7f45524337323155524953746f726167653a2055524920736574206f66206e6f6e60008201527f6578697374656e7420746f6b656e000000000000000000000000000000000000602082015250565b7f4552433732313a206d696e7420746f20746865207a65726f2061646472657373600082015250565b7f496e76616c69642076616c756500000000000000000000000000000000000000600082015250565b7f4552433732313a20696e76616c696420746f6b656e2049440000000000000000600082015250565b7f4552433732313a20617070726f76616c20746f2063757272656e74206f776e6560008201527f7200000000000000000000000000000000000000000000000000000000000000602082015250565b7f4552433732313a20617070726f76652063616c6c6572206973206e6f7420746f60008201527f6b656e206f776e6572206f7220617070726f76656420666f7220616c6c000000602082015250565b7f4552433732313a207472616e736665722063616c6c6572206973206e6f74206f60008201527f776e6572206e6f7220617070726f766564000000000000000000000000000000602082015250565b6131eb81612c4e565b81146131f657600080fd5b50565b61320281612c60565b811461320d57600080fd5b50565b61321981612c6c565b811461322457600080fd5b50565b61323081612cb8565b811461323b57600080fd5b5056fea26469706673582212208e8350f7e7a53ba5148fe7eb693943800ba9d1e399a3b539141068cda8495e7164736f6c63430008040033",
  "linkReferences": {},
  "deployedLinkReferences": {}
}