{
  "_format": "hh-sol-artifact-1",
  "contractName": "Trustified",
  "sourceName": "contracts/Trustified.sol",
  "abi": [
    {
      "inputs": [],
      "stateMutability": "nonpayable",
      "type": "constructor"
    },
    {
      "anonymous": false,
      "inputs": [
        {
          "indexed": true,
          "internalType": "address",
          "name": "owner",
          "type": "address"
        },
        {
          "indexed": true,
          "internalType": "address",
          "name": "approved",
          "type": "address"
        },
        {
          "indexed": true,
          "internalType": "uint256",
          "name": "tokenId",
          "type": "uint256"
        }
      ],
      "name": "Approval",
      "type": "event"
    },
    {
      "anonymous": false,
      "inputs": [
        {
          "indexed": true,
          "internalType": "address",
          "name": "owner",
          "type": "address"
        },
        {
          "indexed": true,
          "internalType": "address",
          "name": "operator",
          "type": "address"
        },
        {
          "indexed": false,
          "internalType": "bool",
          "name": "approved",
          "type": "bool"
        }
      ],
      "name": "ApprovalForAll",
      "type": "event"
    },
    {
      "anonymous": false,
      "inputs": [
        {
          "indexed": false,
          "internalType": "address",
          "name": "",
          "type": "address"
        },
        {
          "indexed": false,
          "internalType": "uint256",
          "name": "",
          "type": "uint256"
        }
      ],
      "name": "TokenMinted",
      "type": "event"
    },
    {
      "anonymous": false,
      "inputs": [
        {
          "indexed": true,
          "internalType": "address",
          "name": "from",
          "type": "address"
        },
        {
          "indexed": true,
          "internalType": "address",
          "name": "to",
          "type": "address"
        },
        {
          "indexed": true,
          "internalType": "uint256",
          "name": "tokenId",
          "type": "uint256"
        }
      ],
      "name": "Transfer",
      "type": "event"
    },
    {
      "inputs": [],
      "name": "allTokenMinted",
      "outputs": [
        {
          "internalType": "bool",
          "name": "",
          "type": "bool"
        }
      ],
      "stateMutability": "view",
      "type": "function"
    },
    {
      "inputs": [
        {
          "internalType": "address",
          "name": "to",
          "type": "address"
        },
        {
          "internalType": "uint256",
          "name": "tokenId",
          "type": "uint256"
        }
      ],
      "name": "approve",
      "outputs": [],
      "stateMutability": "nonpayable",
      "type": "function"
    },
    {
      "inputs": [
        {
          "internalType": "address",
          "name": "owner",
          "type": "address"
        }
      ],
      "name": "balanceOf",
      "outputs": [
        {
          "internalType": "uint256",
          "name": "",
          "type": "uint256"
        }
      ],
      "stateMutability": "view",
      "type": "function"
    },
    {
      "inputs": [
        {
          "internalType": "string",
          "name": "tokenUri",
          "type": "string"
        },
        {
          "internalType": "uint256",
          "name": "quantity",
          "type": "uint256"
        },
        {
          "internalType": "uint256",
          "name": "value",
          "type": "uint256"
        }
      ],
      "name": "bulkMintERC721",
      "outputs": [],
      "stateMutability": "nonpayable",
      "type": "function"
    },
    {
      "inputs": [
        {
          "internalType": "uint256",
          "name": "tokenId",
          "type": "uint256"
        }
      ],
      "name": "getApproved",
      "outputs": [
        {
          "internalType": "address",
          "name": "",
          "type": "address"
        }
      ],
      "stateMutability": "view",
      "type": "function"
    },
    {
      "inputs": [],
      "name": "getMintStatus",
      "outputs": [
        {
          "internalType": "bool",
          "name": "",
          "type": "bool"
        }
      ],
      "stateMutability": "view",
      "type": "function"
    },
    {
      "inputs": [
        {
          "internalType": "uint256",
          "name": "eventId",
          "type": "uint256"
        }
      ],
      "name": "getTokenIds",
      "outputs": [
        {
          "internalType": "uint256[]",
          "name": "",
          "type": "uint256[]"
        }
      ],
      "stateMutability": "view",
      "type": "function"
    },
    {
      "inputs": [
        {
          "internalType": "address",
          "name": "owner",
          "type": "address"
        },
        {
          "internalType": "address",
          "name": "operator",
          "type": "address"
        }
      ],
      "name": "isApprovedForAll",
      "outputs": [
        {
          "internalType": "bool",
          "name": "",
          "type": "bool"
        }
      ],
      "stateMutability": "view",
      "type": "function"
    },
    {
      "inputs": [
        {
          "internalType": "uint256",
          "name": "",
          "type": "uint256"
        }
      ],
      "name": "issuers",
      "outputs": [
        {
          "internalType": "address",
          "name": "",
          "type": "address"
        }
      ],
      "stateMutability": "view",
      "type": "function"
    },
    {
      "inputs": [],
      "name": "name",
      "outputs": [
        {
          "internalType": "string",
          "name": "",
          "type": "string"
        }
      ],
      "stateMutability": "view",
      "type": "function"
    },
    {
      "inputs": [
        {
          "internalType": "uint256",
          "name": "tokenId",
          "type": "uint256"
        }
      ],
      "name": "ownerOf",
      "outputs": [
        {
          "internalType": "address",
          "name": "",
          "type": "address"
        }
      ],
      "stateMutability": "view",
      "type": "function"
    },
    {
      "inputs": [
        {
          "internalType": "string",
          "name": "tokenURI",
          "type": "string"
        },
        {
          "internalType": "uint256",
          "name": "value",
          "type": "uint256"
        }
      ],
      "name": "safeMint",
      "outputs": [
        {
          "internalType": "uint256",
          "name": "",
          "type": "uint256"
        }
      ],
      "stateMutability": "nonpayable",
      "type": "function"
    },
    {
      "inputs": [
        {
          "internalType": "address",
          "name": "from",
          "type": "address"
        },
        {
          "internalType": "address",
          "name": "to",
          "type": "address"
        },
        {
          "internalType": "uint256",
          "name": "tokenId",
          "type": "uint256"
        }
      ],
      "name": "safeTransferFrom",
      "outputs": [],
      "stateMutability": "nonpayable",
      "type": "function"
    },
    {
      "inputs": [
        {
          "internalType": "address",
          "name": "from",
          "type": "address"
        },
        {
          "internalType": "address",
          "name": "to",
          "type": "address"
        },
        {
          "internalType": "uint256",
          "name": "tokenId",
          "type": "uint256"
        },
        {
          "internalType": "bytes",
          "name": "data",
          "type": "bytes"
        }
      ],
      "name": "safeTransferFrom",
      "outputs": [],
      "stateMutability": "nonpayable",
      "type": "function"
    },
    {
      "inputs": [
        {
          "internalType": "address",
          "name": "operator",
          "type": "address"
        },
        {
          "internalType": "bool",
          "name": "approved",
          "type": "bool"
        }
      ],
      "name": "setApprovalForAll",
      "outputs": [],
      "stateMutability": "nonpayable",
      "type": "function"
    },
    {
      "inputs": [
        {
          "internalType": "bytes4",
          "name": "interfaceId",
          "type": "bytes4"
        }
      ],
      "name": "supportsInterface",
      "outputs": [
        {
          "internalType": "bool",
          "name": "",
          "type": "bool"
        }
      ],
      "stateMutability": "view",
      "type": "function"
    },
    {
      "inputs": [],
      "name": "symbol",
      "outputs": [
        {
          "internalType": "string",
          "name": "",
          "type": "string"
        }
      ],
      "stateMutability": "view",
      "type": "function"
    },
    {
      "inputs": [
        {
          "internalType": "uint256",
          "name": "",
          "type": "uint256"
        },
        {
          "internalType": "uint256",
          "name": "",
          "type": "uint256"
        }
      ],
      "name": "tokenIds",
      "outputs": [
        {
          "internalType": "uint256",
          "name": "",
          "type": "uint256"
        }
      ],
      "stateMutability": "view",
      "type": "function"
    },
    {
      "inputs": [
        {
          "internalType": "uint256",
          "name": "tokenId",
          "type": "uint256"
        }
      ],
      "name": "tokenURI",
      "outputs": [
        {
          "internalType": "string",
          "name": "",
          "type": "string"
        }
      ],
      "stateMutability": "view",
      "type": "function"
    },
    {
      "inputs": [
        {
          "internalType": "address",
          "name": "from",
          "type": "address"
        },
        {
          "internalType": "address",
          "name": "to",
          "type": "address"
        },
        {
          "internalType": "uint256",
          "name": "tokenId",
          "type": "uint256"
        }
      ],
      "name": "transferFrom",
      "outputs": [],
      "stateMutability": "nonpayable",
      "type": "function"
    },
    {
      "inputs": [
        {
          "internalType": "address",
          "name": "from",
          "type": "address"
        },
        {
          "internalType": "address",
          "name": "to",
          "type": "address"
        },
        {
          "internalType": "uint256",
          "name": "tokenId",
          "type": "uint256"
        },
        {
          "internalType": "string",
          "name": "tokenURI",
          "type": "string"
        },
        {
          "internalType": "uint256",
          "name": "value",
          "type": "uint256"
        }
      ],
      "name": "transferToken",
      "outputs": [],
      "stateMutability": "nonpayable",
      "type": "function"
    }
  ],
  "bytecode": "0x60806040523480156200001157600080fd5b506040518060400160405280600a81526020017f54727573746966696564000000000000000000000000000000000000000000008152506040518060400160405280600381526020017f54464e00000000000000000000000000000000000000000000000000000000008152506000828281600090805190602001906200009a929190620000d9565b508060019080519060200190620000b3929190620000d9565b50505080600660006101000a81548160ff021916908315150217905550505050620001ee565b828054620000e79062000189565b90600052602060002090601f0160209004810192826200010b576000855562000157565b82601f106200012657805160ff191683800117855562000157565b8280016001018555821562000157579182015b828111156200015657825182559160200191906001019062000139565b5b5090506200016691906200016a565b5090565b5b80821115620001855760008160009055506001016200016b565b5090565b60006002820490506001821680620001a257607f821691505b60208210811415620001b957620001b8620001bf565b5b50919050565b7f4e487b7100000000000000000000000000000000000000000000000000000000600052602260045260246000fd5b61352980620001fe6000396000f3fe608060405234801561001057600080fd5b50600436106101375760003560e01c806361ec30c4116100b857806395d89b411161007c57806395d89b4114610372578063a22cb46514610390578063b88d4fde146103ac578063c87b56dd146103c8578063e985e9c5146103f8578063eed8cc351461042857610137565b806361ec30c4146102a85780636352211e146102d857806370a08231146103085780638057483414610338578063941ada0e1461035457610137565b80632cba83d1116100ff5780632cba83d1146101f257806342842e0e1461020e578063436afe321461022a57806346b145e11461024857806357991d301461027857610137565b806301ffc9a71461013c57806306fdde031461016c578063081812fc1461018a578063095ea7b3146101ba57806323b872dd146101d6575b600080fd5b61015660048036038101906101519190612536565b610458565b6040516101639190612b20565b60405180910390f35b61017461053a565b6040516101819190612b3b565b60405180910390f35b6101a4600480360381019061019f919061264c565b6105cc565b6040516101b19190612a37565b60405180910390f35b6101d460048036038101906101cf91906124fa565b610612565b005b6101f060048036038101906101eb9190612362565b61072a565b005b61020c600480360381019061020791906125e0565b610834565b005b61022860048036038101906102239190612362565b61097d565b005b61023261099d565b60405161023f9190612b20565b60405180910390f35b610262600480360381019061025d9190612588565b6109b0565b60405161026f9190612d3d565b60405180910390f35b610292600480360381019061028d919061264c565b610a87565b60405161029f9190612afe565b60405180910390f35b6102c260048036038101906102bd919061264c565b610af2565b6040516102cf9190612a37565b60405180910390f35b6102f260048036038101906102ed919061264c565b610b25565b6040516102ff9190612a37565b60405180910390f35b610322600480360381019061031d91906122fd565b610bac565b60405161032f9190612d3d565b60405180910390f35b610352600480360381019061034d919061242c565b610c64565b005b61035c610d84565b6040516103699190612b20565b60405180910390f35b61037a610d9b565b6040516103879190612b3b565b60405180910390f35b6103aa60048036038101906103a591906124be565b610e2d565b005b6103c660048036038101906103c191906123b1565b610e43565b005b6103e260048036038101906103dd919061264c565b610ea5565b6040516103ef9190612b3b565b60405180910390f35b610412600480360381019061040d9190612326565b610fb8565b60405161041f9190612b20565b60405180910390f35b610442600480360381019061043d9190612675565b61104c565b60405161044f9190612d3d565b60405180910390f35b60007f80ac58cd000000000000000000000000000000000000000000000000000000007bffffffffffffffffffffffffffffffffffffffffffffffffffffffff1916827bffffffffffffffffffffffffffffffffffffffffffffffffffffffff1916148061052357507f5b5e139f000000000000000000000000000000000000000000000000000000007bffffffffffffffffffffffffffffffffffffffffffffffffffffffff1916827bffffffffffffffffffffffffffffffffffffffffffffffffffffffff1916145b8061053357506105328261107d565b5b9050919050565b60606000805461054990612f6a565b80601f016020809104026020016040519081016040528092919081815260200182805461057590612f6a565b80156105c25780601f10610597576101008083540402835291602001916105c2565b820191906000526020600020905b8154815290600101906020018083116105a557829003601f168201915b5050505050905090565b60006105d7826110e7565b6004600083815260200190815260200160002060009054906101000a900473ffffffffffffffffffffffffffffffffffffffff169050919050565b600061061d82610b25565b90508073ffffffffffffffffffffffffffffffffffffffff168373ffffffffffffffffffffffffffffffffffffffff16141561068e576040517f08c379a000000000000000000000000000000000000000000000000000000000815260040161068590612cbd565b60405180910390fd5b8073ffffffffffffffffffffffffffffffffffffffff166106ad611132565b73ffffffffffffffffffffffffffffffffffffffff1614806106dc57506106db816106d6611132565b610fb8565b5b61071b576040517f08c379a000000000000000000000000000000000000000000000000000000000815260040161071290612cdd565b60405180910390fd5b610725838361113a565b505050565b60011515600660009054906101000a900460ff16151514156107af57600115156008600083815260200190815260200160002060009054906101000a900460ff16151514156107ae576040517f08c379a00000000000000000000000000000000000000000000000000000000081526004016107a590612d1d565b60405180910390fd5b5b6107b983826111f3565b6107f8576040517f08c379a00000000000000000000000000000000000000000000000000000000081526004016107ef90612cfd565b60405180910390fd5b610803838383611288565b60016008600083815260200190815260200160002060006101000a81548160ff021916908315150217905550505050565b6000610840600a611582565b905061084c600a611590565b60005b8381101561093c5760006108648787866109b0565b9050600c600084815260200190815260200160002081908060018154018082558091505060019003906000526020600020016000909190919091505533600d600085815260200190815260200160002060006101000a81548173ffffffffffffffffffffffffffffffffffffffff021916908373ffffffffffffffffffffffffffffffffffffffff16021790555060006001826109019190612e2a565b905085811415610927576001600b60006101000a81548160ff0219169083151502179055505b5050808061093490612fcd565b91505061084f565b507fb9144c96c86541f6fa89c9f2f02495cccf4b08cd6643e26d34ee00aa586558a8338260405161096e929190612ad5565b60405180910390a15050505050565b61099883838360405180602001604052806000815250610e43565b505050565b600b60009054906101000a900460ff1681565b60008082101580156109c3575060018211155b610a02576040517f08c379a00000000000000000000000000000000000000000000000000000000081526004016109f990612c7d565b60405180910390fd5b6000610a0e6009611582565b9050610a1a6009611590565b610a2430826115a6565b6000831415610a7c57610a7b8186868080601f016020809104026020016040519081016040528093929190818152602001838380828437600081840152601f19601f820116905080830192505050505050506117c4565b5b809150509392505050565b6060600c6000838152602001908152602001600020805480602002602001604051908101604052809291908181526020018280548015610ae657602002820191906000526020600020905b815481526020019060010190808311610ad2575b50505050509050919050565b600d6020528060005260406000206000915054906101000a900473ffffffffffffffffffffffffffffffffffffffff1681565b600080610b3183611838565b9050600073ffffffffffffffffffffffffffffffffffffffff168173ffffffffffffffffffffffffffffffffffffffff161415610ba3576040517f08c379a0000000000000000000000000000000000000000000000000000000008152600401610b9a90612c9d565b60405180910390fd5b80915050919050565b60008073ffffffffffffffffffffffffffffffffffffffff168273ffffffffffffffffffffffffffffffffffffffff161415610c1d576040517f08c379a0000000000000000000000000000000000000000000000000000000008152600401610c1490612c1d565b60405180910390fd5b600360008373ffffffffffffffffffffffffffffffffffffffff1673ffffffffffffffffffffffffffffffffffffffff168152602001908152602001600020549050919050565b60008110158015610c76575060018111155b610cb5576040517f08c379a0000000000000000000000000000000000000000000000000000000008152600401610cac90612c7d565b60405180910390fd5b6001811415610d0d57610d0c8484848080601f016020809104026020016040519081016040528093929190818152602001838380828437600081840152601f19601f820116905080830192505050505050506117c4565b5b3073ffffffffffffffffffffffffffffffffffffffff166323b872dd8787876040518463ffffffff1660e01b8152600401610d4a93929190612a52565b600060405180830381600087803b158015610d6457600080fd5b505af1158015610d78573d6000803e3d6000fd5b50505050505050505050565b6000600b60009054906101000a900460ff16905090565b606060018054610daa90612f6a565b80601f0160208091040260200160405190810160405280929190818152602001828054610dd690612f6a565b8015610e235780601f10610df857610100808354040283529160200191610e23565b820191906000526020600020905b815481529060010190602001808311610e0657829003601f168201915b5050505050905090565b610e3f610e38611132565b8383611875565b5050565b610e54610e4e611132565b836111f3565b610e93576040517f08c379a0000000000000000000000000000000000000000000000000000000008152600401610e8a90612b5d565b60405180910390fd5b610e9f848484846119e2565b50505050565b6060610eb0826110e7565b6000600760008481526020019081526020016000208054610ed090612f6a565b80601f0160208091040260200160405190810160405280929190818152602001828054610efc90612f6a565b8015610f495780601f10610f1e57610100808354040283529160200191610f49565b820191906000526020600020905b815481529060010190602001808311610f2c57829003601f168201915b505050505090506000610f5a611a3e565b9050600081511415610f70578192505050610fb3565b600082511115610fa5578082604051602001610f8d929190612a13565b60405160208183030381529060405292505050610fb3565b610fae84611a55565b925050505b919050565b6000600560008473ffffffffffffffffffffffffffffffffffffffff1673ffffffffffffffffffffffffffffffffffffffff16815260200190815260200160002060008373ffffffffffffffffffffffffffffffffffffffff1673ffffffffffffffffffffffffffffffffffffffff16815260200190815260200160002060009054906101000a900460ff16905092915050565b600c602052816000526040600020818154811061106857600080fd5b90600052602060002001600091509150505481565b60007f01ffc9a7000000000000000000000000000000000000000000000000000000007bffffffffffffffffffffffffffffffffffffffffffffffffffffffff1916827bffffffffffffffffffffffffffffffffffffffffffffffffffffffff1916149050919050565b6110f081611abd565b61112f576040517f08c379a000000000000000000000000000000000000000000000000000000000815260040161112690612c9d565b60405180910390fd5b50565b600033905090565b816004600083815260200190815260200160002060006101000a81548173ffffffffffffffffffffffffffffffffffffffff021916908373ffffffffffffffffffffffffffffffffffffffff160217905550808273ffffffffffffffffffffffffffffffffffffffff166111ad83610b25565b73ffffffffffffffffffffffffffffffffffffffff167f8c5be1e5ebec7d5bd14f71427d1e84f3dd0314c0f7b2291e5b200ac8c7c3b92560405160405180910390a45050565b6000806111ff83610b25565b90508073ffffffffffffffffffffffffffffffffffffffff168473ffffffffffffffffffffffffffffffffffffffff16148061124157506112408185610fb8565b5b8061127f57508373ffffffffffffffffffffffffffffffffffffffff16611267846105cc565b73ffffffffffffffffffffffffffffffffffffffff16145b91505092915050565b8273ffffffffffffffffffffffffffffffffffffffff166112a882610b25565b73ffffffffffffffffffffffffffffffffffffffff16146112fe576040517f08c379a00000000000000000000000000000000000000000000000000000000081526004016112f590612b9d565b60405180910390fd5b600073ffffffffffffffffffffffffffffffffffffffff168273ffffffffffffffffffffffffffffffffffffffff16141561136e576040517f08c379a000000000000000000000000000000000000000000000000000000000815260040161136590612bdd565b60405180910390fd5b61137b8383836001611afe565b8273ffffffffffffffffffffffffffffffffffffffff1661139b82610b25565b73ffffffffffffffffffffffffffffffffffffffff16146113f1576040517f08c379a00000000000000000000000000000000000000000000000000000000081526004016113e890612b9d565b60405180910390fd5b6004600082815260200190815260200160002060006101000a81549073ffffffffffffffffffffffffffffffffffffffff02191690556001600360008573ffffffffffffffffffffffffffffffffffffffff1673ffffffffffffffffffffffffffffffffffffffff168152602001908152602001600020600082825403925050819055506001600360008473ffffffffffffffffffffffffffffffffffffffff1673ffffffffffffffffffffffffffffffffffffffff16815260200190815260200160002060008282540192505081905550816002600083815260200190815260200160002060006101000a81548173ffffffffffffffffffffffffffffffffffffffff021916908373ffffffffffffffffffffffffffffffffffffffff160217905550808273ffffffffffffffffffffffffffffffffffffffff168473ffffffffffffffffffffffffffffffffffffffff167fddf252ad1be2c89b69c2b068fc378daa952ba7f163c4a11628f55a4df523b3ef60405160405180910390a461157d8383836001611c24565b505050565b600081600001549050919050565b6001816000016000828254019250508190555050565b600073ffffffffffffffffffffffffffffffffffffffff168273ffffffffffffffffffffffffffffffffffffffff161415611616576040517f08c379a000000000000000000000000000000000000000000000000000000000815260040161160d90612c5d565b60405180910390fd5b61161f81611abd565b1561165f576040517f08c379a000000000000000000000000000000000000000000000000000000000815260040161165690612bbd565b60405180910390fd5b61166d600083836001611afe565b61167681611abd565b156116b6576040517f08c379a00000000000000000000000000000000000000000000000000000000081526004016116ad90612bbd565b60405180910390fd5b6001600360008473ffffffffffffffffffffffffffffffffffffffff1673ffffffffffffffffffffffffffffffffffffffff16815260200190815260200160002060008282540192505081905550816002600083815260200190815260200160002060006101000a81548173ffffffffffffffffffffffffffffffffffffffff021916908373ffffffffffffffffffffffffffffffffffffffff160217905550808273ffffffffffffffffffffffffffffffffffffffff16600073ffffffffffffffffffffffffffffffffffffffff167fddf252ad1be2c89b69c2b068fc378daa952ba7f163c4a11628f55a4df523b3ef60405160405180910390a46117c0600083836001611c24565b5050565b6117cd82611abd565b61180c576040517f08c379a000000000000000000000000000000000000000000000000000000000815260040161180390612c3d565b60405180910390fd5b8060076000848152602001908152602001600020908051906020019061183392919061213f565b505050565b60006002600083815260200190815260200160002060009054906101000a900473ffffffffffffffffffffffffffffffffffffffff169050919050565b8173ffffffffffffffffffffffffffffffffffffffff168373ffffffffffffffffffffffffffffffffffffffff1614156118e4576040517f08c379a00000000000000000000000000000000000000000000000000000000081526004016118db90612bfd565b60405180910390fd5b80600560008573ffffffffffffffffffffffffffffffffffffffff1673ffffffffffffffffffffffffffffffffffffffff16815260200190815260200160002060008473ffffffffffffffffffffffffffffffffffffffff1673ffffffffffffffffffffffffffffffffffffffff16815260200190815260200160002060006101000a81548160ff0219169083151502179055508173ffffffffffffffffffffffffffffffffffffffff168373ffffffffffffffffffffffffffffffffffffffff167f17307eab39ab6107e8899845ad3d59bd9653f200f220920489ca2b5937696c31836040516119d59190612b20565b60405180910390a3505050565b6119ed848484611288565b6119f984848484611c2a565b611a38576040517f08c379a0000000000000000000000000000000000000000000000000000000008152600401611a2f90612b7d565b60405180910390fd5b50505050565b606060405180602001604052806000815250905090565b6060611a60826110e7565b6000611a6a611a3e565b90506000815111611a8a5760405180602001604052806000815250611ab5565b80611a9484611dc1565b604051602001611aa5929190612a13565b6040516020818303038152906040525b915050919050565b60008073ffffffffffffffffffffffffffffffffffffffff16611adf83611838565b73ffffffffffffffffffffffffffffffffffffffff1614159050919050565b6001811115611c1e57600073ffffffffffffffffffffffffffffffffffffffff168473ffffffffffffffffffffffffffffffffffffffff1614611b925780600360008673ffffffffffffffffffffffffffffffffffffffff1673ffffffffffffffffffffffffffffffffffffffff1681526020019081526020016000206000828254611b8a9190612e80565b925050819055505b600073ffffffffffffffffffffffffffffffffffffffff168373ffffffffffffffffffffffffffffffffffffffff1614611c1d5780600360008573ffffffffffffffffffffffffffffffffffffffff1673ffffffffffffffffffffffffffffffffffffffff1681526020019081526020016000206000828254611c159190612e2a565b925050819055505b5b50505050565b50505050565b6000611c4b8473ffffffffffffffffffffffffffffffffffffffff16611ee5565b15611db4578373ffffffffffffffffffffffffffffffffffffffff1663150b7a02611c74611132565b8786866040518563ffffffff1660e01b8152600401611c969493929190612a89565b602060405180830381600087803b158015611cb057600080fd5b505af1925050508015611ce157506040513d601f19601f82011682018060405250810190611cde919061255f565b60015b611d64573d8060008114611d11576040519150601f19603f3d011682016040523d82523d6000602084013e611d16565b606091505b50600081511415611d5c576040517f08c379a0000000000000000000000000000000000000000000000000000000008152600401611d5390612b7d565b60405180910390fd5b805181602001fd5b63150b7a0260e01b7bffffffffffffffffffffffffffffffffffffffffffffffffffffffff1916817bffffffffffffffffffffffffffffffffffffffffffffffffffffffff191614915050611db9565b600190505b949350505050565b606060006001611dd084611f08565b01905060008167ffffffffffffffff811115611e15577f4e487b7100000000000000000000000000000000000000000000000000000000600052604160045260246000fd5b6040519080825280601f01601f191660200182016040528015611e475781602001600182028036833780820191505090505b509050600082602001820190505b600115611eda578080600190039150507f3031323334353637383961626364656600000000000000000000000000000000600a86061a8153600a8581611ec4577f4e487b7100000000000000000000000000000000000000000000000000000000600052601260045260246000fd5b0494506000851415611ed557611eda565b611e55565b819350505050919050565b6000808273ffffffffffffffffffffffffffffffffffffffff163b119050919050565b600080600090507a184f03e93ff9f4daa797ed6e38ed64bf6a1f0100000000000000008310611f8c577a184f03e93ff9f4daa797ed6e38ed64bf6a1f0100000000000000008381611f82577f4e487b7100000000000000000000000000000000000000000000000000000000600052601260045260246000fd5b0492506040810190505b6d04ee2d6d415b85acef81000000008310611fef576d04ee2d6d415b85acef81000000008381611fe5577f4e487b7100000000000000000000000000000000000000000000000000000000600052601260045260246000fd5b0492506020810190505b662386f26fc10000831061204457662386f26fc10000838161203a577f4e487b7100000000000000000000000000000000000000000000000000000000600052601260045260246000fd5b0492506010810190505b6305f5e1008310612093576305f5e1008381612089577f4e487b7100000000000000000000000000000000000000000000000000000000600052601260045260246000fd5b0492506008810190505b61271083106120de5761271083816120d4577f4e487b7100000000000000000000000000000000000000000000000000000000600052601260045260246000fd5b0492506004810190505b60648310612127576064838161211d577f4e487b7100000000000000000000000000000000000000000000000000000000600052601260045260246000fd5b0492506002810190505b600a8310612136576001810190505b80915050919050565b82805461214b90612f6a565b90600052602060002090601f01602090048101928261216d57600085556121b4565b82601f1061218657805160ff19168380011785556121b4565b828001600101855582156121b4579182015b828111156121b3578251825591602001919060010190612198565b5b5090506121c191906121c5565b5090565b5b808211156121de5760008160009055506001016121c6565b5090565b60006121f56121f084612d7d565b612d58565b90508281526020810184848401111561220d57600080fd5b612218848285612f28565b509392505050565b60008135905061222f81613497565b92915050565b600081359050612244816134ae565b92915050565b600081359050612259816134c5565b92915050565b60008151905061226e816134c5565b92915050565b600082601f83011261228557600080fd5b81356122958482602086016121e2565b91505092915050565b60008083601f8401126122b057600080fd5b8235905067ffffffffffffffff8111156122c957600080fd5b6020830191508360018202830111156122e157600080fd5b9250929050565b6000813590506122f7816134dc565b92915050565b60006020828403121561230f57600080fd5b600061231d84828501612220565b91505092915050565b6000806040838503121561233957600080fd5b600061234785828601612220565b925050602061235885828601612220565b9150509250929050565b60008060006060848603121561237757600080fd5b600061238586828701612220565b935050602061239686828701612220565b92505060406123a7868287016122e8565b9150509250925092565b600080600080608085870312156123c757600080fd5b60006123d587828801612220565b94505060206123e687828801612220565b93505060406123f7878288016122e8565b925050606085013567ffffffffffffffff81111561241457600080fd5b61242087828801612274565b91505092959194509250565b60008060008060008060a0878903121561244557600080fd5b600061245389828a01612220565b965050602061246489828a01612220565b955050604061247589828a016122e8565b945050606087013567ffffffffffffffff81111561249257600080fd5b61249e89828a0161229e565b935093505060806124b189828a016122e8565b9150509295509295509295565b600080604083850312156124d157600080fd5b60006124df85828601612220565b92505060206124f085828601612235565b9150509250929050565b6000806040838503121561250d57600080fd5b600061251b85828601612220565b925050602061252c858286016122e8565b9150509250929050565b60006020828403121561254857600080fd5b60006125568482850161224a565b91505092915050565b60006020828403121561257157600080fd5b600061257f8482850161225f565b91505092915050565b60008060006040848603121561259d57600080fd5b600084013567ffffffffffffffff8111156125b757600080fd5b6125c38682870161229e565b935093505060206125d6868287016122e8565b9150509250925092565b600080600080606085870312156125f657600080fd5b600085013567ffffffffffffffff81111561261057600080fd5b61261c8782880161229e565b9450945050602061262f878288016122e8565b9250506040612640878288016122e8565b91505092959194509250565b60006020828403121561265e57600080fd5b600061266c848285016122e8565b91505092915050565b6000806040838503121561268857600080fd5b6000612696858286016122e8565b92505060206126a7858286016122e8565b9150509250929050565b60006126bd83836129f5565b60208301905092915050565b6126d281612eb4565b82525050565b60006126e382612dbe565b6126ed8185612dec565b93506126f883612dae565b8060005b8381101561272957815161271088826126b1565b975061271b83612ddf565b9250506001810190506126fc565b5085935050505092915050565b61273f81612ec6565b82525050565b600061275082612dc9565b61275a8185612dfd565b935061276a818560208601612f37565b612773816130a3565b840191505092915050565b600061278982612dd4565b6127938185612e0e565b93506127a3818560208601612f37565b6127ac816130a3565b840191505092915050565b60006127c282612dd4565b6127cc8185612e1f565b93506127dc818560208601612f37565b80840191505092915050565b60006127f5602d83612e0e565b9150612800826130b4565b604082019050919050565b6000612818603283612e0e565b915061282382613103565b604082019050919050565b600061283b602583612e0e565b915061284682613152565b604082019050919050565b600061285e601c83612e0e565b9150612869826131a1565b602082019050919050565b6000612881602483612e0e565b915061288c826131ca565b604082019050919050565b60006128a4601983612e0e565b91506128af82613219565b602082019050919050565b60006128c7602983612e0e565b91506128d282613242565b604082019050919050565b60006128ea602e83612e0e565b91506128f582613291565b604082019050919050565b600061290d602083612e0e565b9150612918826132e0565b602082019050919050565b6000612930600d83612e0e565b915061293b82613309565b602082019050919050565b6000612953601883612e0e565b915061295e82613332565b602082019050919050565b6000612976602183612e0e565b91506129818261335b565b604082019050919050565b6000612999603d83612e0e565b91506129a4826133aa565b604082019050919050565b60006129bc603183612e0e565b91506129c7826133f9565b604082019050919050565b60006129df602283612e0e565b91506129ea82613448565b604082019050919050565b6129fe81612f1e565b82525050565b612a0d81612f1e565b82525050565b6000612a1f82856127b7565b9150612a2b82846127b7565b91508190509392505050565b6000602082019050612a4c60008301846126c9565b92915050565b6000606082019050612a6760008301866126c9565b612a7460208301856126c9565b612a816040830184612a04565b949350505050565b6000608082019050612a9e60008301876126c9565b612aab60208301866126c9565b612ab86040830185612a04565b8181036060830152612aca8184612745565b905095945050505050565b6000604082019050612aea60008301856126c9565b612af76020830184612a04565b9392505050565b60006020820190508181036000830152612b1881846126d8565b905092915050565b6000602082019050612b356000830184612736565b92915050565b60006020820190508181036000830152612b55818461277e565b905092915050565b60006020820190508181036000830152612b76816127e8565b9050919050565b60006020820190508181036000830152612b968161280b565b9050919050565b60006020820190508181036000830152612bb68161282e565b9050919050565b60006020820190508181036000830152612bd681612851565b9050919050565b60006020820190508181036000830152612bf681612874565b9050919050565b60006020820190508181036000830152612c1681612897565b9050919050565b60006020820190508181036000830152612c36816128ba565b9050919050565b60006020820190508181036000830152612c56816128dd565b9050919050565b60006020820190508181036000830152612c7681612900565b9050919050565b60006020820190508181036000830152612c9681612923565b9050919050565b60006020820190508181036000830152612cb681612946565b9050919050565b60006020820190508181036000830152612cd681612969565b9050919050565b60006020820190508181036000830152612cf68161298c565b9050919050565b60006020820190508181036000830152612d16816129af565b9050919050565b60006020820190508181036000830152612d36816129d2565b9050919050565b6000602082019050612d526000830184612a04565b92915050565b6000612d62612d73565b9050612d6e8282612f9c565b919050565b6000604051905090565b600067ffffffffffffffff821115612d9857612d97613074565b5b612da1826130a3565b9050602081019050919050565b6000819050602082019050919050565b600081519050919050565b600081519050919050565b600081519050919050565b6000602082019050919050565b600082825260208201905092915050565b600082825260208201905092915050565b600082825260208201905092915050565b600081905092915050565b6000612e3582612f1e565b9150612e4083612f1e565b9250827fffffffffffffffffffffffffffffffffffffffffffffffffffffffffffffffff03821115612e7557612e74613016565b5b828201905092915050565b6000612e8b82612f1e565b9150612e9683612f1e565b925082821015612ea957612ea8613016565b5b828203905092915050565b6000612ebf82612efe565b9050919050565b60008115159050919050565b60007fffffffff0000000000000000000000000000000000000000000000000000000082169050919050565b600073ffffffffffffffffffffffffffffffffffffffff82169050919050565b6000819050919050565b82818337600083830152505050565b60005b83811015612f55578082015181840152602081019050612f3a565b83811115612f64576000848401525b50505050565b60006002820490506001821680612f8257607f821691505b60208210811415612f9657612f95613045565b5b50919050565b612fa5826130a3565b810181811067ffffffffffffffff82111715612fc457612fc3613074565b5b80604052505050565b6000612fd882612f1e565b91507fffffffffffffffffffffffffffffffffffffffffffffffffffffffffffffffff82141561300b5761300a613016565b5b600182019050919050565b7f4e487b7100000000000000000000000000000000000000000000000000000000600052601160045260246000fd5b7f4e487b7100000000000000000000000000000000000000000000000000000000600052602260045260246000fd5b7f4e487b7100000000000000000000000000000000000000000000000000000000600052604160045260246000fd5b6000601f19601f8301169050919050565b7f4552433732313a2063616c6c6572206973206e6f7420746f6b656e206f776e6560008201527f72206f7220617070726f76656400000000000000000000000000000000000000602082015250565b7f4552433732313a207472616e7366657220746f206e6f6e20455243373231526560008201527f63656976657220696d706c656d656e7465720000000000000000000000000000602082015250565b7f4552433732313a207472616e736665722066726f6d20696e636f72726563742060008201527f6f776e6572000000000000000000000000000000000000000000000000000000602082015250565b7f4552433732313a20746f6b656e20616c7265616479206d696e74656400000000600082015250565b7f4552433732313a207472616e7366657220746f20746865207a65726f2061646460008201527f7265737300000000000000000000000000000000000000000000000000000000602082015250565b7f4552433732313a20617070726f766520746f2063616c6c657200000000000000600082015250565b7f4552433732313a2061646472657373207a65726f206973206e6f74206120766160008201527f6c6964206f776e65720000000000000000000000000000000000000000000000602082015250565b7f45524337323155524953746f726167653a2055524920736574206f66206e6f6e60008201527f6578697374656e7420746f6b656e000000000000000000000000000000000000602082015250565b7f4552433732313a206d696e7420746f20746865207a65726f2061646472657373600082015250565b7f496e76616c69642076616c756500000000000000000000000000000000000000600082015250565b7f4552433732313a20696e76616c696420746f6b656e2049440000000000000000600082015250565b7f4552433732313a20617070726f76616c20746f2063757272656e74206f776e6560008201527f7200000000000000000000000000000000000000000000000000000000000000602082015250565b7f4552433732313a20617070726f76652063616c6c6572206973206e6f7420746f60008201527f6b656e206f776e6572206f7220617070726f76656420666f7220616c6c000000602082015250565b7f4552433732313a207472616e736665722063616c6c6572206973206e6f74206f60008201527f776e6572206e6f7220617070726f766564000000000000000000000000000000602082015250565b7f5468697320746f6b656e2063616e206e6f74206265207472616e73666572726560008201527f6421000000000000000000000000000000000000000000000000000000000000602082015250565b6134a081612eb4565b81146134ab57600080fd5b50565b6134b781612ec6565b81146134c257600080fd5b50565b6134ce81612ed2565b81146134d957600080fd5b50565b6134e581612f1e565b81146134f057600080fd5b5056fea26469706673582212203368fc7dda4955a8b26456a9e96f84eeed23bc79f5b4113242f069d9a76851cd64736f6c63430008040033",
  "linkReferences": {},
  "deployedLinkReferences": {}
}