{
  "_format": "hh-sol-artifact-1",
  "contractName": "TrustifiedNonTransferable",
  "sourceName": "contracts/Trustified-NonTransferable.sol",
  "abi": [
    {
      "inputs": [],
      "stateMutability": "nonpayable",
      "type": "constructor"
    },
    {
      "anonymous": false,
      "inputs": [
        {
          "indexed": true,
          "internalType": "address",
          "name": "owner",
          "type": "address"
        },
        {
          "indexed": true,
          "internalType": "address",
          "name": "approved",
          "type": "address"
        },
        {
          "indexed": true,
          "internalType": "uint256",
          "name": "tokenId",
          "type": "uint256"
        }
      ],
      "name": "Approval",
      "type": "event"
    },
    {
      "anonymous": false,
      "inputs": [
        {
          "indexed": true,
          "internalType": "address",
          "name": "owner",
          "type": "address"
        },
        {
          "indexed": true,
          "internalType": "address",
          "name": "operator",
          "type": "address"
        },
        {
          "indexed": false,
          "internalType": "bool",
          "name": "approved",
          "type": "bool"
        }
      ],
      "name": "ApprovalForAll",
      "type": "event"
    },
    {
      "anonymous": false,
      "inputs": [
        {
          "indexed": false,
          "internalType": "address",
          "name": "",
          "type": "address"
        },
        {
          "indexed": false,
          "internalType": "uint256",
          "name": "",
          "type": "uint256"
        }
      ],
      "name": "TokenMinted",
      "type": "event"
    },
    {
      "anonymous": false,
      "inputs": [
        {
          "indexed": true,
          "internalType": "address",
          "name": "from",
          "type": "address"
        },
        {
          "indexed": true,
          "internalType": "address",
          "name": "to",
          "type": "address"
        },
        {
          "indexed": true,
          "internalType": "uint256",
          "name": "tokenId",
          "type": "uint256"
        }
      ],
      "name": "Transfer",
      "type": "event"
    },
    {
      "inputs": [
        {
          "internalType": "address",
          "name": "to",
          "type": "address"
        },
        {
          "internalType": "uint256",
          "name": "tokenId",
          "type": "uint256"
        }
      ],
      "name": "approve",
      "outputs": [],
      "stateMutability": "nonpayable",
      "type": "function"
    },
    {
      "inputs": [
        {
          "internalType": "address",
          "name": "owner",
          "type": "address"
        }
      ],
      "name": "balanceOf",
      "outputs": [
        {
          "internalType": "uint256",
          "name": "",
          "type": "uint256"
        }
      ],
      "stateMutability": "view",
      "type": "function"
    },
    {
      "inputs": [
        {
          "internalType": "string",
          "name": "tokenUri",
          "type": "string"
        },
        {
          "internalType": "uint256",
          "name": "quantity",
          "type": "uint256"
        },
        {
          "internalType": "uint256",
          "name": "value",
          "type": "uint256"
        }
      ],
      "name": "bulkMintERC721",
      "outputs": [],
      "stateMutability": "nonpayable",
      "type": "function"
    },
    {
      "inputs": [
        {
          "internalType": "uint256",
          "name": "tokenId",
          "type": "uint256"
        }
      ],
      "name": "getApproved",
      "outputs": [
        {
          "internalType": "address",
          "name": "",
          "type": "address"
        }
      ],
      "stateMutability": "view",
      "type": "function"
    },
    {
      "inputs": [
        {
          "internalType": "uint256",
          "name": "eventId",
          "type": "uint256"
        }
      ],
      "name": "getTokenIds",
      "outputs": [
        {
          "internalType": "uint256[]",
          "name": "",
          "type": "uint256[]"
        }
      ],
      "stateMutability": "view",
      "type": "function"
    },
    {
      "inputs": [
        {
          "internalType": "address",
          "name": "owner",
          "type": "address"
        },
        {
          "internalType": "address",
          "name": "operator",
          "type": "address"
        }
      ],
      "name": "isApprovedForAll",
      "outputs": [
        {
          "internalType": "bool",
          "name": "",
          "type": "bool"
        }
      ],
      "stateMutability": "view",
      "type": "function"
    },
    {
      "inputs": [],
      "name": "name",
      "outputs": [
        {
          "internalType": "string",
          "name": "",
          "type": "string"
        }
      ],
      "stateMutability": "view",
      "type": "function"
    },
    {
      "inputs": [
        {
          "internalType": "uint256",
          "name": "tokenId",
          "type": "uint256"
        }
      ],
      "name": "ownerOf",
      "outputs": [
        {
          "internalType": "address",
          "name": "",
          "type": "address"
        }
      ],
      "stateMutability": "view",
      "type": "function"
    },
    {
      "inputs": [
        {
          "internalType": "string",
          "name": "tokenURI",
          "type": "string"
        },
        {
          "internalType": "uint256",
          "name": "value",
          "type": "uint256"
        }
      ],
      "name": "safeMint",
      "outputs": [
        {
          "internalType": "uint256",
          "name": "",
          "type": "uint256"
        }
      ],
      "stateMutability": "nonpayable",
      "type": "function"
    },
    {
      "inputs": [
        {
          "internalType": "address",
          "name": "from",
          "type": "address"
        },
        {
          "internalType": "address",
          "name": "to",
          "type": "address"
        },
        {
          "internalType": "uint256",
          "name": "tokenId",
          "type": "uint256"
        }
      ],
      "name": "safeTransferFrom",
      "outputs": [],
      "stateMutability": "nonpayable",
      "type": "function"
    },
    {
      "inputs": [
        {
          "internalType": "address",
          "name": "from",
          "type": "address"
        },
        {
          "internalType": "address",
          "name": "to",
          "type": "address"
        },
        {
          "internalType": "uint256",
          "name": "tokenId",
          "type": "uint256"
        },
        {
          "internalType": "bytes",
          "name": "data",
          "type": "bytes"
        }
      ],
      "name": "safeTransferFrom",
      "outputs": [],
      "stateMutability": "nonpayable",
      "type": "function"
    },
    {
      "inputs": [
        {
          "internalType": "address",
          "name": "operator",
          "type": "address"
        },
        {
          "internalType": "bool",
          "name": "approved",
          "type": "bool"
        }
      ],
      "name": "setApprovalForAll",
      "outputs": [],
      "stateMutability": "nonpayable",
      "type": "function"
    },
    {
      "inputs": [
        {
          "internalType": "bytes4",
          "name": "interfaceId",
          "type": "bytes4"
        }
      ],
      "name": "supportsInterface",
      "outputs": [
        {
          "internalType": "bool",
          "name": "",
          "type": "bool"
        }
      ],
      "stateMutability": "view",
      "type": "function"
    },
    {
      "inputs": [],
      "name": "symbol",
      "outputs": [
        {
          "internalType": "string",
          "name": "",
          "type": "string"
        }
      ],
      "stateMutability": "view",
      "type": "function"
    },
    {
      "inputs": [
        {
          "internalType": "uint256",
          "name": "",
          "type": "uint256"
        },
        {
          "internalType": "uint256",
          "name": "",
          "type": "uint256"
        }
      ],
      "name": "tokenIds",
      "outputs": [
        {
          "internalType": "uint256",
          "name": "",
          "type": "uint256"
        }
      ],
      "stateMutability": "view",
      "type": "function"
    },
    {
      "inputs": [
        {
          "internalType": "uint256",
          "name": "tokenId",
          "type": "uint256"
        }
      ],
      "name": "tokenURI",
      "outputs": [
        {
          "internalType": "string",
          "name": "",
          "type": "string"
        }
      ],
      "stateMutability": "view",
      "type": "function"
    },
    {
      "inputs": [
        {
          "internalType": "address",
          "name": "from",
          "type": "address"
        },
        {
          "internalType": "address",
          "name": "to",
          "type": "address"
        },
        {
          "internalType": "uint256",
          "name": "tokenId",
          "type": "uint256"
        }
      ],
      "name": "transferFrom",
      "outputs": [],
      "stateMutability": "nonpayable",
      "type": "function"
    },
    {
      "inputs": [
        {
          "internalType": "address",
          "name": "from",
          "type": "address"
        },
        {
          "internalType": "address",
          "name": "to",
          "type": "address"
        },
        {
          "internalType": "uint256",
          "name": "tokenId",
          "type": "uint256"
        },
        {
          "internalType": "string",
          "name": "tokenURI",
          "type": "string"
        },
        {
          "internalType": "uint256",
          "name": "value",
          "type": "uint256"
        }
      ],
      "name": "transferToken",
      "outputs": [],
      "stateMutability": "nonpayable",
      "type": "function"
    }
  ],
  "bytecode": "0x60806040523480156200001157600080fd5b506040518060400160405280600a81526020017f54727573746966696564000000000000000000000000000000000000000000008152506040518060400160405280600381526020017f54464e0000000000000000000000000000000000000000000000000000000000815250816000908051906020019062000096929190620000b8565b508060019080519060200190620000af929190620000b8565b505050620001cd565b828054620000c69062000168565b90600052602060002090601f016020900481019282620000ea576000855562000136565b82601f106200010557805160ff191683800117855562000136565b8280016001018555821562000136579182015b828111156200013557825182559160200191906001019062000118565b5b50905062000145919062000149565b5090565b5b80821115620001645760008160009055506001016200014a565b5090565b600060028204905060018216806200018157607f821691505b602082108114156200019857620001976200019e565b5b50919050565b7f4e487b7100000000000000000000000000000000000000000000000000000000600052602260045260246000fd5b61334980620001dd6000396000f3fe608060405234801561001057600080fd5b50600436106101165760003560e01c80636352211e116100a2578063a22cb46511610071578063a22cb46514610303578063b88d4fde1461031f578063c87b56dd1461033b578063e985e9c51461036b578063eed8cc351461039b57610116565b80636352211e1461026957806370a082311461029957806380574834146102c957806395d89b41146102e557610116565b806323b872dd116100e957806323b872dd146101b55780632cba83d1146101d157806342842e0e146101ed57806346b145e11461020957806357991d301461023957610116565b806301ffc9a71461011b57806306fdde031461014b578063081812fc14610169578063095ea7b314610199575b600080fd5b61013560048036038101906101309190612356565b6103cb565b6040516101429190612940565b60405180910390f35b6101536104ad565b604051610160919061295b565b60405180910390f35b610183600480360381019061017e919061246c565b61053f565b6040516101909190612857565b60405180910390f35b6101b360048036038101906101ae919061231a565b610585565b005b6101cf60048036038101906101ca9190612182565b61069d565b005b6101eb60048036038101906101e69190612400565b6106f6565b005b61020760048036038101906102029190612182565b6107b7565b005b610223600480360381019061021e91906123a8565b6107d7565b6040516102309190612b5d565b60405180910390f35b610253600480360381019061024e919061246c565b6108ae565b604051610260919061291e565b60405180910390f35b610283600480360381019061027e919061246c565b610919565b6040516102909190612857565b60405180910390f35b6102b360048036038101906102ae919061211d565b6109a0565b6040516102c09190612b5d565b60405180910390f35b6102e360048036038101906102de919061224c565b610a58565b005b6102ed610bbb565b6040516102fa919061295b565b60405180910390f35b61031d600480360381019061031891906122de565b610c4d565b005b610339600480360381019061033491906121d1565b610c63565b005b6103556004803603810190610350919061246c565b610cc5565b604051610362919061295b565b60405180910390f35b61038560048036038101906103809190612146565b610dd8565b6040516103929190612940565b60405180910390f35b6103b560048036038101906103b09190612495565b610e6c565b6040516103c29190612b5d565b60405180910390f35b60007f80ac58cd000000000000000000000000000000000000000000000000000000007bffffffffffffffffffffffffffffffffffffffffffffffffffffffff1916827bffffffffffffffffffffffffffffffffffffffffffffffffffffffff1916148061049657507f5b5e139f000000000000000000000000000000000000000000000000000000007bffffffffffffffffffffffffffffffffffffffffffffffffffffffff1916827bffffffffffffffffffffffffffffffffffffffffffffffffffffffff1916145b806104a657506104a582610e9d565b5b9050919050565b6060600080546104bc90612d8a565b80601f01602080910402602001604051908101604052809291908181526020018280546104e890612d8a565b80156105355780601f1061050a57610100808354040283529160200191610535565b820191906000526020600020905b81548152906001019060200180831161051857829003601f168201915b5050505050905090565b600061054a82610f07565b6004600083815260200190815260200160002060009054906101000a900473ffffffffffffffffffffffffffffffffffffffff169050919050565b600061059082610919565b90508073ffffffffffffffffffffffffffffffffffffffff168373ffffffffffffffffffffffffffffffffffffffff161415610601576040517f08c379a00000000000000000000000000000000000000000000000000000000081526004016105f890612add565b60405180910390fd5b8073ffffffffffffffffffffffffffffffffffffffff16610620610f52565b73ffffffffffffffffffffffffffffffffffffffff16148061064f575061064e81610649610f52565b610dd8565b5b61068e576040517f08c379a000000000000000000000000000000000000000000000000000000000815260040161068590612afd565b60405180910390fd5b6106988383610f5a565b505050565b6106a78382611013565b6106e6576040517f08c379a00000000000000000000000000000000000000000000000000000000081526004016106dd90612b1d565b60405180910390fd5b6106f18383836110a8565b505050565b600061070260086113a2565b905061070e60086113b0565b60005b838110156107765760006107268787866107d7565b90506009600084815260200190815260200160002081908060018154018082558091505060019003906000526020600020016000909190919091505550808061076e90612ded565b915050610711565b507fb9144c96c86541f6fa89c9f2f02495cccf4b08cd6643e26d34ee00aa586558a833826040516107a89291906128f5565b60405180910390a15050505050565b6107d283838360405180602001604052806000815250610c63565b505050565b60008082101580156107ea575060018211155b610829576040517f08c379a000000000000000000000000000000000000000000000000000000000815260040161082090612a9d565b60405180910390fd5b600061083560076113a2565b905061084160076113b0565b61084b30826113c6565b60008314156108a3576108a28186868080601f016020809104026020016040519081016040528093929190818152602001838380828437600081840152601f19601f820116905080830192505050505050506115e4565b5b809150509392505050565b60606009600083815260200190815260200160002080548060200260200160405190810160405280929190818152602001828054801561090d57602002820191906000526020600020905b8154815260200190600101908083116108f9575b50505050509050919050565b60008061092583611658565b9050600073ffffffffffffffffffffffffffffffffffffffff168173ffffffffffffffffffffffffffffffffffffffff161415610997576040517f08c379a000000000000000000000000000000000000000000000000000000000815260040161098e90612abd565b60405180910390fd5b80915050919050565b60008073ffffffffffffffffffffffffffffffffffffffff168273ffffffffffffffffffffffffffffffffffffffff161415610a11576040517f08c379a0000000000000000000000000000000000000000000000000000000008152600401610a0890612a3d565b60405180910390fd5b600360008373ffffffffffffffffffffffffffffffffffffffff1673ffffffffffffffffffffffffffffffffffffffff168152602001908152602001600020549050919050565b60011515600a600086815260200190815260200160002060009054906101000a900460ff1615151415610ac0576040517f08c379a0000000000000000000000000000000000000000000000000000000008152600401610ab790612b3d565b60405180910390fd5b6001811415610b1857610b178484848080601f016020809104026020016040519081016040528093929190818152602001838380828437600081840152601f19601f820116905080830192505050505050506115e4565b5b3073ffffffffffffffffffffffffffffffffffffffff166323b872dd8787876040518463ffffffff1660e01b8152600401610b5593929190612872565b600060405180830381600087803b158015610b6f57600080fd5b505af1158015610b83573d6000803e3d6000fd5b505050506001600a600086815260200190815260200160002060006101000a81548160ff021916908315150217905550505050505050565b606060018054610bca90612d8a565b80601f0160208091040260200160405190810160405280929190818152602001828054610bf690612d8a565b8015610c435780601f10610c1857610100808354040283529160200191610c43565b820191906000526020600020905b815481529060010190602001808311610c2657829003601f168201915b5050505050905090565b610c5f610c58610f52565b8383611695565b5050565b610c74610c6e610f52565b83611013565b610cb3576040517f08c379a0000000000000000000000000000000000000000000000000000000008152600401610caa9061297d565b60405180910390fd5b610cbf84848484611802565b50505050565b6060610cd082610f07565b6000600660008481526020019081526020016000208054610cf090612d8a565b80601f0160208091040260200160405190810160405280929190818152602001828054610d1c90612d8a565b8015610d695780601f10610d3e57610100808354040283529160200191610d69565b820191906000526020600020905b815481529060010190602001808311610d4c57829003601f168201915b505050505090506000610d7a61185e565b9050600081511415610d90578192505050610dd3565b600082511115610dc5578082604051602001610dad929190612833565b60405160208183030381529060405292505050610dd3565b610dce84611875565b925050505b919050565b6000600560008473ffffffffffffffffffffffffffffffffffffffff1673ffffffffffffffffffffffffffffffffffffffff16815260200190815260200160002060008373ffffffffffffffffffffffffffffffffffffffff1673ffffffffffffffffffffffffffffffffffffffff16815260200190815260200160002060009054906101000a900460ff16905092915050565b60096020528160005260406000208181548110610e8857600080fd5b90600052602060002001600091509150505481565b60007f01ffc9a7000000000000000000000000000000000000000000000000000000007bffffffffffffffffffffffffffffffffffffffffffffffffffffffff1916827bffffffffffffffffffffffffffffffffffffffffffffffffffffffff1916149050919050565b610f10816118dd565b610f4f576040517f08c379a0000000000000000000000000000000000000000000000000000000008152600401610f4690612abd565b60405180910390fd5b50565b600033905090565b816004600083815260200190815260200160002060006101000a81548173ffffffffffffffffffffffffffffffffffffffff021916908373ffffffffffffffffffffffffffffffffffffffff160217905550808273ffffffffffffffffffffffffffffffffffffffff16610fcd83610919565b73ffffffffffffffffffffffffffffffffffffffff167f8c5be1e5ebec7d5bd14f71427d1e84f3dd0314c0f7b2291e5b200ac8c7c3b92560405160405180910390a45050565b60008061101f83610919565b90508073ffffffffffffffffffffffffffffffffffffffff168473ffffffffffffffffffffffffffffffffffffffff16148061106157506110608185610dd8565b5b8061109f57508373ffffffffffffffffffffffffffffffffffffffff166110878461053f565b73ffffffffffffffffffffffffffffffffffffffff16145b91505092915050565b8273ffffffffffffffffffffffffffffffffffffffff166110c882610919565b73ffffffffffffffffffffffffffffffffffffffff161461111e576040517f08c379a0000000000000000000000000000000000000000000000000000000008152600401611115906129bd565b60405180910390fd5b600073ffffffffffffffffffffffffffffffffffffffff168273ffffffffffffffffffffffffffffffffffffffff16141561118e576040517f08c379a0000000000000000000000000000000000000000000000000000000008152600401611185906129fd565b60405180910390fd5b61119b838383600161191e565b8273ffffffffffffffffffffffffffffffffffffffff166111bb82610919565b73ffffffffffffffffffffffffffffffffffffffff1614611211576040517f08c379a0000000000000000000000000000000000000000000000000000000008152600401611208906129bd565b60405180910390fd5b6004600082815260200190815260200160002060006101000a81549073ffffffffffffffffffffffffffffffffffffffff02191690556001600360008573ffffffffffffffffffffffffffffffffffffffff1673ffffffffffffffffffffffffffffffffffffffff168152602001908152602001600020600082825403925050819055506001600360008473ffffffffffffffffffffffffffffffffffffffff1673ffffffffffffffffffffffffffffffffffffffff16815260200190815260200160002060008282540192505081905550816002600083815260200190815260200160002060006101000a81548173ffffffffffffffffffffffffffffffffffffffff021916908373ffffffffffffffffffffffffffffffffffffffff160217905550808273ffffffffffffffffffffffffffffffffffffffff168473ffffffffffffffffffffffffffffffffffffffff167fddf252ad1be2c89b69c2b068fc378daa952ba7f163c4a11628f55a4df523b3ef60405160405180910390a461139d8383836001611a44565b505050565b600081600001549050919050565b6001816000016000828254019250508190555050565b600073ffffffffffffffffffffffffffffffffffffffff168273ffffffffffffffffffffffffffffffffffffffff161415611436576040517f08c379a000000000000000000000000000000000000000000000000000000000815260040161142d90612a7d565b60405180910390fd5b61143f816118dd565b1561147f576040517f08c379a0000000000000000000000000000000000000000000000000000000008152600401611476906129dd565b60405180910390fd5b61148d60008383600161191e565b611496816118dd565b156114d6576040517f08c379a00000000000000000000000000000000000000000000000000000000081526004016114cd906129dd565b60405180910390fd5b6001600360008473ffffffffffffffffffffffffffffffffffffffff1673ffffffffffffffffffffffffffffffffffffffff16815260200190815260200160002060008282540192505081905550816002600083815260200190815260200160002060006101000a81548173ffffffffffffffffffffffffffffffffffffffff021916908373ffffffffffffffffffffffffffffffffffffffff160217905550808273ffffffffffffffffffffffffffffffffffffffff16600073ffffffffffffffffffffffffffffffffffffffff167fddf252ad1be2c89b69c2b068fc378daa952ba7f163c4a11628f55a4df523b3ef60405160405180910390a46115e0600083836001611a44565b5050565b6115ed826118dd565b61162c576040517f08c379a000000000000000000000000000000000000000000000000000000000815260040161162390612a5d565b60405180910390fd5b80600660008481526020019081526020016000209080519060200190611653929190611f5f565b505050565b60006002600083815260200190815260200160002060009054906101000a900473ffffffffffffffffffffffffffffffffffffffff169050919050565b8173ffffffffffffffffffffffffffffffffffffffff168373ffffffffffffffffffffffffffffffffffffffff161415611704576040517f08c379a00000000000000000000000000000000000000000000000000000000081526004016116fb90612a1d565b60405180910390fd5b80600560008573ffffffffffffffffffffffffffffffffffffffff1673ffffffffffffffffffffffffffffffffffffffff16815260200190815260200160002060008473ffffffffffffffffffffffffffffffffffffffff1673ffffffffffffffffffffffffffffffffffffffff16815260200190815260200160002060006101000a81548160ff0219169083151502179055508173ffffffffffffffffffffffffffffffffffffffff168373ffffffffffffffffffffffffffffffffffffffff167f17307eab39ab6107e8899845ad3d59bd9653f200f220920489ca2b5937696c31836040516117f59190612940565b60405180910390a3505050565b61180d8484846110a8565b61181984848484611a4a565b611858576040517f08c379a000000000000000000000000000000000000000000000000000000000815260040161184f9061299d565b60405180910390fd5b50505050565b606060405180602001604052806000815250905090565b606061188082610f07565b600061188a61185e565b905060008151116118aa57604051806020016040528060008152506118d5565b806118b484611be1565b6040516020016118c5929190612833565b6040516020818303038152906040525b915050919050565b60008073ffffffffffffffffffffffffffffffffffffffff166118ff83611658565b73ffffffffffffffffffffffffffffffffffffffff1614159050919050565b6001811115611a3e57600073ffffffffffffffffffffffffffffffffffffffff168473ffffffffffffffffffffffffffffffffffffffff16146119b25780600360008673ffffffffffffffffffffffffffffffffffffffff1673ffffffffffffffffffffffffffffffffffffffff16815260200190815260200160002060008282546119aa9190612ca0565b925050819055505b600073ffffffffffffffffffffffffffffffffffffffff168373ffffffffffffffffffffffffffffffffffffffff1614611a3d5780600360008573ffffffffffffffffffffffffffffffffffffffff1673ffffffffffffffffffffffffffffffffffffffff1681526020019081526020016000206000828254611a359190612c4a565b925050819055505b5b50505050565b50505050565b6000611a6b8473ffffffffffffffffffffffffffffffffffffffff16611d05565b15611bd4578373ffffffffffffffffffffffffffffffffffffffff1663150b7a02611a94610f52565b8786866040518563ffffffff1660e01b8152600401611ab694939291906128a9565b602060405180830381600087803b158015611ad057600080fd5b505af1925050508015611b0157506040513d601f19601f82011682018060405250810190611afe919061237f565b60015b611b84573d8060008114611b31576040519150601f19603f3d011682016040523d82523d6000602084013e611b36565b606091505b50600081511415611b7c576040517f08c379a0000000000000000000000000000000000000000000000000000000008152600401611b739061299d565b60405180910390fd5b805181602001fd5b63150b7a0260e01b7bffffffffffffffffffffffffffffffffffffffffffffffffffffffff1916817bffffffffffffffffffffffffffffffffffffffffffffffffffffffff191614915050611bd9565b600190505b949350505050565b606060006001611bf084611d28565b01905060008167ffffffffffffffff811115611c35577f4e487b7100000000000000000000000000000000000000000000000000000000600052604160045260246000fd5b6040519080825280601f01601f191660200182016040528015611c675781602001600182028036833780820191505090505b509050600082602001820190505b600115611cfa578080600190039150507f3031323334353637383961626364656600000000000000000000000000000000600a86061a8153600a8581611ce4577f4e487b7100000000000000000000000000000000000000000000000000000000600052601260045260246000fd5b0494506000851415611cf557611cfa565b611c75565b819350505050919050565b6000808273ffffffffffffffffffffffffffffffffffffffff163b119050919050565b600080600090507a184f03e93ff9f4daa797ed6e38ed64bf6a1f0100000000000000008310611dac577a184f03e93ff9f4daa797ed6e38ed64bf6a1f0100000000000000008381611da2577f4e487b7100000000000000000000000000000000000000000000000000000000600052601260045260246000fd5b0492506040810190505b6d04ee2d6d415b85acef81000000008310611e0f576d04ee2d6d415b85acef81000000008381611e05577f4e487b7100000000000000000000000000000000000000000000000000000000600052601260045260246000fd5b0492506020810190505b662386f26fc100008310611e6457662386f26fc100008381611e5a577f4e487b7100000000000000000000000000000000000000000000000000000000600052601260045260246000fd5b0492506010810190505b6305f5e1008310611eb3576305f5e1008381611ea9577f4e487b7100000000000000000000000000000000000000000000000000000000600052601260045260246000fd5b0492506008810190505b6127108310611efe576127108381611ef4577f4e487b7100000000000000000000000000000000000000000000000000000000600052601260045260246000fd5b0492506004810190505b60648310611f475760648381611f3d577f4e487b7100000000000000000000000000000000000000000000000000000000600052601260045260246000fd5b0492506002810190505b600a8310611f56576001810190505b80915050919050565b828054611f6b90612d8a565b90600052602060002090601f016020900481019282611f8d5760008555611fd4565b82601f10611fa657805160ff1916838001178555611fd4565b82800160010185558215611fd4579182015b82811115611fd3578251825591602001919060010190611fb8565b5b509050611fe19190611fe5565b5090565b5b80821115611ffe576000816000905550600101611fe6565b5090565b600061201561201084612b9d565b612b78565b90508281526020810184848401111561202d57600080fd5b612038848285612d48565b509392505050565b60008135905061204f816132b7565b92915050565b600081359050612064816132ce565b92915050565b600081359050612079816132e5565b92915050565b60008151905061208e816132e5565b92915050565b600082601f8301126120a557600080fd5b81356120b5848260208601612002565b91505092915050565b60008083601f8401126120d057600080fd5b8235905067ffffffffffffffff8111156120e957600080fd5b60208301915083600182028301111561210157600080fd5b9250929050565b600081359050612117816132fc565b92915050565b60006020828403121561212f57600080fd5b600061213d84828501612040565b91505092915050565b6000806040838503121561215957600080fd5b600061216785828601612040565b925050602061217885828601612040565b9150509250929050565b60008060006060848603121561219757600080fd5b60006121a586828701612040565b93505060206121b686828701612040565b92505060406121c786828701612108565b9150509250925092565b600080600080608085870312156121e757600080fd5b60006121f587828801612040565b945050602061220687828801612040565b935050604061221787828801612108565b925050606085013567ffffffffffffffff81111561223457600080fd5b61224087828801612094565b91505092959194509250565b60008060008060008060a0878903121561226557600080fd5b600061227389828a01612040565b965050602061228489828a01612040565b955050604061229589828a01612108565b945050606087013567ffffffffffffffff8111156122b257600080fd5b6122be89828a016120be565b935093505060806122d189828a01612108565b9150509295509295509295565b600080604083850312156122f157600080fd5b60006122ff85828601612040565b925050602061231085828601612055565b9150509250929050565b6000806040838503121561232d57600080fd5b600061233b85828601612040565b925050602061234c85828601612108565b9150509250929050565b60006020828403121561236857600080fd5b60006123768482850161206a565b91505092915050565b60006020828403121561239157600080fd5b600061239f8482850161207f565b91505092915050565b6000806000604084860312156123bd57600080fd5b600084013567ffffffffffffffff8111156123d757600080fd5b6123e3868287016120be565b935093505060206123f686828701612108565b9150509250925092565b6000806000806060858703121561241657600080fd5b600085013567ffffffffffffffff81111561243057600080fd5b61243c878288016120be565b9450945050602061244f87828801612108565b925050604061246087828801612108565b91505092959194509250565b60006020828403121561247e57600080fd5b600061248c84828501612108565b91505092915050565b600080604083850312156124a857600080fd5b60006124b685828601612108565b92505060206124c785828601612108565b9150509250929050565b60006124dd8383612815565b60208301905092915050565b6124f281612cd4565b82525050565b600061250382612bde565b61250d8185612c0c565b935061251883612bce565b8060005b8381101561254957815161253088826124d1565b975061253b83612bff565b92505060018101905061251c565b5085935050505092915050565b61255f81612ce6565b82525050565b600061257082612be9565b61257a8185612c1d565b935061258a818560208601612d57565b61259381612ec3565b840191505092915050565b60006125a982612bf4565b6125b38185612c2e565b93506125c3818560208601612d57565b6125cc81612ec3565b840191505092915050565b60006125e282612bf4565b6125ec8185612c3f565b93506125fc818560208601612d57565b80840191505092915050565b6000612615602d83612c2e565b915061262082612ed4565b604082019050919050565b6000612638603283612c2e565b915061264382612f23565b604082019050919050565b600061265b602583612c2e565b915061266682612f72565b604082019050919050565b600061267e601c83612c2e565b915061268982612fc1565b602082019050919050565b60006126a1602483612c2e565b91506126ac82612fea565b604082019050919050565b60006126c4601983612c2e565b91506126cf82613039565b602082019050919050565b60006126e7602983612c2e565b91506126f282613062565b604082019050919050565b600061270a602e83612c2e565b9150612715826130b1565b604082019050919050565b600061272d602083612c2e565b915061273882613100565b602082019050919050565b6000612750600d83612c2e565b915061275b82613129565b602082019050919050565b6000612773601883612c2e565b915061277e82613152565b602082019050919050565b6000612796602183612c2e565b91506127a18261317b565b604082019050919050565b60006127b9603d83612c2e565b91506127c4826131ca565b604082019050919050565b60006127dc603183612c2e565b91506127e782613219565b604082019050919050565b60006127ff602283612c2e565b915061280a82613268565b604082019050919050565b61281e81612d3e565b82525050565b61282d81612d3e565b82525050565b600061283f82856125d7565b915061284b82846125d7565b91508190509392505050565b600060208201905061286c60008301846124e9565b92915050565b600060608201905061288760008301866124e9565b61289460208301856124e9565b6128a16040830184612824565b949350505050565b60006080820190506128be60008301876124e9565b6128cb60208301866124e9565b6128d86040830185612824565b81810360608301526128ea8184612565565b905095945050505050565b600060408201905061290a60008301856124e9565b6129176020830184612824565b9392505050565b6000602082019050818103600083015261293881846124f8565b905092915050565b60006020820190506129556000830184612556565b92915050565b60006020820190508181036000830152612975818461259e565b905092915050565b6000602082019050818103600083015261299681612608565b9050919050565b600060208201905081810360008301526129b68161262b565b9050919050565b600060208201905081810360008301526129d68161264e565b9050919050565b600060208201905081810360008301526129f681612671565b9050919050565b60006020820190508181036000830152612a1681612694565b9050919050565b60006020820190508181036000830152612a36816126b7565b9050919050565b60006020820190508181036000830152612a56816126da565b9050919050565b60006020820190508181036000830152612a76816126fd565b9050919050565b60006020820190508181036000830152612a9681612720565b9050919050565b60006020820190508181036000830152612ab681612743565b9050919050565b60006020820190508181036000830152612ad681612766565b9050919050565b60006020820190508181036000830152612af681612789565b9050919050565b60006020820190508181036000830152612b16816127ac565b9050919050565b60006020820190508181036000830152612b36816127cf565b9050919050565b60006020820190508181036000830152612b56816127f2565b9050919050565b6000602082019050612b726000830184612824565b92915050565b6000612b82612b93565b9050612b8e8282612dbc565b919050565b6000604051905090565b600067ffffffffffffffff821115612bb857612bb7612e94565b5b612bc182612ec3565b9050602081019050919050565b6000819050602082019050919050565b600081519050919050565b600081519050919050565b600081519050919050565b6000602082019050919050565b600082825260208201905092915050565b600082825260208201905092915050565b600082825260208201905092915050565b600081905092915050565b6000612c5582612d3e565b9150612c6083612d3e565b9250827fffffffffffffffffffffffffffffffffffffffffffffffffffffffffffffffff03821115612c9557612c94612e36565b5b828201905092915050565b6000612cab82612d3e565b9150612cb683612d3e565b925082821015612cc957612cc8612e36565b5b828203905092915050565b6000612cdf82612d1e565b9050919050565b60008115159050919050565b60007fffffffff0000000000000000000000000000000000000000000000000000000082169050919050565b600073ffffffffffffffffffffffffffffffffffffffff82169050919050565b6000819050919050565b82818337600083830152505050565b60005b83811015612d75578082015181840152602081019050612d5a565b83811115612d84576000848401525b50505050565b60006002820490506001821680612da257607f821691505b60208210811415612db657612db5612e65565b5b50919050565b612dc582612ec3565b810181811067ffffffffffffffff82111715612de457612de3612e94565b5b80604052505050565b6000612df882612d3e565b91507fffffffffffffffffffffffffffffffffffffffffffffffffffffffffffffffff821415612e2b57612e2a612e36565b5b600182019050919050565b7f4e487b7100000000000000000000000000000000000000000000000000000000600052601160045260246000fd5b7f4e487b7100000000000000000000000000000000000000000000000000000000600052602260045260246000fd5b7f4e487b7100000000000000000000000000000000000000000000000000000000600052604160045260246000fd5b6000601f19601f8301169050919050565b7f4552433732313a2063616c6c6572206973206e6f7420746f6b656e206f776e6560008201527f72206f7220617070726f76656400000000000000000000000000000000000000602082015250565b7f4552433732313a207472616e7366657220746f206e6f6e20455243373231526560008201527f63656976657220696d706c656d656e7465720000000000000000000000000000602082015250565b7f4552433732313a207472616e736665722066726f6d20696e636f72726563742060008201527f6f776e6572000000000000000000000000000000000000000000000000000000602082015250565b7f4552433732313a20746f6b656e20616c7265616479206d696e74656400000000600082015250565b7f4552433732313a207472616e7366657220746f20746865207a65726f2061646460008201527f7265737300000000000000000000000000000000000000000000000000000000602082015250565b7f4552433732313a20617070726f766520746f2063616c6c657200000000000000600082015250565b7f4552433732313a2061646472657373207a65726f206973206e6f74206120766160008201527f6c6964206f776e65720000000000000000000000000000000000000000000000602082015250565b7f45524337323155524953746f726167653a2055524920736574206f66206e6f6e60008201527f6578697374656e7420746f6b656e000000000000000000000000000000000000602082015250565b7f4552433732313a206d696e7420746f20746865207a65726f2061646472657373600082015250565b7f496e76616c69642076616c756500000000000000000000000000000000000000600082015250565b7f4552433732313a20696e76616c696420746f6b656e2049440000000000000000600082015250565b7f4552433732313a20617070726f76616c20746f2063757272656e74206f776e6560008201527f7200000000000000000000000000000000000000000000000000000000000000602082015250565b7f4552433732313a20617070726f76652063616c6c6572206973206e6f7420746f60008201527f6b656e206f776e6572206f7220617070726f76656420666f7220616c6c000000602082015250565b7f4552433732313a207472616e736665722063616c6c6572206973206e6f74206f60008201527f776e6572206e6f7220617070726f766564000000000000000000000000000000602082015250565b7f5468697320746f6b656e2063616e206e6f74206265207472616e73666572726560008201527f6421000000000000000000000000000000000000000000000000000000000000602082015250565b6132c081612cd4565b81146132cb57600080fd5b50565b6132d781612ce6565b81146132e257600080fd5b50565b6132ee81612cf2565b81146132f957600080fd5b50565b61330581612d3e565b811461331057600080fd5b5056fea264697066735822122006961d1a2ec845759455f0d5dd51adbcede43fe79caffb7b2634305fb4d8739b64736f6c63430008040033",
  "linkReferences": {},
  "deployedLinkReferences": {}
}