{
  "_format": "hh-sol-artifact-1",
  "contractName": "TrustifiedNonTransferable",
  "sourceName": "contracts/Trustified-NonTransferable.sol",
  "abi": [
    {
      "inputs": [],
      "stateMutability": "nonpayable",
      "type": "constructor"
    },
    {
      "anonymous": false,
      "inputs": [
        {
          "indexed": true,
          "internalType": "address",
          "name": "owner",
          "type": "address"
        },
        {
          "indexed": true,
          "internalType": "address",
          "name": "approved",
          "type": "address"
        },
        {
          "indexed": true,
          "internalType": "uint256",
          "name": "tokenId",
          "type": "uint256"
        }
      ],
      "name": "Approval",
      "type": "event"
    },
    {
      "anonymous": false,
      "inputs": [
        {
          "indexed": true,
          "internalType": "address",
          "name": "owner",
          "type": "address"
        },
        {
          "indexed": true,
          "internalType": "address",
          "name": "operator",
          "type": "address"
        },
        {
          "indexed": false,
          "internalType": "bool",
          "name": "approved",
          "type": "bool"
        }
      ],
      "name": "ApprovalForAll",
      "type": "event"
    },
    {
      "anonymous": false,
      "inputs": [
        {
          "indexed": false,
          "internalType": "address",
          "name": "",
          "type": "address"
        },
        {
          "indexed": false,
          "internalType": "uint256",
          "name": "",
          "type": "uint256"
        }
      ],
      "name": "TokenMinted",
      "type": "event"
    },
    {
      "anonymous": false,
      "inputs": [
        {
          "indexed": true,
          "internalType": "address",
          "name": "from",
          "type": "address"
        },
        {
          "indexed": true,
          "internalType": "address",
          "name": "to",
          "type": "address"
        },
        {
          "indexed": true,
          "internalType": "uint256",
          "name": "tokenId",
          "type": "uint256"
        }
      ],
      "name": "Transfer",
      "type": "event"
    },
    {
      "inputs": [
        {
          "internalType": "address",
          "name": "to",
          "type": "address"
        },
        {
          "internalType": "uint256",
          "name": "tokenId",
          "type": "uint256"
        }
      ],
      "name": "approve",
      "outputs": [],
      "stateMutability": "nonpayable",
      "type": "function"
    },
    {
      "inputs": [
        {
          "internalType": "address",
          "name": "owner",
          "type": "address"
        }
      ],
      "name": "balanceOf",
      "outputs": [
        {
          "internalType": "uint256",
          "name": "",
          "type": "uint256"
        }
      ],
      "stateMutability": "view",
      "type": "function"
    },
    {
      "inputs": [
        {
          "internalType": "string",
          "name": "tokenUri",
          "type": "string"
        },
        {
          "internalType": "uint256",
          "name": "quantity",
          "type": "uint256"
        },
        {
          "internalType": "uint256",
          "name": "value",
          "type": "uint256"
        }
      ],
      "name": "bulkMintERC721",
      "outputs": [],
      "stateMutability": "nonpayable",
      "type": "function"
    },
    {
      "inputs": [
        {
          "internalType": "uint256",
          "name": "tokenId",
          "type": "uint256"
        }
      ],
      "name": "getApproved",
      "outputs": [
        {
          "internalType": "address",
          "name": "",
          "type": "address"
        }
      ],
      "stateMutability": "view",
      "type": "function"
    },
    {
      "inputs": [
        {
          "internalType": "uint256",
          "name": "eventId",
          "type": "uint256"
        }
      ],
      "name": "getTokenIds",
      "outputs": [
        {
          "internalType": "uint256[]",
          "name": "",
          "type": "uint256[]"
        }
      ],
      "stateMutability": "view",
      "type": "function"
    },
    {
      "inputs": [
        {
          "internalType": "address",
          "name": "owner",
          "type": "address"
        },
        {
          "internalType": "address",
          "name": "operator",
          "type": "address"
        }
      ],
      "name": "isApprovedForAll",
      "outputs": [
        {
          "internalType": "bool",
          "name": "",
          "type": "bool"
        }
      ],
      "stateMutability": "view",
      "type": "function"
    },
    {
      "inputs": [
        {
          "internalType": "uint256",
          "name": "",
          "type": "uint256"
        }
      ],
      "name": "issuers",
      "outputs": [
        {
          "internalType": "address",
          "name": "",
          "type": "address"
        }
      ],
      "stateMutability": "view",
      "type": "function"
    },
    {
      "inputs": [],
      "name": "name",
      "outputs": [
        {
          "internalType": "string",
          "name": "",
          "type": "string"
        }
      ],
      "stateMutability": "view",
      "type": "function"
    },
    {
      "inputs": [
        {
          "internalType": "uint256",
          "name": "tokenId",
          "type": "uint256"
        }
      ],
      "name": "ownerOf",
      "outputs": [
        {
          "internalType": "address",
          "name": "",
          "type": "address"
        }
      ],
      "stateMutability": "view",
      "type": "function"
    },
    {
      "inputs": [
        {
          "internalType": "string",
          "name": "tokenURI",
          "type": "string"
        },
        {
          "internalType": "uint256",
          "name": "value",
          "type": "uint256"
        }
      ],
      "name": "safeMint",
      "outputs": [
        {
          "internalType": "uint256",
          "name": "",
          "type": "uint256"
        }
      ],
      "stateMutability": "nonpayable",
      "type": "function"
    },
    {
      "inputs": [
        {
          "internalType": "address",
          "name": "from",
          "type": "address"
        },
        {
          "internalType": "address",
          "name": "to",
          "type": "address"
        },
        {
          "internalType": "uint256",
          "name": "tokenId",
          "type": "uint256"
        }
      ],
      "name": "safeTransferFrom",
      "outputs": [],
      "stateMutability": "nonpayable",
      "type": "function"
    },
    {
      "inputs": [
        {
          "internalType": "address",
          "name": "from",
          "type": "address"
        },
        {
          "internalType": "address",
          "name": "to",
          "type": "address"
        },
        {
          "internalType": "uint256",
          "name": "tokenId",
          "type": "uint256"
        },
        {
          "internalType": "bytes",
          "name": "data",
          "type": "bytes"
        }
      ],
      "name": "safeTransferFrom",
      "outputs": [],
      "stateMutability": "nonpayable",
      "type": "function"
    },
    {
      "inputs": [
        {
          "internalType": "address",
          "name": "operator",
          "type": "address"
        },
        {
          "internalType": "bool",
          "name": "approved",
          "type": "bool"
        }
      ],
      "name": "setApprovalForAll",
      "outputs": [],
      "stateMutability": "nonpayable",
      "type": "function"
    },
    {
      "inputs": [
        {
          "internalType": "bytes4",
          "name": "interfaceId",
          "type": "bytes4"
        }
      ],
      "name": "supportsInterface",
      "outputs": [
        {
          "internalType": "bool",
          "name": "",
          "type": "bool"
        }
      ],
      "stateMutability": "view",
      "type": "function"
    },
    {
      "inputs": [],
      "name": "symbol",
      "outputs": [
        {
          "internalType": "string",
          "name": "",
          "type": "string"
        }
      ],
      "stateMutability": "view",
      "type": "function"
    },
    {
      "inputs": [
        {
          "internalType": "uint256",
          "name": "",
          "type": "uint256"
        },
        {
          "internalType": "uint256",
          "name": "",
          "type": "uint256"
        }
      ],
      "name": "tokenIds",
      "outputs": [
        {
          "internalType": "uint256",
          "name": "",
          "type": "uint256"
        }
      ],
      "stateMutability": "view",
      "type": "function"
    },
    {
      "inputs": [
        {
          "internalType": "uint256",
          "name": "tokenId",
          "type": "uint256"
        }
      ],
      "name": "tokenURI",
      "outputs": [
        {
          "internalType": "string",
          "name": "",
          "type": "string"
        }
      ],
      "stateMutability": "view",
      "type": "function"
    },
    {
      "inputs": [
        {
          "internalType": "address",
          "name": "from",
          "type": "address"
        },
        {
          "internalType": "address",
          "name": "to",
          "type": "address"
        },
        {
          "internalType": "uint256",
          "name": "tokenId",
          "type": "uint256"
        }
      ],
      "name": "transferFrom",
      "outputs": [],
      "stateMutability": "nonpayable",
      "type": "function"
    },
    {
      "inputs": [
        {
          "internalType": "address",
          "name": "from",
          "type": "address"
        },
        {
          "internalType": "address",
          "name": "to",
          "type": "address"
        },
        {
          "internalType": "uint256",
          "name": "tokenId",
          "type": "uint256"
        },
        {
          "internalType": "string",
          "name": "tokenURI",
          "type": "string"
        },
        {
          "internalType": "uint256",
          "name": "value",
          "type": "uint256"
        }
      ],
      "name": "transferToken",
      "outputs": [],
      "stateMutability": "nonpayable",
      "type": "function"
    }
  ],
  "bytecode": "0x60806040523480156200001157600080fd5b506040518060400160405280600a81526020017f54727573746966696564000000000000000000000000000000000000000000008152506040518060400160405280600381526020017f54464e0000000000000000000000000000000000000000000000000000000000815250816000908051906020019062000096929190620000b8565b508060019080519060200190620000af929190620000b8565b505050620001cd565b828054620000c69062000168565b90600052602060002090601f016020900481019282620000ea576000855562000136565b82601f106200010557805160ff191683800117855562000136565b8280016001018555821562000136579182015b828111156200013557825182559160200191906001019062000118565b5b50905062000145919062000149565b5090565b5b80821115620001645760008160009055506001016200014a565b5090565b600060028204905060018216806200018157607f821691505b602082108114156200019857620001976200019e565b5b50919050565b7f4e487b7100000000000000000000000000000000000000000000000000000000600052602260045260246000fd5b61345a80620001dd6000396000f3fe608060405234801561001057600080fd5b50600436106101215760003560e01c806361ec30c4116100ad578063a22cb46511610071578063a22cb4651461033e578063b88d4fde1461035a578063c87b56dd14610376578063e985e9c5146103a6578063eed8cc35146103d657610121565b806361ec30c4146102745780636352211e146102a457806370a08231146102d4578063805748341461030457806395d89b411461032057610121565b806323b872dd116100f457806323b872dd146101c05780632cba83d1146101dc57806342842e0e146101f857806346b145e11461021457806357991d301461024457610121565b806301ffc9a71461012657806306fdde0314610156578063081812fc14610174578063095ea7b3146101a4575b600080fd5b610140600480360381019061013b9190612467565b610406565b60405161014d9190612a51565b60405180910390f35b61015e6104e8565b60405161016b9190612a6c565b60405180910390f35b61018e6004803603810190610189919061257d565b61057a565b60405161019b9190612968565b60405180910390f35b6101be60048036038101906101b9919061242b565b6105c0565b005b6101da60048036038101906101d59190612293565b6106d8565b005b6101f660048036038101906101f19190612511565b610731565b005b610212600480360381019061020d9190612293565b610844565b005b61022e600480360381019061022991906124b9565b610864565b60405161023b9190612c6e565b60405180910390f35b61025e6004803603810190610259919061257d565b61093b565b60405161026b9190612a2f565b60405180910390f35b61028e6004803603810190610289919061257d565b6109a6565b60405161029b9190612968565b60405180910390f35b6102be60048036038101906102b9919061257d565b6109d9565b6040516102cb9190612968565b60405180910390f35b6102ee60048036038101906102e9919061222e565b610a60565b6040516102fb9190612c6e565b60405180910390f35b61031e6004803603810190610319919061235d565b610b18565b005b610328610ccc565b6040516103359190612a6c565b60405180910390f35b610358600480360381019061035391906123ef565b610d5e565b005b610374600480360381019061036f91906122e2565b610d74565b005b610390600480360381019061038b919061257d565b610dd6565b60405161039d9190612a6c565b60405180910390f35b6103c060048036038101906103bb9190612257565b610ee9565b6040516103cd9190612a51565b60405180910390f35b6103f060048036038101906103eb91906125a6565b610f7d565b6040516103fd9190612c6e565b60405180910390f35b60007f80ac58cd000000000000000000000000000000000000000000000000000000007bffffffffffffffffffffffffffffffffffffffffffffffffffffffff1916827bffffffffffffffffffffffffffffffffffffffffffffffffffffffff191614806104d157507f5b5e139f000000000000000000000000000000000000000000000000000000007bffffffffffffffffffffffffffffffffffffffffffffffffffffffff1916827bffffffffffffffffffffffffffffffffffffffffffffffffffffffff1916145b806104e157506104e082610fae565b5b9050919050565b6060600080546104f790612e9b565b80601f016020809104026020016040519081016040528092919081815260200182805461052390612e9b565b80156105705780601f1061054557610100808354040283529160200191610570565b820191906000526020600020905b81548152906001019060200180831161055357829003601f168201915b5050505050905090565b600061058582611018565b6004600083815260200190815260200160002060009054906101000a900473ffffffffffffffffffffffffffffffffffffffff169050919050565b60006105cb826109d9565b90508073ffffffffffffffffffffffffffffffffffffffff168373ffffffffffffffffffffffffffffffffffffffff16141561063c576040517f08c379a000000000000000000000000000000000000000000000000000000000815260040161063390612bee565b60405180910390fd5b8073ffffffffffffffffffffffffffffffffffffffff1661065b611063565b73ffffffffffffffffffffffffffffffffffffffff16148061068a575061068981610684611063565b610ee9565b5b6106c9576040517f08c379a00000000000000000000000000000000000000000000000000000000081526004016106c090612c0e565b60405180910390fd5b6106d3838361106b565b505050565b6106e28382611124565b610721576040517f08c379a000000000000000000000000000000000000000000000000000000000815260040161071890612c2e565b60405180910390fd5b61072c8383836111b9565b505050565b600061073d60086114b3565b905061074960086114c1565b60005b83811015610803576000610761878786610864565b90506009600084815260200190815260200160002081908060018154018082558091505060019003906000526020600020016000909190919091505533600a600085815260200190815260200160002060006101000a81548173ffffffffffffffffffffffffffffffffffffffff021916908373ffffffffffffffffffffffffffffffffffffffff1602179055505080806107fb90612efe565b91505061074c565b507fb9144c96c86541f6fa89c9f2f02495cccf4b08cd6643e26d34ee00aa586558a83382604051610835929190612a06565b60405180910390a15050505050565b61085f83838360405180602001604052806000815250610d74565b505050565b6000808210158015610877575060018211155b6108b6576040517f08c379a00000000000000000000000000000000000000000000000000000000081526004016108ad90612bae565b60405180910390fd5b60006108c260076114b3565b90506108ce60076114c1565b6108d830826114d7565b60008314156109305761092f8186868080601f016020809104026020016040519081016040528093929190818152602001838380828437600081840152601f19601f820116905080830192505050505050506116f5565b5b809150509392505050565b60606009600083815260200190815260200160002080548060200260200160405190810160405280929190818152602001828054801561099a57602002820191906000526020600020905b815481526020019060010190808311610986575b50505050509050919050565b600a6020528060005260406000206000915054906101000a900473ffffffffffffffffffffffffffffffffffffffff1681565b6000806109e583611769565b9050600073ffffffffffffffffffffffffffffffffffffffff168173ffffffffffffffffffffffffffffffffffffffff161415610a57576040517f08c379a0000000000000000000000000000000000000000000000000000000008152600401610a4e90612bce565b60405180910390fd5b80915050919050565b60008073ffffffffffffffffffffffffffffffffffffffff168273ffffffffffffffffffffffffffffffffffffffff161415610ad1576040517f08c379a0000000000000000000000000000000000000000000000000000000008152600401610ac890612b4e565b60405180910390fd5b600360008373ffffffffffffffffffffffffffffffffffffffff1673ffffffffffffffffffffffffffffffffffffffff168152602001908152602001600020549050919050565b60008110158015610b2a575060018111155b610b69576040517f08c379a0000000000000000000000000000000000000000000000000000000008152600401610b6090612bae565b60405180910390fd5b60011515600b600086815260200190815260200160002060009054906101000a900460ff1615151415610bd1576040517f08c379a0000000000000000000000000000000000000000000000000000000008152600401610bc890612c4e565b60405180910390fd5b6001811415610c2957610c288484848080601f016020809104026020016040519081016040528093929190818152602001838380828437600081840152601f19601f820116905080830192505050505050506116f5565b5b3073ffffffffffffffffffffffffffffffffffffffff166323b872dd8787876040518463ffffffff1660e01b8152600401610c6693929190612983565b600060405180830381600087803b158015610c8057600080fd5b505af1158015610c94573d6000803e3d6000fd5b505050506001600b600086815260200190815260200160002060006101000a81548160ff021916908315150217905550505050505050565b606060018054610cdb90612e9b565b80601f0160208091040260200160405190810160405280929190818152602001828054610d0790612e9b565b8015610d545780601f10610d2957610100808354040283529160200191610d54565b820191906000526020600020905b815481529060010190602001808311610d3757829003601f168201915b5050505050905090565b610d70610d69611063565b83836117a6565b5050565b610d85610d7f611063565b83611124565b610dc4576040517f08c379a0000000000000000000000000000000000000000000000000000000008152600401610dbb90612a8e565b60405180910390fd5b610dd084848484611913565b50505050565b6060610de182611018565b6000600660008481526020019081526020016000208054610e0190612e9b565b80601f0160208091040260200160405190810160405280929190818152602001828054610e2d90612e9b565b8015610e7a5780601f10610e4f57610100808354040283529160200191610e7a565b820191906000526020600020905b815481529060010190602001808311610e5d57829003601f168201915b505050505090506000610e8b61196f565b9050600081511415610ea1578192505050610ee4565b600082511115610ed6578082604051602001610ebe929190612944565b60405160208183030381529060405292505050610ee4565b610edf84611986565b925050505b919050565b6000600560008473ffffffffffffffffffffffffffffffffffffffff1673ffffffffffffffffffffffffffffffffffffffff16815260200190815260200160002060008373ffffffffffffffffffffffffffffffffffffffff1673ffffffffffffffffffffffffffffffffffffffff16815260200190815260200160002060009054906101000a900460ff16905092915050565b60096020528160005260406000208181548110610f9957600080fd5b90600052602060002001600091509150505481565b60007f01ffc9a7000000000000000000000000000000000000000000000000000000007bffffffffffffffffffffffffffffffffffffffffffffffffffffffff1916827bffffffffffffffffffffffffffffffffffffffffffffffffffffffff1916149050919050565b611021816119ee565b611060576040517f08c379a000000000000000000000000000000000000000000000000000000000815260040161105790612bce565b60405180910390fd5b50565b600033905090565b816004600083815260200190815260200160002060006101000a81548173ffffffffffffffffffffffffffffffffffffffff021916908373ffffffffffffffffffffffffffffffffffffffff160217905550808273ffffffffffffffffffffffffffffffffffffffff166110de836109d9565b73ffffffffffffffffffffffffffffffffffffffff167f8c5be1e5ebec7d5bd14f71427d1e84f3dd0314c0f7b2291e5b200ac8c7c3b92560405160405180910390a45050565b600080611130836109d9565b90508073ffffffffffffffffffffffffffffffffffffffff168473ffffffffffffffffffffffffffffffffffffffff16148061117257506111718185610ee9565b5b806111b057508373ffffffffffffffffffffffffffffffffffffffff166111988461057a565b73ffffffffffffffffffffffffffffffffffffffff16145b91505092915050565b8273ffffffffffffffffffffffffffffffffffffffff166111d9826109d9565b73ffffffffffffffffffffffffffffffffffffffff161461122f576040517f08c379a000000000000000000000000000000000000000000000000000000000815260040161122690612ace565b60405180910390fd5b600073ffffffffffffffffffffffffffffffffffffffff168273ffffffffffffffffffffffffffffffffffffffff16141561129f576040517f08c379a000000000000000000000000000000000000000000000000000000000815260040161129690612b0e565b60405180910390fd5b6112ac8383836001611a2f565b8273ffffffffffffffffffffffffffffffffffffffff166112cc826109d9565b73ffffffffffffffffffffffffffffffffffffffff1614611322576040517f08c379a000000000000000000000000000000000000000000000000000000000815260040161131990612ace565b60405180910390fd5b6004600082815260200190815260200160002060006101000a81549073ffffffffffffffffffffffffffffffffffffffff02191690556001600360008573ffffffffffffffffffffffffffffffffffffffff1673ffffffffffffffffffffffffffffffffffffffff168152602001908152602001600020600082825403925050819055506001600360008473ffffffffffffffffffffffffffffffffffffffff1673ffffffffffffffffffffffffffffffffffffffff16815260200190815260200160002060008282540192505081905550816002600083815260200190815260200160002060006101000a81548173ffffffffffffffffffffffffffffffffffffffff021916908373ffffffffffffffffffffffffffffffffffffffff160217905550808273ffffffffffffffffffffffffffffffffffffffff168473ffffffffffffffffffffffffffffffffffffffff167fddf252ad1be2c89b69c2b068fc378daa952ba7f163c4a11628f55a4df523b3ef60405160405180910390a46114ae8383836001611b55565b505050565b600081600001549050919050565b6001816000016000828254019250508190555050565b600073ffffffffffffffffffffffffffffffffffffffff168273ffffffffffffffffffffffffffffffffffffffff161415611547576040517f08c379a000000000000000000000000000000000000000000000000000000000815260040161153e90612b8e565b60405180910390fd5b611550816119ee565b15611590576040517f08c379a000000000000000000000000000000000000000000000000000000000815260040161158790612aee565b60405180910390fd5b61159e600083836001611a2f565b6115a7816119ee565b156115e7576040517f08c379a00000000000000000000000000000000000000000000000000000000081526004016115de90612aee565b60405180910390fd5b6001600360008473ffffffffffffffffffffffffffffffffffffffff1673ffffffffffffffffffffffffffffffffffffffff16815260200190815260200160002060008282540192505081905550816002600083815260200190815260200160002060006101000a81548173ffffffffffffffffffffffffffffffffffffffff021916908373ffffffffffffffffffffffffffffffffffffffff160217905550808273ffffffffffffffffffffffffffffffffffffffff16600073ffffffffffffffffffffffffffffffffffffffff167fddf252ad1be2c89b69c2b068fc378daa952ba7f163c4a11628f55a4df523b3ef60405160405180910390a46116f1600083836001611b55565b5050565b6116fe826119ee565b61173d576040517f08c379a000000000000000000000000000000000000000000000000000000000815260040161173490612b6e565b60405180910390fd5b80600660008481526020019081526020016000209080519060200190611764929190612070565b505050565b60006002600083815260200190815260200160002060009054906101000a900473ffffffffffffffffffffffffffffffffffffffff169050919050565b8173ffffffffffffffffffffffffffffffffffffffff168373ffffffffffffffffffffffffffffffffffffffff161415611815576040517f08c379a000000000000000000000000000000000000000000000000000000000815260040161180c90612b2e565b60405180910390fd5b80600560008573ffffffffffffffffffffffffffffffffffffffff1673ffffffffffffffffffffffffffffffffffffffff16815260200190815260200160002060008473ffffffffffffffffffffffffffffffffffffffff1673ffffffffffffffffffffffffffffffffffffffff16815260200190815260200160002060006101000a81548160ff0219169083151502179055508173ffffffffffffffffffffffffffffffffffffffff168373ffffffffffffffffffffffffffffffffffffffff167f17307eab39ab6107e8899845ad3d59bd9653f200f220920489ca2b5937696c31836040516119069190612a51565b60405180910390a3505050565b61191e8484846111b9565b61192a84848484611b5b565b611969576040517f08c379a000000000000000000000000000000000000000000000000000000000815260040161196090612aae565b60405180910390fd5b50505050565b606060405180602001604052806000815250905090565b606061199182611018565b600061199b61196f565b905060008151116119bb57604051806020016040528060008152506119e6565b806119c584611cf2565b6040516020016119d6929190612944565b6040516020818303038152906040525b915050919050565b60008073ffffffffffffffffffffffffffffffffffffffff16611a1083611769565b73ffffffffffffffffffffffffffffffffffffffff1614159050919050565b6001811115611b4f57600073ffffffffffffffffffffffffffffffffffffffff168473ffffffffffffffffffffffffffffffffffffffff1614611ac35780600360008673ffffffffffffffffffffffffffffffffffffffff1673ffffffffffffffffffffffffffffffffffffffff1681526020019081526020016000206000828254611abb9190612db1565b925050819055505b600073ffffffffffffffffffffffffffffffffffffffff168373ffffffffffffffffffffffffffffffffffffffff1614611b4e5780600360008573ffffffffffffffffffffffffffffffffffffffff1673ffffffffffffffffffffffffffffffffffffffff1681526020019081526020016000206000828254611b469190612d5b565b925050819055505b5b50505050565b50505050565b6000611b7c8473ffffffffffffffffffffffffffffffffffffffff16611e16565b15611ce5578373ffffffffffffffffffffffffffffffffffffffff1663150b7a02611ba5611063565b8786866040518563ffffffff1660e01b8152600401611bc794939291906129ba565b602060405180830381600087803b158015611be157600080fd5b505af1925050508015611c1257506040513d601f19601f82011682018060405250810190611c0f9190612490565b60015b611c95573d8060008114611c42576040519150601f19603f3d011682016040523d82523d6000602084013e611c47565b606091505b50600081511415611c8d576040517f08c379a0000000000000000000000000000000000000000000000000000000008152600401611c8490612aae565b60405180910390fd5b805181602001fd5b63150b7a0260e01b7bffffffffffffffffffffffffffffffffffffffffffffffffffffffff1916817bffffffffffffffffffffffffffffffffffffffffffffffffffffffff191614915050611cea565b600190505b949350505050565b606060006001611d0184611e39565b01905060008167ffffffffffffffff811115611d46577f4e487b7100000000000000000000000000000000000000000000000000000000600052604160045260246000fd5b6040519080825280601f01601f191660200182016040528015611d785781602001600182028036833780820191505090505b509050600082602001820190505b600115611e0b578080600190039150507f3031323334353637383961626364656600000000000000000000000000000000600a86061a8153600a8581611df5577f4e487b7100000000000000000000000000000000000000000000000000000000600052601260045260246000fd5b0494506000851415611e0657611e0b565b611d86565b819350505050919050565b6000808273ffffffffffffffffffffffffffffffffffffffff163b119050919050565b600080600090507a184f03e93ff9f4daa797ed6e38ed64bf6a1f0100000000000000008310611ebd577a184f03e93ff9f4daa797ed6e38ed64bf6a1f0100000000000000008381611eb3577f4e487b7100000000000000000000000000000000000000000000000000000000600052601260045260246000fd5b0492506040810190505b6d04ee2d6d415b85acef81000000008310611f20576d04ee2d6d415b85acef81000000008381611f16577f4e487b7100000000000000000000000000000000000000000000000000000000600052601260045260246000fd5b0492506020810190505b662386f26fc100008310611f7557662386f26fc100008381611f6b577f4e487b7100000000000000000000000000000000000000000000000000000000600052601260045260246000fd5b0492506010810190505b6305f5e1008310611fc4576305f5e1008381611fba577f4e487b7100000000000000000000000000000000000000000000000000000000600052601260045260246000fd5b0492506008810190505b612710831061200f576127108381612005577f4e487b7100000000000000000000000000000000000000000000000000000000600052601260045260246000fd5b0492506004810190505b60648310612058576064838161204e577f4e487b7100000000000000000000000000000000000000000000000000000000600052601260045260246000fd5b0492506002810190505b600a8310612067576001810190505b80915050919050565b82805461207c90612e9b565b90600052602060002090601f01602090048101928261209e57600085556120e5565b82601f106120b757805160ff19168380011785556120e5565b828001600101855582156120e5579182015b828111156120e45782518255916020019190600101906120c9565b5b5090506120f291906120f6565b5090565b5b8082111561210f5760008160009055506001016120f7565b5090565b600061212661212184612cae565b612c89565b90508281526020810184848401111561213e57600080fd5b612149848285612e59565b509392505050565b600081359050612160816133c8565b92915050565b600081359050612175816133df565b92915050565b60008135905061218a816133f6565b92915050565b60008151905061219f816133f6565b92915050565b600082601f8301126121b657600080fd5b81356121c6848260208601612113565b91505092915050565b60008083601f8401126121e157600080fd5b8235905067ffffffffffffffff8111156121fa57600080fd5b60208301915083600182028301111561221257600080fd5b9250929050565b6000813590506122288161340d565b92915050565b60006020828403121561224057600080fd5b600061224e84828501612151565b91505092915050565b6000806040838503121561226a57600080fd5b600061227885828601612151565b925050602061228985828601612151565b9150509250929050565b6000806000606084860312156122a857600080fd5b60006122b686828701612151565b93505060206122c786828701612151565b92505060406122d886828701612219565b9150509250925092565b600080600080608085870312156122f857600080fd5b600061230687828801612151565b945050602061231787828801612151565b935050604061232887828801612219565b925050606085013567ffffffffffffffff81111561234557600080fd5b612351878288016121a5565b91505092959194509250565b60008060008060008060a0878903121561237657600080fd5b600061238489828a01612151565b965050602061239589828a01612151565b95505060406123a689828a01612219565b945050606087013567ffffffffffffffff8111156123c357600080fd5b6123cf89828a016121cf565b935093505060806123e289828a01612219565b9150509295509295509295565b6000806040838503121561240257600080fd5b600061241085828601612151565b925050602061242185828601612166565b9150509250929050565b6000806040838503121561243e57600080fd5b600061244c85828601612151565b925050602061245d85828601612219565b9150509250929050565b60006020828403121561247957600080fd5b60006124878482850161217b565b91505092915050565b6000602082840312156124a257600080fd5b60006124b084828501612190565b91505092915050565b6000806000604084860312156124ce57600080fd5b600084013567ffffffffffffffff8111156124e857600080fd5b6124f4868287016121cf565b9350935050602061250786828701612219565b9150509250925092565b6000806000806060858703121561252757600080fd5b600085013567ffffffffffffffff81111561254157600080fd5b61254d878288016121cf565b9450945050602061256087828801612219565b925050604061257187828801612219565b91505092959194509250565b60006020828403121561258f57600080fd5b600061259d84828501612219565b91505092915050565b600080604083850312156125b957600080fd5b60006125c785828601612219565b92505060206125d885828601612219565b9150509250929050565b60006125ee8383612926565b60208301905092915050565b61260381612de5565b82525050565b600061261482612cef565b61261e8185612d1d565b935061262983612cdf565b8060005b8381101561265a57815161264188826125e2565b975061264c83612d10565b92505060018101905061262d565b5085935050505092915050565b61267081612df7565b82525050565b600061268182612cfa565b61268b8185612d2e565b935061269b818560208601612e68565b6126a481612fd4565b840191505092915050565b60006126ba82612d05565b6126c48185612d3f565b93506126d4818560208601612e68565b6126dd81612fd4565b840191505092915050565b60006126f382612d05565b6126fd8185612d50565b935061270d818560208601612e68565b80840191505092915050565b6000612726602d83612d3f565b915061273182612fe5565b604082019050919050565b6000612749603283612d3f565b915061275482613034565b604082019050919050565b600061276c602583612d3f565b915061277782613083565b604082019050919050565b600061278f601c83612d3f565b915061279a826130d2565b602082019050919050565b60006127b2602483612d3f565b91506127bd826130fb565b604082019050919050565b60006127d5601983612d3f565b91506127e08261314a565b602082019050919050565b60006127f8602983612d3f565b915061280382613173565b604082019050919050565b600061281b602e83612d3f565b9150612826826131c2565b604082019050919050565b600061283e602083612d3f565b915061284982613211565b602082019050919050565b6000612861600d83612d3f565b915061286c8261323a565b602082019050919050565b6000612884601883612d3f565b915061288f82613263565b602082019050919050565b60006128a7602183612d3f565b91506128b28261328c565b604082019050919050565b60006128ca603d83612d3f565b91506128d5826132db565b604082019050919050565b60006128ed603183612d3f565b91506128f88261332a565b604082019050919050565b6000612910602283612d3f565b915061291b82613379565b604082019050919050565b61292f81612e4f565b82525050565b61293e81612e4f565b82525050565b600061295082856126e8565b915061295c82846126e8565b91508190509392505050565b600060208201905061297d60008301846125fa565b92915050565b600060608201905061299860008301866125fa565b6129a560208301856125fa565b6129b26040830184612935565b949350505050565b60006080820190506129cf60008301876125fa565b6129dc60208301866125fa565b6129e96040830185612935565b81810360608301526129fb8184612676565b905095945050505050565b6000604082019050612a1b60008301856125fa565b612a286020830184612935565b9392505050565b60006020820190508181036000830152612a498184612609565b905092915050565b6000602082019050612a666000830184612667565b92915050565b60006020820190508181036000830152612a8681846126af565b905092915050565b60006020820190508181036000830152612aa781612719565b9050919050565b60006020820190508181036000830152612ac78161273c565b9050919050565b60006020820190508181036000830152612ae78161275f565b9050919050565b60006020820190508181036000830152612b0781612782565b9050919050565b60006020820190508181036000830152612b27816127a5565b9050919050565b60006020820190508181036000830152612b47816127c8565b9050919050565b60006020820190508181036000830152612b67816127eb565b9050919050565b60006020820190508181036000830152612b878161280e565b9050919050565b60006020820190508181036000830152612ba781612831565b9050919050565b60006020820190508181036000830152612bc781612854565b9050919050565b60006020820190508181036000830152612be781612877565b9050919050565b60006020820190508181036000830152612c078161289a565b9050919050565b60006020820190508181036000830152612c27816128bd565b9050919050565b60006020820190508181036000830152612c47816128e0565b9050919050565b60006020820190508181036000830152612c6781612903565b9050919050565b6000602082019050612c836000830184612935565b92915050565b6000612c93612ca4565b9050612c9f8282612ecd565b919050565b6000604051905090565b600067ffffffffffffffff821115612cc957612cc8612fa5565b5b612cd282612fd4565b9050602081019050919050565b6000819050602082019050919050565b600081519050919050565b600081519050919050565b600081519050919050565b6000602082019050919050565b600082825260208201905092915050565b600082825260208201905092915050565b600082825260208201905092915050565b600081905092915050565b6000612d6682612e4f565b9150612d7183612e4f565b9250827fffffffffffffffffffffffffffffffffffffffffffffffffffffffffffffffff03821115612da657612da5612f47565b5b828201905092915050565b6000612dbc82612e4f565b9150612dc783612e4f565b925082821015612dda57612dd9612f47565b5b828203905092915050565b6000612df082612e2f565b9050919050565b60008115159050919050565b60007fffffffff0000000000000000000000000000000000000000000000000000000082169050919050565b600073ffffffffffffffffffffffffffffffffffffffff82169050919050565b6000819050919050565b82818337600083830152505050565b60005b83811015612e86578082015181840152602081019050612e6b565b83811115612e95576000848401525b50505050565b60006002820490506001821680612eb357607f821691505b60208210811415612ec757612ec6612f76565b5b50919050565b612ed682612fd4565b810181811067ffffffffffffffff82111715612ef557612ef4612fa5565b5b80604052505050565b6000612f0982612e4f565b91507fffffffffffffffffffffffffffffffffffffffffffffffffffffffffffffffff821415612f3c57612f3b612f47565b5b600182019050919050565b7f4e487b7100000000000000000000000000000000000000000000000000000000600052601160045260246000fd5b7f4e487b7100000000000000000000000000000000000000000000000000000000600052602260045260246000fd5b7f4e487b7100000000000000000000000000000000000000000000000000000000600052604160045260246000fd5b6000601f19601f8301169050919050565b7f4552433732313a2063616c6c6572206973206e6f7420746f6b656e206f776e6560008201527f72206f7220617070726f76656400000000000000000000000000000000000000602082015250565b7f4552433732313a207472616e7366657220746f206e6f6e20455243373231526560008201527f63656976657220696d706c656d656e7465720000000000000000000000000000602082015250565b7f4552433732313a207472616e736665722066726f6d20696e636f72726563742060008201527f6f776e6572000000000000000000000000000000000000000000000000000000602082015250565b7f4552433732313a20746f6b656e20616c7265616479206d696e74656400000000600082015250565b7f4552433732313a207472616e7366657220746f20746865207a65726f2061646460008201527f7265737300000000000000000000000000000000000000000000000000000000602082015250565b7f4552433732313a20617070726f766520746f2063616c6c657200000000000000600082015250565b7f4552433732313a2061646472657373207a65726f206973206e6f74206120766160008201527f6c6964206f776e65720000000000000000000000000000000000000000000000602082015250565b7f45524337323155524953746f726167653a2055524920736574206f66206e6f6e60008201527f6578697374656e7420746f6b656e000000000000000000000000000000000000602082015250565b7f4552433732313a206d696e7420746f20746865207a65726f2061646472657373600082015250565b7f496e76616c69642076616c756500000000000000000000000000000000000000600082015250565b7f4552433732313a20696e76616c696420746f6b656e2049440000000000000000600082015250565b7f4552433732313a20617070726f76616c20746f2063757272656e74206f776e6560008201527f7200000000000000000000000000000000000000000000000000000000000000602082015250565b7f4552433732313a20617070726f76652063616c6c6572206973206e6f7420746f60008201527f6b656e206f776e6572206f7220617070726f76656420666f7220616c6c000000602082015250565b7f4552433732313a207472616e736665722063616c6c6572206973206e6f74206f60008201527f776e6572206e6f7220617070726f766564000000000000000000000000000000602082015250565b7f5468697320746f6b656e2063616e206e6f74206265207472616e73666572726560008201527f6421000000000000000000000000000000000000000000000000000000000000602082015250565b6133d181612de5565b81146133dc57600080fd5b50565b6133e881612df7565b81146133f357600080fd5b50565b6133ff81612e03565b811461340a57600080fd5b50565b61341681612e4f565b811461342157600080fd5b5056fea2646970667358221220ec06dce13e95eeedcd1f1c0c3439b12d7635513a002d47966f0356ebbd14108a64736f6c63430008040033",
  "linkReferences": {},
  "deployedLinkReferences": {}
}