{
  "_format": "hh-sol-artifact-1",
  "contractName": "TrustifiedNonTransferable",
  "sourceName": "contracts/v2/TrustifiedNonTransferable.sol",
  "abi": [
    {
      "inputs": [],
      "stateMutability": "nonpayable",
      "type": "constructor"
    },
    {
      "anonymous": false,
      "inputs": [
        {
          "indexed": true,
          "internalType": "address",
          "name": "owner",
          "type": "address"
        },
        {
          "indexed": true,
          "internalType": "address",
          "name": "approved",
          "type": "address"
        },
        {
          "indexed": true,
          "internalType": "uint256",
          "name": "tokenId",
          "type": "uint256"
        }
      ],
      "name": "Approval",
      "type": "event"
    },
    {
      "anonymous": false,
      "inputs": [
        {
          "indexed": true,
          "internalType": "address",
          "name": "owner",
          "type": "address"
        },
        {
          "indexed": true,
          "internalType": "address",
          "name": "operator",
          "type": "address"
        },
        {
          "indexed": false,
          "internalType": "bool",
          "name": "approved",
          "type": "bool"
        }
      ],
      "name": "ApprovalForAll",
      "type": "event"
    },
    {
      "anonymous": false,
      "inputs": [
        {
          "indexed": true,
          "internalType": "uint256",
          "name": "eventId",
          "type": "uint256"
        },
        {
          "indexed": false,
          "internalType": "uint256[]",
          "name": "tokenIds",
          "type": "uint256[]"
        },
        {
          "indexed": true,
          "internalType": "address",
          "name": "issuer",
          "type": "address"
        }
      ],
      "name": "TokensMinted",
      "type": "event"
    },
    {
      "anonymous": false,
      "inputs": [
        {
          "indexed": true,
          "internalType": "address",
          "name": "from",
          "type": "address"
        },
        {
          "indexed": true,
          "internalType": "address",
          "name": "to",
          "type": "address"
        },
        {
          "indexed": true,
          "internalType": "uint256",
          "name": "tokenId",
          "type": "uint256"
        }
      ],
      "name": "Transfer",
      "type": "event"
    },
    {
      "inputs": [
        {
          "internalType": "address",
          "name": "to",
          "type": "address"
        },
        {
          "internalType": "uint256",
          "name": "tokenId",
          "type": "uint256"
        }
      ],
      "name": "approve",
      "outputs": [],
      "stateMutability": "nonpayable",
      "type": "function"
    },
    {
      "inputs": [
        {
          "internalType": "address",
          "name": "owner",
          "type": "address"
        }
      ],
      "name": "balanceOf",
      "outputs": [
        {
          "internalType": "uint256",
          "name": "",
          "type": "uint256"
        }
      ],
      "stateMutability": "view",
      "type": "function"
    },
    {
      "inputs": [
        {
          "internalType": "string",
          "name": "tokenUri",
          "type": "string"
        },
        {
          "internalType": "uint256",
          "name": "quantity",
          "type": "uint256"
        },
        {
          "internalType": "uint256",
          "name": "value",
          "type": "uint256"
        },
        {
          "internalType": "uint256",
          "name": "price",
          "type": "uint256"
        }
      ],
      "name": "bulkMintERC721",
      "outputs": [],
      "stateMutability": "payable",
      "type": "function"
    },
    {
      "inputs": [],
      "name": "claimFees",
      "outputs": [
        {
          "internalType": "uint256",
          "name": "",
          "type": "uint256"
        }
      ],
      "stateMutability": "view",
      "type": "function"
    },
    {
      "inputs": [
        {
          "internalType": "uint256",
          "name": "tokenId",
          "type": "uint256"
        }
      ],
      "name": "claimRoyality",
      "outputs": [],
      "stateMutability": "payable",
      "type": "function"
    },
    {
      "inputs": [],
      "name": "creationFees",
      "outputs": [
        {
          "internalType": "uint256",
          "name": "",
          "type": "uint256"
        }
      ],
      "stateMutability": "view",
      "type": "function"
    },
    {
      "inputs": [
        {
          "internalType": "uint256",
          "name": "tokenId",
          "type": "uint256"
        }
      ],
      "name": "getApproved",
      "outputs": [
        {
          "internalType": "address",
          "name": "",
          "type": "address"
        }
      ],
      "stateMutability": "view",
      "type": "function"
    },
    {
      "inputs": [
        {
          "internalType": "address",
          "name": "owner",
          "type": "address"
        },
        {
          "internalType": "address",
          "name": "operator",
          "type": "address"
        }
      ],
      "name": "isApprovedForAll",
      "outputs": [
        {
          "internalType": "bool",
          "name": "",
          "type": "bool"
        }
      ],
      "stateMutability": "view",
      "type": "function"
    },
    {
      "inputs": [],
      "name": "name",
      "outputs": [
        {
          "internalType": "string",
          "name": "",
          "type": "string"
        }
      ],
      "stateMutability": "view",
      "type": "function"
    },
    {
      "inputs": [],
      "name": "owner",
      "outputs": [
        {
          "internalType": "address payable",
          "name": "",
          "type": "address"
        }
      ],
      "stateMutability": "view",
      "type": "function"
    },
    {
      "inputs": [
        {
          "internalType": "uint256",
          "name": "tokenId",
          "type": "uint256"
        }
      ],
      "name": "ownerOf",
      "outputs": [
        {
          "internalType": "address",
          "name": "",
          "type": "address"
        }
      ],
      "stateMutability": "view",
      "type": "function"
    },
    {
      "inputs": [
        {
          "internalType": "address",
          "name": "from",
          "type": "address"
        },
        {
          "internalType": "address",
          "name": "to",
          "type": "address"
        },
        {
          "internalType": "uint256",
          "name": "tokenId",
          "type": "uint256"
        }
      ],
      "name": "safeTransferFrom",
      "outputs": [],
      "stateMutability": "nonpayable",
      "type": "function"
    },
    {
      "inputs": [
        {
          "internalType": "address",
          "name": "from",
          "type": "address"
        },
        {
          "internalType": "address",
          "name": "to",
          "type": "address"
        },
        {
          "internalType": "uint256",
          "name": "tokenId",
          "type": "uint256"
        },
        {
          "internalType": "bytes",
          "name": "data",
          "type": "bytes"
        }
      ],
      "name": "safeTransferFrom",
      "outputs": [],
      "stateMutability": "nonpayable",
      "type": "function"
    },
    {
      "inputs": [
        {
          "internalType": "address",
          "name": "operator",
          "type": "address"
        },
        {
          "internalType": "bool",
          "name": "approved",
          "type": "bool"
        }
      ],
      "name": "setApprovalForAll",
      "outputs": [],
      "stateMutability": "nonpayable",
      "type": "function"
    },
    {
      "inputs": [
        {
          "internalType": "uint256",
          "name": "_claimFees",
          "type": "uint256"
        }
      ],
      "name": "setClaimFees",
      "outputs": [],
      "stateMutability": "nonpayable",
      "type": "function"
    },
    {
      "inputs": [
        {
          "internalType": "uint256",
          "name": "_creationFees",
          "type": "uint256"
        }
      ],
      "name": "setCreationFees",
      "outputs": [],
      "stateMutability": "nonpayable",
      "type": "function"
    },
    {
      "inputs": [
        {
          "internalType": "bytes4",
          "name": "interfaceId",
          "type": "bytes4"
        }
      ],
      "name": "supportsInterface",
      "outputs": [
        {
          "internalType": "bool",
          "name": "",
          "type": "bool"
        }
      ],
      "stateMutability": "view",
      "type": "function"
    },
    {
      "inputs": [],
      "name": "symbol",
      "outputs": [
        {
          "internalType": "string",
          "name": "",
          "type": "string"
        }
      ],
      "stateMutability": "view",
      "type": "function"
    },
    {
      "inputs": [
        {
          "internalType": "uint256",
          "name": "tokenId",
          "type": "uint256"
        }
      ],
      "name": "tokenURI",
      "outputs": [
        {
          "internalType": "string",
          "name": "",
          "type": "string"
        }
      ],
      "stateMutability": "view",
      "type": "function"
    },
    {
      "inputs": [
        {
          "internalType": "address",
          "name": "from",
          "type": "address"
        },
        {
          "internalType": "address",
          "name": "to",
          "type": "address"
        },
        {
          "internalType": "uint256",
          "name": "tokenId",
          "type": "uint256"
        }
      ],
      "name": "transferFrom",
      "outputs": [],
      "stateMutability": "nonpayable",
      "type": "function"
    },
    {
      "inputs": [
        {
          "internalType": "address",
          "name": "from",
          "type": "address"
        },
        {
          "internalType": "address",
          "name": "to",
          "type": "address"
        },
        {
          "internalType": "uint256",
          "name": "tokenId",
          "type": "uint256"
        },
        {
          "internalType": "string",
          "name": "tokenURI",
          "type": "string"
        },
        {
          "internalType": "uint256",
          "name": "value",
          "type": "uint256"
        }
      ],
      "name": "transferToken",
      "outputs": [],
      "stateMutability": "payable",
      "type": "function"
    }
  ],
  "bytecode": "0x608060405266038d7ea4c68000600c556014600d553480156200002157600080fd5b506040518060400160405280600b81526020017f54727573746966696564310000000000000000000000000000000000000000008152506040518060400160405280600381526020017f54463100000000000000000000000000000000000000000000000000000000008152508160009080519060200190620000a692919062000111565b508060019080519060200190620000bf92919062000111565b505050600160088190555033600960006101000a81548173ffffffffffffffffffffffffffffffffffffffff021916908373ffffffffffffffffffffffffffffffffffffffff16021790555062000226565b8280546200011f90620001c1565b90600052602060002090601f0160209004810192826200014357600085556200018f565b82601f106200015e57805160ff19168380011785556200018f565b828001600101855582156200018f579182015b828111156200018e57825182559160200191906001019062000171565b5b5090506200019e9190620001a2565b5090565b5b80821115620001bd576000816000905550600101620001a3565b5090565b60006002820490506001821680620001da57607f821691505b60208210811415620001f157620001f0620001f7565b5b50919050565b7f4e487b7100000000000000000000000000000000000000000000000000000000600052602260045260246000fd5b613c7e80620002366000396000f3fe60806040526004361061012a5760003560e01c806373b79cb5116100ab578063aac5e3041161006f578063aac5e304146103d4578063b88d4fde146103f0578063c259a8ec14610419578063c87b56dd14610442578063d294f0931461047f578063e985e9c5146104aa5761012a565b806373b79cb51461030e57806380574834146103395780638da5cb5b1461035557806395d89b4114610380578063a22cb465146103ab5761012a565b806323b872dd116100f257806323b872dd146102265780633da51af51461024f57806342842e0e1461026b5780636352211e1461029457806370a08231146102d15761012a565b806301ffc9a71461012f57806306fdde031461016c578063081812fc14610197578063095ea7b3146101d457806322154445146101fd575b600080fd5b34801561013b57600080fd5b506101566004803603810190610151919061298b565b6104e7565b6040516101639190612fb4565b60405180910390f35b34801561017857600080fd5b506101816105c9565b60405161018e9190612fcf565b60405180910390f35b3480156101a357600080fd5b506101be60048036038101906101b99190612a5d565b61065b565b6040516101cb9190612f10565b60405180910390f35b3480156101e057600080fd5b506101fb60048036038101906101f6919061294f565b6106a1565b005b34801561020957600080fd5b50610224600480360381019061021f9190612a5d565b6107b9565b005b34801561023257600080fd5b5061024d600480360381019061024891906127b7565b610897565b005b610269600480360381019061026491906129dd565b6108f7565b005b34801561027757600080fd5b50610292600480360381019061028d91906127b7565b610c42565b005b3480156102a057600080fd5b506102bb60048036038101906102b69190612a5d565b610c62565b6040516102c89190612f10565b60405180910390f35b3480156102dd57600080fd5b506102f860048036038101906102f39190612752565b610ce9565b60405161030591906132b1565b60405180910390f35b34801561031a57600080fd5b50610323610da1565b60405161033091906132b1565b60405180910390f35b610353600480360381019061034e9190612881565b610da7565b005b34801561036157600080fd5b5061036a610f71565b6040516103779190612f2b565b60405180910390f35b34801561038c57600080fd5b50610395610f97565b6040516103a29190612fcf565b60405180910390f35b3480156103b757600080fd5b506103d260048036038101906103cd9190612913565b611029565b005b6103ee60048036038101906103e99190612a5d565b61103f565b005b3480156103fc57600080fd5b5061041760048036038101906104129190612806565b611173565b005b34801561042557600080fd5b50610440600480360381019061043b9190612a5d565b6111d5565b005b34801561044e57600080fd5b5061046960048036038101906104649190612a5d565b61126f565b6040516104769190612fcf565b60405180910390f35b34801561048b57600080fd5b50610494611382565b6040516104a191906132b1565b60405180910390f35b3480156104b657600080fd5b506104d160048036038101906104cc919061277b565b611388565b6040516104de9190612fb4565b60405180910390f35b60007f80ac58cd000000000000000000000000000000000000000000000000000000007bffffffffffffffffffffffffffffffffffffffffffffffffffffffff1916827bffffffffffffffffffffffffffffffffffffffffffffffffffffffff191614806105b257507f5b5e139f000000000000000000000000000000000000000000000000000000007bffffffffffffffffffffffffffffffffffffffffffffffffffffffff1916827bffffffffffffffffffffffffffffffffffffffffffffffffffffffff1916145b806105c257506105c18261141c565b5b9050919050565b6060600080546105d890613525565b80601f016020809104026020016040519081016040528092919081815260200182805461060490613525565b80156106515780601f1061062657610100808354040283529160200191610651565b820191906000526020600020905b81548152906001019060200180831161063457829003601f168201915b5050505050905090565b600061066682611486565b6004600083815260200190815260200160002060009054906101000a900473ffffffffffffffffffffffffffffffffffffffff169050919050565b60006106ac82610c62565b90508073ffffffffffffffffffffffffffffffffffffffff168373ffffffffffffffffffffffffffffffffffffffff16141561071d576040517f08c379a000000000000000000000000000000000000000000000000000000000815260040161071490613211565b60405180910390fd5b8073ffffffffffffffffffffffffffffffffffffffff1661073c6114d1565b73ffffffffffffffffffffffffffffffffffffffff16148061076b575061076a816107656114d1565b611388565b5b6107aa576040517f08c379a00000000000000000000000000000000000000000000000000000000081526004016107a190613231565b60405180910390fd5b6107b483836114d9565b505050565b600960009054906101000a900473ffffffffffffffffffffffffffffffffffffffff1673ffffffffffffffffffffffffffffffffffffffff163373ffffffffffffffffffffffffffffffffffffffff1614610849576040517f08c379a000000000000000000000000000000000000000000000000000000000815260040161084090613271565b60405180910390fd5b606481111561088d576040517f08c379a0000000000000000000000000000000000000000000000000000000008152600401610884906131d1565b60405180910390fd5b80600d8190555050565b6108a86108a26114d1565b82611592565b6108e7576040517f08c379a00000000000000000000000000000000000000000000000000000000081526004016108de90613011565b60405180910390fd5b6108f2838383611627565b505050565b6108ff611921565b60008311610942576040517f08c379a000000000000000000000000000000000000000000000000000000000815260040161093990613111565b60405180910390fd5b60008210158015610954575060018211155b610993576040517f08c379a000000000000000000000000000000000000000000000000000000000815260040161098a906131b1565b60405180910390fd5b600c5434146109d7576040517f08c379a00000000000000000000000000000000000000000000000000000000081526004016109ce90613191565b60405180910390fd5b60006109e3600b611971565b90506109ef600b61197f565b60008467ffffffffffffffff811115610a31577f4e487b7100000000000000000000000000000000000000000000000000000000600052604160045260246000fd5b604051908082528060200260200182016040528015610a5f5781602001602082028036833780820191505090505b50905060005b85811015610b78576000610a7a898988611995565b905060405180606001604052808281526020013373ffffffffffffffffffffffffffffffffffffffff16815260200186815250600e60008381526020019081526020016000206000820151816000015560208201518160010160006101000a81548173ffffffffffffffffffffffffffffffffffffffff021916908373ffffffffffffffffffffffffffffffffffffffff1602179055506040820151816002015590505080838381518110610b58577f4e487b7100000000000000000000000000000000000000000000000000000000600052603260045260246000fd5b602002602001018181525050508080610b7090613588565b915050610a65565b50600960009054906101000a900473ffffffffffffffffffffffffffffffffffffffff1673ffffffffffffffffffffffffffffffffffffffff166108fc349081150290604051600060405180830381858888f19350505050158015610be1573d6000803e3d6000fd5b503373ffffffffffffffffffffffffffffffffffffffff16827f88c55e90330027a4740cd7d2bafb3fc31c21bbaa17745d80b328c53c4916ebf483604051610c299190612f92565b60405180910390a35050610c3b611a61565b5050505050565b610c5d83838360405180602001604052806000815250611173565b505050565b600080610c6e83611a6b565b9050600073ffffffffffffffffffffffffffffffffffffffff168173ffffffffffffffffffffffffffffffffffffffff161415610ce0576040517f08c379a0000000000000000000000000000000000000000000000000000000008152600401610cd7906131f1565b60405180910390fd5b80915050919050565b60008073ffffffffffffffffffffffffffffffffffffffff168273ffffffffffffffffffffffffffffffffffffffff161415610d5a576040517f08c379a0000000000000000000000000000000000000000000000000000000008152600401610d51906130f1565b60405180910390fd5b600360008373ffffffffffffffffffffffffffffffffffffffff1673ffffffffffffffffffffffffffffffffffffffff168152602001908152602001600020549050919050565b600c5481565b610daf611921565b60008110158015610dc1575060018111155b610e00576040517f08c379a0000000000000000000000000000000000000000000000000000000008152600401610df7906131b1565b60405180910390fd5b600e6000858152602001908152602001600020600201543414610e58576040517f08c379a0000000000000000000000000000000000000000000000000000000008152600401610e4f90613151565b60405180910390fd5b6001811415610eb057610eaf8484848080601f016020809104026020016040519081016040528093929190818152602001838380828437600081840152601f19601f82011690508083019250505050505050611aa8565b5b3073ffffffffffffffffffffffffffffffffffffffff168673ffffffffffffffffffffffffffffffffffffffff1614610f4c57610eed3385611592565b610f2c576040517f08c379a0000000000000000000000000000000000000000000000000000000008152600401610f2390613251565b60405180910390fd5b610f3e610f376114d1565b8686611627565b610f478461103f565b610f61565b610f57868686611627565b610f608461103f565b5b610f69611a61565b505050505050565b600960009054906101000a900473ffffffffffffffffffffffffffffffffffffffff1681565b606060018054610fa690613525565b80601f0160208091040260200160405190810160405280929190818152602001828054610fd290613525565b801561101f5780601f10610ff45761010080835404028352916020019161101f565b820191906000526020600020905b81548152906001019060200180831161100257829003601f168201915b5050505050905090565b61103b6110346114d1565b8383611b1c565b5050565b6000349050600061106e6064611060600d5485611c8990919063ffffffff16565b611c9f90919063ffffffff16565b9050600960009054906101000a900473ffffffffffffffffffffffffffffffffffffffff1673ffffffffffffffffffffffffffffffffffffffff166108fc829081150290604051600060405180830381858888f193505050501580156110d8573d6000803e3d6000fd5b5060006110ee8284611cb590919063ffffffff16565b9050600e600085815260200190815260200160002060010160009054906101000a900473ffffffffffffffffffffffffffffffffffffffff1673ffffffffffffffffffffffffffffffffffffffff166108fc829081150290604051600060405180830381858888f1935050505015801561116c573d6000803e3d6000fd5b5050505050565b61118461117e6114d1565b83611592565b6111c3576040517f08c379a00000000000000000000000000000000000000000000000000000000081526004016111ba90613011565b60405180910390fd5b6111cf84848484611ccb565b50505050565b600960009054906101000a900473ffffffffffffffffffffffffffffffffffffffff1673ffffffffffffffffffffffffffffffffffffffff163373ffffffffffffffffffffffffffffffffffffffff1614611265576040517f08c379a000000000000000000000000000000000000000000000000000000000815260040161125c90613271565b60405180910390fd5b80600c8190555050565b606061127a82611486565b600060066000848152602001908152602001600020805461129a90613525565b80601f01602080910402602001604051908101604052809291908181526020018280546112c690613525565b80156113135780601f106112e857610100808354040283529160200191611313565b820191906000526020600020905b8154815290600101906020018083116112f657829003601f168201915b505050505090506000611324611d27565b905060008151141561133a57819250505061137d565b60008251111561136f578082604051602001611357929190612eec565b6040516020818303038152906040529250505061137d565b61137884611d3e565b925050505b919050565b600d5481565b6000600560008473ffffffffffffffffffffffffffffffffffffffff1673ffffffffffffffffffffffffffffffffffffffff16815260200190815260200160002060008373ffffffffffffffffffffffffffffffffffffffff1673ffffffffffffffffffffffffffffffffffffffff16815260200190815260200160002060009054906101000a900460ff16905092915050565b60007f01ffc9a7000000000000000000000000000000000000000000000000000000007bffffffffffffffffffffffffffffffffffffffffffffffffffffffff1916827bffffffffffffffffffffffffffffffffffffffffffffffffffffffff1916149050919050565b61148f81611da6565b6114ce576040517f08c379a00000000000000000000000000000000000000000000000000000000081526004016114c5906131f1565b60405180910390fd5b50565b600033905090565b816004600083815260200190815260200160002060006101000a81548173ffffffffffffffffffffffffffffffffffffffff021916908373ffffffffffffffffffffffffffffffffffffffff160217905550808273ffffffffffffffffffffffffffffffffffffffff1661154c83610c62565b73ffffffffffffffffffffffffffffffffffffffff167f8c5be1e5ebec7d5bd14f71427d1e84f3dd0314c0f7b2291e5b200ac8c7c3b92560405160405180910390a45050565b60008061159e83610c62565b90508073ffffffffffffffffffffffffffffffffffffffff168473ffffffffffffffffffffffffffffffffffffffff1614806115e057506115df8185611388565b5b8061161e57508373ffffffffffffffffffffffffffffffffffffffff166116068461065b565b73ffffffffffffffffffffffffffffffffffffffff16145b91505092915050565b8273ffffffffffffffffffffffffffffffffffffffff1661164782610c62565b73ffffffffffffffffffffffffffffffffffffffff161461169d576040517f08c379a000000000000000000000000000000000000000000000000000000000815260040161169490613051565b60405180910390fd5b600073ffffffffffffffffffffffffffffffffffffffff168273ffffffffffffffffffffffffffffffffffffffff16141561170d576040517f08c379a000000000000000000000000000000000000000000000000000000000815260040161170490613091565b60405180910390fd5b61171a8383836001611de7565b8273ffffffffffffffffffffffffffffffffffffffff1661173a82610c62565b73ffffffffffffffffffffffffffffffffffffffff1614611790576040517f08c379a000000000000000000000000000000000000000000000000000000000815260040161178790613051565b60405180910390fd5b6004600082815260200190815260200160002060006101000a81549073ffffffffffffffffffffffffffffffffffffffff02191690556001600360008573ffffffffffffffffffffffffffffffffffffffff1673ffffffffffffffffffffffffffffffffffffffff168152602001908152602001600020600082825403925050819055506001600360008473ffffffffffffffffffffffffffffffffffffffff1673ffffffffffffffffffffffffffffffffffffffff16815260200190815260200160002060008282540192505081905550816002600083815260200190815260200160002060006101000a81548173ffffffffffffffffffffffffffffffffffffffff021916908373ffffffffffffffffffffffffffffffffffffffff160217905550808273ffffffffffffffffffffffffffffffffffffffff168473ffffffffffffffffffffffffffffffffffffffff167fddf252ad1be2c89b69c2b068fc378daa952ba7f163c4a11628f55a4df523b3ef60405160405180910390a461191c8383836001611e5b565b505050565b60026008541415611967576040517f08c379a000000000000000000000000000000000000000000000000000000000815260040161195e90613291565b60405180910390fd5b6002600881905550565b600081600001549050919050565b6001816000016000828254019250508190555050565b6000806119a2600a611971565b90506119ae600a61197f565b6119b83082611e61565b6000831415611a565760008585905011611a07576040517f08c379a00000000000000000000000000000000000000000000000000000000081526004016119fe906130d1565b60405180910390fd5b611a558186868080601f016020809104026020016040519081016040528093929190818152602001838380828437600081840152601f19601f82011690508083019250505050505050611aa8565b5b809150509392505050565b6001600881905550565b60006002600083815260200190815260200160002060009054906101000a900473ffffffffffffffffffffffffffffffffffffffff169050919050565b611ab182611da6565b611af0576040517f08c379a0000000000000000000000000000000000000000000000000000000008152600401611ae790613131565b60405180910390fd5b80600660008481526020019081526020016000209080519060200190611b17929190612594565b505050565b8173ffffffffffffffffffffffffffffffffffffffff168373ffffffffffffffffffffffffffffffffffffffff161415611b8b576040517f08c379a0000000000000000000000000000000000000000000000000000000008152600401611b82906130b1565b60405180910390fd5b80600560008573ffffffffffffffffffffffffffffffffffffffff1673ffffffffffffffffffffffffffffffffffffffff16815260200190815260200160002060008473ffffffffffffffffffffffffffffffffffffffff1673ffffffffffffffffffffffffffffffffffffffff16815260200190815260200160002060006101000a81548160ff0219169083151502179055508173ffffffffffffffffffffffffffffffffffffffff168373ffffffffffffffffffffffffffffffffffffffff167f17307eab39ab6107e8899845ad3d59bd9653f200f220920489ca2b5937696c3183604051611c7c9190612fb4565b60405180910390a3505050565b60008183611c9791906133cf565b905092915050565b60008183611cad919061339e565b905092915050565b60008183611cc39190613429565b905092915050565b611cd6848484611627565b611ce28484848461207f565b611d21576040517f08c379a0000000000000000000000000000000000000000000000000000000008152600401611d1890613031565b60405180910390fd5b50505050565b606060405180602001604052806000815250905090565b6060611d4982611486565b6000611d53611d27565b90506000815111611d735760405180602001604052806000815250611d9e565b80611d7d84612216565b604051602001611d8e929190612eec565b6040516020818303038152906040525b915050919050565b60008073ffffffffffffffffffffffffffffffffffffffff16611dc883611a6b565b73ffffffffffffffffffffffffffffffffffffffff1614159050919050565b3073ffffffffffffffffffffffffffffffffffffffff168473ffffffffffffffffffffffffffffffffffffffff1614611e55576040517f08c379a0000000000000000000000000000000000000000000000000000000008152600401611e4c90612ff1565b60405180910390fd5b50505050565b50505050565b600073ffffffffffffffffffffffffffffffffffffffff168273ffffffffffffffffffffffffffffffffffffffff161415611ed1576040517f08c379a0000000000000000000000000000000000000000000000000000000008152600401611ec890613171565b60405180910390fd5b611eda81611da6565b15611f1a576040517f08c379a0000000000000000000000000000000000000000000000000000000008152600401611f1190613071565b60405180910390fd5b611f28600083836001611de7565b611f3181611da6565b15611f71576040517f08c379a0000000000000000000000000000000000000000000000000000000008152600401611f6890613071565b60405180910390fd5b6001600360008473ffffffffffffffffffffffffffffffffffffffff1673ffffffffffffffffffffffffffffffffffffffff16815260200190815260200160002060008282540192505081905550816002600083815260200190815260200160002060006101000a81548173ffffffffffffffffffffffffffffffffffffffff021916908373ffffffffffffffffffffffffffffffffffffffff160217905550808273ffffffffffffffffffffffffffffffffffffffff16600073ffffffffffffffffffffffffffffffffffffffff167fddf252ad1be2c89b69c2b068fc378daa952ba7f163c4a11628f55a4df523b3ef60405160405180910390a461207b600083836001611e5b565b5050565b60006120a08473ffffffffffffffffffffffffffffffffffffffff1661233a565b15612209578373ffffffffffffffffffffffffffffffffffffffff1663150b7a026120c96114d1565b8786866040518563ffffffff1660e01b81526004016120eb9493929190612f46565b602060405180830381600087803b15801561210557600080fd5b505af192505050801561213657506040513d601f19601f8201168201806040525081019061213391906129b4565b60015b6121b9573d8060008114612166576040519150601f19603f3d011682016040523d82523d6000602084013e61216b565b606091505b506000815114156121b1576040517f08c379a00000000000000000000000000000000000000000000000000000000081526004016121a890613031565b60405180910390fd5b805181602001fd5b63150b7a0260e01b7bffffffffffffffffffffffffffffffffffffffffffffffffffffffff1916817bffffffffffffffffffffffffffffffffffffffffffffffffffffffff19161491505061220e565b600190505b949350505050565b6060600060016122258461235d565b01905060008167ffffffffffffffff81111561226a577f4e487b7100000000000000000000000000000000000000000000000000000000600052604160045260246000fd5b6040519080825280601f01601f19166020018201604052801561229c5781602001600182028036833780820191505090505b509050600082602001820190505b60011561232f578080600190039150507f3031323334353637383961626364656600000000000000000000000000000000600a86061a8153600a8581612319577f4e487b7100000000000000000000000000000000000000000000000000000000600052601260045260246000fd5b049450600085141561232a5761232f565b6122aa565b819350505050919050565b6000808273ffffffffffffffffffffffffffffffffffffffff163b119050919050565b600080600090507a184f03e93ff9f4daa797ed6e38ed64bf6a1f01000000000000000083106123e1577a184f03e93ff9f4daa797ed6e38ed64bf6a1f01000000000000000083816123d7577f4e487b7100000000000000000000000000000000000000000000000000000000600052601260045260246000fd5b0492506040810190505b6d04ee2d6d415b85acef81000000008310612444576d04ee2d6d415b85acef8100000000838161243a577f4e487b7100000000000000000000000000000000000000000000000000000000600052601260045260246000fd5b0492506020810190505b662386f26fc10000831061249957662386f26fc10000838161248f577f4e487b7100000000000000000000000000000000000000000000000000000000600052601260045260246000fd5b0492506010810190505b6305f5e10083106124e8576305f5e10083816124de577f4e487b7100000000000000000000000000000000000000000000000000000000600052601260045260246000fd5b0492506008810190505b6127108310612533576127108381612529577f4e487b7100000000000000000000000000000000000000000000000000000000600052601260045260246000fd5b0492506004810190505b6064831061257c5760648381612572577f4e487b7100000000000000000000000000000000000000000000000000000000600052601260045260246000fd5b0492506002810190505b600a831061258b576001810190505b80915050919050565b8280546125a090613525565b90600052602060002090601f0160209004810192826125c25760008555612609565b82601f106125db57805160ff1916838001178555612609565b82800160010185558215612609579182015b828111156126085782518255916020019190600101906125ed565b5b509050612616919061261a565b5090565b5b8082111561263357600081600090555060010161261b565b5090565b600061264a612645846132f1565b6132cc565b90508281526020810184848401111561266257600080fd5b61266d8482856134e3565b509392505050565b60008135905061268481613bec565b92915050565b60008135905061269981613c03565b92915050565b6000813590506126ae81613c1a565b92915050565b6000815190506126c381613c1a565b92915050565b600082601f8301126126da57600080fd5b81356126ea848260208601612637565b91505092915050565b60008083601f84011261270557600080fd5b8235905067ffffffffffffffff81111561271e57600080fd5b60208301915083600182028301111561273657600080fd5b9250929050565b60008135905061274c81613c31565b92915050565b60006020828403121561276457600080fd5b600061277284828501612675565b91505092915050565b6000806040838503121561278e57600080fd5b600061279c85828601612675565b92505060206127ad85828601612675565b9150509250929050565b6000806000606084860312156127cc57600080fd5b60006127da86828701612675565b93505060206127eb86828701612675565b92505060406127fc8682870161273d565b9150509250925092565b6000806000806080858703121561281c57600080fd5b600061282a87828801612675565b945050602061283b87828801612675565b935050604061284c8782880161273d565b925050606085013567ffffffffffffffff81111561286957600080fd5b612875878288016126c9565b91505092959194509250565b60008060008060008060a0878903121561289a57600080fd5b60006128a889828a01612675565b96505060206128b989828a01612675565b95505060406128ca89828a0161273d565b945050606087013567ffffffffffffffff8111156128e757600080fd5b6128f389828a016126f3565b9350935050608061290689828a0161273d565b9150509295509295509295565b6000806040838503121561292657600080fd5b600061293485828601612675565b92505060206129458582860161268a565b9150509250929050565b6000806040838503121561296257600080fd5b600061297085828601612675565b92505060206129818582860161273d565b9150509250929050565b60006020828403121561299d57600080fd5b60006129ab8482850161269f565b91505092915050565b6000602082840312156129c657600080fd5b60006129d4848285016126b4565b91505092915050565b6000806000806000608086880312156129f557600080fd5b600086013567ffffffffffffffff811115612a0f57600080fd5b612a1b888289016126f3565b95509550506020612a2e8882890161273d565b9350506040612a3f8882890161273d565b9250506060612a508882890161273d565b9150509295509295909350565b600060208284031215612a6f57600080fd5b6000612a7d8482850161273d565b91505092915050565b6000612a928383612ece565b60208301905092915050565b612aa78161346f565b82525050565b612ab68161345d565b82525050565b6000612ac782613332565b612ad18185613360565b9350612adc83613322565b8060005b83811015612b0d578151612af48882612a86565b9750612aff83613353565b925050600181019050612ae0565b5085935050505092915050565b612b2381613481565b82525050565b6000612b348261333d565b612b3e8185613371565b9350612b4e8185602086016134f2565b612b578161368d565b840191505092915050565b6000612b6d82613348565b612b778185613382565b9350612b878185602086016134f2565b612b908161368d565b840191505092915050565b6000612ba682613348565b612bb08185613393565b9350612bc08185602086016134f2565b80840191505092915050565b6000612bd9601d83613382565b9150612be48261369e565b602082019050919050565b6000612bfc602d83613382565b9150612c07826136c7565b604082019050919050565b6000612c1f603283613382565b9150612c2a82613716565b604082019050919050565b6000612c42602583613382565b9150612c4d82613765565b604082019050919050565b6000612c65601c83613382565b9150612c70826137b4565b602082019050919050565b6000612c88602483613382565b9150612c93826137dd565b604082019050919050565b6000612cab601983613382565b9150612cb68261382c565b602082019050919050565b6000612cce601b83613382565b9150612cd982613855565b602082019050919050565b6000612cf1602983613382565b9150612cfc8261387e565b604082019050919050565b6000612d14601083613382565b9150612d1f826138cd565b602082019050919050565b6000612d37602e83613382565b9150612d42826138f6565b604082019050919050565b6000612d5a602683613382565b9150612d6582613945565b604082019050919050565b6000612d7d602083613382565b9150612d8882613994565b602082019050919050565b6000612da0602583613382565b9150612dab826139bd565b604082019050919050565b6000612dc3600d83613382565b9150612dce82613a0c565b602082019050919050565b6000612de6601483613382565b9150612df182613a35565b602082019050919050565b6000612e09601883613382565b9150612e1482613a5e565b602082019050919050565b6000612e2c602183613382565b9150612e3782613a87565b604082019050919050565b6000612e4f603d83613382565b9150612e5a82613ad6565b604082019050919050565b6000612e72603183613382565b9150612e7d82613b25565b604082019050919050565b6000612e95602f83613382565b9150612ea082613b74565b604082019050919050565b6000612eb8601f83613382565b9150612ec382613bc3565b602082019050919050565b612ed7816134d9565b82525050565b612ee6816134d9565b82525050565b6000612ef88285612b9b565b9150612f048284612b9b565b91508190509392505050565b6000602082019050612f256000830184612aad565b92915050565b6000602082019050612f406000830184612a9e565b92915050565b6000608082019050612f5b6000830187612aad565b612f686020830186612aad565b612f756040830185612edd565b8181036060830152612f878184612b29565b905095945050505050565b60006020820190508181036000830152612fac8184612abc565b905092915050565b6000602082019050612fc96000830184612b1a565b92915050565b60006020820190508181036000830152612fe98184612b62565b905092915050565b6000602082019050818103600083015261300a81612bcc565b9050919050565b6000602082019050818103600083015261302a81612bef565b9050919050565b6000602082019050818103600083015261304a81612c12565b9050919050565b6000602082019050818103600083015261306a81612c35565b9050919050565b6000602082019050818103600083015261308a81612c58565b9050919050565b600060208201905081810360008301526130aa81612c7b565b9050919050565b600060208201905081810360008301526130ca81612c9e565b9050919050565b600060208201905081810360008301526130ea81612cc1565b9050919050565b6000602082019050818103600083015261310a81612ce4565b9050919050565b6000602082019050818103600083015261312a81612d07565b9050919050565b6000602082019050818103600083015261314a81612d2a565b9050919050565b6000602082019050818103600083015261316a81612d4d565b9050919050565b6000602082019050818103600083015261318a81612d70565b9050919050565b600060208201905081810360008301526131aa81612d93565b9050919050565b600060208201905081810360008301526131ca81612db6565b9050919050565b600060208201905081810360008301526131ea81612dd9565b9050919050565b6000602082019050818103600083015261320a81612dfc565b9050919050565b6000602082019050818103600083015261322a81612e1f565b9050919050565b6000602082019050818103600083015261324a81612e42565b9050919050565b6000602082019050818103600083015261326a81612e65565b9050919050565b6000602082019050818103600083015261328a81612e88565b9050919050565b600060208201905081810360008301526132aa81612eab565b9050919050565b60006020820190506132c66000830184612edd565b92915050565b60006132d66132e7565b90506132e28282613557565b919050565b6000604051905090565b600067ffffffffffffffff82111561330c5761330b61365e565b5b6133158261368d565b9050602081019050919050565b6000819050602082019050919050565b600081519050919050565b600081519050919050565b600081519050919050565b6000602082019050919050565b600082825260208201905092915050565b600082825260208201905092915050565b600082825260208201905092915050565b600081905092915050565b60006133a9826134d9565b91506133b4836134d9565b9250826133c4576133c3613600565b5b828204905092915050565b60006133da826134d9565b91506133e5836134d9565b9250817fffffffffffffffffffffffffffffffffffffffffffffffffffffffffffffffff048311821515161561341e5761341d6135d1565b5b828202905092915050565b6000613434826134d9565b915061343f836134d9565b925082821015613452576134516135d1565b5b828203905092915050565b6000613468826134b9565b9050919050565b600061347a826134b9565b9050919050565b60008115159050919050565b60007fffffffff0000000000000000000000000000000000000000000000000000000082169050919050565b600073ffffffffffffffffffffffffffffffffffffffff82169050919050565b6000819050919050565b82818337600083830152505050565b60005b838110156135105780820151818401526020810190506134f5565b8381111561351f576000848401525b50505050565b6000600282049050600182168061353d57607f821691505b602082108114156135515761355061362f565b5b50919050565b6135608261368d565b810181811067ffffffffffffffff8211171561357f5761357e61365e565b5b80604052505050565b6000613593826134d9565b91507fffffffffffffffffffffffffffffffffffffffffffffffffffffffffffffffff8214156135c6576135c56135d1565b5b600182019050919050565b7f4e487b7100000000000000000000000000000000000000000000000000000000600052601160045260246000fd5b7f4e487b7100000000000000000000000000000000000000000000000000000000600052601260045260246000fd5b7f4e487b7100000000000000000000000000000000000000000000000000000000600052602260045260246000fd5b7f4e487b7100000000000000000000000000000000000000000000000000000000600052604160045260246000fd5b6000601f19601f8301169050919050565b7f4e6f7420616c6c6f77656420746f207472616e7366657220746f6b656e000000600082015250565b7f4552433732313a2063616c6c6572206973206e6f7420746f6b656e206f776e6560008201527f72206f7220617070726f76656400000000000000000000000000000000000000602082015250565b7f4552433732313a207472616e7366657220746f206e6f6e20455243373231526560008201527f63656976657220696d706c656d656e7465720000000000000000000000000000602082015250565b7f4552433732313a207472616e736665722066726f6d20696e636f72726563742060008201527f6f776e6572000000000000000000000000000000000000000000000000000000602082015250565b7f4552433732313a20746f6b656e20616c7265616479206d696e74656400000000600082015250565b7f4552433732313a207472616e7366657220746f20746865207a65726f2061646460008201527f7265737300000000000000000000000000000000000000000000000000000000602082015250565b7f4552433732313a20617070726f766520746f2063616c6c657200000000000000600082015250565b7f546f6b656e20555249206d757374206e6f7420626520656d7074790000000000600082015250565b7f4552433732313a2061646472657373207a65726f206973206e6f74206120766160008201527f6c6964206f776e65720000000000000000000000000000000000000000000000602082015250565b7f496e76616c6964207175616e7469747900000000000000000000000000000000600082015250565b7f45524337323155524953746f726167653a2055524920736574206f66206e6f6e60008201527f6578697374656e7420746f6b656e000000000000000000000000000000000000602082015250565b7f416d6f756e74206d75737420626520657175616c20746f207072696365206f6660008201527f20746f6b656e0000000000000000000000000000000000000000000000000000602082015250565b7f4552433732313a206d696e7420746f20746865207a65726f2061646472657373600082015250565b7f416d6f756e74206d75737420626520657175616c20746f206372656174696f6e60008201527f2066656573000000000000000000000000000000000000000000000000000000602082015250565b7f496e76616c69642076616c756500000000000000000000000000000000000000600082015250565b7f496e76616c696420636c61696d20616d6f756e74000000000000000000000000600082015250565b7f4552433732313a20696e76616c696420746f6b656e2049440000000000000000600082015250565b7f4552433732313a20617070726f76616c20746f2063757272656e74206f776e6560008201527f7200000000000000000000000000000000000000000000000000000000000000602082015250565b7f4552433732313a20617070726f76652063616c6c6572206973206e6f7420746f60008201527f6b656e206f776e6572206f7220617070726f76656420666f7220616c6c000000602082015250565b7f4552433732313a207472616e736665722063616c6c6572206973206e6f74206f60008201527f776e6572206e6f7220617070726f766564000000000000000000000000000000602082015250565b7f4f6e6c792074686520636f6e7472616374206f776e65722063616e2063616c6c60008201527f20746869732066756e6374696f6e2e0000000000000000000000000000000000602082015250565b7f5265656e7472616e637947756172643a207265656e7472616e742063616c6c00600082015250565b613bf58161345d565b8114613c0057600080fd5b50565b613c0c81613481565b8114613c1757600080fd5b50565b613c238161348d565b8114613c2e57600080fd5b50565b613c3a816134d9565b8114613c4557600080fd5b5056fea26469706673582212205f84e4b6136497409044dfb82ebe3b07386b6dba08d022783b337362b3608e3f64736f6c63430008040033",
  "linkReferences": {},
  "deployedLinkReferences": {}
}